{
	"ridefair.sol": {
		"ridefair": {
			"abi": [
				{
					"constant": false,
					"inputs": [
						{
							"name": "riderNumber",
							"type": "uint256"
						},
						{
							"name": "arrivalTime",
							"type": "uint256"
						}
					],
					"name": "pickRider",
					"outputs": [],
					"payable": false,
					"stateMutability": "nonpayable",
					"type": "function"
				},
				{
					"constant": false,
					"inputs": [],
					"name": "getWaitingRiders",
					"outputs": [],
					"payable": false,
					"stateMutability": "nonpayable",
					"type": "function"
				},
				{
					"constant": false,
					"inputs": [],
					"name": "userReset",
					"outputs": [],
					"payable": true,
					"stateMutability": "payable",
					"type": "function"
				},
				{
					"constant": false,
					"inputs": [],
					"name": "driveRequest",
					"outputs": [],
					"payable": false,
					"stateMutability": "nonpayable",
					"type": "function"
				},
				{
					"constant": true,
					"inputs": [
						{
							"name": "",
							"type": "uint256"
						}
					],
					"name": "userList",
					"outputs": [
						{
							"name": "",
							"type": "address"
						}
					],
					"payable": false,
					"stateMutability": "view",
					"type": "function"
				},
				{
					"constant": false,
					"inputs": [
						{
							"name": "loc",
							"type": "int256[]"
						}
					],
					"name": "informRider",
					"outputs": [],
					"payable": false,
					"stateMutability": "nonpayable",
					"type": "function"
				},
				{
					"constant": true,
					"inputs": [
						{
							"name": "",
							"type": "address"
						}
					],
					"name": "users",
					"outputs": [
						{
							"name": "isUser",
							"type": "bool"
						},
						{
							"name": "number",
							"type": "uint256"
						},
						{
							"name": "state",
							"type": "uint8"
						},
						{
							"name": "currPairing",
							"type": "address"
						},
						{
							"components": [
								{
									"name": "lat",
									"type": "int256"
								},
								{
									"name": "long",
									"type": "int256"
								}
							],
							"name": "pickup",
							"type": "tuple"
						},
						{
							"components": [
								{
									"name": "lat",
									"type": "int256"
								},
								{
									"name": "long",
									"type": "int256"
								}
							],
							"name": "dropoff",
							"type": "tuple"
						},
						{
							"name": "arrivalTime",
							"type": "uint256"
						},
						{
							"name": "driverArrived",
							"type": "bool"
						},
						{
							"name": "inProgress",
							"type": "bool"
						},
						{
							"name": "escrow",
							"type": "uint256"
						},
						{
							"name": "paid",
							"type": "uint256"
						}
					],
					"payable": false,
					"stateMutability": "view",
					"type": "function"
				},
				{
					"constant": false,
					"inputs": [],
					"name": "payDriver",
					"outputs": [],
					"payable": true,
					"stateMutability": "payable",
					"type": "function"
				},
				{
					"constant": false,
					"inputs": [
						{
							"name": "pick",
							"type": "int256[]"
						},
						{
							"name": "drop",
							"type": "int256[]"
						},
						{
							"name": "tripCost",
							"type": "uint256"
						}
					],
					"name": "rideRequest",
					"outputs": [],
					"payable": false,
					"stateMutability": "nonpayable",
					"type": "function"
				},
				{
					"constant": true,
					"inputs": [],
					"name": "getNumber",
					"outputs": [
						{
							"name": "",
							"type": "int256"
						}
					],
					"payable": false,
					"stateMutability": "view",
					"type": "function"
				},
				{
					"inputs": [],
					"payable": false,
					"stateMutability": "nonpayable",
					"type": "constructor"
				},
				{
					"anonymous": false,
					"inputs": [
						{
							"indexed": false,
							"name": "riderNumber",
							"type": "uint256"
						},
						{
							"components": [
								{
									"name": "lat",
									"type": "int256"
								},
								{
									"name": "long",
									"type": "int256"
								}
							],
							"indexed": false,
							"name": "pick",
							"type": "tuple"
						},
						{
							"components": [
								{
									"name": "lat",
									"type": "int256"
								},
								{
									"name": "long",
									"type": "int256"
								}
							],
							"indexed": false,
							"name": "drop",
							"type": "tuple"
						},
						{
							"indexed": false,
							"name": "escrow",
							"type": "uint256"
						}
					],
					"name": "RiderDetails",
					"type": "event"
				},
				{
					"anonymous": false,
					"inputs": [
						{
							"indexed": false,
							"name": "riderNumber",
							"type": "uint256"
						},
						{
							"indexed": false,
							"name": "arrivalTime",
							"type": "uint256"
						}
					],
					"name": "RiderPicked",
					"type": "event"
				},
				{
					"anonymous": false,
					"inputs": [
						{
							"indexed": false,
							"name": "driverNumber",
							"type": "uint256"
						},
						{
							"indexed": false,
							"name": "bills",
							"type": "uint256"
						}
					],
					"name": "cashMoney",
					"type": "event"
				},
				{
					"anonymous": false,
					"inputs": [
						{
							"indexed": false,
							"name": "riderNumber",
							"type": "uint256"
						},
						{
							"indexed": false,
							"name": "location",
							"type": "int256[]"
						}
					],
					"name": "imHere",
					"type": "event"
				},
				{
					"anonymous": false,
					"inputs": [
						{
							"indexed": false,
							"name": "usrNumber",
							"type": "uint256"
						},
						{
							"indexed": false,
							"name": "pairNumber",
							"type": "uint256"
						},
						{
							"indexed": false,
							"name": "cancelFee",
							"type": "uint256"
						}
					],
					"name": "undone",
					"type": "event"
				}
			],
			"devdoc": {
				"methods": {}
			},
			"evm": {
				"assembly": "    /* \"ridefair.sol\":117:11062  contract ridefair{... */\n  mstore(0x40, 0x80)\n    /* \"ridefair.sol\":1535:1564  constructor() public {... */\n  callvalue\n    /* \"--CODEGEN--\":8:17   */\n  dup1\n    /* \"--CODEGEN--\":5:7   */\n  iszero\n  tag_1\n  jumpi\n    /* \"--CODEGEN--\":30:31   */\n  0x0\n    /* \"--CODEGEN--\":27:28   */\n  dup1\n    /* \"--CODEGEN--\":20:32   */\n  revert\n    /* \"--CODEGEN--\":5:7   */\ntag_1:\n    /* \"ridefair.sol\":1535:1564  constructor() public {... */\n  pop\n    /* \"ridefair.sol\":117:11062  contract ridefair{... */\n  dataSize(sub_0)\n  dup1\n  dataOffset(sub_0)\n  0x0\n  codecopy\n  0x0\n  return\nstop\n\nsub_0: assembly {\n        /* \"ridefair.sol\":117:11062  contract ridefair{... */\n      mstore(0x40, 0x80)\n      jumpi(tag_1, lt(calldatasize, 0x4))\n      calldataload(0x0)\n      0x100000000000000000000000000000000000000000000000000000000\n      swap1\n      div\n      0xffffffff\n      and\n      dup1\n      0x315a9f01\n      eq\n      tag_2\n      jumpi\n      dup1\n      0x41664ebf\n      eq\n      tag_3\n      jumpi\n      dup1\n      0x54dee961\n      eq\n      tag_4\n      jumpi\n      dup1\n      0x9e5d3610\n      eq\n      tag_5\n      jumpi\n      dup1\n      0x9f4216e8\n      eq\n      tag_6\n      jumpi\n      dup1\n      0xa7978738\n      eq\n      tag_7\n      jumpi\n      dup1\n      0xa87430ba\n      eq\n      tag_8\n      jumpi\n      dup1\n      0xba2b3906\n      eq\n      tag_9\n      jumpi\n      dup1\n      0xde9e7da0\n      eq\n      tag_10\n      jumpi\n      dup1\n      0xf2c9ecd8\n      eq\n      tag_11\n      jumpi\n    tag_1:\n      0x0\n      dup1\n      revert\n        /* \"ridefair.sol\":5283:6440  function pickRider(uint riderNumber, uint arrivalTime) public{... */\n    tag_2:\n      callvalue\n        /* \"--CODEGEN--\":8:17   */\n      dup1\n        /* \"--CODEGEN--\":5:7   */\n      iszero\n      tag_12\n      jumpi\n        /* \"--CODEGEN--\":30:31   */\n      0x0\n        /* \"--CODEGEN--\":27:28   */\n      dup1\n        /* \"--CODEGEN--\":20:32   */\n      revert\n        /* \"--CODEGEN--\":5:7   */\n    tag_12:\n        /* \"ridefair.sol\":5283:6440  function pickRider(uint riderNumber, uint arrivalTime) public{... */\n      pop\n      tag_13\n      0x4\n      dup1\n      calldatasize\n      sub\n      tag_14\n      swap2\n      swap1\n      dup2\n      add\n      swap1\n      jump(tag_15)\n    tag_14:\n      jump(tag_16)\n    tag_13:\n      stop\n        /* \"ridefair.sol\":4665:5276  function getWaitingRiders() public{... */\n    tag_3:\n      callvalue\n        /* \"--CODEGEN--\":8:17   */\n      dup1\n        /* \"--CODEGEN--\":5:7   */\n      iszero\n      tag_17\n      jumpi\n        /* \"--CODEGEN--\":30:31   */\n      0x0\n        /* \"--CODEGEN--\":27:28   */\n      dup1\n        /* \"--CODEGEN--\":20:32   */\n      revert\n        /* \"--CODEGEN--\":5:7   */\n    tag_17:\n        /* \"ridefair.sol\":4665:5276  function getWaitingRiders() public{... */\n      pop\n      tag_18\n      jump(tag_19)\n    tag_18:\n      stop\n        /* \"ridefair.sol\":9158:11059  function userReset() public payable{... */\n    tag_4:\n      tag_20\n      jump(tag_21)\n    tag_20:\n      stop\n        /* \"ridefair.sol\":1570:2776  function driveRequest() public{... */\n    tag_5:\n      callvalue\n        /* \"--CODEGEN--\":8:17   */\n      dup1\n        /* \"--CODEGEN--\":5:7   */\n      iszero\n      tag_22\n      jumpi\n        /* \"--CODEGEN--\":30:31   */\n      0x0\n        /* \"--CODEGEN--\":27:28   */\n      dup1\n        /* \"--CODEGEN--\":20:32   */\n      revert\n        /* \"--CODEGEN--\":5:7   */\n    tag_22:\n        /* \"ridefair.sol\":1570:2776  function driveRequest() public{... */\n      pop\n      tag_23\n      jump(tag_24)\n    tag_23:\n      stop\n        /* \"ridefair.sol\":821:847  address [] public userList */\n    tag_6:\n      callvalue\n        /* \"--CODEGEN--\":8:17   */\n      dup1\n        /* \"--CODEGEN--\":5:7   */\n      iszero\n      tag_25\n      jumpi\n        /* \"--CODEGEN--\":30:31   */\n      0x0\n        /* \"--CODEGEN--\":27:28   */\n      dup1\n        /* \"--CODEGEN--\":20:32   */\n      revert\n        /* \"--CODEGEN--\":5:7   */\n    tag_25:\n        /* \"ridefair.sol\":821:847  address [] public userList */\n      pop\n      tag_26\n      0x4\n      dup1\n      calldatasize\n      sub\n      tag_27\n      swap2\n      swap1\n      dup2\n      add\n      swap1\n      jump(tag_28)\n    tag_27:\n      jump(tag_29)\n    tag_26:\n      mload(0x40)\n      tag_30\n      swap2\n      swap1\n      jump(tag_31)\n    tag_30:\n      mload(0x40)\n      dup1\n      swap2\n      sub\n      swap1\n      return\n        /* \"ridefair.sol\":6446:7508  function informRider(int256[] memory loc) public{... */\n    tag_7:\n      callvalue\n        /* \"--CODEGEN--\":8:17   */\n      dup1\n        /* \"--CODEGEN--\":5:7   */\n      iszero\n      tag_32\n      jumpi\n        /* \"--CODEGEN--\":30:31   */\n      0x0\n        /* \"--CODEGEN--\":27:28   */\n      dup1\n        /* \"--CODEGEN--\":20:32   */\n      revert\n        /* \"--CODEGEN--\":5:7   */\n    tag_32:\n        /* \"ridefair.sol\":6446:7508  function informRider(int256[] memory loc) public{... */\n      pop\n      tag_33\n      0x4\n      dup1\n      calldatasize\n      sub\n      tag_34\n      swap2\n      swap1\n      dup2\n      add\n      swap1\n      jump(tag_35)\n    tag_34:\n      jump(tag_36)\n    tag_33:\n      stop\n        /* \"ridefair.sol\":750:788  mapping (address => user) public users */\n    tag_8:\n      callvalue\n        /* \"--CODEGEN--\":8:17   */\n      dup1\n        /* \"--CODEGEN--\":5:7   */\n      iszero\n      tag_37\n      jumpi\n        /* \"--CODEGEN--\":30:31   */\n      0x0\n        /* \"--CODEGEN--\":27:28   */\n      dup1\n        /* \"--CODEGEN--\":20:32   */\n      revert\n        /* \"--CODEGEN--\":5:7   */\n    tag_37:\n        /* \"ridefair.sol\":750:788  mapping (address => user) public users */\n      pop\n      tag_38\n      0x4\n      dup1\n      calldatasize\n      sub\n      tag_39\n      swap2\n      swap1\n      dup2\n      add\n      swap1\n      jump(tag_40)\n    tag_39:\n      jump(tag_41)\n    tag_38:\n      mload(0x40)\n      tag_42\n      swap12\n      swap11\n      swap10\n      swap9\n      swap8\n      swap7\n      swap6\n      swap5\n      swap4\n      swap3\n      swap2\n      swap1\n      jump(tag_43)\n    tag_42:\n      mload(0x40)\n      dup1\n      swap2\n      sub\n      swap1\n      return\n        /* \"ridefair.sol\":7514:8677  function payDriver() public payable{... */\n    tag_9:\n      tag_44\n      jump(tag_45)\n    tag_44:\n      stop\n        /* \"ridefair.sol\":2782:4396  function rideRequest(int256[] memory pick, int256[] memory drop, uint tripCost) public {... */\n    tag_10:\n      callvalue\n        /* \"--CODEGEN--\":8:17   */\n      dup1\n        /* \"--CODEGEN--\":5:7   */\n      iszero\n      tag_46\n      jumpi\n        /* \"--CODEGEN--\":30:31   */\n      0x0\n        /* \"--CODEGEN--\":27:28   */\n      dup1\n        /* \"--CODEGEN--\":20:32   */\n      revert\n        /* \"--CODEGEN--\":5:7   */\n    tag_46:\n        /* \"ridefair.sol\":2782:4396  function rideRequest(int256[] memory pick, int256[] memory drop, uint tripCost) public {... */\n      pop\n      tag_47\n      0x4\n      dup1\n      calldatasize\n      sub\n      tag_48\n      swap2\n      swap1\n      dup2\n      add\n      swap1\n      jump(tag_49)\n    tag_48:\n      jump(tag_50)\n    tag_47:\n      stop\n        /* \"ridefair.sol\":4402:4659  function getNumber() view public returns(int){... */\n    tag_11:\n      callvalue\n        /* \"--CODEGEN--\":8:17   */\n      dup1\n        /* \"--CODEGEN--\":5:7   */\n      iszero\n      tag_51\n      jumpi\n        /* \"--CODEGEN--\":30:31   */\n      0x0\n        /* \"--CODEGEN--\":27:28   */\n      dup1\n        /* \"--CODEGEN--\":20:32   */\n      revert\n        /* \"--CODEGEN--\":5:7   */\n    tag_51:\n        /* \"ridefair.sol\":4402:4659  function getNumber() view public returns(int){... */\n      pop\n      tag_52\n      jump(tag_53)\n    tag_52:\n      mload(0x40)\n      tag_54\n      swap2\n      swap1\n      jump(tag_55)\n    tag_54:\n      mload(0x40)\n      dup1\n      swap2\n      sub\n      swap1\n      return\n        /* \"ridefair.sol\":5283:6440  function pickRider(uint riderNumber, uint arrivalTime) public{... */\n    tag_16:\n        /* \"ridefair.sol\":5463:5467  true */\n      0x1\n        /* \"ridefair.sol\":5437:5467  users[msg.sender].isUser==true */\n      iszero\n      iszero\n        /* \"ridefair.sol\":5437:5442  users */\n      0x0\n        /* \"ridefair.sol\":5437:5454  users[msg.sender] */\n      dup1\n        /* \"ridefair.sol\":5443:5453  msg.sender */\n      caller\n        /* \"ridefair.sol\":5437:5454  users[msg.sender] */\n      0xffffffffffffffffffffffffffffffffffffffff\n      and\n      0xffffffffffffffffffffffffffffffffffffffff\n      and\n      dup2\n      mstore\n      0x20\n      add\n      swap1\n      dup2\n      mstore\n      0x20\n      add\n      0x0\n      keccak256\n        /* \"ridefair.sol\":5437:5461  users[msg.sender].isUser */\n      0x0\n      add\n      0x0\n      swap1\n      sload\n      swap1\n      0x100\n      exp\n      swap1\n      div\n      0xff\n      and\n        /* \"ridefair.sol\":5437:5467  users[msg.sender].isUser==true */\n      iszero\n      iszero\n      eq\n        /* \"ridefair.sol\":5429:5505  require(users[msg.sender].isUser==true, \"Need to be a user to select rider\") */\n      iszero\n      iszero\n      tag_57\n      jumpi\n      mload(0x40)\n      0x8c379a000000000000000000000000000000000000000000000000000000000\n      dup2\n      mstore\n      0x4\n      add\n      tag_58\n      swap1\n      jump(tag_59)\n    tag_58:\n      mload(0x40)\n      dup1\n      swap2\n      sub\n      swap1\n      revert\n    tag_57:\n        /* \"ridefair.sol\":5548:5561  Status.DRIVER */\n      0x2\n        /* \"ridefair.sol\":5523:5561  users[msg.sender].state==Status.DRIVER */\n      dup1\n      dup2\n      gt\n      iszero\n      tag_60\n      jumpi\n      invalid\n    tag_60:\n        /* \"ridefair.sol\":5523:5528  users */\n      0x0\n        /* \"ridefair.sol\":5523:5540  users[msg.sender] */\n      dup1\n        /* \"ridefair.sol\":5529:5539  msg.sender */\n      caller\n        /* \"ridefair.sol\":5523:5540  users[msg.sender] */\n      0xffffffffffffffffffffffffffffffffffffffff\n      and\n      0xffffffffffffffffffffffffffffffffffffffff\n      and\n      dup2\n      mstore\n      0x20\n      add\n      swap1\n      dup2\n      mstore\n      0x20\n      add\n      0x0\n      keccak256\n        /* \"ridefair.sol\":5523:5546  users[msg.sender].state */\n      0x2\n      add\n      0x0\n      swap1\n      sload\n      swap1\n      0x100\n      exp\n      swap1\n      div\n      0xff\n      and\n        /* \"ridefair.sol\":5523:5561  users[msg.sender].state==Status.DRIVER */\n      0x2\n      dup2\n      gt\n      iszero\n      tag_61\n      jumpi\n      invalid\n    tag_61:\n      eq\n        /* \"ridefair.sol\":5515:5611  require(users[msg.sender].state==Status.DRIVER, \"User needs to be in driver mode to pick rider\") */\n      iszero\n      iszero\n      tag_62\n      jumpi\n      mload(0x40)\n      0x8c379a000000000000000000000000000000000000000000000000000000000\n      dup2\n      mstore\n      0x4\n      add\n      tag_63\n      swap1\n      jump(tag_64)\n    tag_63:\n      mload(0x40)\n      dup1\n      swap2\n      sub\n      swap1\n      revert\n    tag_62:\n        /* \"ridefair.sol\":5670:5671  0 */\n      0x0\n        /* \"ridefair.sol\":5629:5672  users[msg.sender].currPairing == address(0) */\n      0xffffffffffffffffffffffffffffffffffffffff\n      and\n        /* \"ridefair.sol\":5629:5634  users */\n      0x0\n        /* \"ridefair.sol\":5629:5646  users[msg.sender] */\n      dup1\n        /* \"ridefair.sol\":5635:5645  msg.sender */\n      caller\n        /* \"ridefair.sol\":5629:5646  users[msg.sender] */\n      0xffffffffffffffffffffffffffffffffffffffff\n      and\n      0xffffffffffffffffffffffffffffffffffffffff\n      and\n      dup2\n      mstore\n      0x20\n      add\n      swap1\n      dup2\n      mstore\n      0x20\n      add\n      0x0\n      keccak256\n        /* \"ridefair.sol\":5629:5658  users[msg.sender].currPairing */\n      0x2\n      add\n      0x1\n      swap1\n      sload\n      swap1\n      0x100\n      exp\n      swap1\n      div\n      0xffffffffffffffffffffffffffffffffffffffff\n      and\n        /* \"ridefair.sol\":5629:5672  users[msg.sender].currPairing == address(0) */\n      0xffffffffffffffffffffffffffffffffffffffff\n      and\n      eq\n        /* \"ridefair.sol\":5621:5700  require(users[msg.sender].currPairing == address(0), \"driver currently paired\") */\n      iszero\n      iszero\n      tag_65\n      jumpi\n      mload(0x40)\n      0x8c379a000000000000000000000000000000000000000000000000000000000\n      dup2\n      mstore\n      0x4\n      add\n      tag_66\n      swap1\n      jump(tag_67)\n    tag_66:\n      mload(0x40)\n      dup1\n      swap2\n      sub\n      swap1\n      revert\n    tag_65:\n        /* \"ridefair.sol\":5743:5753  msg.sender */\n      caller\n        /* \"ridefair.sol\":5718:5753  userList[riderNumber] != msg.sender */\n      0xffffffffffffffffffffffffffffffffffffffff\n      and\n        /* \"ridefair.sol\":5718:5726  userList */\n      0x1\n        /* \"ridefair.sol\":5727:5738  riderNumber */\n      dup4\n        /* \"ridefair.sol\":5718:5739  userList[riderNumber] */\n      dup2\n      sload\n      dup2\n      lt\n      iszero\n      iszero\n      tag_68\n      jumpi\n      invalid\n    tag_68:\n      swap1\n      0x0\n      mstore\n      keccak256(0x0, 0x20)\n      add\n      0x0\n      swap1\n      sload\n      swap1\n      0x100\n      exp\n      swap1\n      div\n      0xffffffffffffffffffffffffffffffffffffffff\n      and\n        /* \"ridefair.sol\":5718:5753  userList[riderNumber] != msg.sender */\n      0xffffffffffffffffffffffffffffffffffffffff\n      and\n      eq\n      iszero\n        /* \"ridefair.sol\":5710:5778  require(userList[riderNumber] != msg.sender, \"Cannot pick yourself\") */\n      iszero\n      iszero\n      tag_70\n      jumpi\n      mload(0x40)\n      0x8c379a000000000000000000000000000000000000000000000000000000000\n      dup2\n      mstore\n      0x4\n      add\n      tag_71\n      swap1\n      jump(tag_72)\n    tag_71:\n      mload(0x40)\n      dup1\n      swap2\n      sub\n      swap1\n      revert\n    tag_70:\n        /* \"ridefair.sol\":5849:5850  0 */\n      0x0\n        /* \"ridefair.sol\":5797:5851  users[userList[riderNumber]].currPairing == address(0) */\n      0xffffffffffffffffffffffffffffffffffffffff\n      and\n        /* \"ridefair.sol\":5797:5802  users */\n      0x0\n        /* \"ridefair.sol\":5797:5825  users[userList[riderNumber]] */\n      dup1\n        /* \"ridefair.sol\":5803:5811  userList */\n      0x1\n        /* \"ridefair.sol\":5812:5823  riderNumber */\n      dup6\n        /* \"ridefair.sol\":5803:5824  userList[riderNumber] */\n      dup2\n      sload\n      dup2\n      lt\n      iszero\n      iszero\n      tag_73\n      jumpi\n      invalid\n    tag_73:\n      swap1\n      0x0\n      mstore\n      keccak256(0x0, 0x20)\n      add\n      0x0\n      swap1\n      sload\n      swap1\n      0x100\n      exp\n      swap1\n      div\n      0xffffffffffffffffffffffffffffffffffffffff\n      and\n        /* \"ridefair.sol\":5797:5825  users[userList[riderNumber]] */\n      0xffffffffffffffffffffffffffffffffffffffff\n      and\n      0xffffffffffffffffffffffffffffffffffffffff\n      and\n      dup2\n      mstore\n      0x20\n      add\n      swap1\n      dup2\n      mstore\n      0x20\n      add\n      0x0\n      keccak256\n        /* \"ridefair.sol\":5797:5837  users[userList[riderNumber]].currPairing */\n      0x2\n      add\n      0x1\n      swap1\n      sload\n      swap1\n      0x100\n      exp\n      swap1\n      div\n      0xffffffffffffffffffffffffffffffffffffffff\n      and\n        /* \"ridefair.sol\":5797:5851  users[userList[riderNumber]].currPairing == address(0) */\n      0xffffffffffffffffffffffffffffffffffffffff\n      and\n      eq\n        /* \"ridefair.sol\":5789:5876  require(users[userList[riderNumber]].currPairing == address(0), \"rider already paired\") */\n      iszero\n      iszero\n      tag_75\n      jumpi\n      mload(0x40)\n      0x8c379a000000000000000000000000000000000000000000000000000000000\n      dup2\n      mstore\n      0x4\n      add\n      tag_76\n      swap1\n      jump(tag_77)\n    tag_76:\n      mload(0x40)\n      dup1\n      swap2\n      sub\n      swap1\n      revert\n    tag_75:\n        /* \"ridefair.sol\":5932:5944  Status.RIDER */\n      0x1\n        /* \"ridefair.sol\":5894:5944  users[userList[riderNumber]].state == Status.RIDER */\n      0x2\n      dup2\n      gt\n      iszero\n      tag_78\n      jumpi\n      invalid\n    tag_78:\n        /* \"ridefair.sol\":5894:5899  users */\n      0x0\n        /* \"ridefair.sol\":5894:5922  users[userList[riderNumber]] */\n      dup1\n        /* \"ridefair.sol\":5900:5908  userList */\n      0x1\n        /* \"ridefair.sol\":5909:5920  riderNumber */\n      dup6\n        /* \"ridefair.sol\":5900:5921  userList[riderNumber] */\n      dup2\n      sload\n      dup2\n      lt\n      iszero\n      iszero\n      tag_79\n      jumpi\n      invalid\n    tag_79:\n      swap1\n      0x0\n      mstore\n      keccak256(0x0, 0x20)\n      add\n      0x0\n      swap1\n      sload\n      swap1\n      0x100\n      exp\n      swap1\n      div\n      0xffffffffffffffffffffffffffffffffffffffff\n      and\n        /* \"ridefair.sol\":5894:5922  users[userList[riderNumber]] */\n      0xffffffffffffffffffffffffffffffffffffffff\n      and\n      0xffffffffffffffffffffffffffffffffffffffff\n      and\n      dup2\n      mstore\n      0x20\n      add\n      swap1\n      dup2\n      mstore\n      0x20\n      add\n      0x0\n      keccak256\n        /* \"ridefair.sol\":5894:5928  users[userList[riderNumber]].state */\n      0x2\n      add\n      0x0\n      swap1\n      sload\n      swap1\n      0x100\n      exp\n      swap1\n      div\n      0xff\n      and\n        /* \"ridefair.sol\":5894:5944  users[userList[riderNumber]].state == Status.RIDER */\n      0x2\n      dup2\n      gt\n      iszero\n      tag_81\n      jumpi\n      invalid\n    tag_81:\n      eq\n        /* \"ridefair.sol\":5886:5984  require(users[userList[riderNumber]].state == Status.RIDER, \"user being picked has to be a rider\") */\n      iszero\n      iszero\n      tag_82\n      jumpi\n      mload(0x40)\n      0x8c379a000000000000000000000000000000000000000000000000000000000\n      dup2\n      mstore\n      0x4\n      add\n      tag_83\n      swap1\n      jump(tag_84)\n    tag_83:\n      mload(0x40)\n      dup1\n      swap2\n      sub\n      swap1\n      revert\n    tag_82:\n        /* \"ridefair.sol\":6072:6082  msg.sender */\n      caller\n        /* \"ridefair.sol\":6029:6034  users */\n      0x0\n        /* \"ridefair.sol\":6029:6057  users[userList[riderNumber]] */\n      dup1\n        /* \"ridefair.sol\":6035:6043  userList */\n      0x1\n        /* \"ridefair.sol\":6044:6055  riderNumber */\n      dup6\n        /* \"ridefair.sol\":6035:6056  userList[riderNumber] */\n      dup2\n      sload\n      dup2\n      lt\n      iszero\n      iszero\n      tag_85\n      jumpi\n      invalid\n    tag_85:\n      swap1\n      0x0\n      mstore\n      keccak256(0x0, 0x20)\n      add\n      0x0\n      swap1\n      sload\n      swap1\n      0x100\n      exp\n      swap1\n      div\n      0xffffffffffffffffffffffffffffffffffffffff\n      and\n        /* \"ridefair.sol\":6029:6057  users[userList[riderNumber]] */\n      0xffffffffffffffffffffffffffffffffffffffff\n      and\n      0xffffffffffffffffffffffffffffffffffffffff\n      and\n      dup2\n      mstore\n      0x20\n      add\n      swap1\n      dup2\n      mstore\n      0x20\n      add\n      0x0\n      keccak256\n        /* \"ridefair.sol\":6029:6069  users[userList[riderNumber]].currPairing */\n      0x2\n      add\n      0x1\n        /* \"ridefair.sol\":6029:6082  users[userList[riderNumber]].currPairing = msg.sender */\n      0x100\n      exp\n      dup2\n      sload\n      dup2\n      0xffffffffffffffffffffffffffffffffffffffff\n      mul\n      not\n      and\n      swap1\n      dup4\n      0xffffffffffffffffffffffffffffffffffffffff\n      and\n      mul\n      or\n      swap1\n      sstore\n      pop\n        /* \"ridefair.sol\":6124:6132  userList */\n      0x1\n        /* \"ridefair.sol\":6133:6144  riderNumber */\n      dup3\n        /* \"ridefair.sol\":6124:6145  userList[riderNumber] */\n      dup2\n      sload\n      dup2\n      lt\n      iszero\n      iszero\n      tag_87\n      jumpi\n      invalid\n    tag_87:\n      swap1\n      0x0\n      mstore\n      keccak256(0x0, 0x20)\n      add\n      0x0\n      swap1\n      sload\n      swap1\n      0x100\n      exp\n      swap1\n      div\n      0xffffffffffffffffffffffffffffffffffffffff\n      and\n        /* \"ridefair.sol\":6092:6097  users */\n      0x0\n        /* \"ridefair.sol\":6092:6109  users[msg.sender] */\n      dup1\n        /* \"ridefair.sol\":6098:6108  msg.sender */\n      caller\n        /* \"ridefair.sol\":6092:6109  users[msg.sender] */\n      0xffffffffffffffffffffffffffffffffffffffff\n      and\n      0xffffffffffffffffffffffffffffffffffffffff\n      and\n      dup2\n      mstore\n      0x20\n      add\n      swap1\n      dup2\n      mstore\n      0x20\n      add\n      0x0\n      keccak256\n        /* \"ridefair.sol\":6092:6121  users[msg.sender].currPairing */\n      0x2\n      add\n      0x1\n        /* \"ridefair.sol\":6092:6145  users[msg.sender].currPairing = userList[riderNumber] */\n      0x100\n      exp\n      dup2\n      sload\n      dup2\n      0xffffffffffffffffffffffffffffffffffffffff\n      mul\n      not\n      and\n      swap1\n      dup4\n      0xffffffffffffffffffffffffffffffffffffffff\n      and\n      mul\n      or\n      swap1\n      sstore\n      pop\n        /* \"ridefair.sol\":6188:6199  arrivalTime */\n      dup1\n        /* \"ridefair.sol\":6156:6161  users */\n      0x0\n        /* \"ridefair.sol\":6156:6173  users[msg.sender] */\n      dup1\n        /* \"ridefair.sol\":6162:6172  msg.sender */\n      caller\n        /* \"ridefair.sol\":6156:6173  users[msg.sender] */\n      0xffffffffffffffffffffffffffffffffffffffff\n      and\n      0xffffffffffffffffffffffffffffffffffffffff\n      and\n      dup2\n      mstore\n      0x20\n      add\n      swap1\n      dup2\n      mstore\n      0x20\n      add\n      0x0\n      keccak256\n        /* \"ridefair.sol\":6156:6185  users[msg.sender].arrivalTime */\n      0x7\n      add\n        /* \"ridefair.sol\":6156:6199  users[msg.sender].arrivalTime = arrivalTime */\n      dup2\n      swap1\n      sstore\n      pop\n        /* \"ridefair.sol\":6252:6263  arrivalTime */\n      dup1\n        /* \"ridefair.sol\":6209:6214  users */\n      0x0\n        /* \"ridefair.sol\":6209:6237  users[userList[riderNumber]] */\n      dup1\n        /* \"ridefair.sol\":6215:6223  userList */\n      0x1\n        /* \"ridefair.sol\":6224:6235  riderNumber */\n      dup6\n        /* \"ridefair.sol\":6215:6236  userList[riderNumber] */\n      dup2\n      sload\n      dup2\n      lt\n      iszero\n      iszero\n      tag_89\n      jumpi\n      invalid\n    tag_89:\n      swap1\n      0x0\n      mstore\n      keccak256(0x0, 0x20)\n      add\n      0x0\n      swap1\n      sload\n      swap1\n      0x100\n      exp\n      swap1\n      div\n      0xffffffffffffffffffffffffffffffffffffffff\n      and\n        /* \"ridefair.sol\":6209:6237  users[userList[riderNumber]] */\n      0xffffffffffffffffffffffffffffffffffffffff\n      and\n      0xffffffffffffffffffffffffffffffffffffffff\n      and\n      dup2\n      mstore\n      0x20\n      add\n      swap1\n      dup2\n      mstore\n      0x20\n      add\n      0x0\n      keccak256\n        /* \"ridefair.sol\":6209:6249  users[userList[riderNumber]].arrivalTime */\n      0x7\n      add\n        /* \"ridefair.sol\":6209:6263  users[userList[riderNumber]].arrivalTime = arrivalTime */\n      dup2\n      swap1\n      sstore\n      pop\n        /* \"ridefair.sol\":6307:6312  false */\n      0x0\n        /* \"ridefair.sol\":6273:6278  users */\n      dup1\n        /* \"ridefair.sol\":6273:6290  users[msg.sender] */\n      0x0\n        /* \"ridefair.sol\":6279:6289  msg.sender */\n      caller\n        /* \"ridefair.sol\":6273:6290  users[msg.sender] */\n      0xffffffffffffffffffffffffffffffffffffffff\n      and\n      0xffffffffffffffffffffffffffffffffffffffff\n      and\n      dup2\n      mstore\n      0x20\n      add\n      swap1\n      dup2\n      mstore\n      0x20\n      add\n      0x0\n      keccak256\n        /* \"ridefair.sol\":6273:6304  users[msg.sender].driverArrived */\n      0x8\n      add\n      0x0\n        /* \"ridefair.sol\":6273:6312  users[msg.sender].driverArrived = false */\n      0x100\n      exp\n      dup2\n      sload\n      dup2\n      0xff\n      mul\n      not\n      and\n      swap1\n      dup4\n      iszero\n      iszero\n      mul\n      or\n      swap1\n      sstore\n      pop\n        /* \"ridefair.sol\":6375:6380  false */\n      0x0\n        /* \"ridefair.sol\":6322:6327  users */\n      dup1\n        /* \"ridefair.sol\":6322:6358  users[users[msg.sender].currPairing] */\n      0x0\n        /* \"ridefair.sol\":6328:6333  users */\n      dup1\n        /* \"ridefair.sol\":6328:6345  users[msg.sender] */\n      0x0\n        /* \"ridefair.sol\":6334:6344  msg.sender */\n      caller\n        /* \"ridefair.sol\":6328:6345  users[msg.sender] */\n      0xffffffffffffffffffffffffffffffffffffffff\n      and\n      0xffffffffffffffffffffffffffffffffffffffff\n      and\n      dup2\n      mstore\n      0x20\n      add\n      swap1\n      dup2\n      mstore\n      0x20\n      add\n      0x0\n      keccak256\n        /* \"ridefair.sol\":6328:6357  users[msg.sender].currPairing */\n      0x2\n      add\n      0x1\n      swap1\n      sload\n      swap1\n      0x100\n      exp\n      swap1\n      div\n      0xffffffffffffffffffffffffffffffffffffffff\n      and\n        /* \"ridefair.sol\":6322:6358  users[users[msg.sender].currPairing] */\n      0xffffffffffffffffffffffffffffffffffffffff\n      and\n      0xffffffffffffffffffffffffffffffffffffffff\n      and\n      dup2\n      mstore\n      0x20\n      add\n      swap1\n      dup2\n      mstore\n      0x20\n      add\n      0x0\n      keccak256\n        /* \"ridefair.sol\":6322:6372  users[users[msg.sender].currPairing].driverArrived */\n      0x8\n      add\n      0x0\n        /* \"ridefair.sol\":6322:6380  users[users[msg.sender].currPairing].driverArrived = false */\n      0x100\n      exp\n      dup2\n      sload\n      dup2\n      0xff\n      mul\n      not\n      and\n      swap1\n      dup4\n      iszero\n      iszero\n      mul\n      or\n      swap1\n      sstore\n      pop\n        /* \"ridefair.sol\":6396:6433  RiderPicked(riderNumber, arrivalTime) */\n      0xd492064edf7fcac5d4cf828f131afa14b0a5784d8bfdb01853e176cf5b0e2ec3\n        /* \"ridefair.sol\":6408:6419  riderNumber */\n      dup3\n        /* \"ridefair.sol\":6421:6432  arrivalTime */\n      dup3\n        /* \"ridefair.sol\":6396:6433  RiderPicked(riderNumber, arrivalTime) */\n      mload(0x40)\n      tag_91\n      swap3\n      swap2\n      swap1\n      jump(tag_92)\n    tag_91:\n      mload(0x40)\n      dup1\n      swap2\n      sub\n      swap1\n      log1\n        /* \"ridefair.sol\":5283:6440  function pickRider(uint riderNumber, uint arrivalTime) public{... */\n      pop\n      pop\n      jump\t// out\n        /* \"ridefair.sol\":4665:5276  function getWaitingRiders() public{... */\n    tag_19:\n        /* \"ridefair.sol\":4960:4966  uint i */\n      0x0\n        /* \"ridefair.sol\":4797:4801  true */\n      0x1\n        /* \"ridefair.sol\":4771:4801  users[msg.sender].isUser==true */\n      iszero\n      iszero\n        /* \"ridefair.sol\":4771:4776  users */\n      0x0\n        /* \"ridefair.sol\":4771:4788  users[msg.sender] */\n      dup1\n        /* \"ridefair.sol\":4777:4787  msg.sender */\n      caller\n        /* \"ridefair.sol\":4771:4788  users[msg.sender] */\n      0xffffffffffffffffffffffffffffffffffffffff\n      and\n      0xffffffffffffffffffffffffffffffffffffffff\n      and\n      dup2\n      mstore\n      0x20\n      add\n      swap1\n      dup2\n      mstore\n      0x20\n      add\n      0x0\n      keccak256\n        /* \"ridefair.sol\":4771:4795  users[msg.sender].isUser */\n      0x0\n      add\n      0x0\n      swap1\n      sload\n      swap1\n      0x100\n      exp\n      swap1\n      div\n      0xff\n      and\n        /* \"ridefair.sol\":4771:4801  users[msg.sender].isUser==true */\n      iszero\n      iszero\n      eq\n        /* \"ridefair.sol\":4763:4839  require(users[msg.sender].isUser==true, \"Need to be a user to select rider\") */\n      iszero\n      iszero\n      tag_94\n      jumpi\n      mload(0x40)\n      0x8c379a000000000000000000000000000000000000000000000000000000000\n      dup2\n      mstore\n      0x4\n      add\n      tag_95\n      swap1\n      jump(tag_59)\n    tag_95:\n      mload(0x40)\n      dup1\n      swap2\n      sub\n      swap1\n      revert\n    tag_94:\n        /* \"ridefair.sol\":4882:4895  Status.DRIVER */\n      0x2\n        /* \"ridefair.sol\":4857:4895  users[msg.sender].state==Status.DRIVER */\n      dup1\n      dup2\n      gt\n      iszero\n      tag_96\n      jumpi\n      invalid\n    tag_96:\n        /* \"ridefair.sol\":4857:4862  users */\n      0x0\n        /* \"ridefair.sol\":4857:4874  users[msg.sender] */\n      dup1\n        /* \"ridefair.sol\":4863:4873  msg.sender */\n      caller\n        /* \"ridefair.sol\":4857:4874  users[msg.sender] */\n      0xffffffffffffffffffffffffffffffffffffffff\n      and\n      0xffffffffffffffffffffffffffffffffffffffff\n      and\n      dup2\n      mstore\n      0x20\n      add\n      swap1\n      dup2\n      mstore\n      0x20\n      add\n      0x0\n      keccak256\n        /* \"ridefair.sol\":4857:4880  users[msg.sender].state */\n      0x2\n      add\n      0x0\n      swap1\n      sload\n      swap1\n      0x100\n      exp\n      swap1\n      div\n      0xff\n      and\n        /* \"ridefair.sol\":4857:4895  users[msg.sender].state==Status.DRIVER */\n      0x2\n      dup2\n      gt\n      iszero\n      tag_97\n      jumpi\n      invalid\n    tag_97:\n      eq\n        /* \"ridefair.sol\":4849:4945  require(users[msg.sender].state==Status.DRIVER, \"User needs to be in driver mode to pick rider\") */\n      iszero\n      iszero\n      tag_98\n      jumpi\n      mload(0x40)\n      0x8c379a000000000000000000000000000000000000000000000000000000000\n      dup2\n      mstore\n      0x4\n      add\n      tag_99\n      swap1\n      jump(tag_64)\n    tag_99:\n      mload(0x40)\n      dup1\n      swap2\n      sub\n      swap1\n      revert\n    tag_98:\n        /* \"ridefair.sol\":4967:4968  0 */\n      0x0\n        /* \"ridefair.sol\":4960:4968  uint i=0 */\n      swap1\n      pop\n        /* \"ridefair.sol\":4955:5270  for (uint i=0; i<userList.length; i++) {... */\n    tag_100:\n        /* \"ridefair.sol\":4972:4980  userList */\n      0x1\n        /* \"ridefair.sol\":4972:4987  userList.length */\n      dup1\n      sload\n      swap1\n      pop\n        /* \"ridefair.sol\":4970:4971  i */\n      dup2\n        /* \"ridefair.sol\":4970:4987  i<userList.length */\n      lt\n        /* \"ridefair.sol\":4955:5270  for (uint i=0; i<userList.length; i++) {... */\n      iszero\n      tag_101\n      jumpi\n        /* \"ridefair.sol\":5054:5055  0 */\n      0x0\n        /* \"ridefair.sol\":5012:5056  users[userList[i]].currPairing == address(0) */\n      0xffffffffffffffffffffffffffffffffffffffff\n      and\n        /* \"ridefair.sol\":5012:5017  users */\n      0x0\n        /* \"ridefair.sol\":5012:5030  users[userList[i]] */\n      dup1\n        /* \"ridefair.sol\":5018:5026  userList */\n      0x1\n        /* \"ridefair.sol\":5027:5028  i */\n      dup5\n        /* \"ridefair.sol\":5018:5029  userList[i] */\n      dup2\n      sload\n      dup2\n      lt\n      iszero\n      iszero\n      tag_103\n      jumpi\n      invalid\n    tag_103:\n      swap1\n      0x0\n      mstore\n      keccak256(0x0, 0x20)\n      add\n      0x0\n      swap1\n      sload\n      swap1\n      0x100\n      exp\n      swap1\n      div\n      0xffffffffffffffffffffffffffffffffffffffff\n      and\n        /* \"ridefair.sol\":5012:5030  users[userList[i]] */\n      0xffffffffffffffffffffffffffffffffffffffff\n      and\n      0xffffffffffffffffffffffffffffffffffffffff\n      and\n      dup2\n      mstore\n      0x20\n      add\n      swap1\n      dup2\n      mstore\n      0x20\n      add\n      0x0\n      keccak256\n        /* \"ridefair.sol\":5012:5042  users[userList[i]].currPairing */\n      0x2\n      add\n      0x1\n      swap1\n      sload\n      swap1\n      0x100\n      exp\n      swap1\n      div\n      0xffffffffffffffffffffffffffffffffffffffff\n      and\n        /* \"ridefair.sol\":5012:5056  users[userList[i]].currPairing == address(0) */\n      0xffffffffffffffffffffffffffffffffffffffff\n      and\n      eq\n        /* \"ridefair.sol\":5012:5100  users[userList[i]].currPairing == address(0) && users[userList[i]].state == Status.RIDER */\n      dup1\n      iszero\n      tag_105\n      jumpi\n      pop\n        /* \"ridefair.sol\":5088:5100  Status.RIDER */\n      0x1\n        /* \"ridefair.sol\":5060:5100  users[userList[i]].state == Status.RIDER */\n      0x2\n      dup2\n      gt\n      iszero\n      tag_106\n      jumpi\n      invalid\n    tag_106:\n        /* \"ridefair.sol\":5060:5065  users */\n      0x0\n        /* \"ridefair.sol\":5060:5078  users[userList[i]] */\n      dup1\n        /* \"ridefair.sol\":5066:5074  userList */\n      0x1\n        /* \"ridefair.sol\":5075:5076  i */\n      dup5\n        /* \"ridefair.sol\":5066:5077  userList[i] */\n      dup2\n      sload\n      dup2\n      lt\n      iszero\n      iszero\n      tag_107\n      jumpi\n      invalid\n    tag_107:\n      swap1\n      0x0\n      mstore\n      keccak256(0x0, 0x20)\n      add\n      0x0\n      swap1\n      sload\n      swap1\n      0x100\n      exp\n      swap1\n      div\n      0xffffffffffffffffffffffffffffffffffffffff\n      and\n        /* \"ridefair.sol\":5060:5078  users[userList[i]] */\n      0xffffffffffffffffffffffffffffffffffffffff\n      and\n      0xffffffffffffffffffffffffffffffffffffffff\n      and\n      dup2\n      mstore\n      0x20\n      add\n      swap1\n      dup2\n      mstore\n      0x20\n      add\n      0x0\n      keccak256\n        /* \"ridefair.sol\":5060:5084  users[userList[i]].state */\n      0x2\n      add\n      0x0\n      swap1\n      sload\n      swap1\n      0x100\n      exp\n      swap1\n      div\n      0xff\n      and\n        /* \"ridefair.sol\":5060:5100  users[userList[i]].state == Status.RIDER */\n      0x2\n      dup2\n      gt\n      iszero\n      tag_109\n      jumpi\n      invalid\n    tag_109:\n      eq\n        /* \"ridefair.sol\":5012:5100  users[userList[i]].currPairing == address(0) && users[userList[i]].state == Status.RIDER */\n    tag_105:\n        /* \"ridefair.sol\":5008:5260  if (users[userList[i]].currPairing == address(0) && users[userList[i]].state == Status.RIDER){... */\n      iszero\n      tag_110\n      jumpi\n        /* \"ridefair.sol\":5124:5245  RiderDetails(users[userList[i]].number, users[userList[i]].pickup, users[userList[i]].dropoff, users[userList[i]].escrow) */\n      0x371a7676ba1a3c7f898deecee12f15abf07a92560af6d3f0a10f35d07189084f\n        /* \"ridefair.sol\":5137:5142  users */\n      0x0\n        /* \"ridefair.sol\":5137:5155  users[userList[i]] */\n      dup1\n        /* \"ridefair.sol\":5143:5151  userList */\n      0x1\n        /* \"ridefair.sol\":5152:5153  i */\n      dup5\n        /* \"ridefair.sol\":5143:5154  userList[i] */\n      dup2\n      sload\n      dup2\n      lt\n      iszero\n      iszero\n      tag_111\n      jumpi\n      invalid\n    tag_111:\n      swap1\n      0x0\n      mstore\n      keccak256(0x0, 0x20)\n      add\n      0x0\n      swap1\n      sload\n      swap1\n      0x100\n      exp\n      swap1\n      div\n      0xffffffffffffffffffffffffffffffffffffffff\n      and\n        /* \"ridefair.sol\":5137:5155  users[userList[i]] */\n      0xffffffffffffffffffffffffffffffffffffffff\n      and\n      0xffffffffffffffffffffffffffffffffffffffff\n      and\n      dup2\n      mstore\n      0x20\n      add\n      swap1\n      dup2\n      mstore\n      0x20\n      add\n      0x0\n      keccak256\n        /* \"ridefair.sol\":5137:5162  users[userList[i]].number */\n      0x1\n      add\n      sload\n        /* \"ridefair.sol\":5164:5169  users */\n      0x0\n        /* \"ridefair.sol\":5164:5182  users[userList[i]] */\n      dup1\n        /* \"ridefair.sol\":5170:5178  userList */\n      0x1\n        /* \"ridefair.sol\":5179:5180  i */\n      dup6\n        /* \"ridefair.sol\":5170:5181  userList[i] */\n      dup2\n      sload\n      dup2\n      lt\n      iszero\n      iszero\n      tag_113\n      jumpi\n      invalid\n    tag_113:\n      swap1\n      0x0\n      mstore\n      keccak256(0x0, 0x20)\n      add\n      0x0\n      swap1\n      sload\n      swap1\n      0x100\n      exp\n      swap1\n      div\n      0xffffffffffffffffffffffffffffffffffffffff\n      and\n        /* \"ridefair.sol\":5164:5182  users[userList[i]] */\n      0xffffffffffffffffffffffffffffffffffffffff\n      and\n      0xffffffffffffffffffffffffffffffffffffffff\n      and\n      dup2\n      mstore\n      0x20\n      add\n      swap1\n      dup2\n      mstore\n      0x20\n      add\n      0x0\n      keccak256\n        /* \"ridefair.sol\":5164:5189  users[userList[i]].pickup */\n      0x3\n      add\n        /* \"ridefair.sol\":5191:5196  users */\n      0x0\n        /* \"ridefair.sol\":5191:5209  users[userList[i]] */\n      dup1\n        /* \"ridefair.sol\":5197:5205  userList */\n      0x1\n        /* \"ridefair.sol\":5206:5207  i */\n      dup7\n        /* \"ridefair.sol\":5197:5208  userList[i] */\n      dup2\n      sload\n      dup2\n      lt\n      iszero\n      iszero\n      tag_115\n      jumpi\n      invalid\n    tag_115:\n      swap1\n      0x0\n      mstore\n      keccak256(0x0, 0x20)\n      add\n      0x0\n      swap1\n      sload\n      swap1\n      0x100\n      exp\n      swap1\n      div\n      0xffffffffffffffffffffffffffffffffffffffff\n      and\n        /* \"ridefair.sol\":5191:5209  users[userList[i]] */\n      0xffffffffffffffffffffffffffffffffffffffff\n      and\n      0xffffffffffffffffffffffffffffffffffffffff\n      and\n      dup2\n      mstore\n      0x20\n      add\n      swap1\n      dup2\n      mstore\n      0x20\n      add\n      0x0\n      keccak256\n        /* \"ridefair.sol\":5191:5217  users[userList[i]].dropoff */\n      0x5\n      add\n        /* \"ridefair.sol\":5219:5224  users */\n      0x0\n        /* \"ridefair.sol\":5219:5237  users[userList[i]] */\n      dup1\n        /* \"ridefair.sol\":5225:5233  userList */\n      0x1\n        /* \"ridefair.sol\":5234:5235  i */\n      dup8\n        /* \"ridefair.sol\":5225:5236  userList[i] */\n      dup2\n      sload\n      dup2\n      lt\n      iszero\n      iszero\n      tag_117\n      jumpi\n      invalid\n    tag_117:\n      swap1\n      0x0\n      mstore\n      keccak256(0x0, 0x20)\n      add\n      0x0\n      swap1\n      sload\n      swap1\n      0x100\n      exp\n      swap1\n      div\n      0xffffffffffffffffffffffffffffffffffffffff\n      and\n        /* \"ridefair.sol\":5219:5237  users[userList[i]] */\n      0xffffffffffffffffffffffffffffffffffffffff\n      and\n      0xffffffffffffffffffffffffffffffffffffffff\n      and\n      dup2\n      mstore\n      0x20\n      add\n      swap1\n      dup2\n      mstore\n      0x20\n      add\n      0x0\n      keccak256\n        /* \"ridefair.sol\":5219:5244  users[userList[i]].escrow */\n      0x9\n      add\n      sload\n        /* \"ridefair.sol\":5124:5245  RiderDetails(users[userList[i]].number, users[userList[i]].pickup, users[userList[i]].dropoff, users[userList[i]].escrow) */\n      mload(0x40)\n      tag_119\n      swap5\n      swap4\n      swap3\n      swap2\n      swap1\n      jump(tag_120)\n    tag_119:\n      mload(0x40)\n      dup1\n      swap2\n      sub\n      swap1\n      log1\n        /* \"ridefair.sol\":5008:5260  if (users[userList[i]].currPairing == address(0) && users[userList[i]].state == Status.RIDER){... */\n    tag_110:\n        /* \"ridefair.sol\":4989:4992  i++ */\n      dup1\n      dup1\n      0x1\n      add\n      swap2\n      pop\n      pop\n        /* \"ridefair.sol\":4955:5270  for (uint i=0; i<userList.length; i++) {... */\n      jump(tag_100)\n    tag_101:\n        /* \"ridefair.sol\":4665:5276  function getWaitingRiders() public{... */\n      pop\n      jump\t// out\n        /* \"ridefair.sol\":9158:11059  function userReset() public payable{... */\n    tag_21:\n        /* \"ridefair.sol\":9312:9316  true */\n      0x1\n        /* \"ridefair.sol\":9284:9316  users[msg.sender].isUser == true */\n      iszero\n      iszero\n        /* \"ridefair.sol\":9284:9289  users */\n      0x0\n        /* \"ridefair.sol\":9284:9301  users[msg.sender] */\n      dup1\n        /* \"ridefair.sol\":9290:9300  msg.sender */\n      caller\n        /* \"ridefair.sol\":9284:9301  users[msg.sender] */\n      0xffffffffffffffffffffffffffffffffffffffff\n      and\n      0xffffffffffffffffffffffffffffffffffffffff\n      and\n      dup2\n      mstore\n      0x20\n      add\n      swap1\n      dup2\n      mstore\n      0x20\n      add\n      0x0\n      keccak256\n        /* \"ridefair.sol\":9284:9308  users[msg.sender].isUser */\n      0x0\n      add\n      0x0\n      swap1\n      sload\n      swap1\n      0x100\n      exp\n      swap1\n      div\n      0xff\n      and\n        /* \"ridefair.sol\":9284:9316  users[msg.sender].isUser == true */\n      iszero\n      iszero\n      eq\n        /* \"ridefair.sol\":9276:9355  require(users[msg.sender].isUser == true, \"Need to be a user to complete ride\") */\n      iszero\n      iszero\n      tag_122\n      jumpi\n      mload(0x40)\n      0x8c379a000000000000000000000000000000000000000000000000000000000\n      dup2\n      mstore\n      0x4\n      add\n      tag_123\n      swap1\n      jump(tag_124)\n    tag_123:\n      mload(0x40)\n      dup1\n      swap2\n      sub\n      swap1\n      revert\n    tag_122:\n        /* \"ridefair.sol\":9400:9415  Status.INACTIVE */\n      0x0\n        /* \"ridefair.sol\":9373:9415  users[msg.sender].state != Status.INACTIVE */\n      0x2\n      dup2\n      gt\n      iszero\n      tag_125\n      jumpi\n      invalid\n    tag_125:\n        /* \"ridefair.sol\":9373:9378  users */\n      0x0\n        /* \"ridefair.sol\":9373:9390  users[msg.sender] */\n      dup1\n        /* \"ridefair.sol\":9379:9389  msg.sender */\n      caller\n        /* \"ridefair.sol\":9373:9390  users[msg.sender] */\n      0xffffffffffffffffffffffffffffffffffffffff\n      and\n      0xffffffffffffffffffffffffffffffffffffffff\n      and\n      dup2\n      mstore\n      0x20\n      add\n      swap1\n      dup2\n      mstore\n      0x20\n      add\n      0x0\n      keccak256\n        /* \"ridefair.sol\":9373:9396  users[msg.sender].state */\n      0x2\n      add\n      0x0\n      swap1\n      sload\n      swap1\n      0x100\n      exp\n      swap1\n      div\n      0xff\n      and\n        /* \"ridefair.sol\":9373:9415  users[msg.sender].state != Status.INACTIVE */\n      0x2\n      dup2\n      gt\n      iszero\n      tag_126\n      jumpi\n      invalid\n    tag_126:\n      eq\n      iszero\n        /* \"ridefair.sol\":9365:9462  require(users[msg.sender].state != Status.INACTIVE, \"Need to be an active user to complete ride\") */\n      iszero\n      iszero\n      tag_127\n      jumpi\n      mload(0x40)\n      0x8c379a000000000000000000000000000000000000000000000000000000000\n      dup2\n      mstore\n      0x4\n      add\n      tag_128\n      swap1\n      jump(tag_129)\n    tag_128:\n      mload(0x40)\n      dup1\n      swap2\n      sub\n      swap1\n      revert\n    tag_127:\n        /* \"ridefair.sol\":9491:9492  0 */\n      0x0\n        /* \"ridefair.sol\":9480:9489  msg.value */\n      callvalue\n        /* \"ridefair.sol\":9480:9492  msg.value>=0 */\n      lt\n      iszero\n        /* \"ridefair.sol\":9472:9527  require(msg.value>=0, \"Ether need to be sent to reset\") */\n      iszero\n      iszero\n      tag_130\n      jumpi\n      mload(0x40)\n      0x8c379a000000000000000000000000000000000000000000000000000000000\n      dup2\n      mstore\n      0x4\n      add\n      tag_131\n      swap1\n      jump(tag_132)\n    tag_131:\n      mload(0x40)\n      dup1\n      swap2\n      sub\n      swap1\n      revert\n    tag_130:\n        /* \"ridefair.sol\":9572:9576  true */\n      0x1\n        /* \"ridefair.sol\":9540:9576  users[msg.sender].inProgress == true */\n      iszero\n      iszero\n        /* \"ridefair.sol\":9540:9545  users */\n      0x0\n        /* \"ridefair.sol\":9540:9557  users[msg.sender] */\n      dup1\n        /* \"ridefair.sol\":9546:9556  msg.sender */\n      caller\n        /* \"ridefair.sol\":9540:9557  users[msg.sender] */\n      0xffffffffffffffffffffffffffffffffffffffff\n      and\n      0xffffffffffffffffffffffffffffffffffffffff\n      and\n      dup2\n      mstore\n      0x20\n      add\n      swap1\n      dup2\n      mstore\n      0x20\n      add\n      0x0\n      keccak256\n        /* \"ridefair.sol\":9540:9568  users[msg.sender].inProgress */\n      0x8\n      add\n      0x1\n      swap1\n      sload\n      swap1\n      0x100\n      exp\n      swap1\n      div\n      0xff\n      and\n        /* \"ridefair.sol\":9540:9576  users[msg.sender].inProgress == true */\n      iszero\n      iszero\n      eq\n        /* \"ridefair.sol\":9537:11053  if(users[msg.sender].inProgress == true){... */\n      iszero\n      tag_133\n      jumpi\n        /* \"ridefair.sol\":9651:9731  undone(users[msg.sender].number, users[users[msg.sender].currPairing].number, 0) */\n      0x5b1b690b017b49e02e426b145ec66a70f4259c7a0a7bfb5609363922cec65eef\n        /* \"ridefair.sol\":9658:9663  users */\n      0x0\n        /* \"ridefair.sol\":9658:9675  users[msg.sender] */\n      dup1\n        /* \"ridefair.sol\":9664:9674  msg.sender */\n      caller\n        /* \"ridefair.sol\":9658:9675  users[msg.sender] */\n      0xffffffffffffffffffffffffffffffffffffffff\n      and\n      0xffffffffffffffffffffffffffffffffffffffff\n      and\n      dup2\n      mstore\n      0x20\n      add\n      swap1\n      dup2\n      mstore\n      0x20\n      add\n      0x0\n      keccak256\n        /* \"ridefair.sol\":9658:9682  users[msg.sender].number */\n      0x1\n      add\n      sload\n        /* \"ridefair.sol\":9684:9689  users */\n      0x0\n        /* \"ridefair.sol\":9684:9720  users[users[msg.sender].currPairing] */\n      dup1\n        /* \"ridefair.sol\":9690:9695  users */\n      dup1\n        /* \"ridefair.sol\":9690:9707  users[msg.sender] */\n      0x0\n        /* \"ridefair.sol\":9696:9706  msg.sender */\n      caller\n        /* \"ridefair.sol\":9690:9707  users[msg.sender] */\n      0xffffffffffffffffffffffffffffffffffffffff\n      and\n      0xffffffffffffffffffffffffffffffffffffffff\n      and\n      dup2\n      mstore\n      0x20\n      add\n      swap1\n      dup2\n      mstore\n      0x20\n      add\n      0x0\n      keccak256\n        /* \"ridefair.sol\":9690:9719  users[msg.sender].currPairing */\n      0x2\n      add\n      0x1\n      swap1\n      sload\n      swap1\n      0x100\n      exp\n      swap1\n      div\n      0xffffffffffffffffffffffffffffffffffffffff\n      and\n        /* \"ridefair.sol\":9684:9720  users[users[msg.sender].currPairing] */\n      0xffffffffffffffffffffffffffffffffffffffff\n      and\n      0xffffffffffffffffffffffffffffffffffffffff\n      and\n      dup2\n      mstore\n      0x20\n      add\n      swap1\n      dup2\n      mstore\n      0x20\n      add\n      0x0\n      keccak256\n        /* \"ridefair.sol\":9684:9727  users[users[msg.sender].currPairing].number */\n      0x1\n      add\n      sload\n        /* \"ridefair.sol\":9729:9730  0 */\n      0x0\n        /* \"ridefair.sol\":9651:9731  undone(users[msg.sender].number, users[users[msg.sender].currPairing].number, 0) */\n      mload(0x40)\n      tag_134\n      swap4\n      swap3\n      swap2\n      swap1\n      jump(tag_135)\n    tag_134:\n      mload(0x40)\n      dup1\n      swap2\n      sub\n      swap1\n      log1\n        /* \"ridefair.sol\":9745:9762  reset(msg.sender) */\n      tag_136\n        /* \"ridefair.sol\":9751:9761  msg.sender */\n      caller\n        /* \"ridefair.sol\":9745:9750  reset */\n      tag_137\n        /* \"ridefair.sol\":9745:9762  reset(msg.sender) */\n      jump\t// in\n    tag_136:\n        /* \"ridefair.sol\":9537:11053  if(users[msg.sender].inProgress == true){... */\n      jump(tag_138)\n    tag_133:\n        /* \"ridefair.sol\":9830:9842  Status.RIDER */\n      0x1\n        /* \"ridefair.sol\":9803:9842  users[msg.sender].state == Status.RIDER */\n      0x2\n      dup2\n      gt\n      iszero\n      tag_139\n      jumpi\n      invalid\n    tag_139:\n        /* \"ridefair.sol\":9803:9808  users */\n      0x0\n        /* \"ridefair.sol\":9803:9820  users[msg.sender] */\n      dup1\n        /* \"ridefair.sol\":9809:9819  msg.sender */\n      caller\n        /* \"ridefair.sol\":9803:9820  users[msg.sender] */\n      0xffffffffffffffffffffffffffffffffffffffff\n      and\n      0xffffffffffffffffffffffffffffffffffffffff\n      and\n      dup2\n      mstore\n      0x20\n      add\n      swap1\n      dup2\n      mstore\n      0x20\n      add\n      0x0\n      keccak256\n        /* \"ridefair.sol\":9803:9826  users[msg.sender].state */\n      0x2\n      add\n      0x0\n      swap1\n      sload\n      swap1\n      0x100\n      exp\n      swap1\n      div\n      0xff\n      and\n        /* \"ridefair.sol\":9803:9842  users[msg.sender].state == Status.RIDER */\n      0x2\n      dup2\n      gt\n      iszero\n      tag_140\n      jumpi\n      invalid\n    tag_140:\n      eq\n        /* \"ridefair.sol\":9800:11043  if(users[msg.sender].state == Status.RIDER){... */\n      iszero\n      tag_141\n      jumpi\n        /* \"ridefair.sol\":9897:9902  false */\n      0x0\n        /* \"ridefair.sol\":9864:9902  users[msg.sender].driverArrived==false */\n      iszero\n      iszero\n        /* \"ridefair.sol\":9864:9869  users */\n      0x0\n        /* \"ridefair.sol\":9864:9881  users[msg.sender] */\n      dup1\n        /* \"ridefair.sol\":9870:9880  msg.sender */\n      caller\n        /* \"ridefair.sol\":9864:9881  users[msg.sender] */\n      0xffffffffffffffffffffffffffffffffffffffff\n      and\n      0xffffffffffffffffffffffffffffffffffffffff\n      and\n      dup2\n      mstore\n      0x20\n      add\n      swap1\n      dup2\n      mstore\n      0x20\n      add\n      0x0\n      keccak256\n        /* \"ridefair.sol\":9864:9895  users[msg.sender].driverArrived */\n      0x8\n      add\n      0x0\n      swap1\n      sload\n      swap1\n      0x100\n      exp\n      swap1\n      div\n      0xff\n      and\n        /* \"ridefair.sol\":9864:9902  users[msg.sender].driverArrived==false */\n      iszero\n      iszero\n      eq\n        /* \"ridefair.sol\":9864:9939  users[msg.sender].driverArrived==false && now>users[msg.sender].arrivalTime */\n      dup1\n      iszero\n      tag_142\n      jumpi\n      pop\n        /* \"ridefair.sol\":9910:9915  users */\n      0x0\n        /* \"ridefair.sol\":9910:9927  users[msg.sender] */\n      dup1\n        /* \"ridefair.sol\":9916:9926  msg.sender */\n      caller\n        /* \"ridefair.sol\":9910:9927  users[msg.sender] */\n      0xffffffffffffffffffffffffffffffffffffffff\n      and\n      0xffffffffffffffffffffffffffffffffffffffff\n      and\n      dup2\n      mstore\n      0x20\n      add\n      swap1\n      dup2\n      mstore\n      0x20\n      add\n      0x0\n      keccak256\n        /* \"ridefair.sol\":9910:9939  users[msg.sender].arrivalTime */\n      0x7\n      add\n      sload\n        /* \"ridefair.sol\":9906:9909  now */\n      timestamp\n        /* \"ridefair.sol\":9906:9939  now>users[msg.sender].arrivalTime */\n      gt\n        /* \"ridefair.sol\":9864:9939  users[msg.sender].driverArrived==false && now>users[msg.sender].arrivalTime */\n    tag_142:\n        /* \"ridefair.sol\":9861:10427  if(users[msg.sender].driverArrived==false && now>users[msg.sender].arrivalTime){... */\n      iszero\n      tag_143\n      jumpi\n        /* \"ridefair.sol\":10030:10110  undone(users[msg.sender].number, users[users[msg.sender].currPairing].number, 0) */\n      0x5b1b690b017b49e02e426b145ec66a70f4259c7a0a7bfb5609363922cec65eef\n        /* \"ridefair.sol\":10037:10042  users */\n      0x0\n        /* \"ridefair.sol\":10037:10054  users[msg.sender] */\n      dup1\n        /* \"ridefair.sol\":10043:10053  msg.sender */\n      caller\n        /* \"ridefair.sol\":10037:10054  users[msg.sender] */\n      0xffffffffffffffffffffffffffffffffffffffff\n      and\n      0xffffffffffffffffffffffffffffffffffffffff\n      and\n      dup2\n      mstore\n      0x20\n      add\n      swap1\n      dup2\n      mstore\n      0x20\n      add\n      0x0\n      keccak256\n        /* \"ridefair.sol\":10037:10061  users[msg.sender].number */\n      0x1\n      add\n      sload\n        /* \"ridefair.sol\":10063:10068  users */\n      0x0\n        /* \"ridefair.sol\":10063:10099  users[users[msg.sender].currPairing] */\n      dup1\n        /* \"ridefair.sol\":10069:10074  users */\n      dup1\n        /* \"ridefair.sol\":10069:10086  users[msg.sender] */\n      0x0\n        /* \"ridefair.sol\":10075:10085  msg.sender */\n      caller\n        /* \"ridefair.sol\":10069:10086  users[msg.sender] */\n      0xffffffffffffffffffffffffffffffffffffffff\n      and\n      0xffffffffffffffffffffffffffffffffffffffff\n      and\n      dup2\n      mstore\n      0x20\n      add\n      swap1\n      dup2\n      mstore\n      0x20\n      add\n      0x0\n      keccak256\n        /* \"ridefair.sol\":10069:10098  users[msg.sender].currPairing */\n      0x2\n      add\n      0x1\n      swap1\n      sload\n      swap1\n      0x100\n      exp\n      swap1\n      div\n      0xffffffffffffffffffffffffffffffffffffffff\n      and\n        /* \"ridefair.sol\":10063:10099  users[users[msg.sender].currPairing] */\n      0xffffffffffffffffffffffffffffffffffffffff\n      and\n      0xffffffffffffffffffffffffffffffffffffffff\n      and\n      dup2\n      mstore\n      0x20\n      add\n      swap1\n      dup2\n      mstore\n      0x20\n      add\n      0x0\n      keccak256\n        /* \"ridefair.sol\":10063:10106  users[users[msg.sender].currPairing].number */\n      0x1\n      add\n      sload\n        /* \"ridefair.sol\":10108:10109  0 */\n      0x0\n        /* \"ridefair.sol\":10030:10110  undone(users[msg.sender].number, users[users[msg.sender].currPairing].number, 0) */\n      mload(0x40)\n      tag_144\n      swap4\n      swap3\n      swap2\n      swap1\n      jump(tag_135)\n    tag_144:\n      mload(0x40)\n      dup1\n      swap2\n      sub\n      swap1\n      log1\n        /* \"ridefair.sol\":10132:10149  reset(msg.sender) */\n      tag_145\n        /* \"ridefair.sol\":10138:10148  msg.sender */\n      caller\n        /* \"ridefair.sol\":10132:10137  reset */\n      tag_137\n        /* \"ridefair.sol\":10132:10149  reset(msg.sender) */\n      jump\t// in\n    tag_145:\n        /* \"ridefair.sol\":9861:10427  if(users[msg.sender].driverArrived==false && now>users[msg.sender].arrivalTime){... */\n      jump(tag_146)\n    tag_143:\n        /* \"ridefair.sol\":10281:10369  undone(users[msg.sender].number, users[users[msg.sender].currPairing].number, msg.value) */\n      0x5b1b690b017b49e02e426b145ec66a70f4259c7a0a7bfb5609363922cec65eef\n        /* \"ridefair.sol\":10288:10293  users */\n      0x0\n        /* \"ridefair.sol\":10288:10305  users[msg.sender] */\n      dup1\n        /* \"ridefair.sol\":10294:10304  msg.sender */\n      caller\n        /* \"ridefair.sol\":10288:10305  users[msg.sender] */\n      0xffffffffffffffffffffffffffffffffffffffff\n      and\n      0xffffffffffffffffffffffffffffffffffffffff\n      and\n      dup2\n      mstore\n      0x20\n      add\n      swap1\n      dup2\n      mstore\n      0x20\n      add\n      0x0\n      keccak256\n        /* \"ridefair.sol\":10288:10312  users[msg.sender].number */\n      0x1\n      add\n      sload\n        /* \"ridefair.sol\":10314:10319  users */\n      0x0\n        /* \"ridefair.sol\":10314:10350  users[users[msg.sender].currPairing] */\n      dup1\n        /* \"ridefair.sol\":10320:10325  users */\n      dup1\n        /* \"ridefair.sol\":10320:10337  users[msg.sender] */\n      0x0\n        /* \"ridefair.sol\":10326:10336  msg.sender */\n      caller\n        /* \"ridefair.sol\":10320:10337  users[msg.sender] */\n      0xffffffffffffffffffffffffffffffffffffffff\n      and\n      0xffffffffffffffffffffffffffffffffffffffff\n      and\n      dup2\n      mstore\n      0x20\n      add\n      swap1\n      dup2\n      mstore\n      0x20\n      add\n      0x0\n      keccak256\n        /* \"ridefair.sol\":10320:10349  users[msg.sender].currPairing */\n      0x2\n      add\n      0x1\n      swap1\n      sload\n      swap1\n      0x100\n      exp\n      swap1\n      div\n      0xffffffffffffffffffffffffffffffffffffffff\n      and\n        /* \"ridefair.sol\":10314:10350  users[users[msg.sender].currPairing] */\n      0xffffffffffffffffffffffffffffffffffffffff\n      and\n      0xffffffffffffffffffffffffffffffffffffffff\n      and\n      dup2\n      mstore\n      0x20\n      add\n      swap1\n      dup2\n      mstore\n      0x20\n      add\n      0x0\n      keccak256\n        /* \"ridefair.sol\":10314:10357  users[users[msg.sender].currPairing].number */\n      0x1\n      add\n      sload\n        /* \"ridefair.sol\":10359:10368  msg.value */\n      callvalue\n        /* \"ridefair.sol\":10281:10369  undone(users[msg.sender].number, users[users[msg.sender].currPairing].number, msg.value) */\n      mload(0x40)\n      tag_147\n      swap4\n      swap3\n      swap2\n      swap1\n      jump(tag_148)\n    tag_147:\n      mload(0x40)\n      dup1\n      swap2\n      sub\n      swap1\n      log1\n        /* \"ridefair.sol\":10391:10408  reset(msg.sender) */\n      tag_149\n        /* \"ridefair.sol\":10397:10407  msg.sender */\n      caller\n        /* \"ridefair.sol\":10391:10396  reset */\n      tag_137\n        /* \"ridefair.sol\":10391:10408  reset(msg.sender) */\n      jump\t// in\n    tag_149:\n        /* \"ridefair.sol\":9861:10427  if(users[msg.sender].driverArrived==false && now>users[msg.sender].arrivalTime){... */\n    tag_146:\n        /* \"ridefair.sol\":9800:11043  if(users[msg.sender].state == Status.RIDER){... */\n      jump(tag_150)\n    tag_141:\n        /* \"ridefair.sol\":10499:10503  true */\n      0x1\n        /* \"ridefair.sol\":10466:10503  users[msg.sender].driverArrived==true */\n      iszero\n      iszero\n        /* \"ridefair.sol\":10466:10471  users */\n      0x0\n        /* \"ridefair.sol\":10466:10483  users[msg.sender] */\n      dup1\n        /* \"ridefair.sol\":10472:10482  msg.sender */\n      caller\n        /* \"ridefair.sol\":10466:10483  users[msg.sender] */\n      0xffffffffffffffffffffffffffffffffffffffff\n      and\n      0xffffffffffffffffffffffffffffffffffffffff\n      and\n      dup2\n      mstore\n      0x20\n      add\n      swap1\n      dup2\n      mstore\n      0x20\n      add\n      0x0\n      keccak256\n        /* \"ridefair.sol\":10466:10497  users[msg.sender].driverArrived */\n      0x8\n      add\n      0x0\n      swap1\n      sload\n      swap1\n      0x100\n      exp\n      swap1\n      div\n      0xff\n      and\n        /* \"ridefair.sol\":10466:10503  users[msg.sender].driverArrived==true */\n      iszero\n      iszero\n      eq\n        /* \"ridefair.sol\":10466:10540  users[msg.sender].driverArrived==true && now>users[msg.sender].arrivalTime */\n      dup1\n      iszero\n      tag_151\n      jumpi\n      pop\n        /* \"ridefair.sol\":10511:10516  users */\n      0x0\n        /* \"ridefair.sol\":10511:10528  users[msg.sender] */\n      dup1\n        /* \"ridefair.sol\":10517:10527  msg.sender */\n      caller\n        /* \"ridefair.sol\":10511:10528  users[msg.sender] */\n      0xffffffffffffffffffffffffffffffffffffffff\n      and\n      0xffffffffffffffffffffffffffffffffffffffff\n      and\n      dup2\n      mstore\n      0x20\n      add\n      swap1\n      dup2\n      mstore\n      0x20\n      add\n      0x0\n      keccak256\n        /* \"ridefair.sol\":10511:10540  users[msg.sender].arrivalTime */\n      0x7\n      add\n      sload\n        /* \"ridefair.sol\":10507:10510  now */\n      timestamp\n        /* \"ridefair.sol\":10507:10540  now>users[msg.sender].arrivalTime */\n      gt\n        /* \"ridefair.sol\":10466:10540  users[msg.sender].driverArrived==true && now>users[msg.sender].arrivalTime */\n    tag_151:\n        /* \"ridefair.sol\":10463:11028  if(users[msg.sender].driverArrived==true && now>users[msg.sender].arrivalTime){... */\n      iszero\n      tag_152\n      jumpi\n        /* \"ridefair.sol\":10631:10711  undone(users[msg.sender].number, users[users[msg.sender].currPairing].number, 0) */\n      0x5b1b690b017b49e02e426b145ec66a70f4259c7a0a7bfb5609363922cec65eef\n        /* \"ridefair.sol\":10638:10643  users */\n      0x0\n        /* \"ridefair.sol\":10638:10655  users[msg.sender] */\n      dup1\n        /* \"ridefair.sol\":10644:10654  msg.sender */\n      caller\n        /* \"ridefair.sol\":10638:10655  users[msg.sender] */\n      0xffffffffffffffffffffffffffffffffffffffff\n      and\n      0xffffffffffffffffffffffffffffffffffffffff\n      and\n      dup2\n      mstore\n      0x20\n      add\n      swap1\n      dup2\n      mstore\n      0x20\n      add\n      0x0\n      keccak256\n        /* \"ridefair.sol\":10638:10662  users[msg.sender].number */\n      0x1\n      add\n      sload\n        /* \"ridefair.sol\":10664:10669  users */\n      0x0\n        /* \"ridefair.sol\":10664:10700  users[users[msg.sender].currPairing] */\n      dup1\n        /* \"ridefair.sol\":10670:10675  users */\n      dup1\n        /* \"ridefair.sol\":10670:10687  users[msg.sender] */\n      0x0\n        /* \"ridefair.sol\":10676:10686  msg.sender */\n      caller\n        /* \"ridefair.sol\":10670:10687  users[msg.sender] */\n      0xffffffffffffffffffffffffffffffffffffffff\n      and\n      0xffffffffffffffffffffffffffffffffffffffff\n      and\n      dup2\n      mstore\n      0x20\n      add\n      swap1\n      dup2\n      mstore\n      0x20\n      add\n      0x0\n      keccak256\n        /* \"ridefair.sol\":10670:10699  users[msg.sender].currPairing */\n      0x2\n      add\n      0x1\n      swap1\n      sload\n      swap1\n      0x100\n      exp\n      swap1\n      div\n      0xffffffffffffffffffffffffffffffffffffffff\n      and\n        /* \"ridefair.sol\":10664:10700  users[users[msg.sender].currPairing] */\n      0xffffffffffffffffffffffffffffffffffffffff\n      and\n      0xffffffffffffffffffffffffffffffffffffffff\n      and\n      dup2\n      mstore\n      0x20\n      add\n      swap1\n      dup2\n      mstore\n      0x20\n      add\n      0x0\n      keccak256\n        /* \"ridefair.sol\":10664:10707  users[users[msg.sender].currPairing].number */\n      0x1\n      add\n      sload\n        /* \"ridefair.sol\":10709:10710  0 */\n      0x0\n        /* \"ridefair.sol\":10631:10711  undone(users[msg.sender].number, users[users[msg.sender].currPairing].number, 0) */\n      mload(0x40)\n      tag_153\n      swap4\n      swap3\n      swap2\n      swap1\n      jump(tag_135)\n    tag_153:\n      mload(0x40)\n      dup1\n      swap2\n      sub\n      swap1\n      log1\n        /* \"ridefair.sol\":10733:10750  reset(msg.sender) */\n      tag_154\n        /* \"ridefair.sol\":10739:10749  msg.sender */\n      caller\n        /* \"ridefair.sol\":10733:10738  reset */\n      tag_137\n        /* \"ridefair.sol\":10733:10750  reset(msg.sender) */\n      jump\t// in\n    tag_154:\n        /* \"ridefair.sol\":10463:11028  if(users[msg.sender].driverArrived==true && now>users[msg.sender].arrivalTime){... */\n      jump(tag_155)\n    tag_152:\n        /* \"ridefair.sol\":10882:10970  undone(users[msg.sender].number, users[users[msg.sender].currPairing].number, msg.value) */\n      0x5b1b690b017b49e02e426b145ec66a70f4259c7a0a7bfb5609363922cec65eef\n        /* \"ridefair.sol\":10889:10894  users */\n      0x0\n        /* \"ridefair.sol\":10889:10906  users[msg.sender] */\n      dup1\n        /* \"ridefair.sol\":10895:10905  msg.sender */\n      caller\n        /* \"ridefair.sol\":10889:10906  users[msg.sender] */\n      0xffffffffffffffffffffffffffffffffffffffff\n      and\n      0xffffffffffffffffffffffffffffffffffffffff\n      and\n      dup2\n      mstore\n      0x20\n      add\n      swap1\n      dup2\n      mstore\n      0x20\n      add\n      0x0\n      keccak256\n        /* \"ridefair.sol\":10889:10913  users[msg.sender].number */\n      0x1\n      add\n      sload\n        /* \"ridefair.sol\":10915:10920  users */\n      0x0\n        /* \"ridefair.sol\":10915:10951  users[users[msg.sender].currPairing] */\n      dup1\n        /* \"ridefair.sol\":10921:10926  users */\n      dup1\n        /* \"ridefair.sol\":10921:10938  users[msg.sender] */\n      0x0\n        /* \"ridefair.sol\":10927:10937  msg.sender */\n      caller\n        /* \"ridefair.sol\":10921:10938  users[msg.sender] */\n      0xffffffffffffffffffffffffffffffffffffffff\n      and\n      0xffffffffffffffffffffffffffffffffffffffff\n      and\n      dup2\n      mstore\n      0x20\n      add\n      swap1\n      dup2\n      mstore\n      0x20\n      add\n      0x0\n      keccak256\n        /* \"ridefair.sol\":10921:10950  users[msg.sender].currPairing */\n      0x2\n      add\n      0x1\n      swap1\n      sload\n      swap1\n      0x100\n      exp\n      swap1\n      div\n      0xffffffffffffffffffffffffffffffffffffffff\n      and\n        /* \"ridefair.sol\":10915:10951  users[users[msg.sender].currPairing] */\n      0xffffffffffffffffffffffffffffffffffffffff\n      and\n      0xffffffffffffffffffffffffffffffffffffffff\n      and\n      dup2\n      mstore\n      0x20\n      add\n      swap1\n      dup2\n      mstore\n      0x20\n      add\n      0x0\n      keccak256\n        /* \"ridefair.sol\":10915:10958  users[users[msg.sender].currPairing].number */\n      0x1\n      add\n      sload\n        /* \"ridefair.sol\":10960:10969  msg.value */\n      callvalue\n        /* \"ridefair.sol\":10882:10970  undone(users[msg.sender].number, users[users[msg.sender].currPairing].number, msg.value) */\n      mload(0x40)\n      tag_156\n      swap4\n      swap3\n      swap2\n      swap1\n      jump(tag_148)\n    tag_156:\n      mload(0x40)\n      dup1\n      swap2\n      sub\n      swap1\n      log1\n        /* \"ridefair.sol\":10992:11009  reset(msg.sender) */\n      tag_157\n        /* \"ridefair.sol\":10998:11008  msg.sender */\n      caller\n        /* \"ridefair.sol\":10992:10997  reset */\n      tag_137\n        /* \"ridefair.sol\":10992:11009  reset(msg.sender) */\n      jump\t// in\n    tag_157:\n        /* \"ridefair.sol\":10463:11028  if(users[msg.sender].driverArrived==true && now>users[msg.sender].arrivalTime){... */\n    tag_155:\n        /* \"ridefair.sol\":9800:11043  if(users[msg.sender].state == Status.RIDER){... */\n    tag_150:\n        /* \"ridefair.sol\":9537:11053  if(users[msg.sender].inProgress == true){... */\n    tag_138:\n        /* \"ridefair.sol\":9158:11059  function userReset() public payable{... */\n      jump\t// out\n        /* \"ridefair.sol\":1570:2776  function driveRequest() public{... */\n    tag_24:\n        /* \"ridefair.sol\":1741:1746  false */\n      0x0\n        /* \"ridefair.sol\":1713:1746  users[msg.sender].isUser == false */\n      iszero\n      iszero\n        /* \"ridefair.sol\":1713:1718  users */\n      0x0\n        /* \"ridefair.sol\":1713:1730  users[msg.sender] */\n      dup1\n        /* \"ridefair.sol\":1719:1729  msg.sender */\n      caller\n        /* \"ridefair.sol\":1713:1730  users[msg.sender] */\n      0xffffffffffffffffffffffffffffffffffffffff\n      and\n      0xffffffffffffffffffffffffffffffffffffffff\n      and\n      dup2\n      mstore\n      0x20\n      add\n      swap1\n      dup2\n      mstore\n      0x20\n      add\n      0x0\n      keccak256\n        /* \"ridefair.sol\":1713:1737  users[msg.sender].isUser */\n      0x0\n      add\n      0x0\n      swap1\n      sload\n      swap1\n      0x100\n      exp\n      swap1\n      div\n      0xff\n      and\n        /* \"ridefair.sol\":1713:1746  users[msg.sender].isUser == false */\n      iszero\n      iszero\n      eq\n        /* \"ridefair.sol\":1710:2770  if(users[msg.sender].isUser == false){... */\n      iszero\n      tag_159\n      jumpi\n        /* \"ridefair.sol\":1761:1769  userList */\n      0x1\n        /* \"ridefair.sol\":1775:1785  msg.sender */\n      caller\n        /* \"ridefair.sol\":1761:1786  userList.push(msg.sender) */\n      swap1\n      dup1\n        /* \"--CODEGEN--\":39:40   */\n      0x1\n        /* \"--CODEGEN--\":33:36   */\n      dup2\n        /* \"--CODEGEN--\":27:37   */\n      sload\n        /* \"--CODEGEN--\":23:41   */\n      add\n        /* \"--CODEGEN--\":57:67   */\n      dup1\n        /* \"--CODEGEN--\":52:55   */\n      dup3\n        /* \"--CODEGEN--\":45:68   */\n      sstore\n        /* \"--CODEGEN--\":79:89   */\n      dup1\n        /* \"--CODEGEN--\":72:89   */\n      swap2\n      pop\n        /* \"--CODEGEN--\":0:93   */\n      pop\n        /* \"ridefair.sol\":1761:1786  userList.push(msg.sender) */\n      swap1\n      0x1\n      dup3\n      sub\n      swap1\n      0x0\n      mstore\n      keccak256(0x0, 0x20)\n      add\n      0x0\n      swap1\n      swap2\n      swap3\n      swap1\n      swap2\n      swap1\n      swap2\n      0x100\n      exp\n      dup2\n      sload\n      dup2\n      0xffffffffffffffffffffffffffffffffffffffff\n      mul\n      not\n      and\n      swap1\n      dup4\n      0xffffffffffffffffffffffffffffffffffffffff\n      and\n      mul\n      or\n      swap1\n      sstore\n      pop\n      pop\n        /* \"ridefair.sol\":1820:2261  user({... */\n      0x160\n      mload(0x40)\n      swap1\n      dup2\n      add\n      0x40\n      mstore\n      dup1\n        /* \"ridefair.sol\":1851:1855  true */\n      0x1\n        /* \"ridefair.sol\":1820:2261  user({... */\n      iszero\n      iszero\n      dup2\n      mstore\n      0x20\n      add\n        /* \"ridefair.sol\":1897:1898  1 */\n      0x1\n        /* \"ridefair.sol\":1881:1889  userList */\n      dup1\n        /* \"ridefair.sol\":1881:1896  userList.length */\n      dup1\n      sload\n      swap1\n      pop\n        /* \"ridefair.sol\":1881:1898  userList.length-1 */\n      sub\n        /* \"ridefair.sol\":1820:2261  user({... */\n      dup2\n      mstore\n      0x20\n      add\n        /* \"ridefair.sol\":1923:1936  Status.DRIVER */\n      0x2\n        /* \"ridefair.sol\":1820:2261  user({... */\n      dup1\n      dup2\n      gt\n      iszero\n      tag_161\n      jumpi\n      invalid\n    tag_161:\n      dup2\n      mstore\n      0x20\n      add\n        /* \"ridefair.sol\":1975:1976  0 */\n      0x0\n        /* \"ridefair.sol\":1820:2261  user({... */\n      0xffffffffffffffffffffffffffffffffffffffff\n      and\n      dup2\n      mstore\n      0x20\n      add\n        /* \"ridefair.sol\":2003:2033  coordinates({lat: 0, long: 0}) */\n      0x40\n      dup1\n      mload\n      swap1\n      dup2\n      add\n      0x40\n      mstore\n      dup1\n        /* \"ridefair.sol\":2021:2022  0 */\n      0x0\n        /* \"ridefair.sol\":2003:2033  coordinates({lat: 0, long: 0}) */\n      dup2\n      mstore\n      0x20\n      add\n        /* \"ridefair.sol\":2030:2031  0 */\n      0x0\n        /* \"ridefair.sol\":2003:2033  coordinates({lat: 0, long: 0}) */\n      dup2\n      mstore\n      pop\n        /* \"ridefair.sol\":1820:2261  user({... */\n      dup2\n      mstore\n      0x20\n      add\n        /* \"ridefair.sol\":2060:2090  coordinates({lat: 0, long: 0}) */\n      0x40\n      dup1\n      mload\n      swap1\n      dup2\n      add\n      0x40\n      mstore\n      dup1\n        /* \"ridefair.sol\":2078:2079  0 */\n      0x0\n        /* \"ridefair.sol\":2060:2090  coordinates({lat: 0, long: 0}) */\n      dup2\n      mstore\n      0x20\n      add\n        /* \"ridefair.sol\":2087:2088  0 */\n      0x0\n        /* \"ridefair.sol\":2060:2090  coordinates({lat: 0, long: 0}) */\n      dup2\n      mstore\n      pop\n        /* \"ridefair.sol\":1820:2261  user({... */\n      dup2\n      mstore\n      0x20\n      add\n        /* \"ridefair.sol\":2121:2122  0 */\n      0x0\n        /* \"ridefair.sol\":1820:2261  user({... */\n      dup2\n      mstore\n      0x20\n      add\n        /* \"ridefair.sol\":2155:2159  true */\n      0x1\n        /* \"ridefair.sol\":1820:2261  user({... */\n      iszero\n      iszero\n      dup2\n      mstore\n      0x20\n      add\n        /* \"ridefair.sol\":2189:2194  false */\n      0x0\n        /* \"ridefair.sol\":1820:2261  user({... */\n      iszero\n      iszero\n      dup2\n      mstore\n      0x20\n      add\n        /* \"ridefair.sol\":2220:2221  0 */\n      0x0\n        /* \"ridefair.sol\":1820:2261  user({... */\n      dup2\n      mstore\n      0x20\n      add\n        /* \"ridefair.sol\":2245:2246  0 */\n      0x0\n        /* \"ridefair.sol\":1820:2261  user({... */\n      dup2\n      mstore\n      pop\n        /* \"ridefair.sol\":1800:1805  users */\n      0x0\n        /* \"ridefair.sol\":1800:1817  users[msg.sender] */\n      dup1\n        /* \"ridefair.sol\":1806:1816  msg.sender */\n      caller\n        /* \"ridefair.sol\":1800:1817  users[msg.sender] */\n      0xffffffffffffffffffffffffffffffffffffffff\n      and\n      0xffffffffffffffffffffffffffffffffffffffff\n      and\n      dup2\n      mstore\n      0x20\n      add\n      swap1\n      dup2\n      mstore\n      0x20\n      add\n      0x0\n      keccak256\n        /* \"ridefair.sol\":1800:2261  users[msg.sender] = user({... */\n      0x0\n      dup3\n      add\n      mload\n      dup2\n      0x0\n      add\n      exp(0x100, 0x0)\n      dup2\n      sload\n      dup2\n      0xff\n      mul\n      not\n      and\n      swap1\n      dup4\n      iszero\n      iszero\n      mul\n      or\n      swap1\n      sstore\n      pop\n      0x20\n      dup3\n      add\n      mload\n      dup2\n      0x1\n      add\n      sstore\n      0x40\n      dup3\n      add\n      mload\n      dup2\n      0x2\n      add\n      exp(0x100, 0x0)\n      dup2\n      sload\n      dup2\n      0xff\n      mul\n      not\n      and\n      swap1\n      dup4\n      0x2\n      dup2\n      gt\n      iszero\n      tag_162\n      jumpi\n      invalid\n    tag_162:\n      mul\n      or\n      swap1\n      sstore\n      pop\n      0x60\n      dup3\n      add\n      mload\n      dup2\n      0x2\n      add\n      exp(0x100, 0x1)\n      dup2\n      sload\n      dup2\n      0xffffffffffffffffffffffffffffffffffffffff\n      mul\n      not\n      and\n      swap1\n      dup4\n      0xffffffffffffffffffffffffffffffffffffffff\n      and\n      mul\n      or\n      swap1\n      sstore\n      pop\n      0x80\n      dup3\n      add\n      mload\n      dup2\n      0x3\n      add\n      0x0\n      dup3\n      add\n      mload\n      dup2\n      0x0\n      add\n      sstore\n      0x20\n      dup3\n      add\n      mload\n      dup2\n      0x1\n      add\n      sstore\n      pop\n      pop\n      0xa0\n      dup3\n      add\n      mload\n      dup2\n      0x5\n      add\n      0x0\n      dup3\n      add\n      mload\n      dup2\n      0x0\n      add\n      sstore\n      0x20\n      dup3\n      add\n      mload\n      dup2\n      0x1\n      add\n      sstore\n      pop\n      pop\n      0xc0\n      dup3\n      add\n      mload\n      dup2\n      0x7\n      add\n      sstore\n      0xe0\n      dup3\n      add\n      mload\n      dup2\n      0x8\n      add\n      exp(0x100, 0x0)\n      dup2\n      sload\n      dup2\n      0xff\n      mul\n      not\n      and\n      swap1\n      dup4\n      iszero\n      iszero\n      mul\n      or\n      swap1\n      sstore\n      pop\n      0x100\n      dup3\n      add\n      mload\n      dup2\n      0x8\n      add\n      exp(0x100, 0x1)\n      dup2\n      sload\n      dup2\n      0xff\n      mul\n      not\n      and\n      swap1\n      dup4\n      iszero\n      iszero\n      mul\n      or\n      swap1\n      sstore\n      pop\n      0x120\n      dup3\n      add\n      mload\n      dup2\n      0x9\n      add\n      sstore\n      0x140\n      dup3\n      add\n      mload\n      dup2\n      0xa\n      add\n      sstore\n      swap1\n      pop\n      pop\n        /* \"ridefair.sol\":1710:2770  if(users[msg.sender].isUser == false){... */\n      jump(tag_163)\n    tag_159:\n        /* \"ridefair.sol\":2316:2329  Status.DRIVER */\n      0x2\n        /* \"ridefair.sol\":2290:2295  users */\n      0x0\n        /* \"ridefair.sol\":2290:2307  users[msg.sender] */\n      dup1\n        /* \"ridefair.sol\":2296:2306  msg.sender */\n      caller\n        /* \"ridefair.sol\":2290:2307  users[msg.sender] */\n      0xffffffffffffffffffffffffffffffffffffffff\n      and\n      0xffffffffffffffffffffffffffffffffffffffff\n      and\n      dup2\n      mstore\n      0x20\n      add\n      swap1\n      dup2\n      mstore\n      0x20\n      add\n      0x0\n      keccak256\n        /* \"ridefair.sol\":2290:2313  users[msg.sender].state */\n      0x2\n      add\n      0x0\n        /* \"ridefair.sol\":2290:2329  users[msg.sender].state = Status.DRIVER */\n      0x100\n      exp\n      dup2\n      sload\n      dup2\n      0xff\n      mul\n      not\n      and\n      swap1\n      dup4\n      0x2\n      dup2\n      gt\n      iszero\n      tag_164\n      jumpi\n      invalid\n    tag_164:\n      mul\n      or\n      swap1\n      sstore\n      pop\n        /* \"ridefair.sol\":2383:2384  0 */\n      0x0\n        /* \"ridefair.sol\":2343:2348  users */\n      dup1\n        /* \"ridefair.sol\":2343:2360  users[msg.sender] */\n      0x0\n        /* \"ridefair.sol\":2349:2359  msg.sender */\n      caller\n        /* \"ridefair.sol\":2343:2360  users[msg.sender] */\n      0xffffffffffffffffffffffffffffffffffffffff\n      and\n      0xffffffffffffffffffffffffffffffffffffffff\n      and\n      dup2\n      mstore\n      0x20\n      add\n      swap1\n      dup2\n      mstore\n      0x20\n      add\n      0x0\n      keccak256\n        /* \"ridefair.sol\":2343:2372  users[msg.sender].currPairing */\n      0x2\n      add\n      0x1\n        /* \"ridefair.sol\":2343:2385  users[msg.sender].currPairing = address(0) */\n      0x100\n      exp\n      dup2\n      sload\n      dup2\n      0xffffffffffffffffffffffffffffffffffffffff\n      mul\n      not\n      and\n      swap1\n      dup4\n      0xffffffffffffffffffffffffffffffffffffffff\n      and\n      mul\n      or\n      swap1\n      sstore\n      pop\n        /* \"ridefair.sol\":2426:2456  coordinates({lat: 0, long: 0}) */\n      0x40\n      dup1\n      mload\n      swap1\n      dup2\n      add\n      0x40\n      mstore\n      dup1\n        /* \"ridefair.sol\":2444:2445  0 */\n      0x0\n        /* \"ridefair.sol\":2426:2456  coordinates({lat: 0, long: 0}) */\n      dup2\n      mstore\n      0x20\n      add\n        /* \"ridefair.sol\":2453:2454  0 */\n      0x0\n        /* \"ridefair.sol\":2426:2456  coordinates({lat: 0, long: 0}) */\n      dup2\n      mstore\n      pop\n        /* \"ridefair.sol\":2399:2404  users */\n      0x0\n        /* \"ridefair.sol\":2399:2416  users[msg.sender] */\n      dup1\n        /* \"ridefair.sol\":2405:2415  msg.sender */\n      caller\n        /* \"ridefair.sol\":2399:2416  users[msg.sender] */\n      0xffffffffffffffffffffffffffffffffffffffff\n      and\n      0xffffffffffffffffffffffffffffffffffffffff\n      and\n      dup2\n      mstore\n      0x20\n      add\n      swap1\n      dup2\n      mstore\n      0x20\n      add\n      0x0\n      keccak256\n        /* \"ridefair.sol\":2399:2423  users[msg.sender].pickup */\n      0x3\n      add\n        /* \"ridefair.sol\":2399:2456  users[msg.sender].pickup = coordinates({lat: 0, long: 0}) */\n      0x0\n      dup3\n      add\n      mload\n      dup2\n      0x0\n      add\n      sstore\n      0x20\n      dup3\n      add\n      mload\n      dup2\n      0x1\n      add\n      sstore\n      swap1\n      pop\n      pop\n        /* \"ridefair.sol\":2498:2528  coordinates({lat: 0, long: 0}) */\n      0x40\n      dup1\n      mload\n      swap1\n      dup2\n      add\n      0x40\n      mstore\n      dup1\n        /* \"ridefair.sol\":2516:2517  0 */\n      0x0\n        /* \"ridefair.sol\":2498:2528  coordinates({lat: 0, long: 0}) */\n      dup2\n      mstore\n      0x20\n      add\n        /* \"ridefair.sol\":2525:2526  0 */\n      0x0\n        /* \"ridefair.sol\":2498:2528  coordinates({lat: 0, long: 0}) */\n      dup2\n      mstore\n      pop\n        /* \"ridefair.sol\":2470:2475  users */\n      0x0\n        /* \"ridefair.sol\":2470:2487  users[msg.sender] */\n      dup1\n        /* \"ridefair.sol\":2476:2486  msg.sender */\n      caller\n        /* \"ridefair.sol\":2470:2487  users[msg.sender] */\n      0xffffffffffffffffffffffffffffffffffffffff\n      and\n      0xffffffffffffffffffffffffffffffffffffffff\n      and\n      dup2\n      mstore\n      0x20\n      add\n      swap1\n      dup2\n      mstore\n      0x20\n      add\n      0x0\n      keccak256\n        /* \"ridefair.sol\":2470:2495  users[msg.sender].dropoff */\n      0x5\n      add\n        /* \"ridefair.sol\":2470:2528  users[msg.sender].dropoff = coordinates({lat: 0, long: 0}) */\n      0x0\n      dup3\n      add\n      mload\n      dup2\n      0x0\n      add\n      sstore\n      0x20\n      dup3\n      add\n      mload\n      dup2\n      0x1\n      add\n      sstore\n      swap1\n      pop\n      pop\n        /* \"ridefair.sol\":2569:2570  0 */\n      0x0\n        /* \"ridefair.sol\":2542:2547  users */\n      dup1\n        /* \"ridefair.sol\":2542:2559  users[msg.sender] */\n      0x0\n        /* \"ridefair.sol\":2548:2558  msg.sender */\n      caller\n        /* \"ridefair.sol\":2542:2559  users[msg.sender] */\n      0xffffffffffffffffffffffffffffffffffffffff\n      and\n      0xffffffffffffffffffffffffffffffffffffffff\n      and\n      dup2\n      mstore\n      0x20\n      add\n      swap1\n      dup2\n      mstore\n      0x20\n      add\n      0x0\n      keccak256\n        /* \"ridefair.sol\":2542:2566  users[msg.sender].escrow */\n      0x9\n      add\n        /* \"ridefair.sol\":2542:2570  users[msg.sender].escrow = 0 */\n      dup2\n      swap1\n      sstore\n      pop\n        /* \"ridefair.sol\":2616:2617  0 */\n      0x0\n        /* \"ridefair.sol\":2584:2589  users */\n      dup1\n        /* \"ridefair.sol\":2584:2601  users[msg.sender] */\n      0x0\n        /* \"ridefair.sol\":2590:2600  msg.sender */\n      caller\n        /* \"ridefair.sol\":2584:2601  users[msg.sender] */\n      0xffffffffffffffffffffffffffffffffffffffff\n      and\n      0xffffffffffffffffffffffffffffffffffffffff\n      and\n      dup2\n      mstore\n      0x20\n      add\n      swap1\n      dup2\n      mstore\n      0x20\n      add\n      0x0\n      keccak256\n        /* \"ridefair.sol\":2584:2613  users[msg.sender].arrivalTime */\n      0x7\n      add\n        /* \"ridefair.sol\":2584:2617  users[msg.sender].arrivalTime = 0 */\n      dup2\n      swap1\n      sstore\n      pop\n        /* \"ridefair.sol\":2665:2669  true */\n      0x1\n        /* \"ridefair.sol\":2631:2636  users */\n      0x0\n        /* \"ridefair.sol\":2631:2648  users[msg.sender] */\n      dup1\n        /* \"ridefair.sol\":2637:2647  msg.sender */\n      caller\n        /* \"ridefair.sol\":2631:2648  users[msg.sender] */\n      0xffffffffffffffffffffffffffffffffffffffff\n      and\n      0xffffffffffffffffffffffffffffffffffffffff\n      and\n      dup2\n      mstore\n      0x20\n      add\n      swap1\n      dup2\n      mstore\n      0x20\n      add\n      0x0\n      keccak256\n        /* \"ridefair.sol\":2631:2662  users[msg.sender].driverArrived */\n      0x8\n      add\n      0x0\n        /* \"ridefair.sol\":2631:2669  users[msg.sender].driverArrived = true */\n      0x100\n      exp\n      dup2\n      sload\n      dup2\n      0xff\n      mul\n      not\n      and\n      swap1\n      dup4\n      iszero\n      iszero\n      mul\n      or\n      swap1\n      sstore\n      pop\n        /* \"ridefair.sol\":2714:2719  false */\n      0x0\n        /* \"ridefair.sol\":2683:2688  users */\n      dup1\n        /* \"ridefair.sol\":2683:2700  users[msg.sender] */\n      0x0\n        /* \"ridefair.sol\":2689:2699  msg.sender */\n      caller\n        /* \"ridefair.sol\":2683:2700  users[msg.sender] */\n      0xffffffffffffffffffffffffffffffffffffffff\n      and\n      0xffffffffffffffffffffffffffffffffffffffff\n      and\n      dup2\n      mstore\n      0x20\n      add\n      swap1\n      dup2\n      mstore\n      0x20\n      add\n      0x0\n      keccak256\n        /* \"ridefair.sol\":2683:2711  users[msg.sender].inProgress */\n      0x8\n      add\n      0x1\n        /* \"ridefair.sol\":2683:2719  users[msg.sender].inProgress = false */\n      0x100\n      exp\n      dup2\n      sload\n      dup2\n      0xff\n      mul\n      not\n      and\n      swap1\n      dup4\n      iszero\n      iszero\n      mul\n      or\n      swap1\n      sstore\n      pop\n        /* \"ridefair.sol\":2758:2759  0 */\n      0x0\n        /* \"ridefair.sol\":2733:2738  users */\n      dup1\n        /* \"ridefair.sol\":2733:2750  users[msg.sender] */\n      0x0\n        /* \"ridefair.sol\":2739:2749  msg.sender */\n      caller\n        /* \"ridefair.sol\":2733:2750  users[msg.sender] */\n      0xffffffffffffffffffffffffffffffffffffffff\n      and\n      0xffffffffffffffffffffffffffffffffffffffff\n      and\n      dup2\n      mstore\n      0x20\n      add\n      swap1\n      dup2\n      mstore\n      0x20\n      add\n      0x0\n      keccak256\n        /* \"ridefair.sol\":2733:2755  users[msg.sender].paid */\n      0xa\n      add\n        /* \"ridefair.sol\":2733:2759  users[msg.sender].paid = 0 */\n      dup2\n      swap1\n      sstore\n      pop\n        /* \"ridefair.sol\":1710:2770  if(users[msg.sender].isUser == false){... */\n    tag_163:\n        /* \"ridefair.sol\":1570:2776  function driveRequest() public{... */\n      jump\t// out\n        /* \"ridefair.sol\":821:847  address [] public userList */\n    tag_29:\n      0x1\n      dup2\n      dup2\n      sload\n      dup2\n      lt\n      iszero\n      iszero\n      tag_165\n      jumpi\n      invalid\n    tag_165:\n      swap1\n      0x0\n      mstore\n      keccak256(0x0, 0x20)\n      add\n      0x0\n      swap2\n      pop\n      sload\n      swap1\n      0x100\n      exp\n      swap1\n      div\n      0xffffffffffffffffffffffffffffffffffffffff\n      and\n      dup2\n      jump\t// out\n        /* \"ridefair.sol\":6446:7508  function informRider(int256[] memory loc) public{... */\n    tag_36:\n        /* \"ridefair.sol\":6958:6966  int dist */\n      0x0\n        /* \"ridefair.sol\":6601:6605  true */\n      0x1\n        /* \"ridefair.sol\":6575:6605  users[msg.sender].isUser==true */\n      iszero\n      iszero\n        /* \"ridefair.sol\":6575:6580  users */\n      0x0\n        /* \"ridefair.sol\":6575:6592  users[msg.sender] */\n      dup1\n        /* \"ridefair.sol\":6581:6591  msg.sender */\n      caller\n        /* \"ridefair.sol\":6575:6592  users[msg.sender] */\n      0xffffffffffffffffffffffffffffffffffffffff\n      and\n      0xffffffffffffffffffffffffffffffffffffffff\n      and\n      dup2\n      mstore\n      0x20\n      add\n      swap1\n      dup2\n      mstore\n      0x20\n      add\n      0x0\n      keccak256\n        /* \"ridefair.sol\":6575:6599  users[msg.sender].isUser */\n      0x0\n      add\n      0x0\n      swap1\n      sload\n      swap1\n      0x100\n      exp\n      swap1\n      div\n      0xff\n      and\n        /* \"ridefair.sol\":6575:6605  users[msg.sender].isUser==true */\n      iszero\n      iszero\n      eq\n        /* \"ridefair.sol\":6567:6643  require(users[msg.sender].isUser==true, \"Need to be a user to inform rider\") */\n      iszero\n      iszero\n      tag_168\n      jumpi\n      mload(0x40)\n      0x8c379a000000000000000000000000000000000000000000000000000000000\n      dup2\n      mstore\n      0x4\n      add\n      tag_169\n      swap1\n      jump(tag_170)\n    tag_169:\n      mload(0x40)\n      dup1\n      swap2\n      sub\n      swap1\n      revert\n    tag_168:\n        /* \"ridefair.sol\":6686:6699  Status.DRIVER */\n      0x2\n        /* \"ridefair.sol\":6661:6699  users[msg.sender].state==Status.DRIVER */\n      dup1\n      dup2\n      gt\n      iszero\n      tag_171\n      jumpi\n      invalid\n    tag_171:\n        /* \"ridefair.sol\":6661:6666  users */\n      0x0\n        /* \"ridefair.sol\":6661:6678  users[msg.sender] */\n      dup1\n        /* \"ridefair.sol\":6667:6677  msg.sender */\n      caller\n        /* \"ridefair.sol\":6661:6678  users[msg.sender] */\n      0xffffffffffffffffffffffffffffffffffffffff\n      and\n      0xffffffffffffffffffffffffffffffffffffffff\n      and\n      dup2\n      mstore\n      0x20\n      add\n      swap1\n      dup2\n      mstore\n      0x20\n      add\n      0x0\n      keccak256\n        /* \"ridefair.sol\":6661:6684  users[msg.sender].state */\n      0x2\n      add\n      0x0\n      swap1\n      sload\n      swap1\n      0x100\n      exp\n      swap1\n      div\n      0xff\n      and\n        /* \"ridefair.sol\":6661:6699  users[msg.sender].state==Status.DRIVER */\n      0x2\n      dup2\n      gt\n      iszero\n      tag_172\n      jumpi\n      invalid\n    tag_172:\n      eq\n        /* \"ridefair.sol\":6653:6751  require(users[msg.sender].state==Status.DRIVER, \"User needs to be in driver mode to inform rider\") */\n      iszero\n      iszero\n      tag_173\n      jumpi\n      mload(0x40)\n      0x8c379a000000000000000000000000000000000000000000000000000000000\n      dup2\n      mstore\n      0x4\n      add\n      tag_174\n      swap1\n      jump(tag_175)\n    tag_174:\n      mload(0x40)\n      dup1\n      swap2\n      sub\n      swap1\n      revert\n    tag_173:\n        /* \"ridefair.sol\":6810:6811  0 */\n      0x0\n        /* \"ridefair.sol\":6769:6812  users[msg.sender].currPairing != address(0) */\n      0xffffffffffffffffffffffffffffffffffffffff\n      and\n        /* \"ridefair.sol\":6769:6774  users */\n      0x0\n        /* \"ridefair.sol\":6769:6786  users[msg.sender] */\n      dup1\n        /* \"ridefair.sol\":6775:6785  msg.sender */\n      caller\n        /* \"ridefair.sol\":6769:6786  users[msg.sender] */\n      0xffffffffffffffffffffffffffffffffffffffff\n      and\n      0xffffffffffffffffffffffffffffffffffffffff\n      and\n      dup2\n      mstore\n      0x20\n      add\n      swap1\n      dup2\n      mstore\n      0x20\n      add\n      0x0\n      keccak256\n        /* \"ridefair.sol\":6769:6798  users[msg.sender].currPairing */\n      0x2\n      add\n      0x1\n      swap1\n      sload\n      swap1\n      0x100\n      exp\n      swap1\n      div\n      0xffffffffffffffffffffffffffffffffffffffff\n      and\n        /* \"ridefair.sol\":6769:6812  users[msg.sender].currPairing != address(0) */\n      0xffffffffffffffffffffffffffffffffffffffff\n      and\n      eq\n      iszero\n        /* \"ridefair.sol\":6761:6865  require(users[msg.sender].currPairing != address(0), \"Driver needs to have an assigned rider to inform\") */\n      iszero\n      iszero\n      tag_176\n      jumpi\n      mload(0x40)\n      0x8c379a000000000000000000000000000000000000000000000000000000000\n      dup2\n      mstore\n      0x4\n      add\n      tag_177\n      swap1\n      jump(tag_178)\n    tag_177:\n      mload(0x40)\n      dup1\n      swap2\n      sub\n      swap1\n      revert\n    tag_176:\n        /* \"ridefair.sol\":6888:6893  users */\n      0x0\n        /* \"ridefair.sol\":6888:6905  users[msg.sender] */\n      dup1\n        /* \"ridefair.sol\":6894:6904  msg.sender */\n      caller\n        /* \"ridefair.sol\":6888:6905  users[msg.sender] */\n      0xffffffffffffffffffffffffffffffffffffffff\n      and\n      0xffffffffffffffffffffffffffffffffffffffff\n      and\n      dup2\n      mstore\n      0x20\n      add\n      swap1\n      dup2\n      mstore\n      0x20\n      add\n      0x0\n      keccak256\n        /* \"ridefair.sol\":6888:6917  users[msg.sender].arrivalTime */\n      0x7\n      add\n      sload\n        /* \"ridefair.sol\":6883:6886  now */\n      timestamp\n        /* \"ridefair.sol\":6883:6917  now<=users[msg.sender].arrivalTime */\n      gt\n      iszero\n        /* \"ridefair.sol\":6875:6948  require(now<=users[msg.sender].arrivalTime, \"You are too late to arrive\") */\n      iszero\n      iszero\n      tag_179\n      jumpi\n      mload(0x40)\n      0x8c379a000000000000000000000000000000000000000000000000000000000\n      dup2\n      mstore\n      0x4\n      add\n      tag_180\n      swap1\n      jump(tag_181)\n    tag_180:\n      mload(0x40)\n      dup1\n      swap2\n      sub\n      swap1\n      revert\n    tag_179:\n        /* \"ridefair.sol\":7181:7186  users */\n      0x0\n        /* \"ridefair.sol\":7181:7217  users[users[msg.sender].currPairing] */\n      dup1\n        /* \"ridefair.sol\":7187:7192  users */\n      dup1\n        /* \"ridefair.sol\":7187:7204  users[msg.sender] */\n      0x0\n        /* \"ridefair.sol\":7193:7203  msg.sender */\n      caller\n        /* \"ridefair.sol\":7187:7204  users[msg.sender] */\n      0xffffffffffffffffffffffffffffffffffffffff\n      and\n      0xffffffffffffffffffffffffffffffffffffffff\n      and\n      dup2\n      mstore\n      0x20\n      add\n      swap1\n      dup2\n      mstore\n      0x20\n      add\n      0x0\n      keccak256\n        /* \"ridefair.sol\":7187:7216  users[msg.sender].currPairing */\n      0x2\n      add\n      0x1\n      swap1\n      sload\n      swap1\n      0x100\n      exp\n      swap1\n      div\n      0xffffffffffffffffffffffffffffffffffffffff\n      and\n        /* \"ridefair.sol\":7181:7217  users[users[msg.sender].currPairing] */\n      0xffffffffffffffffffffffffffffffffffffffff\n      and\n      0xffffffffffffffffffffffffffffffffffffffff\n      and\n      dup2\n      mstore\n      0x20\n      add\n      swap1\n      dup2\n      mstore\n      0x20\n      add\n      0x0\n      keccak256\n        /* \"ridefair.sol\":7181:7224  users[users[msg.sender].currPairing].pickup */\n      0x3\n      add\n        /* \"ridefair.sol\":7181:7229  users[users[msg.sender].currPairing].pickup.long */\n      0x1\n      add\n      sload\n        /* \"ridefair.sol\":7172:7175  loc */\n      dup3\n        /* \"ridefair.sol\":7176:7177  1 */\n      0x1\n        /* \"ridefair.sol\":7172:7178  loc[1] */\n      dup2\n      mload\n      dup2\n      lt\n      iszero\n      iszero\n      tag_182\n      jumpi\n      invalid\n    tag_182:\n      swap1\n      0x20\n      add\n      swap1\n      0x20\n      mul\n      add\n      mload\n        /* \"ridefair.sol\":7172:7229  loc[1] - users[users[msg.sender].currPairing].pickup.long */\n      sub\n        /* \"ridefair.sol\":7119:7124  users */\n      0x0\n        /* \"ridefair.sol\":7119:7155  users[users[msg.sender].currPairing] */\n      dup1\n        /* \"ridefair.sol\":7125:7130  users */\n      dup1\n        /* \"ridefair.sol\":7125:7142  users[msg.sender] */\n      0x0\n        /* \"ridefair.sol\":7131:7141  msg.sender */\n      caller\n        /* \"ridefair.sol\":7125:7142  users[msg.sender] */\n      0xffffffffffffffffffffffffffffffffffffffff\n      and\n      0xffffffffffffffffffffffffffffffffffffffff\n      and\n      dup2\n      mstore\n      0x20\n      add\n      swap1\n      dup2\n      mstore\n      0x20\n      add\n      0x0\n      keccak256\n        /* \"ridefair.sol\":7125:7154  users[msg.sender].currPairing */\n      0x2\n      add\n      0x1\n      swap1\n      sload\n      swap1\n      0x100\n      exp\n      swap1\n      div\n      0xffffffffffffffffffffffffffffffffffffffff\n      and\n        /* \"ridefair.sol\":7119:7155  users[users[msg.sender].currPairing] */\n      0xffffffffffffffffffffffffffffffffffffffff\n      and\n      0xffffffffffffffffffffffffffffffffffffffff\n      and\n      dup2\n      mstore\n      0x20\n      add\n      swap1\n      dup2\n      mstore\n      0x20\n      add\n      0x0\n      keccak256\n        /* \"ridefair.sol\":7119:7162  users[users[msg.sender].currPairing].pickup */\n      0x3\n      add\n        /* \"ridefair.sol\":7119:7167  users[users[msg.sender].currPairing].pickup.long */\n      0x1\n      add\n      sload\n        /* \"ridefair.sol\":7110:7113  loc */\n      dup4\n        /* \"ridefair.sol\":7114:7115  1 */\n      0x1\n        /* \"ridefair.sol\":7110:7116  loc[1] */\n      dup2\n      mload\n      dup2\n      lt\n      iszero\n      iszero\n      tag_183\n      jumpi\n      invalid\n    tag_183:\n      swap1\n      0x20\n      add\n      swap1\n      0x20\n      mul\n      add\n      mload\n        /* \"ridefair.sol\":7110:7167  loc[1] - users[users[msg.sender].currPairing].pickup.long */\n      sub\n        /* \"ridefair.sol\":7109:7230  (loc[1] - users[users[msg.sender].currPairing].pickup.long) * (loc[1] - users[users[msg.sender].currPairing].pickup.long) */\n      mul\n        /* \"ridefair.sol\":7040:7045  users */\n      0x0\n        /* \"ridefair.sol\":7040:7076  users[users[msg.sender].currPairing] */\n      dup1\n        /* \"ridefair.sol\":7046:7051  users */\n      dup1\n        /* \"ridefair.sol\":7046:7063  users[msg.sender] */\n      0x0\n        /* \"ridefair.sol\":7052:7062  msg.sender */\n      caller\n        /* \"ridefair.sol\":7046:7063  users[msg.sender] */\n      0xffffffffffffffffffffffffffffffffffffffff\n      and\n      0xffffffffffffffffffffffffffffffffffffffff\n      and\n      dup2\n      mstore\n      0x20\n      add\n      swap1\n      dup2\n      mstore\n      0x20\n      add\n      0x0\n      keccak256\n        /* \"ridefair.sol\":7046:7075  users[msg.sender].currPairing */\n      0x2\n      add\n      0x1\n      swap1\n      sload\n      swap1\n      0x100\n      exp\n      swap1\n      div\n      0xffffffffffffffffffffffffffffffffffffffff\n      and\n        /* \"ridefair.sol\":7040:7076  users[users[msg.sender].currPairing] */\n      0xffffffffffffffffffffffffffffffffffffffff\n      and\n      0xffffffffffffffffffffffffffffffffffffffff\n      and\n      dup2\n      mstore\n      0x20\n      add\n      swap1\n      dup2\n      mstore\n      0x20\n      add\n      0x0\n      keccak256\n        /* \"ridefair.sol\":7040:7083  users[users[msg.sender].currPairing].pickup */\n      0x3\n      add\n        /* \"ridefair.sol\":7040:7087  users[users[msg.sender].currPairing].pickup.lat */\n      0x0\n      add\n      sload\n        /* \"ridefair.sol\":7031:7034  loc */\n      dup4\n        /* \"ridefair.sol\":7035:7036  0 */\n      0x0\n        /* \"ridefair.sol\":7031:7037  loc[0] */\n      dup2\n      mload\n      dup2\n      lt\n      iszero\n      iszero\n      tag_184\n      jumpi\n      invalid\n    tag_184:\n      swap1\n      0x20\n      add\n      swap1\n      0x20\n      mul\n      add\n      mload\n        /* \"ridefair.sol\":7031:7087  loc[0] - users[users[msg.sender].currPairing].pickup.lat */\n      sub\n        /* \"ridefair.sol\":6979:6984  users */\n      0x0\n        /* \"ridefair.sol\":6979:7015  users[users[msg.sender].currPairing] */\n      dup1\n        /* \"ridefair.sol\":6985:6990  users */\n      dup1\n        /* \"ridefair.sol\":6985:7002  users[msg.sender] */\n      0x0\n        /* \"ridefair.sol\":6991:7001  msg.sender */\n      caller\n        /* \"ridefair.sol\":6985:7002  users[msg.sender] */\n      0xffffffffffffffffffffffffffffffffffffffff\n      and\n      0xffffffffffffffffffffffffffffffffffffffff\n      and\n      dup2\n      mstore\n      0x20\n      add\n      swap1\n      dup2\n      mstore\n      0x20\n      add\n      0x0\n      keccak256\n        /* \"ridefair.sol\":6985:7014  users[msg.sender].currPairing */\n      0x2\n      add\n      0x1\n      swap1\n      sload\n      swap1\n      0x100\n      exp\n      swap1\n      div\n      0xffffffffffffffffffffffffffffffffffffffff\n      and\n        /* \"ridefair.sol\":6979:7015  users[users[msg.sender].currPairing] */\n      0xffffffffffffffffffffffffffffffffffffffff\n      and\n      0xffffffffffffffffffffffffffffffffffffffff\n      and\n      dup2\n      mstore\n      0x20\n      add\n      swap1\n      dup2\n      mstore\n      0x20\n      add\n      0x0\n      keccak256\n        /* \"ridefair.sol\":6979:7022  users[users[msg.sender].currPairing].pickup */\n      0x3\n      add\n        /* \"ridefair.sol\":6979:7026  users[users[msg.sender].currPairing].pickup.lat */\n      0x0\n      add\n      sload\n        /* \"ridefair.sol\":6970:6973  loc */\n      dup5\n        /* \"ridefair.sol\":6974:6975  0 */\n      0x0\n        /* \"ridefair.sol\":6970:6976  loc[0] */\n      dup2\n      mload\n      dup2\n      lt\n      iszero\n      iszero\n      tag_185\n      jumpi\n      invalid\n    tag_185:\n      swap1\n      0x20\n      add\n      swap1\n      0x20\n      mul\n      add\n      mload\n        /* \"ridefair.sol\":6970:7026  loc[0] - users[users[msg.sender].currPairing].pickup.lat */\n      sub\n        /* \"ridefair.sol\":6969:7088  (loc[0] - users[users[msg.sender].currPairing].pickup.lat) * (loc[0] - users[users[msg.sender].currPairing].pickup.lat) */\n      mul\n        /* \"ridefair.sol\":6969:7230  (loc[0] - users[users[msg.sender].currPairing].pickup.lat) * (loc[0] - users[users[msg.sender].currPairing].pickup.lat)... */\n      add\n        /* \"ridefair.sol\":6958:7230  int dist = (loc[0] - users[users[msg.sender].currPairing].pickup.lat) * (loc[0] - users[users[msg.sender].currPairing].pickup.lat)... */\n      swap1\n      pop\n        /* \"ridefair.sol\":7254:7262  13623770 */\n      0xcfe1da\n        /* \"ridefair.sol\":7248:7252  dist */\n      dup2\n        /* \"ridefair.sol\":7248:7262  dist<=13623770 */\n      sgt\n      iszero\n        /* \"ridefair.sol\":7240:7314  require(dist<=13623770, \"You are more that 0.2 miles away from the rider\") */\n      iszero\n      iszero\n      tag_186\n      jumpi\n      mload(0x40)\n      0x8c379a000000000000000000000000000000000000000000000000000000000\n      dup2\n      mstore\n      0x4\n      add\n      tag_187\n      swap1\n      jump(tag_188)\n    tag_187:\n      mload(0x40)\n      dup1\n      swap2\n      sub\n      swap1\n      revert\n    tag_186:\n        /* \"ridefair.sol\":7358:7362  true */\n      0x1\n        /* \"ridefair.sol\":7324:7329  users */\n      0x0\n        /* \"ridefair.sol\":7324:7341  users[msg.sender] */\n      dup1\n        /* \"ridefair.sol\":7330:7340  msg.sender */\n      caller\n        /* \"ridefair.sol\":7324:7341  users[msg.sender] */\n      0xffffffffffffffffffffffffffffffffffffffff\n      and\n      0xffffffffffffffffffffffffffffffffffffffff\n      and\n      dup2\n      mstore\n      0x20\n      add\n      swap1\n      dup2\n      mstore\n      0x20\n      add\n      0x0\n      keccak256\n        /* \"ridefair.sol\":7324:7355  users[msg.sender].driverArrived */\n      0x8\n      add\n      0x0\n        /* \"ridefair.sol\":7324:7362  users[msg.sender].driverArrived = true */\n      0x100\n      exp\n      dup2\n      sload\n      dup2\n      0xff\n      mul\n      not\n      and\n      swap1\n      dup4\n      iszero\n      iszero\n      mul\n      or\n      swap1\n      sstore\n      pop\n        /* \"ridefair.sol\":7425:7429  true */\n      0x1\n        /* \"ridefair.sol\":7372:7377  users */\n      0x0\n        /* \"ridefair.sol\":7372:7408  users[users[msg.sender].currPairing] */\n      dup1\n        /* \"ridefair.sol\":7378:7383  users */\n      dup1\n        /* \"ridefair.sol\":7378:7395  users[msg.sender] */\n      0x0\n        /* \"ridefair.sol\":7384:7394  msg.sender */\n      caller\n        /* \"ridefair.sol\":7378:7395  users[msg.sender] */\n      0xffffffffffffffffffffffffffffffffffffffff\n      and\n      0xffffffffffffffffffffffffffffffffffffffff\n      and\n      dup2\n      mstore\n      0x20\n      add\n      swap1\n      dup2\n      mstore\n      0x20\n      add\n      0x0\n      keccak256\n        /* \"ridefair.sol\":7378:7407  users[msg.sender].currPairing */\n      0x2\n      add\n      0x1\n      swap1\n      sload\n      swap1\n      0x100\n      exp\n      swap1\n      div\n      0xffffffffffffffffffffffffffffffffffffffff\n      and\n        /* \"ridefair.sol\":7372:7408  users[users[msg.sender].currPairing] */\n      0xffffffffffffffffffffffffffffffffffffffff\n      and\n      0xffffffffffffffffffffffffffffffffffffffff\n      and\n      dup2\n      mstore\n      0x20\n      add\n      swap1\n      dup2\n      mstore\n      0x20\n      add\n      0x0\n      keccak256\n        /* \"ridefair.sol\":7372:7422  users[users[msg.sender].currPairing].driverArrived */\n      0x8\n      add\n      0x0\n        /* \"ridefair.sol\":7372:7429  users[users[msg.sender].currPairing].driverArrived = true */\n      0x100\n      exp\n      dup2\n      sload\n      dup2\n      0xff\n      mul\n      not\n      and\n      swap1\n      dup4\n      iszero\n      iszero\n      mul\n      or\n      swap1\n      sstore\n      pop\n        /* \"ridefair.sol\":7445:7501  imHere(users[users[msg.sender].currPairing].number, loc) */\n      0xfecc381fcca04c8371dac7b0998f7810a51c75d32acbb1f415ceb7215b2965b5\n        /* \"ridefair.sol\":7452:7457  users */\n      0x0\n        /* \"ridefair.sol\":7452:7488  users[users[msg.sender].currPairing] */\n      dup1\n        /* \"ridefair.sol\":7458:7463  users */\n      dup1\n        /* \"ridefair.sol\":7458:7475  users[msg.sender] */\n      0x0\n        /* \"ridefair.sol\":7464:7474  msg.sender */\n      caller\n        /* \"ridefair.sol\":7458:7475  users[msg.sender] */\n      0xffffffffffffffffffffffffffffffffffffffff\n      and\n      0xffffffffffffffffffffffffffffffffffffffff\n      and\n      dup2\n      mstore\n      0x20\n      add\n      swap1\n      dup2\n      mstore\n      0x20\n      add\n      0x0\n      keccak256\n        /* \"ridefair.sol\":7458:7487  users[msg.sender].currPairing */\n      0x2\n      add\n      0x1\n      swap1\n      sload\n      swap1\n      0x100\n      exp\n      swap1\n      div\n      0xffffffffffffffffffffffffffffffffffffffff\n      and\n        /* \"ridefair.sol\":7452:7488  users[users[msg.sender].currPairing] */\n      0xffffffffffffffffffffffffffffffffffffffff\n      and\n      0xffffffffffffffffffffffffffffffffffffffff\n      and\n      dup2\n      mstore\n      0x20\n      add\n      swap1\n      dup2\n      mstore\n      0x20\n      add\n      0x0\n      keccak256\n        /* \"ridefair.sol\":7452:7495  users[users[msg.sender].currPairing].number */\n      0x1\n      add\n      sload\n        /* \"ridefair.sol\":7497:7500  loc */\n      dup4\n        /* \"ridefair.sol\":7445:7501  imHere(users[users[msg.sender].currPairing].number, loc) */\n      mload(0x40)\n      tag_189\n      swap3\n      swap2\n      swap1\n      jump(tag_190)\n    tag_189:\n      mload(0x40)\n      dup1\n      swap2\n      sub\n      swap1\n      log1\n        /* \"ridefair.sol\":6446:7508  function informRider(int256[] memory loc) public{... */\n      pop\n      pop\n      jump\t// out\n        /* \"ridefair.sol\":750:788  mapping (address => user) public users */\n    tag_41:\n      mstore(0x20, 0x0)\n      dup1\n      0x0\n      mstore\n      keccak256(0x0, 0x40)\n      0x0\n      swap2\n      pop\n      swap1\n      pop\n      dup1\n      0x0\n      add\n      0x0\n      swap1\n      sload\n      swap1\n      0x100\n      exp\n      swap1\n      div\n      0xff\n      and\n      swap1\n      dup1\n      0x1\n      add\n      sload\n      swap1\n      dup1\n      0x2\n      add\n      0x0\n      swap1\n      sload\n      swap1\n      0x100\n      exp\n      swap1\n      div\n      0xff\n      and\n      swap1\n      dup1\n      0x2\n      add\n      0x1\n      swap1\n      sload\n      swap1\n      0x100\n      exp\n      swap1\n      div\n      0xffffffffffffffffffffffffffffffffffffffff\n      and\n      swap1\n      dup1\n      0x3\n      add\n      0x40\n      dup1\n      mload\n      swap1\n      dup2\n      add\n      0x40\n      mstore\n      swap1\n      dup2\n      0x0\n      dup3\n      add\n      sload\n      dup2\n      mstore\n      0x20\n      add\n      0x1\n      dup3\n      add\n      sload\n      dup2\n      mstore\n      pop\n      pop\n      swap1\n      dup1\n      0x5\n      add\n      0x40\n      dup1\n      mload\n      swap1\n      dup2\n      add\n      0x40\n      mstore\n      swap1\n      dup2\n      0x0\n      dup3\n      add\n      sload\n      dup2\n      mstore\n      0x20\n      add\n      0x1\n      dup3\n      add\n      sload\n      dup2\n      mstore\n      pop\n      pop\n      swap1\n      dup1\n      0x7\n      add\n      sload\n      swap1\n      dup1\n      0x8\n      add\n      0x0\n      swap1\n      sload\n      swap1\n      0x100\n      exp\n      swap1\n      div\n      0xff\n      and\n      swap1\n      dup1\n      0x8\n      add\n      0x1\n      swap1\n      sload\n      swap1\n      0x100\n      exp\n      swap1\n      div\n      0xff\n      and\n      swap1\n      dup1\n      0x9\n      add\n      sload\n      swap1\n      dup1\n      0xa\n      add\n      sload\n      swap1\n      pop\n      dup12\n      jump\t// out\n        /* \"ridefair.sol\":7514:8677  function payDriver() public payable{... */\n    tag_45:\n        /* \"ridefair.sol\":7665:7669  true */\n      0x1\n        /* \"ridefair.sol\":7637:7669  users[msg.sender].isUser == true */\n      iszero\n      iszero\n        /* \"ridefair.sol\":7637:7642  users */\n      0x0\n        /* \"ridefair.sol\":7637:7654  users[msg.sender] */\n      dup1\n        /* \"ridefair.sol\":7643:7653  msg.sender */\n      caller\n        /* \"ridefair.sol\":7637:7654  users[msg.sender] */\n      0xffffffffffffffffffffffffffffffffffffffff\n      and\n      0xffffffffffffffffffffffffffffffffffffffff\n      and\n      dup2\n      mstore\n      0x20\n      add\n      swap1\n      dup2\n      mstore\n      0x20\n      add\n      0x0\n      keccak256\n        /* \"ridefair.sol\":7637:7661  users[msg.sender].isUser */\n      0x0\n      add\n      0x0\n      swap1\n      sload\n      swap1\n      0x100\n      exp\n      swap1\n      div\n      0xff\n      and\n        /* \"ridefair.sol\":7637:7669  users[msg.sender].isUser == true */\n      iszero\n      iszero\n      eq\n        /* \"ridefair.sol\":7629:7698  require(users[msg.sender].isUser == true, \"Need to be a user to pay\") */\n      iszero\n      iszero\n      tag_192\n      jumpi\n      mload(0x40)\n      0x8c379a000000000000000000000000000000000000000000000000000000000\n      dup2\n      mstore\n      0x4\n      add\n      tag_193\n      swap1\n      jump(tag_194)\n    tag_193:\n      mload(0x40)\n      dup1\n      swap2\n      sub\n      swap1\n      revert\n    tag_192:\n        /* \"ridefair.sol\":7743:7755  Status.RIDER */\n      0x1\n        /* \"ridefair.sol\":7716:7755  users[msg.sender].state == Status.RIDER */\n      0x2\n      dup2\n      gt\n      iszero\n      tag_195\n      jumpi\n      invalid\n    tag_195:\n        /* \"ridefair.sol\":7716:7721  users */\n      0x0\n        /* \"ridefair.sol\":7716:7733  users[msg.sender] */\n      dup1\n        /* \"ridefair.sol\":7722:7732  msg.sender */\n      caller\n        /* \"ridefair.sol\":7716:7733  users[msg.sender] */\n      0xffffffffffffffffffffffffffffffffffffffff\n      and\n      0xffffffffffffffffffffffffffffffffffffffff\n      and\n      dup2\n      mstore\n      0x20\n      add\n      swap1\n      dup2\n      mstore\n      0x20\n      add\n      0x0\n      keccak256\n        /* \"ridefair.sol\":7716:7739  users[msg.sender].state */\n      0x2\n      add\n      0x0\n      swap1\n      sload\n      swap1\n      0x100\n      exp\n      swap1\n      div\n      0xff\n      and\n        /* \"ridefair.sol\":7716:7755  users[msg.sender].state == Status.RIDER */\n      0x2\n      dup2\n      gt\n      iszero\n      tag_196\n      jumpi\n      invalid\n    tag_196:\n      eq\n        /* \"ridefair.sol\":7708:7804  require(users[msg.sender].state == Status.RIDER, \"User needs to be in rider mode to pay driver\") */\n      iszero\n      iszero\n      tag_197\n      jumpi\n      mload(0x40)\n      0x8c379a000000000000000000000000000000000000000000000000000000000\n      dup2\n      mstore\n      0x4\n      add\n      tag_198\n      swap1\n      jump(tag_199)\n    tag_198:\n      mload(0x40)\n      dup1\n      swap2\n      sub\n      swap1\n      revert\n    tag_197:\n        /* \"ridefair.sol\":7863:7864  0 */\n      0x0\n        /* \"ridefair.sol\":7822:7865  users[msg.sender].currPairing != address(0) */\n      0xffffffffffffffffffffffffffffffffffffffff\n      and\n        /* \"ridefair.sol\":7822:7827  users */\n      0x0\n        /* \"ridefair.sol\":7822:7839  users[msg.sender] */\n      dup1\n        /* \"ridefair.sol\":7828:7838  msg.sender */\n      caller\n        /* \"ridefair.sol\":7822:7839  users[msg.sender] */\n      0xffffffffffffffffffffffffffffffffffffffff\n      and\n      0xffffffffffffffffffffffffffffffffffffffff\n      and\n      dup2\n      mstore\n      0x20\n      add\n      swap1\n      dup2\n      mstore\n      0x20\n      add\n      0x0\n      keccak256\n        /* \"ridefair.sol\":7822:7851  users[msg.sender].currPairing */\n      0x2\n      add\n      0x1\n      swap1\n      sload\n      swap1\n      0x100\n      exp\n      swap1\n      div\n      0xffffffffffffffffffffffffffffffffffffffff\n      and\n        /* \"ridefair.sol\":7822:7865  users[msg.sender].currPairing != address(0) */\n      0xffffffffffffffffffffffffffffffffffffffff\n      and\n      eq\n      iszero\n        /* \"ridefair.sol\":7814:7915  require(users[msg.sender].currPairing != address(0), \"Rider needs to have an assigned driver to pay\") */\n      iszero\n      iszero\n      tag_200\n      jumpi\n      mload(0x40)\n      0x8c379a000000000000000000000000000000000000000000000000000000000\n      dup2\n      mstore\n      0x4\n      add\n      tag_201\n      swap1\n      jump(tag_202)\n    tag_201:\n      mload(0x40)\n      dup1\n      swap2\n      sub\n      swap1\n      revert\n    tag_200:\n        /* \"ridefair.sol\":7971:7976  users */\n      0x0\n        /* \"ridefair.sol\":7971:7988  users[msg.sender] */\n      dup1\n        /* \"ridefair.sol\":7977:7987  msg.sender */\n      caller\n        /* \"ridefair.sol\":7971:7988  users[msg.sender] */\n      0xffffffffffffffffffffffffffffffffffffffff\n      and\n      0xffffffffffffffffffffffffffffffffffffffff\n      and\n      dup2\n      mstore\n      0x20\n      add\n      swap1\n      dup2\n      mstore\n      0x20\n      add\n      0x0\n      keccak256\n        /* \"ridefair.sol\":7971:7995  users[msg.sender].escrow */\n      0x9\n      add\n      sload\n        /* \"ridefair.sol\":7958:7967  msg.value */\n      callvalue\n        /* \"ridefair.sol\":7933:7938  users */\n      0x0\n        /* \"ridefair.sol\":7933:7950  users[msg.sender] */\n      dup1\n        /* \"ridefair.sol\":7939:7949  msg.sender */\n      caller\n        /* \"ridefair.sol\":7933:7950  users[msg.sender] */\n      0xffffffffffffffffffffffffffffffffffffffff\n      and\n      0xffffffffffffffffffffffffffffffffffffffff\n      and\n      dup2\n      mstore\n      0x20\n      add\n      swap1\n      dup2\n      mstore\n      0x20\n      add\n      0x0\n      keccak256\n        /* \"ridefair.sol\":7933:7955  users[msg.sender].paid */\n      0xa\n      add\n      sload\n        /* \"ridefair.sol\":7933:7967  users[msg.sender].paid + msg.value */\n      add\n        /* \"ridefair.sol\":7933:7995  users[msg.sender].paid + msg.value <= users[msg.sender].escrow */\n      gt\n      iszero\n        /* \"ridefair.sol\":7925:8029  require(users[msg.sender].paid + msg.value <= users[msg.sender].escrow, \"Overdraft from initial escrow\") */\n      iszero\n      iszero\n      tag_203\n      jumpi\n      mload(0x40)\n      0x8c379a000000000000000000000000000000000000000000000000000000000\n      dup2\n      mstore\n      0x4\n      add\n      tag_204\n      swap1\n      jump(tag_205)\n    tag_204:\n      mload(0x40)\n      dup1\n      swap2\n      sub\n      swap1\n      revert\n    tag_203:\n        /* \"ridefair.sol\":8127:8131  true */\n      0x1\n        /* \"ridefair.sol\":8096:8101  users */\n      0x0\n        /* \"ridefair.sol\":8096:8113  users[msg.sender] */\n      dup1\n        /* \"ridefair.sol\":8102:8112  msg.sender */\n      caller\n        /* \"ridefair.sol\":8096:8113  users[msg.sender] */\n      0xffffffffffffffffffffffffffffffffffffffff\n      and\n      0xffffffffffffffffffffffffffffffffffffffff\n      and\n      dup2\n      mstore\n      0x20\n      add\n      swap1\n      dup2\n      mstore\n      0x20\n      add\n      0x0\n      keccak256\n        /* \"ridefair.sol\":8096:8124  users[msg.sender].inProgress */\n      0x8\n      add\n      0x1\n        /* \"ridefair.sol\":8096:8131  users[msg.sender].inProgress = true */\n      0x100\n      exp\n      dup2\n      sload\n      dup2\n      0xff\n      mul\n      not\n      and\n      swap1\n      dup4\n      iszero\n      iszero\n      mul\n      or\n      swap1\n      sstore\n      pop\n        /* \"ridefair.sol\":8191:8195  true */\n      0x1\n        /* \"ridefair.sol\":8141:8146  users */\n      0x0\n        /* \"ridefair.sol\":8141:8177  users[users[msg.sender].currPairing] */\n      dup1\n        /* \"ridefair.sol\":8147:8152  users */\n      dup1\n        /* \"ridefair.sol\":8147:8164  users[msg.sender] */\n      0x0\n        /* \"ridefair.sol\":8153:8163  msg.sender */\n      caller\n        /* \"ridefair.sol\":8147:8164  users[msg.sender] */\n      0xffffffffffffffffffffffffffffffffffffffff\n      and\n      0xffffffffffffffffffffffffffffffffffffffff\n      and\n      dup2\n      mstore\n      0x20\n      add\n      swap1\n      dup2\n      mstore\n      0x20\n      add\n      0x0\n      keccak256\n        /* \"ridefair.sol\":8147:8176  users[msg.sender].currPairing */\n      0x2\n      add\n      0x1\n      swap1\n      sload\n      swap1\n      0x100\n      exp\n      swap1\n      div\n      0xffffffffffffffffffffffffffffffffffffffff\n      and\n        /* \"ridefair.sol\":8141:8177  users[users[msg.sender].currPairing] */\n      0xffffffffffffffffffffffffffffffffffffffff\n      and\n      0xffffffffffffffffffffffffffffffffffffffff\n      and\n      dup2\n      mstore\n      0x20\n      add\n      swap1\n      dup2\n      mstore\n      0x20\n      add\n      0x0\n      keccak256\n        /* \"ridefair.sol\":8141:8188  users[users[msg.sender].currPairing].inProgress */\n      0x8\n      add\n      0x1\n        /* \"ridefair.sol\":8141:8195  users[users[msg.sender].currPairing].inProgress = true */\n      0x100\n      exp\n      dup2\n      sload\n      dup2\n      0xff\n      mul\n      not\n      and\n      swap1\n      dup4\n      iszero\n      iszero\n      mul\n      or\n      swap1\n      sstore\n      pop\n        /* \"ridefair.sol\":8326:8335  msg.value */\n      callvalue\n        /* \"ridefair.sol\":8301:8306  users */\n      0x0\n        /* \"ridefair.sol\":8301:8318  users[msg.sender] */\n      dup1\n        /* \"ridefair.sol\":8307:8317  msg.sender */\n      caller\n        /* \"ridefair.sol\":8301:8318  users[msg.sender] */\n      0xffffffffffffffffffffffffffffffffffffffff\n      and\n      0xffffffffffffffffffffffffffffffffffffffff\n      and\n      dup2\n      mstore\n      0x20\n      add\n      swap1\n      dup2\n      mstore\n      0x20\n      add\n      0x0\n      keccak256\n        /* \"ridefair.sol\":8301:8323  users[msg.sender].paid */\n      0xa\n      add\n      sload\n        /* \"ridefair.sol\":8301:8335  users[msg.sender].paid + msg.value */\n      add\n        /* \"ridefair.sol\":8276:8281  users */\n      0x0\n        /* \"ridefair.sol\":8276:8293  users[msg.sender] */\n      dup1\n        /* \"ridefair.sol\":8282:8292  msg.sender */\n      caller\n        /* \"ridefair.sol\":8276:8293  users[msg.sender] */\n      0xffffffffffffffffffffffffffffffffffffffff\n      and\n      0xffffffffffffffffffffffffffffffffffffffff\n      and\n      dup2\n      mstore\n      0x20\n      add\n      swap1\n      dup2\n      mstore\n      0x20\n      add\n      0x0\n      keccak256\n        /* \"ridefair.sol\":8276:8298  users[msg.sender].paid */\n      0xa\n      add\n        /* \"ridefair.sol\":8276:8335  users[msg.sender].paid = users[msg.sender].paid + msg.value */\n      dup2\n      swap1\n      sstore\n      pop\n        /* \"ridefair.sol\":8350:8415  cashMoney(users[users[msg.sender].currPairing].number, msg.value) */\n      0xed8e6f0ab8a4d39cb413959065b15ac270c5baec57aee722c1268880c0b1f3d5\n        /* \"ridefair.sol\":8360:8365  users */\n      0x0\n        /* \"ridefair.sol\":8360:8396  users[users[msg.sender].currPairing] */\n      dup1\n        /* \"ridefair.sol\":8366:8371  users */\n      dup1\n        /* \"ridefair.sol\":8366:8383  users[msg.sender] */\n      0x0\n        /* \"ridefair.sol\":8372:8382  msg.sender */\n      caller\n        /* \"ridefair.sol\":8366:8383  users[msg.sender] */\n      0xffffffffffffffffffffffffffffffffffffffff\n      and\n      0xffffffffffffffffffffffffffffffffffffffff\n      and\n      dup2\n      mstore\n      0x20\n      add\n      swap1\n      dup2\n      mstore\n      0x20\n      add\n      0x0\n      keccak256\n        /* \"ridefair.sol\":8366:8395  users[msg.sender].currPairing */\n      0x2\n      add\n      0x1\n      swap1\n      sload\n      swap1\n      0x100\n      exp\n      swap1\n      div\n      0xffffffffffffffffffffffffffffffffffffffff\n      and\n        /* \"ridefair.sol\":8360:8396  users[users[msg.sender].currPairing] */\n      0xffffffffffffffffffffffffffffffffffffffff\n      and\n      0xffffffffffffffffffffffffffffffffffffffff\n      and\n      dup2\n      mstore\n      0x20\n      add\n      swap1\n      dup2\n      mstore\n      0x20\n      add\n      0x0\n      keccak256\n        /* \"ridefair.sol\":8360:8403  users[users[msg.sender].currPairing].number */\n      0x1\n      add\n      sload\n        /* \"ridefair.sol\":8405:8414  msg.value */\n      callvalue\n        /* \"ridefair.sol\":8350:8415  cashMoney(users[users[msg.sender].currPairing].number, msg.value) */\n      mload(0x40)\n      tag_206\n      swap3\n      swap2\n      swap1\n      jump(tag_92)\n    tag_206:\n      mload(0x40)\n      dup1\n      swap2\n      sub\n      swap1\n      log1\n        /* \"ridefair.sol\":8455:8460  users */\n      0x0\n        /* \"ridefair.sol\":8455:8472  users[msg.sender] */\n      dup1\n        /* \"ridefair.sol\":8461:8471  msg.sender */\n      caller\n        /* \"ridefair.sol\":8455:8472  users[msg.sender] */\n      0xffffffffffffffffffffffffffffffffffffffff\n      and\n      0xffffffffffffffffffffffffffffffffffffffff\n      and\n      dup2\n      mstore\n      0x20\n      add\n      swap1\n      dup2\n      mstore\n      0x20\n      add\n      0x0\n      keccak256\n        /* \"ridefair.sol\":8455:8479  users[msg.sender].escrow */\n      0x9\n      add\n      sload\n        /* \"ridefair.sol\":8429:8434  users */\n      0x0\n        /* \"ridefair.sol\":8429:8446  users[msg.sender] */\n      dup1\n        /* \"ridefair.sol\":8435:8445  msg.sender */\n      caller\n        /* \"ridefair.sol\":8429:8446  users[msg.sender] */\n      0xffffffffffffffffffffffffffffffffffffffff\n      and\n      0xffffffffffffffffffffffffffffffffffffffff\n      and\n      dup2\n      mstore\n      0x20\n      add\n      swap1\n      dup2\n      mstore\n      0x20\n      add\n      0x0\n      keccak256\n        /* \"ridefair.sol\":8429:8451  users[msg.sender].paid */\n      0xa\n      add\n      sload\n        /* \"ridefair.sol\":8429:8479  users[msg.sender].paid == users[msg.sender].escrow */\n      eq\n        /* \"ridefair.sol\":8425:8671  if (users[msg.sender].paid == users[msg.sender].escrow){... */\n      iszero\n      tag_207\n      jumpi\n        /* \"ridefair.sol\":8499:8579  undone(users[msg.sender].number, users[users[msg.sender].currPairing].number, 0) */\n      0x5b1b690b017b49e02e426b145ec66a70f4259c7a0a7bfb5609363922cec65eef\n        /* \"ridefair.sol\":8506:8511  users */\n      0x0\n        /* \"ridefair.sol\":8506:8523  users[msg.sender] */\n      dup1\n        /* \"ridefair.sol\":8512:8522  msg.sender */\n      caller\n        /* \"ridefair.sol\":8506:8523  users[msg.sender] */\n      0xffffffffffffffffffffffffffffffffffffffff\n      and\n      0xffffffffffffffffffffffffffffffffffffffff\n      and\n      dup2\n      mstore\n      0x20\n      add\n      swap1\n      dup2\n      mstore\n      0x20\n      add\n      0x0\n      keccak256\n        /* \"ridefair.sol\":8506:8530  users[msg.sender].number */\n      0x1\n      add\n      sload\n        /* \"ridefair.sol\":8532:8537  users */\n      0x0\n        /* \"ridefair.sol\":8532:8568  users[users[msg.sender].currPairing] */\n      dup1\n        /* \"ridefair.sol\":8538:8543  users */\n      dup1\n        /* \"ridefair.sol\":8538:8555  users[msg.sender] */\n      0x0\n        /* \"ridefair.sol\":8544:8554  msg.sender */\n      caller\n        /* \"ridefair.sol\":8538:8555  users[msg.sender] */\n      0xffffffffffffffffffffffffffffffffffffffff\n      and\n      0xffffffffffffffffffffffffffffffffffffffff\n      and\n      dup2\n      mstore\n      0x20\n      add\n      swap1\n      dup2\n      mstore\n      0x20\n      add\n      0x0\n      keccak256\n        /* \"ridefair.sol\":8538:8567  users[msg.sender].currPairing */\n      0x2\n      add\n      0x1\n      swap1\n      sload\n      swap1\n      0x100\n      exp\n      swap1\n      div\n      0xffffffffffffffffffffffffffffffffffffffff\n      and\n        /* \"ridefair.sol\":8532:8568  users[users[msg.sender].currPairing] */\n      0xffffffffffffffffffffffffffffffffffffffff\n      and\n      0xffffffffffffffffffffffffffffffffffffffff\n      and\n      dup2\n      mstore\n      0x20\n      add\n      swap1\n      dup2\n      mstore\n      0x20\n      add\n      0x0\n      keccak256\n        /* \"ridefair.sol\":8532:8575  users[users[msg.sender].currPairing].number */\n      0x1\n      add\n      sload\n        /* \"ridefair.sol\":8577:8578  0 */\n      0x0\n        /* \"ridefair.sol\":8499:8579  undone(users[msg.sender].number, users[users[msg.sender].currPairing].number, 0) */\n      mload(0x40)\n      tag_208\n      swap4\n      swap3\n      swap2\n      swap1\n      jump(tag_135)\n    tag_208:\n      mload(0x40)\n      dup1\n      swap2\n      sub\n      swap1\n      log1\n        /* \"ridefair.sol\":8593:8629  reset(users[msg.sender].currPairing) */\n      tag_209\n        /* \"ridefair.sol\":8599:8604  users */\n      0x0\n        /* \"ridefair.sol\":8599:8616  users[msg.sender] */\n      dup1\n        /* \"ridefair.sol\":8605:8615  msg.sender */\n      caller\n        /* \"ridefair.sol\":8599:8616  users[msg.sender] */\n      0xffffffffffffffffffffffffffffffffffffffff\n      and\n      0xffffffffffffffffffffffffffffffffffffffff\n      and\n      dup2\n      mstore\n      0x20\n      add\n      swap1\n      dup2\n      mstore\n      0x20\n      add\n      0x0\n      keccak256\n        /* \"ridefair.sol\":8599:8628  users[msg.sender].currPairing */\n      0x2\n      add\n      0x1\n      swap1\n      sload\n      swap1\n      0x100\n      exp\n      swap1\n      div\n      0xffffffffffffffffffffffffffffffffffffffff\n      and\n        /* \"ridefair.sol\":8593:8598  reset */\n      tag_137\n        /* \"ridefair.sol\":8593:8629  reset(users[msg.sender].currPairing) */\n      jump\t// in\n    tag_209:\n        /* \"ridefair.sol\":8643:8660  reset(msg.sender) */\n      tag_210\n        /* \"ridefair.sol\":8649:8659  msg.sender */\n      caller\n        /* \"ridefair.sol\":8643:8648  reset */\n      tag_137\n        /* \"ridefair.sol\":8643:8660  reset(msg.sender) */\n      jump\t// in\n    tag_210:\n        /* \"ridefair.sol\":8425:8671  if (users[msg.sender].paid == users[msg.sender].escrow){... */\n    tag_207:\n        /* \"ridefair.sol\":7514:8677  function payDriver() public payable{... */\n      jump\t// out\n        /* \"ridefair.sol\":2782:4396  function rideRequest(int256[] memory pick, int256[] memory drop, uint tripCost) public {... */\n    tag_50:\n        /* \"ridefair.sol\":3299:3304  false */\n      0x0\n        /* \"ridefair.sol\":3271:3304  users[msg.sender].isUser == false */\n      iszero\n      iszero\n        /* \"ridefair.sol\":3271:3276  users */\n      0x0\n        /* \"ridefair.sol\":3271:3288  users[msg.sender] */\n      dup1\n        /* \"ridefair.sol\":3277:3287  msg.sender */\n      caller\n        /* \"ridefair.sol\":3271:3288  users[msg.sender] */\n      0xffffffffffffffffffffffffffffffffffffffff\n      and\n      0xffffffffffffffffffffffffffffffffffffffff\n      and\n      dup2\n      mstore\n      0x20\n      add\n      swap1\n      dup2\n      mstore\n      0x20\n      add\n      0x0\n      keccak256\n        /* \"ridefair.sol\":3271:3295  users[msg.sender].isUser */\n      0x0\n      add\n      0x0\n      swap1\n      sload\n      swap1\n      0x100\n      exp\n      swap1\n      div\n      0xff\n      and\n        /* \"ridefair.sol\":3271:3304  users[msg.sender].isUser == false */\n      iszero\n      iszero\n      eq\n        /* \"ridefair.sol\":3268:4390  if(users[msg.sender].isUser == false){... */\n      iszero\n      tag_212\n      jumpi\n        /* \"ridefair.sol\":3319:3327  userList */\n      0x1\n        /* \"ridefair.sol\":3333:3343  msg.sender */\n      caller\n        /* \"ridefair.sol\":3319:3344  userList.push(msg.sender) */\n      swap1\n      dup1\n        /* \"--CODEGEN--\":39:40   */\n      0x1\n        /* \"--CODEGEN--\":33:36   */\n      dup2\n        /* \"--CODEGEN--\":27:37   */\n      sload\n        /* \"--CODEGEN--\":23:41   */\n      add\n        /* \"--CODEGEN--\":57:67   */\n      dup1\n        /* \"--CODEGEN--\":52:55   */\n      dup3\n        /* \"--CODEGEN--\":45:68   */\n      sstore\n        /* \"--CODEGEN--\":79:89   */\n      dup1\n        /* \"--CODEGEN--\":72:89   */\n      swap2\n      pop\n        /* \"--CODEGEN--\":0:93   */\n      pop\n        /* \"ridefair.sol\":3319:3344  userList.push(msg.sender) */\n      swap1\n      0x1\n      dup3\n      sub\n      swap1\n      0x0\n      mstore\n      keccak256(0x0, 0x20)\n      add\n      0x0\n      swap1\n      swap2\n      swap3\n      swap1\n      swap2\n      swap1\n      swap2\n      0x100\n      exp\n      dup2\n      sload\n      dup2\n      0xffffffffffffffffffffffffffffffffffffffff\n      mul\n      not\n      and\n      swap1\n      dup4\n      0xffffffffffffffffffffffffffffffffffffffff\n      and\n      mul\n      or\n      swap1\n      sstore\n      pop\n      pop\n        /* \"ridefair.sol\":3378:3850  user({... */\n      0x160\n      mload(0x40)\n      swap1\n      dup2\n      add\n      0x40\n      mstore\n      dup1\n        /* \"ridefair.sol\":3409:3413  true */\n      0x1\n        /* \"ridefair.sol\":3378:3850  user({... */\n      iszero\n      iszero\n      dup2\n      mstore\n      0x20\n      add\n        /* \"ridefair.sol\":3455:3456  1 */\n      0x1\n        /* \"ridefair.sol\":3439:3447  userList */\n      dup1\n        /* \"ridefair.sol\":3439:3454  userList.length */\n      dup1\n      sload\n      swap1\n      pop\n        /* \"ridefair.sol\":3439:3456  userList.length-1 */\n      sub\n        /* \"ridefair.sol\":3378:3850  user({... */\n      dup2\n      mstore\n      0x20\n      add\n        /* \"ridefair.sol\":3481:3493  Status.RIDER */\n      0x1\n        /* \"ridefair.sol\":3378:3850  user({... */\n      0x2\n      dup2\n      gt\n      iszero\n      tag_214\n      jumpi\n      invalid\n    tag_214:\n      dup2\n      mstore\n      0x20\n      add\n        /* \"ridefair.sol\":3532:3533  0 */\n      0x0\n        /* \"ridefair.sol\":3378:3850  user({... */\n      0xffffffffffffffffffffffffffffffffffffffff\n      and\n      dup2\n      mstore\n      0x20\n      add\n        /* \"ridefair.sol\":3560:3602  coordinates({lat: pick[0], long: pick[1]}) */\n      0x40\n      dup1\n      mload\n      swap1\n      dup2\n      add\n      0x40\n      mstore\n      dup1\n        /* \"ridefair.sol\":3578:3582  pick */\n      dup7\n        /* \"ridefair.sol\":3583:3584  0 */\n      0x0\n        /* \"ridefair.sol\":3578:3585  pick[0] */\n      dup2\n      mload\n      dup2\n      lt\n      iszero\n      iszero\n      tag_215\n      jumpi\n      invalid\n    tag_215:\n      swap1\n      0x20\n      add\n      swap1\n      0x20\n      mul\n      add\n      mload\n        /* \"ridefair.sol\":3560:3602  coordinates({lat: pick[0], long: pick[1]}) */\n      dup2\n      mstore\n      0x20\n      add\n        /* \"ridefair.sol\":3593:3597  pick */\n      dup7\n        /* \"ridefair.sol\":3598:3599  1 */\n      0x1\n        /* \"ridefair.sol\":3593:3600  pick[1] */\n      dup2\n      mload\n      dup2\n      lt\n      iszero\n      iszero\n      tag_216\n      jumpi\n      invalid\n    tag_216:\n      swap1\n      0x20\n      add\n      swap1\n      0x20\n      mul\n      add\n      mload\n        /* \"ridefair.sol\":3560:3602  coordinates({lat: pick[0], long: pick[1]}) */\n      dup2\n      mstore\n      pop\n        /* \"ridefair.sol\":3378:3850  user({... */\n      dup2\n      mstore\n      0x20\n      add\n        /* \"ridefair.sol\":3629:3671  coordinates({lat: drop[0], long: drop[1]}) */\n      0x40\n      dup1\n      mload\n      swap1\n      dup2\n      add\n      0x40\n      mstore\n      dup1\n        /* \"ridefair.sol\":3647:3651  drop */\n      dup6\n        /* \"ridefair.sol\":3652:3653  0 */\n      0x0\n        /* \"ridefair.sol\":3647:3654  drop[0] */\n      dup2\n      mload\n      dup2\n      lt\n      iszero\n      iszero\n      tag_217\n      jumpi\n      invalid\n    tag_217:\n      swap1\n      0x20\n      add\n      swap1\n      0x20\n      mul\n      add\n      mload\n        /* \"ridefair.sol\":3629:3671  coordinates({lat: drop[0], long: drop[1]}) */\n      dup2\n      mstore\n      0x20\n      add\n        /* \"ridefair.sol\":3662:3666  drop */\n      dup6\n        /* \"ridefair.sol\":3667:3668  1 */\n      0x1\n        /* \"ridefair.sol\":3662:3669  drop[1] */\n      dup2\n      mload\n      dup2\n      lt\n      iszero\n      iszero\n      tag_218\n      jumpi\n      invalid\n    tag_218:\n      swap1\n      0x20\n      add\n      swap1\n      0x20\n      mul\n      add\n      mload\n        /* \"ridefair.sol\":3629:3671  coordinates({lat: drop[0], long: drop[1]}) */\n      dup2\n      mstore\n      pop\n        /* \"ridefair.sol\":3378:3850  user({... */\n      dup2\n      mstore\n      0x20\n      add\n        /* \"ridefair.sol\":3702:3703  0 */\n      0x0\n        /* \"ridefair.sol\":3378:3850  user({... */\n      dup2\n      mstore\n      0x20\n      add\n        /* \"ridefair.sol\":3736:3741  false */\n      0x0\n        /* \"ridefair.sol\":3378:3850  user({... */\n      iszero\n      iszero\n      dup2\n      mstore\n      0x20\n      add\n        /* \"ridefair.sol\":3771:3776  false */\n      0x0\n        /* \"ridefair.sol\":3378:3850  user({... */\n      iszero\n      iszero\n      dup2\n      mstore\n      0x20\n      add\n        /* \"ridefair.sol\":3802:3810  tripCost */\n      dup3\n        /* \"ridefair.sol\":3378:3850  user({... */\n      dup2\n      mstore\n      0x20\n      add\n        /* \"ridefair.sol\":3834:3835  0 */\n      0x0\n        /* \"ridefair.sol\":3378:3850  user({... */\n      dup2\n      mstore\n      pop\n        /* \"ridefair.sol\":3358:3363  users */\n      0x0\n        /* \"ridefair.sol\":3358:3375  users[msg.sender] */\n      dup1\n        /* \"ridefair.sol\":3364:3374  msg.sender */\n      caller\n        /* \"ridefair.sol\":3358:3375  users[msg.sender] */\n      0xffffffffffffffffffffffffffffffffffffffff\n      and\n      0xffffffffffffffffffffffffffffffffffffffff\n      and\n      dup2\n      mstore\n      0x20\n      add\n      swap1\n      dup2\n      mstore\n      0x20\n      add\n      0x0\n      keccak256\n        /* \"ridefair.sol\":3358:3850  users[msg.sender] = user({... */\n      0x0\n      dup3\n      add\n      mload\n      dup2\n      0x0\n      add\n      exp(0x100, 0x0)\n      dup2\n      sload\n      dup2\n      0xff\n      mul\n      not\n      and\n      swap1\n      dup4\n      iszero\n      iszero\n      mul\n      or\n      swap1\n      sstore\n      pop\n      0x20\n      dup3\n      add\n      mload\n      dup2\n      0x1\n      add\n      sstore\n      0x40\n      dup3\n      add\n      mload\n      dup2\n      0x2\n      add\n      exp(0x100, 0x0)\n      dup2\n      sload\n      dup2\n      0xff\n      mul\n      not\n      and\n      swap1\n      dup4\n      0x2\n      dup2\n      gt\n      iszero\n      tag_219\n      jumpi\n      invalid\n    tag_219:\n      mul\n      or\n      swap1\n      sstore\n      pop\n      0x60\n      dup3\n      add\n      mload\n      dup2\n      0x2\n      add\n      exp(0x100, 0x1)\n      dup2\n      sload\n      dup2\n      0xffffffffffffffffffffffffffffffffffffffff\n      mul\n      not\n      and\n      swap1\n      dup4\n      0xffffffffffffffffffffffffffffffffffffffff\n      and\n      mul\n      or\n      swap1\n      sstore\n      pop\n      0x80\n      dup3\n      add\n      mload\n      dup2\n      0x3\n      add\n      0x0\n      dup3\n      add\n      mload\n      dup2\n      0x0\n      add\n      sstore\n      0x20\n      dup3\n      add\n      mload\n      dup2\n      0x1\n      add\n      sstore\n      pop\n      pop\n      0xa0\n      dup3\n      add\n      mload\n      dup2\n      0x5\n      add\n      0x0\n      dup3\n      add\n      mload\n      dup2\n      0x0\n      add\n      sstore\n      0x20\n      dup3\n      add\n      mload\n      dup2\n      0x1\n      add\n      sstore\n      pop\n      pop\n      0xc0\n      dup3\n      add\n      mload\n      dup2\n      0x7\n      add\n      sstore\n      0xe0\n      dup3\n      add\n      mload\n      dup2\n      0x8\n      add\n      exp(0x100, 0x0)\n      dup2\n      sload\n      dup2\n      0xff\n      mul\n      not\n      and\n      swap1\n      dup4\n      iszero\n      iszero\n      mul\n      or\n      swap1\n      sstore\n      pop\n      0x100\n      dup3\n      add\n      mload\n      dup2\n      0x8\n      add\n      exp(0x100, 0x1)\n      dup2\n      sload\n      dup2\n      0xff\n      mul\n      not\n      and\n      swap1\n      dup4\n      iszero\n      iszero\n      mul\n      or\n      swap1\n      sstore\n      pop\n      0x120\n      dup3\n      add\n      mload\n      dup2\n      0x9\n      add\n      sstore\n      0x140\n      dup3\n      add\n      mload\n      dup2\n      0xa\n      add\n      sstore\n      swap1\n      pop\n      pop\n        /* \"ridefair.sol\":3268:4390  if(users[msg.sender].isUser == false){... */\n      jump(tag_220)\n    tag_212:\n        /* \"ridefair.sol\":3905:3917  Status.RIDER */\n      0x1\n        /* \"ridefair.sol\":3879:3884  users */\n      0x0\n        /* \"ridefair.sol\":3879:3896  users[msg.sender] */\n      dup1\n        /* \"ridefair.sol\":3885:3895  msg.sender */\n      caller\n        /* \"ridefair.sol\":3879:3896  users[msg.sender] */\n      0xffffffffffffffffffffffffffffffffffffffff\n      and\n      0xffffffffffffffffffffffffffffffffffffffff\n      and\n      dup2\n      mstore\n      0x20\n      add\n      swap1\n      dup2\n      mstore\n      0x20\n      add\n      0x0\n      keccak256\n        /* \"ridefair.sol\":3879:3902  users[msg.sender].state */\n      0x2\n      add\n      0x0\n        /* \"ridefair.sol\":3879:3917  users[msg.sender].state = Status.RIDER */\n      0x100\n      exp\n      dup2\n      sload\n      dup2\n      0xff\n      mul\n      not\n      and\n      swap1\n      dup4\n      0x2\n      dup2\n      gt\n      iszero\n      tag_221\n      jumpi\n      invalid\n    tag_221:\n      mul\n      or\n      swap1\n      sstore\n      pop\n        /* \"ridefair.sol\":3971:3972  0 */\n      0x0\n        /* \"ridefair.sol\":3931:3936  users */\n      dup1\n        /* \"ridefair.sol\":3931:3948  users[msg.sender] */\n      0x0\n        /* \"ridefair.sol\":3937:3947  msg.sender */\n      caller\n        /* \"ridefair.sol\":3931:3948  users[msg.sender] */\n      0xffffffffffffffffffffffffffffffffffffffff\n      and\n      0xffffffffffffffffffffffffffffffffffffffff\n      and\n      dup2\n      mstore\n      0x20\n      add\n      swap1\n      dup2\n      mstore\n      0x20\n      add\n      0x0\n      keccak256\n        /* \"ridefair.sol\":3931:3960  users[msg.sender].currPairing */\n      0x2\n      add\n      0x1\n        /* \"ridefair.sol\":3931:3973  users[msg.sender].currPairing = address(0) */\n      0x100\n      exp\n      dup2\n      sload\n      dup2\n      0xffffffffffffffffffffffffffffffffffffffff\n      mul\n      not\n      and\n      swap1\n      dup4\n      0xffffffffffffffffffffffffffffffffffffffff\n      and\n      mul\n      or\n      swap1\n      sstore\n      pop\n        /* \"ridefair.sol\":4014:4056  coordinates({lat: pick[0], long: pick[1]}) */\n      0x40\n      dup1\n      mload\n      swap1\n      dup2\n      add\n      0x40\n      mstore\n      dup1\n        /* \"ridefair.sol\":4032:4036  pick */\n      dup5\n        /* \"ridefair.sol\":4037:4038  0 */\n      0x0\n        /* \"ridefair.sol\":4032:4039  pick[0] */\n      dup2\n      mload\n      dup2\n      lt\n      iszero\n      iszero\n      tag_222\n      jumpi\n      invalid\n    tag_222:\n      swap1\n      0x20\n      add\n      swap1\n      0x20\n      mul\n      add\n      mload\n        /* \"ridefair.sol\":4014:4056  coordinates({lat: pick[0], long: pick[1]}) */\n      dup2\n      mstore\n      0x20\n      add\n        /* \"ridefair.sol\":4047:4051  pick */\n      dup5\n        /* \"ridefair.sol\":4052:4053  1 */\n      0x1\n        /* \"ridefair.sol\":4047:4054  pick[1] */\n      dup2\n      mload\n      dup2\n      lt\n      iszero\n      iszero\n      tag_223\n      jumpi\n      invalid\n    tag_223:\n      swap1\n      0x20\n      add\n      swap1\n      0x20\n      mul\n      add\n      mload\n        /* \"ridefair.sol\":4014:4056  coordinates({lat: pick[0], long: pick[1]}) */\n      dup2\n      mstore\n      pop\n        /* \"ridefair.sol\":3987:3992  users */\n      0x0\n        /* \"ridefair.sol\":3987:4004  users[msg.sender] */\n      dup1\n        /* \"ridefair.sol\":3993:4003  msg.sender */\n      caller\n        /* \"ridefair.sol\":3987:4004  users[msg.sender] */\n      0xffffffffffffffffffffffffffffffffffffffff\n      and\n      0xffffffffffffffffffffffffffffffffffffffff\n      and\n      dup2\n      mstore\n      0x20\n      add\n      swap1\n      dup2\n      mstore\n      0x20\n      add\n      0x0\n      keccak256\n        /* \"ridefair.sol\":3987:4011  users[msg.sender].pickup */\n      0x3\n      add\n        /* \"ridefair.sol\":3987:4056  users[msg.sender].pickup = coordinates({lat: pick[0], long: pick[1]}) */\n      0x0\n      dup3\n      add\n      mload\n      dup2\n      0x0\n      add\n      sstore\n      0x20\n      dup3\n      add\n      mload\n      dup2\n      0x1\n      add\n      sstore\n      swap1\n      pop\n      pop\n        /* \"ridefair.sol\":4098:4140  coordinates({lat: drop[0], long: drop[1]}) */\n      0x40\n      dup1\n      mload\n      swap1\n      dup2\n      add\n      0x40\n      mstore\n      dup1\n        /* \"ridefair.sol\":4116:4120  drop */\n      dup4\n        /* \"ridefair.sol\":4121:4122  0 */\n      0x0\n        /* \"ridefair.sol\":4116:4123  drop[0] */\n      dup2\n      mload\n      dup2\n      lt\n      iszero\n      iszero\n      tag_224\n      jumpi\n      invalid\n    tag_224:\n      swap1\n      0x20\n      add\n      swap1\n      0x20\n      mul\n      add\n      mload\n        /* \"ridefair.sol\":4098:4140  coordinates({lat: drop[0], long: drop[1]}) */\n      dup2\n      mstore\n      0x20\n      add\n        /* \"ridefair.sol\":4131:4135  drop */\n      dup4\n        /* \"ridefair.sol\":4136:4137  1 */\n      0x1\n        /* \"ridefair.sol\":4131:4138  drop[1] */\n      dup2\n      mload\n      dup2\n      lt\n      iszero\n      iszero\n      tag_225\n      jumpi\n      invalid\n    tag_225:\n      swap1\n      0x20\n      add\n      swap1\n      0x20\n      mul\n      add\n      mload\n        /* \"ridefair.sol\":4098:4140  coordinates({lat: drop[0], long: drop[1]}) */\n      dup2\n      mstore\n      pop\n        /* \"ridefair.sol\":4070:4075  users */\n      0x0\n        /* \"ridefair.sol\":4070:4087  users[msg.sender] */\n      dup1\n        /* \"ridefair.sol\":4076:4086  msg.sender */\n      caller\n        /* \"ridefair.sol\":4070:4087  users[msg.sender] */\n      0xffffffffffffffffffffffffffffffffffffffff\n      and\n      0xffffffffffffffffffffffffffffffffffffffff\n      and\n      dup2\n      mstore\n      0x20\n      add\n      swap1\n      dup2\n      mstore\n      0x20\n      add\n      0x0\n      keccak256\n        /* \"ridefair.sol\":4070:4095  users[msg.sender].dropoff */\n      0x5\n      add\n        /* \"ridefair.sol\":4070:4140  users[msg.sender].dropoff = coordinates({lat: drop[0], long: drop[1]}) */\n      0x0\n      dup3\n      add\n      mload\n      dup2\n      0x0\n      add\n      sstore\n      0x20\n      dup3\n      add\n      mload\n      dup2\n      0x1\n      add\n      sstore\n      swap1\n      pop\n      pop\n        /* \"ridefair.sol\":4181:4189  tripCost */\n      dup1\n        /* \"ridefair.sol\":4154:4159  users */\n      0x0\n        /* \"ridefair.sol\":4154:4171  users[msg.sender] */\n      dup1\n        /* \"ridefair.sol\":4160:4170  msg.sender */\n      caller\n        /* \"ridefair.sol\":4154:4171  users[msg.sender] */\n      0xffffffffffffffffffffffffffffffffffffffff\n      and\n      0xffffffffffffffffffffffffffffffffffffffff\n      and\n      dup2\n      mstore\n      0x20\n      add\n      swap1\n      dup2\n      mstore\n      0x20\n      add\n      0x0\n      keccak256\n        /* \"ridefair.sol\":4154:4178  users[msg.sender].escrow */\n      0x9\n      add\n        /* \"ridefair.sol\":4154:4189  users[msg.sender].escrow = tripCost */\n      dup2\n      swap1\n      sstore\n      pop\n        /* \"ridefair.sol\":4235:4236  0 */\n      0x0\n        /* \"ridefair.sol\":4203:4208  users */\n      dup1\n        /* \"ridefair.sol\":4203:4220  users[msg.sender] */\n      0x0\n        /* \"ridefair.sol\":4209:4219  msg.sender */\n      caller\n        /* \"ridefair.sol\":4203:4220  users[msg.sender] */\n      0xffffffffffffffffffffffffffffffffffffffff\n      and\n      0xffffffffffffffffffffffffffffffffffffffff\n      and\n      dup2\n      mstore\n      0x20\n      add\n      swap1\n      dup2\n      mstore\n      0x20\n      add\n      0x0\n      keccak256\n        /* \"ridefair.sol\":4203:4232  users[msg.sender].arrivalTime */\n      0x7\n      add\n        /* \"ridefair.sol\":4203:4236  users[msg.sender].arrivalTime = 0 */\n      dup2\n      swap1\n      sstore\n      pop\n        /* \"ridefair.sol\":4284:4289  false */\n      0x0\n        /* \"ridefair.sol\":4250:4255  users */\n      dup1\n        /* \"ridefair.sol\":4250:4267  users[msg.sender] */\n      0x0\n        /* \"ridefair.sol\":4256:4266  msg.sender */\n      caller\n        /* \"ridefair.sol\":4250:4267  users[msg.sender] */\n      0xffffffffffffffffffffffffffffffffffffffff\n      and\n      0xffffffffffffffffffffffffffffffffffffffff\n      and\n      dup2\n      mstore\n      0x20\n      add\n      swap1\n      dup2\n      mstore\n      0x20\n      add\n      0x0\n      keccak256\n        /* \"ridefair.sol\":4250:4281  users[msg.sender].driverArrived */\n      0x8\n      add\n      0x0\n        /* \"ridefair.sol\":4250:4289  users[msg.sender].driverArrived = false */\n      0x100\n      exp\n      dup2\n      sload\n      dup2\n      0xff\n      mul\n      not\n      and\n      swap1\n      dup4\n      iszero\n      iszero\n      mul\n      or\n      swap1\n      sstore\n      pop\n        /* \"ridefair.sol\":4334:4339  false */\n      0x0\n        /* \"ridefair.sol\":4303:4308  users */\n      dup1\n        /* \"ridefair.sol\":4303:4320  users[msg.sender] */\n      0x0\n        /* \"ridefair.sol\":4309:4319  msg.sender */\n      caller\n        /* \"ridefair.sol\":4303:4320  users[msg.sender] */\n      0xffffffffffffffffffffffffffffffffffffffff\n      and\n      0xffffffffffffffffffffffffffffffffffffffff\n      and\n      dup2\n      mstore\n      0x20\n      add\n      swap1\n      dup2\n      mstore\n      0x20\n      add\n      0x0\n      keccak256\n        /* \"ridefair.sol\":4303:4331  users[msg.sender].inProgress */\n      0x8\n      add\n      0x1\n        /* \"ridefair.sol\":4303:4339  users[msg.sender].inProgress = false */\n      0x100\n      exp\n      dup2\n      sload\n      dup2\n      0xff\n      mul\n      not\n      and\n      swap1\n      dup4\n      iszero\n      iszero\n      mul\n      or\n      swap1\n      sstore\n      pop\n        /* \"ridefair.sol\":4378:4379  0 */\n      0x0\n        /* \"ridefair.sol\":4353:4358  users */\n      dup1\n        /* \"ridefair.sol\":4353:4370  users[msg.sender] */\n      0x0\n        /* \"ridefair.sol\":4359:4369  msg.sender */\n      caller\n        /* \"ridefair.sol\":4353:4370  users[msg.sender] */\n      0xffffffffffffffffffffffffffffffffffffffff\n      and\n      0xffffffffffffffffffffffffffffffffffffffff\n      and\n      dup2\n      mstore\n      0x20\n      add\n      swap1\n      dup2\n      mstore\n      0x20\n      add\n      0x0\n      keccak256\n        /* \"ridefair.sol\":4353:4375  users[msg.sender].paid */\n      0xa\n      add\n        /* \"ridefair.sol\":4353:4379  users[msg.sender].paid = 0 */\n      dup2\n      swap1\n      sstore\n      pop\n        /* \"ridefair.sol\":3268:4390  if(users[msg.sender].isUser == false){... */\n    tag_220:\n        /* \"ridefair.sol\":2782:4396  function rideRequest(int256[] memory pick, int256[] memory drop, uint tripCost) public {... */\n      pop\n      pop\n      pop\n      jump\t// out\n        /* \"ridefair.sol\":4402:4659  function getNumber() view public returns(int){... */\n    tag_53:\n        /* \"ridefair.sol\":4443:4446  int */\n      0x0\n        /* \"ridefair.sol\":4540:4544  true */\n      0x1\n        /* \"ridefair.sol\":4514:4544  users[msg.sender].isUser==true */\n      iszero\n      iszero\n        /* \"ridefair.sol\":4514:4519  users */\n      0x0\n        /* \"ridefair.sol\":4514:4531  users[msg.sender] */\n      dup1\n        /* \"ridefair.sol\":4520:4530  msg.sender */\n      caller\n        /* \"ridefair.sol\":4514:4531  users[msg.sender] */\n      0xffffffffffffffffffffffffffffffffffffffff\n      and\n      0xffffffffffffffffffffffffffffffffffffffff\n      and\n      dup2\n      mstore\n      0x20\n      add\n      swap1\n      dup2\n      mstore\n      0x20\n      add\n      0x0\n      keccak256\n        /* \"ridefair.sol\":4514:4538  users[msg.sender].isUser */\n      0x0\n      add\n      0x0\n      swap1\n      sload\n      swap1\n      0x100\n      exp\n      swap1\n      div\n      0xff\n      and\n        /* \"ridefair.sol\":4514:4544  users[msg.sender].isUser==true */\n      iszero\n      iszero\n      eq\n        /* \"ridefair.sol\":4510:4653  if (users[msg.sender].isUser==true){... */\n      iszero\n      tag_227\n      jumpi\n        /* \"ridefair.sol\":4570:4575  users */\n      0x0\n        /* \"ridefair.sol\":4570:4587  users[msg.sender] */\n      dup1\n        /* \"ridefair.sol\":4576:4586  msg.sender */\n      caller\n        /* \"ridefair.sol\":4570:4587  users[msg.sender] */\n      0xffffffffffffffffffffffffffffffffffffffff\n      and\n      0xffffffffffffffffffffffffffffffffffffffff\n      and\n      dup2\n      mstore\n      0x20\n      add\n      swap1\n      dup2\n      mstore\n      0x20\n      add\n      0x0\n      keccak256\n        /* \"ridefair.sol\":4570:4594  users[msg.sender].number */\n      0x1\n      add\n      sload\n        /* \"ridefair.sol\":4559:4595  return int(users[msg.sender].number) */\n      swap1\n      pop\n      jump(tag_226)\n        /* \"ridefair.sol\":4510:4653  if (users[msg.sender].isUser==true){... */\n    tag_227:\n        /* \"ridefair.sol\":4640:4642  -1 */\n      0xffffffffffffffffffffffffffffffffffffffffffffffffffffffffffffffff\n        /* \"ridefair.sol\":4633:4642  return -1 */\n      swap1\n      pop\n        /* \"ridefair.sol\":4402:4659  function getNumber() view public returns(int){... */\n    tag_226:\n      swap1\n      jump\t// out\n        /* \"ridefair.sol\":8683:9152  function reset(address usrAddr) private{... */\n    tag_137:\n        /* \"ridefair.sol\":8755:8770  Status.INACTIVE */\n      0x0\n        /* \"ridefair.sol\":8732:8737  users */\n      dup1\n        /* \"ridefair.sol\":8732:8746  users[usrAddr] */\n      0x0\n        /* \"ridefair.sol\":8738:8745  usrAddr */\n      dup4\n        /* \"ridefair.sol\":8732:8746  users[usrAddr] */\n      0xffffffffffffffffffffffffffffffffffffffff\n      and\n      0xffffffffffffffffffffffffffffffffffffffff\n      and\n      dup2\n      mstore\n      0x20\n      add\n      swap1\n      dup2\n      mstore\n      0x20\n      add\n      0x0\n      keccak256\n        /* \"ridefair.sol\":8732:8752  users[usrAddr].state */\n      0x2\n      add\n      0x0\n        /* \"ridefair.sol\":8732:8770  users[usrAddr].state = Status.INACTIVE */\n      0x100\n      exp\n      dup2\n      sload\n      dup2\n      0xff\n      mul\n      not\n      and\n      swap1\n      dup4\n      0x2\n      dup2\n      gt\n      iszero\n      tag_230\n      jumpi\n      invalid\n    tag_230:\n      mul\n      or\n      swap1\n      sstore\n      pop\n        /* \"ridefair.sol\":8817:8818  0 */\n      0x0\n        /* \"ridefair.sol\":8780:8785  users */\n      dup1\n        /* \"ridefair.sol\":8780:8794  users[usrAddr] */\n      0x0\n        /* \"ridefair.sol\":8786:8793  usrAddr */\n      dup4\n        /* \"ridefair.sol\":8780:8794  users[usrAddr] */\n      0xffffffffffffffffffffffffffffffffffffffff\n      and\n      0xffffffffffffffffffffffffffffffffffffffff\n      and\n      dup2\n      mstore\n      0x20\n      add\n      swap1\n      dup2\n      mstore\n      0x20\n      add\n      0x0\n      keccak256\n        /* \"ridefair.sol\":8780:8806  users[usrAddr].currPairing */\n      0x2\n      add\n      0x1\n        /* \"ridefair.sol\":8780:8819  users[usrAddr].currPairing = address(0) */\n      0x100\n      exp\n      dup2\n      sload\n      dup2\n      0xffffffffffffffffffffffffffffffffffffffff\n      mul\n      not\n      and\n      swap1\n      dup4\n      0xffffffffffffffffffffffffffffffffffffffff\n      and\n      mul\n      or\n      swap1\n      sstore\n      pop\n        /* \"ridefair.sol\":8853:8883  coordinates({lat: 0, long: 0}) */\n      0x40\n      dup1\n      mload\n      swap1\n      dup2\n      add\n      0x40\n      mstore\n      dup1\n        /* \"ridefair.sol\":8871:8872  0 */\n      0x0\n        /* \"ridefair.sol\":8853:8883  coordinates({lat: 0, long: 0}) */\n      dup2\n      mstore\n      0x20\n      add\n        /* \"ridefair.sol\":8880:8881  0 */\n      0x0\n        /* \"ridefair.sol\":8853:8883  coordinates({lat: 0, long: 0}) */\n      dup2\n      mstore\n      pop\n        /* \"ridefair.sol\":8829:8834  users */\n      0x0\n        /* \"ridefair.sol\":8829:8843  users[usrAddr] */\n      dup1\n        /* \"ridefair.sol\":8835:8842  usrAddr */\n      dup4\n        /* \"ridefair.sol\":8829:8843  users[usrAddr] */\n      0xffffffffffffffffffffffffffffffffffffffff\n      and\n      0xffffffffffffffffffffffffffffffffffffffff\n      and\n      dup2\n      mstore\n      0x20\n      add\n      swap1\n      dup2\n      mstore\n      0x20\n      add\n      0x0\n      keccak256\n        /* \"ridefair.sol\":8829:8850  users[usrAddr].pickup */\n      0x3\n      add\n        /* \"ridefair.sol\":8829:8883  users[usrAddr].pickup = coordinates({lat: 0, long: 0}) */\n      0x0\n      dup3\n      add\n      mload\n      dup2\n      0x0\n      add\n      sstore\n      0x20\n      dup3\n      add\n      mload\n      dup2\n      0x1\n      add\n      sstore\n      swap1\n      pop\n      pop\n        /* \"ridefair.sol\":8918:8948  coordinates({lat: 0, long: 0}) */\n      0x40\n      dup1\n      mload\n      swap1\n      dup2\n      add\n      0x40\n      mstore\n      dup1\n        /* \"ridefair.sol\":8936:8937  0 */\n      0x0\n        /* \"ridefair.sol\":8918:8948  coordinates({lat: 0, long: 0}) */\n      dup2\n      mstore\n      0x20\n      add\n        /* \"ridefair.sol\":8945:8946  0 */\n      0x0\n        /* \"ridefair.sol\":8918:8948  coordinates({lat: 0, long: 0}) */\n      dup2\n      mstore\n      pop\n        /* \"ridefair.sol\":8893:8898  users */\n      0x0\n        /* \"ridefair.sol\":8893:8907  users[usrAddr] */\n      dup1\n        /* \"ridefair.sol\":8899:8906  usrAddr */\n      dup4\n        /* \"ridefair.sol\":8893:8907  users[usrAddr] */\n      0xffffffffffffffffffffffffffffffffffffffff\n      and\n      0xffffffffffffffffffffffffffffffffffffffff\n      and\n      dup2\n      mstore\n      0x20\n      add\n      swap1\n      dup2\n      mstore\n      0x20\n      add\n      0x0\n      keccak256\n        /* \"ridefair.sol\":8893:8915  users[usrAddr].dropoff */\n      0x5\n      add\n        /* \"ridefair.sol\":8893:8948  users[usrAddr].dropoff = coordinates({lat: 0, long: 0}) */\n      0x0\n      dup3\n      add\n      mload\n      dup2\n      0x0\n      add\n      sstore\n      0x20\n      dup3\n      add\n      mload\n      dup2\n      0x1\n      add\n      sstore\n      swap1\n      pop\n      pop\n        /* \"ridefair.sol\":8987:8988  0 */\n      0x0\n        /* \"ridefair.sol\":8958:8963  users */\n      dup1\n        /* \"ridefair.sol\":8958:8972  users[usrAddr] */\n      0x0\n        /* \"ridefair.sol\":8964:8971  usrAddr */\n      dup4\n        /* \"ridefair.sol\":8958:8972  users[usrAddr] */\n      0xffffffffffffffffffffffffffffffffffffffff\n      and\n      0xffffffffffffffffffffffffffffffffffffffff\n      and\n      dup2\n      mstore\n      0x20\n      add\n      swap1\n      dup2\n      mstore\n      0x20\n      add\n      0x0\n      keccak256\n        /* \"ridefair.sol\":8958:8984  users[usrAddr].arrivalTime */\n      0x7\n      add\n        /* \"ridefair.sol\":8958:8988  users[usrAddr].arrivalTime = 0 */\n      dup2\n      swap1\n      sstore\n      pop\n        /* \"ridefair.sol\":9029:9034  false */\n      0x0\n        /* \"ridefair.sol\":8998:9003  users */\n      dup1\n        /* \"ridefair.sol\":8998:9012  users[usrAddr] */\n      0x0\n        /* \"ridefair.sol\":9004:9011  usrAddr */\n      dup4\n        /* \"ridefair.sol\":8998:9012  users[usrAddr] */\n      0xffffffffffffffffffffffffffffffffffffffff\n      and\n      0xffffffffffffffffffffffffffffffffffffffff\n      and\n      dup2\n      mstore\n      0x20\n      add\n      swap1\n      dup2\n      mstore\n      0x20\n      add\n      0x0\n      keccak256\n        /* \"ridefair.sol\":8998:9026  users[usrAddr].driverArrived */\n      0x8\n      add\n      0x0\n        /* \"ridefair.sol\":8998:9034  users[usrAddr].driverArrived = false */\n      0x100\n      exp\n      dup2\n      sload\n      dup2\n      0xff\n      mul\n      not\n      and\n      swap1\n      dup4\n      iszero\n      iszero\n      mul\n      or\n      swap1\n      sstore\n      pop\n        /* \"ridefair.sol\":9072:9077  false */\n      0x0\n        /* \"ridefair.sol\":9044:9049  users */\n      dup1\n        /* \"ridefair.sol\":9044:9058  users[usrAddr] */\n      0x0\n        /* \"ridefair.sol\":9050:9057  usrAddr */\n      dup4\n        /* \"ridefair.sol\":9044:9058  users[usrAddr] */\n      0xffffffffffffffffffffffffffffffffffffffff\n      and\n      0xffffffffffffffffffffffffffffffffffffffff\n      and\n      dup2\n      mstore\n      0x20\n      add\n      swap1\n      dup2\n      mstore\n      0x20\n      add\n      0x0\n      keccak256\n        /* \"ridefair.sol\":9044:9069  users[usrAddr].inProgress */\n      0x8\n      add\n      0x1\n        /* \"ridefair.sol\":9044:9077  users[usrAddr].inProgress = false */\n      0x100\n      exp\n      dup2\n      sload\n      dup2\n      0xff\n      mul\n      not\n      and\n      swap1\n      dup4\n      iszero\n      iszero\n      mul\n      or\n      swap1\n      sstore\n      pop\n        /* \"ridefair.sol\":9111:9112  0 */\n      0x0\n        /* \"ridefair.sol\":9087:9092  users */\n      dup1\n        /* \"ridefair.sol\":9087:9101  users[usrAddr] */\n      0x0\n        /* \"ridefair.sol\":9093:9100  usrAddr */\n      dup4\n        /* \"ridefair.sol\":9087:9101  users[usrAddr] */\n      0xffffffffffffffffffffffffffffffffffffffff\n      and\n      0xffffffffffffffffffffffffffffffffffffffff\n      and\n      dup2\n      mstore\n      0x20\n      add\n      swap1\n      dup2\n      mstore\n      0x20\n      add\n      0x0\n      keccak256\n        /* \"ridefair.sol\":9087:9108  users[usrAddr].escrow */\n      0x9\n      add\n        /* \"ridefair.sol\":9087:9112  users[usrAddr].escrow = 0 */\n      dup2\n      swap1\n      sstore\n      pop\n        /* \"ridefair.sol\":9144:9145  0 */\n      0x0\n        /* \"ridefair.sol\":9122:9127  users */\n      dup1\n        /* \"ridefair.sol\":9122:9136  users[usrAddr] */\n      0x0\n        /* \"ridefair.sol\":9128:9135  usrAddr */\n      dup4\n        /* \"ridefair.sol\":9122:9136  users[usrAddr] */\n      0xffffffffffffffffffffffffffffffffffffffff\n      and\n      0xffffffffffffffffffffffffffffffffffffffff\n      and\n      dup2\n      mstore\n      0x20\n      add\n      swap1\n      dup2\n      mstore\n      0x20\n      add\n      0x0\n      keccak256\n        /* \"ridefair.sol\":9122:9141  users[usrAddr].paid */\n      0xa\n      add\n        /* \"ridefair.sol\":9122:9145  users[usrAddr].paid = 0 */\n      dup2\n      swap1\n      sstore\n      pop\n        /* \"ridefair.sol\":8683:9152  function reset(address usrAddr) private{... */\n      pop\n      jump\t// out\n        /* \"--CODEGEN--\":5:123   */\n    tag_232:\n      0x0\n        /* \"--CODEGEN--\":72:118   */\n      tag_233\n        /* \"--CODEGEN--\":110:116   */\n      dup3\n        /* \"--CODEGEN--\":97:117   */\n      calldataload\n        /* \"--CODEGEN--\":72:118   */\n      jump(tag_234)\n    tag_233:\n        /* \"--CODEGEN--\":63:118   */\n      swap1\n      pop\n        /* \"--CODEGEN--\":57:123   */\n      swap3\n      swap2\n      pop\n      pop\n      jump\n        /* \"--CODEGEN--\":147:851   */\n    tag_236:\n      0x0\n        /* \"--CODEGEN--\":263:266   */\n      dup3\n        /* \"--CODEGEN--\":256:260   */\n      0x1f\n        /* \"--CODEGEN--\":248:254   */\n      dup4\n        /* \"--CODEGEN--\":244:261   */\n      add\n        /* \"--CODEGEN--\":240:267   */\n      slt\n        /* \"--CODEGEN--\":233:268   */\n      iszero\n        /* \"--CODEGEN--\":230:232   */\n      iszero\n      tag_237\n      jumpi\n        /* \"--CODEGEN--\":281:282   */\n      0x0\n        /* \"--CODEGEN--\":278:279   */\n      dup1\n        /* \"--CODEGEN--\":271:283   */\n      revert\n        /* \"--CODEGEN--\":230:232   */\n    tag_237:\n        /* \"--CODEGEN--\":318:324   */\n      dup2\n        /* \"--CODEGEN--\":305:325   */\n      calldataload\n        /* \"--CODEGEN--\":340:419   */\n      tag_238\n        /* \"--CODEGEN--\":355:418   */\n      tag_239\n        /* \"--CODEGEN--\":411:417   */\n      dup3\n        /* \"--CODEGEN--\":355:418   */\n      jump(tag_240)\n    tag_239:\n        /* \"--CODEGEN--\":340:419   */\n      jump(tag_241)\n    tag_238:\n        /* \"--CODEGEN--\":331:419   */\n      swap2\n      pop\n        /* \"--CODEGEN--\":436:441   */\n      dup2\n        /* \"--CODEGEN--\":461:467   */\n      dup2\n        /* \"--CODEGEN--\":454:459   */\n      dup4\n        /* \"--CODEGEN--\":447:468   */\n      mstore\n        /* \"--CODEGEN--\":491:495   */\n      0x20\n        /* \"--CODEGEN--\":483:489   */\n      dup5\n        /* \"--CODEGEN--\":479:496   */\n      add\n        /* \"--CODEGEN--\":469:496   */\n      swap4\n      pop\n        /* \"--CODEGEN--\":513:517   */\n      0x20\n        /* \"--CODEGEN--\":508:511   */\n      dup2\n        /* \"--CODEGEN--\":504:518   */\n      add\n        /* \"--CODEGEN--\":497:518   */\n      swap1\n      pop\n        /* \"--CODEGEN--\":566:572   */\n      dup4\n        /* \"--CODEGEN--\":613:616   */\n      dup6\n        /* \"--CODEGEN--\":605:609   */\n      0x20\n        /* \"--CODEGEN--\":597:603   */\n      dup5\n        /* \"--CODEGEN--\":593:610   */\n      mul\n        /* \"--CODEGEN--\":588:591   */\n      dup3\n        /* \"--CODEGEN--\":584:611   */\n      add\n        /* \"--CODEGEN--\":581:617   */\n      gt\n        /* \"--CODEGEN--\":578:580   */\n      iszero\n      tag_242\n      jumpi\n        /* \"--CODEGEN--\":630:631   */\n      0x0\n        /* \"--CODEGEN--\":627:628   */\n      dup1\n        /* \"--CODEGEN--\":620:632   */\n      revert\n        /* \"--CODEGEN--\":578:580   */\n    tag_242:\n        /* \"--CODEGEN--\":655:656   */\n      0x0\n        /* \"--CODEGEN--\":640:845   */\n    tag_243:\n        /* \"--CODEGEN--\":665:671   */\n      dup4\n        /* \"--CODEGEN--\":662:663   */\n      dup2\n        /* \"--CODEGEN--\":659:672   */\n      lt\n        /* \"--CODEGEN--\":640:845   */\n      iszero\n      tag_244\n      jumpi\n        /* \"--CODEGEN--\":723:726   */\n      dup2\n        /* \"--CODEGEN--\":745:781   */\n      tag_246\n        /* \"--CODEGEN--\":777:780   */\n      dup9\n        /* \"--CODEGEN--\":765:775   */\n      dup3\n        /* \"--CODEGEN--\":745:781   */\n      jump(tag_247)\n    tag_246:\n        /* \"--CODEGEN--\":740:743   */\n      dup5\n        /* \"--CODEGEN--\":733:782   */\n      mstore\n        /* \"--CODEGEN--\":805:809   */\n      0x20\n        /* \"--CODEGEN--\":800:803   */\n      dup5\n        /* \"--CODEGEN--\":796:810   */\n      add\n        /* \"--CODEGEN--\":789:810   */\n      swap4\n      pop\n        /* \"--CODEGEN--\":833:837   */\n      0x20\n        /* \"--CODEGEN--\":828:831   */\n      dup4\n        /* \"--CODEGEN--\":824:838   */\n      add\n        /* \"--CODEGEN--\":817:838   */\n      swap3\n      pop\n        /* \"--CODEGEN--\":697:845   */\n      pop\n        /* \"--CODEGEN--\":687:688   */\n      0x1\n        /* \"--CODEGEN--\":684:685   */\n      dup2\n        /* \"--CODEGEN--\":680:689   */\n      add\n        /* \"--CODEGEN--\":675:689   */\n      swap1\n      pop\n        /* \"--CODEGEN--\":640:845   */\n      jump(tag_243)\n    tag_244:\n        /* \"--CODEGEN--\":644:658   */\n      pop\n        /* \"--CODEGEN--\":223:851   */\n      pop\n      pop\n      pop\n      swap3\n      swap2\n      pop\n      pop\n      jump\n        /* \"--CODEGEN--\":859:975   */\n    tag_247:\n      0x0\n        /* \"--CODEGEN--\":925:970   */\n      tag_249\n        /* \"--CODEGEN--\":962:968   */\n      dup3\n        /* \"--CODEGEN--\":949:969   */\n      calldataload\n        /* \"--CODEGEN--\":925:970   */\n      jump(tag_250)\n    tag_249:\n        /* \"--CODEGEN--\":916:970   */\n      swap1\n      pop\n        /* \"--CODEGEN--\":910:975   */\n      swap3\n      swap2\n      pop\n      pop\n      jump\n        /* \"--CODEGEN--\":982:1100   */\n    tag_252:\n      0x0\n        /* \"--CODEGEN--\":1049:1095   */\n      tag_253\n        /* \"--CODEGEN--\":1087:1093   */\n      dup3\n        /* \"--CODEGEN--\":1074:1094   */\n      calldataload\n        /* \"--CODEGEN--\":1049:1095   */\n      jump(tag_254)\n    tag_253:\n        /* \"--CODEGEN--\":1040:1095   */\n      swap1\n      pop\n        /* \"--CODEGEN--\":1034:1100   */\n      swap3\n      swap2\n      pop\n      pop\n      jump\n        /* \"--CODEGEN--\":1107:1348   */\n    tag_40:\n      0x0\n        /* \"--CODEGEN--\":1211:1213   */\n      0x20\n        /* \"--CODEGEN--\":1199:1208   */\n      dup3\n        /* \"--CODEGEN--\":1190:1197   */\n      dup5\n        /* \"--CODEGEN--\":1186:1209   */\n      sub\n        /* \"--CODEGEN--\":1182:1214   */\n      slt\n        /* \"--CODEGEN--\":1179:1181   */\n      iszero\n      tag_256\n      jumpi\n        /* \"--CODEGEN--\":1227:1228   */\n      0x0\n        /* \"--CODEGEN--\":1224:1225   */\n      dup1\n        /* \"--CODEGEN--\":1217:1229   */\n      revert\n        /* \"--CODEGEN--\":1179:1181   */\n    tag_256:\n        /* \"--CODEGEN--\":1262:1263   */\n      0x0\n        /* \"--CODEGEN--\":1279:1332   */\n      tag_257\n        /* \"--CODEGEN--\":1324:1331   */\n      dup5\n        /* \"--CODEGEN--\":1315:1321   */\n      dup3\n        /* \"--CODEGEN--\":1304:1313   */\n      dup6\n        /* \"--CODEGEN--\":1300:1322   */\n      add\n        /* \"--CODEGEN--\":1279:1332   */\n      jump(tag_232)\n    tag_257:\n        /* \"--CODEGEN--\":1269:1332   */\n      swap2\n      pop\n        /* \"--CODEGEN--\":1241:1338   */\n      pop\n        /* \"--CODEGEN--\":1173:1348   */\n      swap3\n      swap2\n      pop\n      pop\n      jump\n        /* \"--CODEGEN--\":1355:1730   */\n    tag_35:\n      0x0\n        /* \"--CODEGEN--\":1483:1485   */\n      0x20\n        /* \"--CODEGEN--\":1471:1480   */\n      dup3\n        /* \"--CODEGEN--\":1462:1469   */\n      dup5\n        /* \"--CODEGEN--\":1458:1481   */\n      sub\n        /* \"--CODEGEN--\":1454:1486   */\n      slt\n        /* \"--CODEGEN--\":1451:1453   */\n      iszero\n      tag_259\n      jumpi\n        /* \"--CODEGEN--\":1499:1500   */\n      0x0\n        /* \"--CODEGEN--\":1496:1497   */\n      dup1\n        /* \"--CODEGEN--\":1489:1501   */\n      revert\n        /* \"--CODEGEN--\":1451:1453   */\n    tag_259:\n        /* \"--CODEGEN--\":1562:1563   */\n      0x0\n        /* \"--CODEGEN--\":1551:1560   */\n      dup3\n        /* \"--CODEGEN--\":1547:1564   */\n      add\n        /* \"--CODEGEN--\":1534:1565   */\n      calldataload\n        /* \"--CODEGEN--\":1585:1603   */\n      0xffffffffffffffff\n        /* \"--CODEGEN--\":1577:1583   */\n      dup2\n        /* \"--CODEGEN--\":1574:1604   */\n      gt\n        /* \"--CODEGEN--\":1571:1573   */\n      iszero\n      tag_260\n      jumpi\n        /* \"--CODEGEN--\":1617:1618   */\n      0x0\n        /* \"--CODEGEN--\":1614:1615   */\n      dup1\n        /* \"--CODEGEN--\":1607:1619   */\n      revert\n        /* \"--CODEGEN--\":1571:1573   */\n    tag_260:\n        /* \"--CODEGEN--\":1637:1714   */\n      tag_261\n        /* \"--CODEGEN--\":1706:1713   */\n      dup5\n        /* \"--CODEGEN--\":1697:1703   */\n      dup3\n        /* \"--CODEGEN--\":1686:1695   */\n      dup6\n        /* \"--CODEGEN--\":1682:1704   */\n      add\n        /* \"--CODEGEN--\":1637:1714   */\n      jump(tag_236)\n    tag_261:\n        /* \"--CODEGEN--\":1627:1714   */\n      swap2\n      pop\n        /* \"--CODEGEN--\":1513:1720   */\n      pop\n        /* \"--CODEGEN--\":1445:1730   */\n      swap3\n      swap2\n      pop\n      pop\n      jump\n        /* \"--CODEGEN--\":1737:2496   */\n    tag_49:\n      0x0\n      dup1\n      0x0\n        /* \"--CODEGEN--\":1923:1925   */\n      0x60\n        /* \"--CODEGEN--\":1911:1920   */\n      dup5\n        /* \"--CODEGEN--\":1902:1909   */\n      dup7\n        /* \"--CODEGEN--\":1898:1921   */\n      sub\n        /* \"--CODEGEN--\":1894:1926   */\n      slt\n        /* \"--CODEGEN--\":1891:1893   */\n      iszero\n      tag_263\n      jumpi\n        /* \"--CODEGEN--\":1939:1940   */\n      0x0\n        /* \"--CODEGEN--\":1936:1937   */\n      dup1\n        /* \"--CODEGEN--\":1929:1941   */\n      revert\n        /* \"--CODEGEN--\":1891:1893   */\n    tag_263:\n        /* \"--CODEGEN--\":2002:2003   */\n      0x0\n        /* \"--CODEGEN--\":1991:2000   */\n      dup5\n        /* \"--CODEGEN--\":1987:2004   */\n      add\n        /* \"--CODEGEN--\":1974:2005   */\n      calldataload\n        /* \"--CODEGEN--\":2025:2043   */\n      0xffffffffffffffff\n        /* \"--CODEGEN--\":2017:2023   */\n      dup2\n        /* \"--CODEGEN--\":2014:2044   */\n      gt\n        /* \"--CODEGEN--\":2011:2013   */\n      iszero\n      tag_264\n      jumpi\n        /* \"--CODEGEN--\":2057:2058   */\n      0x0\n        /* \"--CODEGEN--\":2054:2055   */\n      dup1\n        /* \"--CODEGEN--\":2047:2059   */\n      revert\n        /* \"--CODEGEN--\":2011:2013   */\n    tag_264:\n        /* \"--CODEGEN--\":2077:2154   */\n      tag_265\n        /* \"--CODEGEN--\":2146:2153   */\n      dup7\n        /* \"--CODEGEN--\":2137:2143   */\n      dup3\n        /* \"--CODEGEN--\":2126:2135   */\n      dup8\n        /* \"--CODEGEN--\":2122:2144   */\n      add\n        /* \"--CODEGEN--\":2077:2154   */\n      jump(tag_236)\n    tag_265:\n        /* \"--CODEGEN--\":2067:2154   */\n      swap4\n      pop\n        /* \"--CODEGEN--\":1953:2160   */\n      pop\n        /* \"--CODEGEN--\":2219:2221   */\n      0x20\n        /* \"--CODEGEN--\":2208:2217   */\n      dup5\n        /* \"--CODEGEN--\":2204:2222   */\n      add\n        /* \"--CODEGEN--\":2191:2223   */\n      calldataload\n        /* \"--CODEGEN--\":2243:2261   */\n      0xffffffffffffffff\n        /* \"--CODEGEN--\":2235:2241   */\n      dup2\n        /* \"--CODEGEN--\":2232:2262   */\n      gt\n        /* \"--CODEGEN--\":2229:2231   */\n      iszero\n      tag_266\n      jumpi\n        /* \"--CODEGEN--\":2275:2276   */\n      0x0\n        /* \"--CODEGEN--\":2272:2273   */\n      dup1\n        /* \"--CODEGEN--\":2265:2277   */\n      revert\n        /* \"--CODEGEN--\":2229:2231   */\n    tag_266:\n        /* \"--CODEGEN--\":2295:2372   */\n      tag_267\n        /* \"--CODEGEN--\":2364:2371   */\n      dup7\n        /* \"--CODEGEN--\":2355:2361   */\n      dup3\n        /* \"--CODEGEN--\":2344:2353   */\n      dup8\n        /* \"--CODEGEN--\":2340:2362   */\n      add\n        /* \"--CODEGEN--\":2295:2372   */\n      jump(tag_236)\n    tag_267:\n        /* \"--CODEGEN--\":2285:2372   */\n      swap3\n      pop\n        /* \"--CODEGEN--\":2170:2378   */\n      pop\n        /* \"--CODEGEN--\":2409:2411   */\n      0x40\n        /* \"--CODEGEN--\":2427:2480   */\n      tag_268\n        /* \"--CODEGEN--\":2472:2479   */\n      dup7\n        /* \"--CODEGEN--\":2463:2469   */\n      dup3\n        /* \"--CODEGEN--\":2452:2461   */\n      dup8\n        /* \"--CODEGEN--\":2448:2470   */\n      add\n        /* \"--CODEGEN--\":2427:2480   */\n      jump(tag_252)\n    tag_268:\n        /* \"--CODEGEN--\":2417:2480   */\n      swap2\n      pop\n        /* \"--CODEGEN--\":2388:2486   */\n      pop\n        /* \"--CODEGEN--\":1885:2496   */\n      swap3\n      pop\n      swap3\n      pop\n      swap3\n      jump\n        /* \"--CODEGEN--\":2503:2744   */\n    tag_28:\n      0x0\n        /* \"--CODEGEN--\":2607:2609   */\n      0x20\n        /* \"--CODEGEN--\":2595:2604   */\n      dup3\n        /* \"--CODEGEN--\":2586:2593   */\n      dup5\n        /* \"--CODEGEN--\":2582:2605   */\n      sub\n        /* \"--CODEGEN--\":2578:2610   */\n      slt\n        /* \"--CODEGEN--\":2575:2577   */\n      iszero\n      tag_270\n      jumpi\n        /* \"--CODEGEN--\":2623:2624   */\n      0x0\n        /* \"--CODEGEN--\":2620:2621   */\n      dup1\n        /* \"--CODEGEN--\":2613:2625   */\n      revert\n        /* \"--CODEGEN--\":2575:2577   */\n    tag_270:\n        /* \"--CODEGEN--\":2658:2659   */\n      0x0\n        /* \"--CODEGEN--\":2675:2728   */\n      tag_271\n        /* \"--CODEGEN--\":2720:2727   */\n      dup5\n        /* \"--CODEGEN--\":2711:2717   */\n      dup3\n        /* \"--CODEGEN--\":2700:2709   */\n      dup6\n        /* \"--CODEGEN--\":2696:2718   */\n      add\n        /* \"--CODEGEN--\":2675:2728   */\n      jump(tag_252)\n    tag_271:\n        /* \"--CODEGEN--\":2665:2728   */\n      swap2\n      pop\n        /* \"--CODEGEN--\":2637:2734   */\n      pop\n        /* \"--CODEGEN--\":2569:2744   */\n      swap3\n      swap2\n      pop\n      pop\n      jump\n        /* \"--CODEGEN--\":2751:3117   */\n    tag_15:\n      0x0\n      dup1\n        /* \"--CODEGEN--\":2872:2874   */\n      0x40\n        /* \"--CODEGEN--\":2860:2869   */\n      dup4\n        /* \"--CODEGEN--\":2851:2858   */\n      dup6\n        /* \"--CODEGEN--\":2847:2870   */\n      sub\n        /* \"--CODEGEN--\":2843:2875   */\n      slt\n        /* \"--CODEGEN--\":2840:2842   */\n      iszero\n      tag_273\n      jumpi\n        /* \"--CODEGEN--\":2888:2889   */\n      0x0\n        /* \"--CODEGEN--\":2885:2886   */\n      dup1\n        /* \"--CODEGEN--\":2878:2890   */\n      revert\n        /* \"--CODEGEN--\":2840:2842   */\n    tag_273:\n        /* \"--CODEGEN--\":2923:2924   */\n      0x0\n        /* \"--CODEGEN--\":2940:2993   */\n      tag_274\n        /* \"--CODEGEN--\":2985:2992   */\n      dup6\n        /* \"--CODEGEN--\":2976:2982   */\n      dup3\n        /* \"--CODEGEN--\":2965:2974   */\n      dup7\n        /* \"--CODEGEN--\":2961:2983   */\n      add\n        /* \"--CODEGEN--\":2940:2993   */\n      jump(tag_252)\n    tag_274:\n        /* \"--CODEGEN--\":2930:2993   */\n      swap3\n      pop\n        /* \"--CODEGEN--\":2902:2999   */\n      pop\n        /* \"--CODEGEN--\":3030:3032   */\n      0x20\n        /* \"--CODEGEN--\":3048:3101   */\n      tag_275\n        /* \"--CODEGEN--\":3093:3100   */\n      dup6\n        /* \"--CODEGEN--\":3084:3090   */\n      dup3\n        /* \"--CODEGEN--\":3073:3082   */\n      dup7\n        /* \"--CODEGEN--\":3069:3091   */\n      add\n        /* \"--CODEGEN--\":3048:3101   */\n      jump(tag_252)\n    tag_275:\n        /* \"--CODEGEN--\":3038:3101   */\n      swap2\n      pop\n        /* \"--CODEGEN--\":3009:3107   */\n      pop\n        /* \"--CODEGEN--\":2834:3117   */\n      swap3\n      pop\n      swap3\n      swap1\n      pop\n      jump\n        /* \"--CODEGEN--\":3124:3234   */\n    tag_277:\n        /* \"--CODEGEN--\":3197:3228   */\n      tag_278\n        /* \"--CODEGEN--\":3222:3227   */\n      dup2\n        /* \"--CODEGEN--\":3197:3228   */\n      jump(tag_279)\n    tag_278:\n        /* \"--CODEGEN--\":3192:3195   */\n      dup3\n        /* \"--CODEGEN--\":3185:3229   */\n      mstore\n        /* \"--CODEGEN--\":3179:3234   */\n      pop\n      pop\n      jump\n        /* \"--CODEGEN--\":3270:3853   */\n    tag_281:\n      0x0\n        /* \"--CODEGEN--\":3403:3456   */\n      tag_282\n        /* \"--CODEGEN--\":3450:3455   */\n      dup3\n        /* \"--CODEGEN--\":3403:3456   */\n      jump(tag_283)\n    tag_282:\n        /* \"--CODEGEN--\":3474:3480   */\n      dup1\n        /* \"--CODEGEN--\":3469:3472   */\n      dup5\n        /* \"--CODEGEN--\":3462:3481   */\n      mstore\n        /* \"--CODEGEN--\":3498:3502   */\n      0x20\n        /* \"--CODEGEN--\":3493:3496   */\n      dup5\n        /* \"--CODEGEN--\":3489:3503   */\n      add\n        /* \"--CODEGEN--\":3482:3503   */\n      swap4\n      pop\n        /* \"--CODEGEN--\":3543:3598   */\n      tag_284\n        /* \"--CODEGEN--\":3592:3597   */\n      dup4\n        /* \"--CODEGEN--\":3543:3598   */\n      jump(tag_285)\n    tag_284:\n        /* \"--CODEGEN--\":3619:3620   */\n      0x0\n        /* \"--CODEGEN--\":3604:3831   */\n    tag_286:\n        /* \"--CODEGEN--\":3629:3635   */\n      dup3\n        /* \"--CODEGEN--\":3626:3627   */\n      dup2\n        /* \"--CODEGEN--\":3623:3636   */\n      lt\n        /* \"--CODEGEN--\":3604:3831   */\n      iszero\n      tag_287\n      jumpi\n        /* \"--CODEGEN--\":3669:3720   */\n      tag_289\n        /* \"--CODEGEN--\":3716:3719   */\n      dup7\n        /* \"--CODEGEN--\":3707:3713   */\n      dup4\n        /* \"--CODEGEN--\":3701:3714   */\n      mload\n        /* \"--CODEGEN--\":3669:3720   */\n      jump(tag_290)\n    tag_289:\n        /* \"--CODEGEN--\":3737:3796   */\n      tag_291\n        /* \"--CODEGEN--\":3789:3795   */\n      dup3\n        /* \"--CODEGEN--\":3737:3796   */\n      jump(tag_292)\n    tag_291:\n        /* \"--CODEGEN--\":3727:3796   */\n      swap2\n      pop\n        /* \"--CODEGEN--\":3819:3823   */\n      0x20\n        /* \"--CODEGEN--\":3814:3817   */\n      dup7\n        /* \"--CODEGEN--\":3810:3824   */\n      add\n        /* \"--CODEGEN--\":3803:3824   */\n      swap6\n      pop\n        /* \"--CODEGEN--\":3651:3652   */\n      0x1\n        /* \"--CODEGEN--\":3648:3649   */\n      dup2\n        /* \"--CODEGEN--\":3644:3653   */\n      add\n        /* \"--CODEGEN--\":3639:3653   */\n      swap1\n      pop\n        /* \"--CODEGEN--\":3604:3831   */\n      jump(tag_286)\n    tag_287:\n        /* \"--CODEGEN--\":3608:3622   */\n      pop\n        /* \"--CODEGEN--\":3844:3847   */\n      dup5\n        /* \"--CODEGEN--\":3837:3847   */\n      swap3\n      pop\n        /* \"--CODEGEN--\":3382:3853   */\n      pop\n      pop\n      swap3\n      swap2\n      pop\n      pop\n      jump\n        /* \"--CODEGEN--\":3861:3962   */\n    tag_294:\n        /* \"--CODEGEN--\":3928:3956   */\n      tag_295\n        /* \"--CODEGEN--\":3950:3955   */\n      dup2\n        /* \"--CODEGEN--\":3928:3956   */\n      jump(tag_296)\n    tag_295:\n        /* \"--CODEGEN--\":3923:3926   */\n      dup3\n        /* \"--CODEGEN--\":3916:3957   */\n      mstore\n        /* \"--CODEGEN--\":3910:3962   */\n      pop\n      pop\n      jump\n        /* \"--CODEGEN--\":3969:4097   */\n    tag_298:\n        /* \"--CODEGEN--\":4048:4091   */\n      tag_299\n        /* \"--CODEGEN--\":4085:4090   */\n      dup2\n        /* \"--CODEGEN--\":4048:4091   */\n      jump(tag_300)\n    tag_299:\n        /* \"--CODEGEN--\":4043:4046   */\n      dup3\n        /* \"--CODEGEN--\":4036:4092   */\n      mstore\n        /* \"--CODEGEN--\":4030:4097   */\n      pop\n      pop\n      jump\n        /* \"--CODEGEN--\":4104:4211   */\n    tag_290:\n        /* \"--CODEGEN--\":4175:4205   */\n      tag_302\n        /* \"--CODEGEN--\":4199:4204   */\n      dup2\n        /* \"--CODEGEN--\":4175:4205   */\n      jump(tag_303)\n    tag_302:\n        /* \"--CODEGEN--\":4170:4173   */\n      dup3\n        /* \"--CODEGEN--\":4163:4206   */\n      mstore\n        /* \"--CODEGEN--\":4157:4211   */\n      pop\n      pop\n      jump\n        /* \"--CODEGEN--\":4218:4350   */\n    tag_305:\n        /* \"--CODEGEN--\":4299:4344   */\n      tag_306\n        /* \"--CODEGEN--\":4338:4343   */\n      dup2\n        /* \"--CODEGEN--\":4299:4344   */\n      jump(tag_307)\n    tag_306:\n        /* \"--CODEGEN--\":4294:4297   */\n      dup3\n        /* \"--CODEGEN--\":4287:4345   */\n      mstore\n        /* \"--CODEGEN--\":4281:4350   */\n      pop\n      pop\n      jump\n        /* \"--CODEGEN--\":4358:4654   */\n    tag_309:\n      0x0\n        /* \"--CODEGEN--\":4513:4515   */\n      0x1e\n        /* \"--CODEGEN--\":4508:4511   */\n      dup3\n        /* \"--CODEGEN--\":4501:4516   */\n      mstore\n        /* \"--CODEGEN--\":4550:4616   */\n      0x4574686572206e65656420746f2062652073656e7420746f2072657365740000\n        /* \"--CODEGEN--\":4545:4547   */\n      0x20\n        /* \"--CODEGEN--\":4540:4543   */\n      dup4\n        /* \"--CODEGEN--\":4536:4548   */\n      add\n        /* \"--CODEGEN--\":4529:4617   */\n      mstore\n        /* \"--CODEGEN--\":4645:4647   */\n      0x40\n        /* \"--CODEGEN--\":4640:4643   */\n      dup3\n        /* \"--CODEGEN--\":4636:4648   */\n      add\n        /* \"--CODEGEN--\":4629:4648   */\n      swap1\n      pop\n        /* \"--CODEGEN--\":4494:4654   */\n      swap2\n      swap1\n      pop\n      jump\n        /* \"--CODEGEN--\":4663:4959   */\n    tag_311:\n      0x0\n        /* \"--CODEGEN--\":4818:4820   */\n      0x18\n        /* \"--CODEGEN--\":4813:4816   */\n      dup3\n        /* \"--CODEGEN--\":4806:4821   */\n      mstore\n        /* \"--CODEGEN--\":4855:4921   */\n      0x4e65656420746f2062652061207573657220746f207061790000000000000000\n        /* \"--CODEGEN--\":4850:4852   */\n      0x20\n        /* \"--CODEGEN--\":4845:4848   */\n      dup4\n        /* \"--CODEGEN--\":4841:4853   */\n      add\n        /* \"--CODEGEN--\":4834:4922   */\n      mstore\n        /* \"--CODEGEN--\":4950:4952   */\n      0x40\n        /* \"--CODEGEN--\":4945:4948   */\n      dup3\n        /* \"--CODEGEN--\":4941:4953   */\n      add\n        /* \"--CODEGEN--\":4934:4953   */\n      swap1\n      pop\n        /* \"--CODEGEN--\":4799:4959   */\n      swap2\n      swap1\n      pop\n      jump\n        /* \"--CODEGEN--\":4968:5365   */\n    tag_313:\n      0x0\n        /* \"--CODEGEN--\":5123:5125   */\n      0x2d\n        /* \"--CODEGEN--\":5118:5121   */\n      dup3\n        /* \"--CODEGEN--\":5111:5126   */\n      mstore\n        /* \"--CODEGEN--\":5160:5226   */\n      0x5269646572206e6565647320746f206861766520616e2061737369676e656420\n        /* \"--CODEGEN--\":5155:5157   */\n      0x20\n        /* \"--CODEGEN--\":5150:5153   */\n      dup4\n        /* \"--CODEGEN--\":5146:5158   */\n      add\n        /* \"--CODEGEN--\":5139:5227   */\n      mstore\n        /* \"--CODEGEN--\":5261:5327   */\n      0x64726976657220746f2070617900000000000000000000000000000000000000\n        /* \"--CODEGEN--\":5256:5258   */\n      0x40\n        /* \"--CODEGEN--\":5251:5254   */\n      dup4\n        /* \"--CODEGEN--\":5247:5259   */\n      add\n        /* \"--CODEGEN--\":5240:5328   */\n      mstore\n        /* \"--CODEGEN--\":5356:5358   */\n      0x60\n        /* \"--CODEGEN--\":5351:5354   */\n      dup3\n        /* \"--CODEGEN--\":5347:5359   */\n      add\n        /* \"--CODEGEN--\":5340:5359   */\n      swap1\n      pop\n        /* \"--CODEGEN--\":5104:5365   */\n      swap2\n      swap1\n      pop\n      jump\n        /* \"--CODEGEN--\":5374:5771   */\n    tag_315:\n      0x0\n        /* \"--CODEGEN--\":5529:5531   */\n      0x2d\n        /* \"--CODEGEN--\":5524:5527   */\n      dup3\n        /* \"--CODEGEN--\":5517:5532   */\n      mstore\n        /* \"--CODEGEN--\":5566:5632   */\n      0x55736572206e6565647320746f20626520696e20647269766572206d6f646520\n        /* \"--CODEGEN--\":5561:5563   */\n      0x20\n        /* \"--CODEGEN--\":5556:5559   */\n      dup4\n        /* \"--CODEGEN--\":5552:5564   */\n      add\n        /* \"--CODEGEN--\":5545:5633   */\n      mstore\n        /* \"--CODEGEN--\":5667:5733   */\n      0x746f207069636b20726964657200000000000000000000000000000000000000\n        /* \"--CODEGEN--\":5662:5664   */\n      0x40\n        /* \"--CODEGEN--\":5657:5660   */\n      dup4\n        /* \"--CODEGEN--\":5653:5665   */\n      add\n        /* \"--CODEGEN--\":5646:5734   */\n      mstore\n        /* \"--CODEGEN--\":5762:5764   */\n      0x60\n        /* \"--CODEGEN--\":5757:5760   */\n      dup3\n        /* \"--CODEGEN--\":5753:5765   */\n      add\n        /* \"--CODEGEN--\":5746:5765   */\n      swap1\n      pop\n        /* \"--CODEGEN--\":5510:5771   */\n      swap2\n      swap1\n      pop\n      jump\n        /* \"--CODEGEN--\":5780:6076   */\n    tag_317:\n      0x0\n        /* \"--CODEGEN--\":5935:5937   */\n      0x14\n        /* \"--CODEGEN--\":5930:5933   */\n      dup3\n        /* \"--CODEGEN--\":5923:5938   */\n      mstore\n        /* \"--CODEGEN--\":5972:6038   */\n      0x726964657220616c726561647920706169726564000000000000000000000000\n        /* \"--CODEGEN--\":5967:5969   */\n      0x20\n        /* \"--CODEGEN--\":5962:5965   */\n      dup4\n        /* \"--CODEGEN--\":5958:5970   */\n      add\n        /* \"--CODEGEN--\":5951:6039   */\n      mstore\n        /* \"--CODEGEN--\":6067:6069   */\n      0x40\n        /* \"--CODEGEN--\":6062:6065   */\n      dup3\n        /* \"--CODEGEN--\":6058:6070   */\n      add\n        /* \"--CODEGEN--\":6051:6070   */\n      swap1\n      pop\n        /* \"--CODEGEN--\":5916:6076   */\n      swap2\n      swap1\n      pop\n      jump\n        /* \"--CODEGEN--\":6085:6381   */\n    tag_319:\n      0x0\n        /* \"--CODEGEN--\":6240:6242   */\n      0x14\n        /* \"--CODEGEN--\":6235:6238   */\n      dup3\n        /* \"--CODEGEN--\":6228:6243   */\n      mstore\n        /* \"--CODEGEN--\":6277:6343   */\n      0x43616e6e6f74207069636b20796f757273656c66000000000000000000000000\n        /* \"--CODEGEN--\":6272:6274   */\n      0x20\n        /* \"--CODEGEN--\":6267:6270   */\n      dup4\n        /* \"--CODEGEN--\":6263:6275   */\n      add\n        /* \"--CODEGEN--\":6256:6344   */\n      mstore\n        /* \"--CODEGEN--\":6372:6374   */\n      0x40\n        /* \"--CODEGEN--\":6367:6370   */\n      dup3\n        /* \"--CODEGEN--\":6363:6375   */\n      add\n        /* \"--CODEGEN--\":6356:6375   */\n      swap1\n      pop\n        /* \"--CODEGEN--\":6221:6381   */\n      swap2\n      swap1\n      pop\n      jump\n        /* \"--CODEGEN--\":6390:6787   */\n    tag_321:\n      0x0\n        /* \"--CODEGEN--\":6545:6547   */\n      0x2f\n        /* \"--CODEGEN--\":6540:6543   */\n      dup3\n        /* \"--CODEGEN--\":6533:6548   */\n      mstore\n        /* \"--CODEGEN--\":6582:6648   */\n      0x55736572206e6565647320746f20626520696e20647269766572206d6f646520\n        /* \"--CODEGEN--\":6577:6579   */\n      0x20\n        /* \"--CODEGEN--\":6572:6575   */\n      dup4\n        /* \"--CODEGEN--\":6568:6580   */\n      add\n        /* \"--CODEGEN--\":6561:6649   */\n      mstore\n        /* \"--CODEGEN--\":6683:6749   */\n      0x746f20696e666f726d2072696465720000000000000000000000000000000000\n        /* \"--CODEGEN--\":6678:6680   */\n      0x40\n        /* \"--CODEGEN--\":6673:6676   */\n      dup4\n        /* \"--CODEGEN--\":6669:6681   */\n      add\n        /* \"--CODEGEN--\":6662:6750   */\n      mstore\n        /* \"--CODEGEN--\":6778:6780   */\n      0x60\n        /* \"--CODEGEN--\":6773:6776   */\n      dup3\n        /* \"--CODEGEN--\":6769:6781   */\n      add\n        /* \"--CODEGEN--\":6762:6781   */\n      swap1\n      pop\n        /* \"--CODEGEN--\":6526:6787   */\n      swap2\n      swap1\n      pop\n      jump\n        /* \"--CODEGEN--\":6796:7193   */\n    tag_323:\n      0x0\n        /* \"--CODEGEN--\":6951:6953   */\n      0x2c\n        /* \"--CODEGEN--\":6946:6949   */\n      dup3\n        /* \"--CODEGEN--\":6939:6954   */\n      mstore\n        /* \"--CODEGEN--\":6988:7054   */\n      0x55736572206e6565647320746f20626520696e207269646572206d6f64652074\n        /* \"--CODEGEN--\":6983:6985   */\n      0x20\n        /* \"--CODEGEN--\":6978:6981   */\n      dup4\n        /* \"--CODEGEN--\":6974:6986   */\n      add\n        /* \"--CODEGEN--\":6967:7055   */\n      mstore\n        /* \"--CODEGEN--\":7089:7155   */\n      0x6f20706179206472697665720000000000000000000000000000000000000000\n        /* \"--CODEGEN--\":7084:7086   */\n      0x40\n        /* \"--CODEGEN--\":7079:7082   */\n      dup4\n        /* \"--CODEGEN--\":7075:7087   */\n      add\n        /* \"--CODEGEN--\":7068:7156   */\n      mstore\n        /* \"--CODEGEN--\":7184:7186   */\n      0x60\n        /* \"--CODEGEN--\":7179:7182   */\n      dup3\n        /* \"--CODEGEN--\":7175:7187   */\n      add\n        /* \"--CODEGEN--\":7168:7187   */\n      swap1\n      pop\n        /* \"--CODEGEN--\":6932:7193   */\n      swap2\n      swap1\n      pop\n      jump\n        /* \"--CODEGEN--\":7202:7599   */\n    tag_325:\n      0x0\n        /* \"--CODEGEN--\":7357:7359   */\n      0x22\n        /* \"--CODEGEN--\":7352:7355   */\n      dup3\n        /* \"--CODEGEN--\":7345:7360   */\n      mstore\n        /* \"--CODEGEN--\":7394:7460   */\n      0x4e65656420746f2062652061207573657220746f20636f6d706c657465207269\n        /* \"--CODEGEN--\":7389:7391   */\n      0x20\n        /* \"--CODEGEN--\":7384:7387   */\n      dup4\n        /* \"--CODEGEN--\":7380:7392   */\n      add\n        /* \"--CODEGEN--\":7373:7461   */\n      mstore\n        /* \"--CODEGEN--\":7495:7561   */\n      0x6465000000000000000000000000000000000000000000000000000000000000\n        /* \"--CODEGEN--\":7490:7492   */\n      0x40\n        /* \"--CODEGEN--\":7485:7488   */\n      dup4\n        /* \"--CODEGEN--\":7481:7493   */\n      add\n        /* \"--CODEGEN--\":7474:7562   */\n      mstore\n        /* \"--CODEGEN--\":7590:7592   */\n      0x60\n        /* \"--CODEGEN--\":7585:7588   */\n      dup3\n        /* \"--CODEGEN--\":7581:7593   */\n      add\n        /* \"--CODEGEN--\":7574:7593   */\n      swap1\n      pop\n        /* \"--CODEGEN--\":7338:7599   */\n      swap2\n      swap1\n      pop\n      jump\n        /* \"--CODEGEN--\":7608:7904   */\n    tag_327:\n      0x0\n        /* \"--CODEGEN--\":7763:7765   */\n      0x1a\n        /* \"--CODEGEN--\":7758:7761   */\n      dup3\n        /* \"--CODEGEN--\":7751:7766   */\n      mstore\n        /* \"--CODEGEN--\":7800:7866   */\n      0x596f752061726520746f6f206c61746520746f20617272697665000000000000\n        /* \"--CODEGEN--\":7795:7797   */\n      0x20\n        /* \"--CODEGEN--\":7790:7793   */\n      dup4\n        /* \"--CODEGEN--\":7786:7798   */\n      add\n        /* \"--CODEGEN--\":7779:7867   */\n      mstore\n        /* \"--CODEGEN--\":7895:7897   */\n      0x40\n        /* \"--CODEGEN--\":7890:7893   */\n      dup3\n        /* \"--CODEGEN--\":7886:7898   */\n      add\n        /* \"--CODEGEN--\":7879:7898   */\n      swap1\n      pop\n        /* \"--CODEGEN--\":7744:7904   */\n      swap2\n      swap1\n      pop\n      jump\n        /* \"--CODEGEN--\":7913:8209   */\n    tag_329:\n      0x0\n        /* \"--CODEGEN--\":8068:8070   */\n      0x17\n        /* \"--CODEGEN--\":8063:8066   */\n      dup3\n        /* \"--CODEGEN--\":8056:8071   */\n      mstore\n        /* \"--CODEGEN--\":8105:8171   */\n      0x6472697665722063757272656e746c7920706169726564000000000000000000\n        /* \"--CODEGEN--\":8100:8102   */\n      0x20\n        /* \"--CODEGEN--\":8095:8098   */\n      dup4\n        /* \"--CODEGEN--\":8091:8103   */\n      add\n        /* \"--CODEGEN--\":8084:8172   */\n      mstore\n        /* \"--CODEGEN--\":8200:8202   */\n      0x40\n        /* \"--CODEGEN--\":8195:8198   */\n      dup3\n        /* \"--CODEGEN--\":8191:8203   */\n      add\n        /* \"--CODEGEN--\":8184:8203   */\n      swap1\n      pop\n        /* \"--CODEGEN--\":8049:8209   */\n      swap2\n      swap1\n      pop\n      jump\n        /* \"--CODEGEN--\":8218:8615   */\n    tag_331:\n      0x0\n        /* \"--CODEGEN--\":8373:8375   */\n      0x2f\n        /* \"--CODEGEN--\":8368:8371   */\n      dup3\n        /* \"--CODEGEN--\":8361:8376   */\n      mstore\n        /* \"--CODEGEN--\":8410:8476   */\n      0x596f7520617265206d6f7265207468617420302e32206d696c65732061776179\n        /* \"--CODEGEN--\":8405:8407   */\n      0x20\n        /* \"--CODEGEN--\":8400:8403   */\n      dup4\n        /* \"--CODEGEN--\":8396:8408   */\n      add\n        /* \"--CODEGEN--\":8389:8477   */\n      mstore\n        /* \"--CODEGEN--\":8511:8577   */\n      0x2066726f6d207468652072696465720000000000000000000000000000000000\n        /* \"--CODEGEN--\":8506:8508   */\n      0x40\n        /* \"--CODEGEN--\":8501:8504   */\n      dup4\n        /* \"--CODEGEN--\":8497:8509   */\n      add\n        /* \"--CODEGEN--\":8490:8578   */\n      mstore\n        /* \"--CODEGEN--\":8606:8608   */\n      0x60\n        /* \"--CODEGEN--\":8601:8604   */\n      dup3\n        /* \"--CODEGEN--\":8597:8609   */\n      add\n        /* \"--CODEGEN--\":8590:8609   */\n      swap1\n      pop\n        /* \"--CODEGEN--\":8354:8615   */\n      swap2\n      swap1\n      pop\n      jump\n        /* \"--CODEGEN--\":8624:9021   */\n    tag_333:\n      0x0\n        /* \"--CODEGEN--\":8779:8781   */\n      0x2a\n        /* \"--CODEGEN--\":8774:8777   */\n      dup3\n        /* \"--CODEGEN--\":8767:8782   */\n      mstore\n        /* \"--CODEGEN--\":8816:8882   */\n      0x4e65656420746f20626520616e20616374697665207573657220746f20636f6d\n        /* \"--CODEGEN--\":8811:8813   */\n      0x20\n        /* \"--CODEGEN--\":8806:8809   */\n      dup4\n        /* \"--CODEGEN--\":8802:8814   */\n      add\n        /* \"--CODEGEN--\":8795:8883   */\n      mstore\n        /* \"--CODEGEN--\":8917:8983   */\n      0x706c657465207269646500000000000000000000000000000000000000000000\n        /* \"--CODEGEN--\":8912:8914   */\n      0x40\n        /* \"--CODEGEN--\":8907:8910   */\n      dup4\n        /* \"--CODEGEN--\":8903:8915   */\n      add\n        /* \"--CODEGEN--\":8896:8984   */\n      mstore\n        /* \"--CODEGEN--\":9012:9014   */\n      0x60\n        /* \"--CODEGEN--\":9007:9010   */\n      dup3\n        /* \"--CODEGEN--\":9003:9015   */\n      add\n        /* \"--CODEGEN--\":8996:9015   */\n      swap1\n      pop\n        /* \"--CODEGEN--\":8760:9021   */\n      swap2\n      swap1\n      pop\n      jump\n        /* \"--CODEGEN--\":9030:9326   */\n    tag_335:\n      0x0\n        /* \"--CODEGEN--\":9185:9187   */\n      0x1d\n        /* \"--CODEGEN--\":9180:9183   */\n      dup3\n        /* \"--CODEGEN--\":9173:9188   */\n      mstore\n        /* \"--CODEGEN--\":9222:9288   */\n      0x4f76657264726166742066726f6d20696e697469616c20657363726f77000000\n        /* \"--CODEGEN--\":9217:9219   */\n      0x20\n        /* \"--CODEGEN--\":9212:9215   */\n      dup4\n        /* \"--CODEGEN--\":9208:9220   */\n      add\n        /* \"--CODEGEN--\":9201:9289   */\n      mstore\n        /* \"--CODEGEN--\":9317:9319   */\n      0x40\n        /* \"--CODEGEN--\":9312:9315   */\n      dup3\n        /* \"--CODEGEN--\":9308:9320   */\n      add\n        /* \"--CODEGEN--\":9301:9320   */\n      swap1\n      pop\n        /* \"--CODEGEN--\":9166:9326   */\n      swap2\n      swap1\n      pop\n      jump\n        /* \"--CODEGEN--\":9335:9732   */\n    tag_337:\n      0x0\n        /* \"--CODEGEN--\":9490:9492   */\n      0x23\n        /* \"--CODEGEN--\":9485:9488   */\n      dup3\n        /* \"--CODEGEN--\":9478:9493   */\n      mstore\n        /* \"--CODEGEN--\":9527:9593   */\n      0x75736572206265696e67207069636b65642068617320746f2062652061207269\n        /* \"--CODEGEN--\":9522:9524   */\n      0x20\n        /* \"--CODEGEN--\":9517:9520   */\n      dup4\n        /* \"--CODEGEN--\":9513:9525   */\n      add\n        /* \"--CODEGEN--\":9506:9594   */\n      mstore\n        /* \"--CODEGEN--\":9628:9694   */\n      0x6465720000000000000000000000000000000000000000000000000000000000\n        /* \"--CODEGEN--\":9623:9625   */\n      0x40\n        /* \"--CODEGEN--\":9618:9621   */\n      dup4\n        /* \"--CODEGEN--\":9614:9626   */\n      add\n        /* \"--CODEGEN--\":9607:9695   */\n      mstore\n        /* \"--CODEGEN--\":9723:9725   */\n      0x60\n        /* \"--CODEGEN--\":9718:9721   */\n      dup3\n        /* \"--CODEGEN--\":9714:9726   */\n      add\n        /* \"--CODEGEN--\":9707:9726   */\n      swap1\n      pop\n        /* \"--CODEGEN--\":9471:9732   */\n      swap2\n      swap1\n      pop\n      jump\n        /* \"--CODEGEN--\":9741:10138   */\n    tag_339:\n      0x0\n        /* \"--CODEGEN--\":9896:9898   */\n      0x30\n        /* \"--CODEGEN--\":9891:9894   */\n      dup3\n        /* \"--CODEGEN--\":9884:9899   */\n      mstore\n        /* \"--CODEGEN--\":9933:9999   */\n      0x447269766572206e6565647320746f206861766520616e2061737369676e6564\n        /* \"--CODEGEN--\":9928:9930   */\n      0x20\n        /* \"--CODEGEN--\":9923:9926   */\n      dup4\n        /* \"--CODEGEN--\":9919:9931   */\n      add\n        /* \"--CODEGEN--\":9912:10000   */\n      mstore\n        /* \"--CODEGEN--\":10034:10100   */\n      0x20726964657220746f20696e666f726d00000000000000000000000000000000\n        /* \"--CODEGEN--\":10029:10031   */\n      0x40\n        /* \"--CODEGEN--\":10024:10027   */\n      dup4\n        /* \"--CODEGEN--\":10020:10032   */\n      add\n        /* \"--CODEGEN--\":10013:10101   */\n      mstore\n        /* \"--CODEGEN--\":10129:10131   */\n      0x60\n        /* \"--CODEGEN--\":10124:10127   */\n      dup3\n        /* \"--CODEGEN--\":10120:10132   */\n      add\n        /* \"--CODEGEN--\":10113:10132   */\n      swap1\n      pop\n        /* \"--CODEGEN--\":9877:10138   */\n      swap2\n      swap1\n      pop\n      jump\n        /* \"--CODEGEN--\":10147:10544   */\n    tag_341:\n      0x0\n        /* \"--CODEGEN--\":10302:10304   */\n      0x21\n        /* \"--CODEGEN--\":10297:10300   */\n      dup3\n        /* \"--CODEGEN--\":10290:10305   */\n      mstore\n        /* \"--CODEGEN--\":10339:10405   */\n      0x4e65656420746f2062652061207573657220746f2073656c6563742072696465\n        /* \"--CODEGEN--\":10334:10336   */\n      0x20\n        /* \"--CODEGEN--\":10329:10332   */\n      dup4\n        /* \"--CODEGEN--\":10325:10337   */\n      add\n        /* \"--CODEGEN--\":10318:10406   */\n      mstore\n        /* \"--CODEGEN--\":10440:10506   */\n      0x7200000000000000000000000000000000000000000000000000000000000000\n        /* \"--CODEGEN--\":10435:10437   */\n      0x40\n        /* \"--CODEGEN--\":10430:10433   */\n      dup4\n        /* \"--CODEGEN--\":10426:10438   */\n      add\n        /* \"--CODEGEN--\":10419:10507   */\n      mstore\n        /* \"--CODEGEN--\":10535:10537   */\n      0x60\n        /* \"--CODEGEN--\":10530:10533   */\n      dup3\n        /* \"--CODEGEN--\":10526:10538   */\n      add\n        /* \"--CODEGEN--\":10519:10538   */\n      swap1\n      pop\n        /* \"--CODEGEN--\":10283:10544   */\n      swap2\n      swap1\n      pop\n      jump\n        /* \"--CODEGEN--\":10553:10950   */\n    tag_343:\n      0x0\n        /* \"--CODEGEN--\":10708:10710   */\n      0x21\n        /* \"--CODEGEN--\":10703:10706   */\n      dup3\n        /* \"--CODEGEN--\":10696:10711   */\n      mstore\n        /* \"--CODEGEN--\":10745:10811   */\n      0x4e65656420746f2062652061207573657220746f20696e666f726d2072696465\n        /* \"--CODEGEN--\":10740:10742   */\n      0x20\n        /* \"--CODEGEN--\":10735:10738   */\n      dup4\n        /* \"--CODEGEN--\":10731:10743   */\n      add\n        /* \"--CODEGEN--\":10724:10812   */\n      mstore\n        /* \"--CODEGEN--\":10846:10912   */\n      0x7200000000000000000000000000000000000000000000000000000000000000\n        /* \"--CODEGEN--\":10841:10843   */\n      0x40\n        /* \"--CODEGEN--\":10836:10839   */\n      dup4\n        /* \"--CODEGEN--\":10832:10844   */\n      add\n        /* \"--CODEGEN--\":10825:10913   */\n      mstore\n        /* \"--CODEGEN--\":10941:10943   */\n      0x60\n        /* \"--CODEGEN--\":10936:10939   */\n      dup3\n        /* \"--CODEGEN--\":10932:10944   */\n      add\n        /* \"--CODEGEN--\":10925:10944   */\n      swap1\n      pop\n        /* \"--CODEGEN--\":10689:10950   */\n      swap2\n      swap1\n      pop\n      jump\n        /* \"--CODEGEN--\":11023:11510   */\n    tag_345:\n        /* \"--CODEGEN--\":11156:11160   */\n      0x40\n        /* \"--CODEGEN--\":11151:11154   */\n      dup3\n        /* \"--CODEGEN--\":11147:11161   */\n      add\n        /* \"--CODEGEN--\":11241:11244   */\n      0x0\n        /* \"--CODEGEN--\":11234:11239   */\n      dup3\n        /* \"--CODEGEN--\":11230:11245   */\n      add\n        /* \"--CODEGEN--\":11224:11246   */\n      mload\n        /* \"--CODEGEN--\":11258:11317   */\n      tag_346\n        /* \"--CODEGEN--\":11312:11315   */\n      0x0\n        /* \"--CODEGEN--\":11307:11310   */\n      dup6\n        /* \"--CODEGEN--\":11303:11316   */\n      add\n        /* \"--CODEGEN--\":11290:11301   */\n      dup3\n        /* \"--CODEGEN--\":11258:11317   */\n      jump(tag_290)\n    tag_346:\n        /* \"--CODEGEN--\":11176:11329   */\n      pop\n        /* \"--CODEGEN--\":11405:11409   */\n      0x20\n        /* \"--CODEGEN--\":11398:11403   */\n      dup3\n        /* \"--CODEGEN--\":11394:11410   */\n      add\n        /* \"--CODEGEN--\":11388:11411   */\n      mload\n        /* \"--CODEGEN--\":11423:11483   */\n      tag_347\n        /* \"--CODEGEN--\":11477:11481   */\n      0x20\n        /* \"--CODEGEN--\":11472:11475   */\n      dup6\n        /* \"--CODEGEN--\":11468:11482   */\n      add\n        /* \"--CODEGEN--\":11455:11466   */\n      dup3\n        /* \"--CODEGEN--\":11423:11483   */\n      jump(tag_290)\n    tag_347:\n        /* \"--CODEGEN--\":11339:11495   */\n      pop\n        /* \"--CODEGEN--\":11129:11510   */\n      pop\n      pop\n      pop\n      jump\n        /* \"--CODEGEN--\":11582:12179   */\n    tag_349:\n        /* \"--CODEGEN--\":11716:11720   */\n      0x40\n        /* \"--CODEGEN--\":11711:11714   */\n      dup3\n        /* \"--CODEGEN--\":11707:11721   */\n      add\n        /* \"--CODEGEN--\":11743:11744   */\n      0x0\n        /* \"--CODEGEN--\":11808:11811   */\n      dup1\n        /* \"--CODEGEN--\":11801:11806   */\n      dup4\n        /* \"--CODEGEN--\":11797:11812   */\n      add\n        /* \"--CODEGEN--\":11791:11813   */\n      sload\n        /* \"--CODEGEN--\":11778:11813   */\n      swap1\n      pop\n        /* \"--CODEGEN--\":11837:11870   */\n      tag_350\n        /* \"--CODEGEN--\":11860:11869   */\n      dup2\n        /* \"--CODEGEN--\":11837:11870   */\n      jump(tag_351)\n    tag_350:\n        /* \"--CODEGEN--\":11882:11941   */\n      tag_352\n        /* \"--CODEGEN--\":11936:11939   */\n      0x0\n        /* \"--CODEGEN--\":11931:11934   */\n      dup7\n        /* \"--CODEGEN--\":11927:11940   */\n      add\n        /* \"--CODEGEN--\":11914:11925   */\n      dup3\n        /* \"--CODEGEN--\":11882:11941   */\n      jump(tag_290)\n    tag_352:\n        /* \"--CODEGEN--\":11754:11953   */\n      pop\n        /* \"--CODEGEN--\":12018:12021   */\n      0x1\n        /* \"--CODEGEN--\":12011:12016   */\n      dup4\n        /* \"--CODEGEN--\":12007:12022   */\n      add\n        /* \"--CODEGEN--\":12001:12023   */\n      sload\n        /* \"--CODEGEN--\":11988:12023   */\n      swap1\n      pop\n        /* \"--CODEGEN--\":12047:12080   */\n      tag_353\n        /* \"--CODEGEN--\":12070:12079   */\n      dup2\n        /* \"--CODEGEN--\":12047:12080   */\n      jump(tag_351)\n    tag_353:\n        /* \"--CODEGEN--\":12092:12152   */\n      tag_354\n        /* \"--CODEGEN--\":12146:12150   */\n      0x20\n        /* \"--CODEGEN--\":12141:12144   */\n      dup7\n        /* \"--CODEGEN--\":12137:12151   */\n      add\n        /* \"--CODEGEN--\":12124:12135   */\n      dup3\n        /* \"--CODEGEN--\":12092:12152   */\n      jump(tag_290)\n    tag_354:\n        /* \"--CODEGEN--\":11963:12164   */\n      pop\n        /* \"--CODEGEN--\":11689:12179   */\n      pop\n      pop\n      pop\n      pop\n      jump\n        /* \"--CODEGEN--\":12186:12296   */\n    tag_356:\n        /* \"--CODEGEN--\":12259:12290   */\n      tag_357\n        /* \"--CODEGEN--\":12284:12289   */\n      dup2\n        /* \"--CODEGEN--\":12259:12290   */\n      jump(tag_358)\n    tag_357:\n        /* \"--CODEGEN--\":12254:12257   */\n      dup3\n        /* \"--CODEGEN--\":12247:12291   */\n      mstore\n        /* \"--CODEGEN--\":12241:12296   */\n      pop\n      pop\n      jump\n        /* \"--CODEGEN--\":12303:12496   */\n    tag_31:\n      0x0\n        /* \"--CODEGEN--\":12411:12413   */\n      0x20\n        /* \"--CODEGEN--\":12400:12409   */\n      dup3\n        /* \"--CODEGEN--\":12396:12414   */\n      add\n        /* \"--CODEGEN--\":12388:12414   */\n      swap1\n      pop\n        /* \"--CODEGEN--\":12425:12486   */\n      tag_360\n        /* \"--CODEGEN--\":12483:12484   */\n      0x0\n        /* \"--CODEGEN--\":12472:12481   */\n      dup4\n        /* \"--CODEGEN--\":12468:12485   */\n      add\n        /* \"--CODEGEN--\":12459:12465   */\n      dup5\n        /* \"--CODEGEN--\":12425:12486   */\n      jump(tag_277)\n    tag_360:\n        /* \"--CODEGEN--\":12382:12496   */\n      swap3\n      swap2\n      pop\n      pop\n      jump\n        /* \"--CODEGEN--\":12503:13892   */\n    tag_43:\n      0x0\n        /* \"--CODEGEN--\":12980:12983   */\n      0x1a0\n        /* \"--CODEGEN--\":12969:12978   */\n      dup3\n        /* \"--CODEGEN--\":12965:12984   */\n      add\n        /* \"--CODEGEN--\":12957:12984   */\n      swap1\n      pop\n        /* \"--CODEGEN--\":12995:13050   */\n      tag_362\n        /* \"--CODEGEN--\":13047:13048   */\n      0x0\n        /* \"--CODEGEN--\":13036:13045   */\n      dup4\n        /* \"--CODEGEN--\":13032:13049   */\n      add\n        /* \"--CODEGEN--\":13023:13029   */\n      dup15\n        /* \"--CODEGEN--\":12995:13050   */\n      jump(tag_294)\n    tag_362:\n        /* \"--CODEGEN--\":13061:13123   */\n      tag_363\n        /* \"--CODEGEN--\":13119:13121   */\n      0x20\n        /* \"--CODEGEN--\":13108:13117   */\n      dup4\n        /* \"--CODEGEN--\":13104:13122   */\n      add\n        /* \"--CODEGEN--\":13095:13101   */\n      dup14\n        /* \"--CODEGEN--\":13061:13123   */\n      jump(tag_356)\n    tag_363:\n        /* \"--CODEGEN--\":13134:13202   */\n      tag_364\n        /* \"--CODEGEN--\":13198:13200   */\n      0x40\n        /* \"--CODEGEN--\":13187:13196   */\n      dup4\n        /* \"--CODEGEN--\":13183:13201   */\n      add\n        /* \"--CODEGEN--\":13174:13180   */\n      dup13\n        /* \"--CODEGEN--\":13134:13202   */\n      jump(tag_298)\n    tag_364:\n        /* \"--CODEGEN--\":13213:13275   */\n      tag_365\n        /* \"--CODEGEN--\":13271:13273   */\n      0x60\n        /* \"--CODEGEN--\":13260:13269   */\n      dup4\n        /* \"--CODEGEN--\":13256:13274   */\n      add\n        /* \"--CODEGEN--\":13247:13253   */\n      dup12\n        /* \"--CODEGEN--\":13213:13275   */\n      jump(tag_277)\n    tag_365:\n        /* \"--CODEGEN--\":13286:13399   */\n      tag_366\n        /* \"--CODEGEN--\":13394:13397   */\n      0x80\n        /* \"--CODEGEN--\":13383:13392   */\n      dup4\n        /* \"--CODEGEN--\":13379:13398   */\n      add\n        /* \"--CODEGEN--\":13370:13376   */\n      dup11\n        /* \"--CODEGEN--\":13286:13399   */\n      jump(tag_345)\n    tag_366:\n        /* \"--CODEGEN--\":13410:13523   */\n      tag_367\n        /* \"--CODEGEN--\":13518:13521   */\n      0xc0\n        /* \"--CODEGEN--\":13507:13516   */\n      dup4\n        /* \"--CODEGEN--\":13503:13522   */\n      add\n        /* \"--CODEGEN--\":13494:13500   */\n      dup10\n        /* \"--CODEGEN--\":13410:13523   */\n      jump(tag_345)\n    tag_367:\n        /* \"--CODEGEN--\":13534:13597   */\n      tag_368\n        /* \"--CODEGEN--\":13592:13595   */\n      0x100\n        /* \"--CODEGEN--\":13581:13590   */\n      dup4\n        /* \"--CODEGEN--\":13577:13596   */\n      add\n        /* \"--CODEGEN--\":13568:13574   */\n      dup9\n        /* \"--CODEGEN--\":13534:13597   */\n      jump(tag_356)\n    tag_368:\n        /* \"--CODEGEN--\":13608:13665   */\n      tag_369\n        /* \"--CODEGEN--\":13660:13663   */\n      0x120\n        /* \"--CODEGEN--\":13649:13658   */\n      dup4\n        /* \"--CODEGEN--\":13645:13664   */\n      add\n        /* \"--CODEGEN--\":13636:13642   */\n      dup8\n        /* \"--CODEGEN--\":13608:13665   */\n      jump(tag_294)\n    tag_369:\n        /* \"--CODEGEN--\":13676:13733   */\n      tag_370\n        /* \"--CODEGEN--\":13728:13731   */\n      0x140\n        /* \"--CODEGEN--\":13717:13726   */\n      dup4\n        /* \"--CODEGEN--\":13713:13732   */\n      add\n        /* \"--CODEGEN--\":13704:13710   */\n      dup7\n        /* \"--CODEGEN--\":13676:13733   */\n      jump(tag_294)\n    tag_370:\n        /* \"--CODEGEN--\":13744:13807   */\n      tag_371\n        /* \"--CODEGEN--\":13802:13805   */\n      0x160\n        /* \"--CODEGEN--\":13791:13800   */\n      dup4\n        /* \"--CODEGEN--\":13787:13806   */\n      add\n        /* \"--CODEGEN--\":13778:13784   */\n      dup6\n        /* \"--CODEGEN--\":13744:13807   */\n      jump(tag_356)\n    tag_371:\n        /* \"--CODEGEN--\":13818:13882   */\n      tag_372\n        /* \"--CODEGEN--\":13877:13880   */\n      0x180\n        /* \"--CODEGEN--\":13866:13875   */\n      dup4\n        /* \"--CODEGEN--\":13862:13881   */\n      add\n        /* \"--CODEGEN--\":13852:13859   */\n      dup5\n        /* \"--CODEGEN--\":13818:13882   */\n      jump(tag_356)\n    tag_372:\n        /* \"--CODEGEN--\":12951:13892   */\n      swap13\n      swap12\n      pop\n      pop\n      pop\n      pop\n      pop\n      pop\n      pop\n      pop\n      pop\n      pop\n      pop\n      pop\n      jump\n        /* \"--CODEGEN--\":13899:14088   */\n    tag_55:\n      0x0\n        /* \"--CODEGEN--\":14005:14007   */\n      0x20\n        /* \"--CODEGEN--\":13994:14003   */\n      dup3\n        /* \"--CODEGEN--\":13990:14008   */\n      add\n        /* \"--CODEGEN--\":13982:14008   */\n      swap1\n      pop\n        /* \"--CODEGEN--\":14019:14078   */\n      tag_374\n        /* \"--CODEGEN--\":14075:14076   */\n      0x0\n        /* \"--CODEGEN--\":14064:14073   */\n      dup4\n        /* \"--CODEGEN--\":14060:14077   */\n      add\n        /* \"--CODEGEN--\":14051:14057   */\n      dup5\n        /* \"--CODEGEN--\":14019:14078   */\n      jump(tag_290)\n    tag_374:\n        /* \"--CODEGEN--\":13976:14088   */\n      swap3\n      swap2\n      pop\n      pop\n      jump\n        /* \"--CODEGEN--\":14095:14482   */\n    tag_132:\n      0x0\n        /* \"--CODEGEN--\":14276:14278   */\n      0x20\n        /* \"--CODEGEN--\":14265:14274   */\n      dup3\n        /* \"--CODEGEN--\":14261:14279   */\n      add\n        /* \"--CODEGEN--\":14253:14279   */\n      swap1\n      pop\n        /* \"--CODEGEN--\":14326:14335   */\n      dup2\n        /* \"--CODEGEN--\":14320:14324   */\n      dup2\n        /* \"--CODEGEN--\":14316:14336   */\n      sub\n        /* \"--CODEGEN--\":14312:14313   */\n      0x0\n        /* \"--CODEGEN--\":14301:14310   */\n      dup4\n        /* \"--CODEGEN--\":14297:14314   */\n      add\n        /* \"--CODEGEN--\":14290:14337   */\n      mstore\n        /* \"--CODEGEN--\":14351:14472   */\n      tag_376\n        /* \"--CODEGEN--\":14467:14471   */\n      dup2\n        /* \"--CODEGEN--\":14351:14472   */\n      jump(tag_309)\n    tag_376:\n        /* \"--CODEGEN--\":14343:14472   */\n      swap1\n      pop\n        /* \"--CODEGEN--\":14247:14482   */\n      swap2\n      swap1\n      pop\n      jump\n        /* \"--CODEGEN--\":14489:14876   */\n    tag_194:\n      0x0\n        /* \"--CODEGEN--\":14670:14672   */\n      0x20\n        /* \"--CODEGEN--\":14659:14668   */\n      dup3\n        /* \"--CODEGEN--\":14655:14673   */\n      add\n        /* \"--CODEGEN--\":14647:14673   */\n      swap1\n      pop\n        /* \"--CODEGEN--\":14720:14729   */\n      dup2\n        /* \"--CODEGEN--\":14714:14718   */\n      dup2\n        /* \"--CODEGEN--\":14710:14730   */\n      sub\n        /* \"--CODEGEN--\":14706:14707   */\n      0x0\n        /* \"--CODEGEN--\":14695:14704   */\n      dup4\n        /* \"--CODEGEN--\":14691:14708   */\n      add\n        /* \"--CODEGEN--\":14684:14731   */\n      mstore\n        /* \"--CODEGEN--\":14745:14866   */\n      tag_378\n        /* \"--CODEGEN--\":14861:14865   */\n      dup2\n        /* \"--CODEGEN--\":14745:14866   */\n      jump(tag_311)\n    tag_378:\n        /* \"--CODEGEN--\":14737:14866   */\n      swap1\n      pop\n        /* \"--CODEGEN--\":14641:14876   */\n      swap2\n      swap1\n      pop\n      jump\n        /* \"--CODEGEN--\":14883:15270   */\n    tag_202:\n      0x0\n        /* \"--CODEGEN--\":15064:15066   */\n      0x20\n        /* \"--CODEGEN--\":15053:15062   */\n      dup3\n        /* \"--CODEGEN--\":15049:15067   */\n      add\n        /* \"--CODEGEN--\":15041:15067   */\n      swap1\n      pop\n        /* \"--CODEGEN--\":15114:15123   */\n      dup2\n        /* \"--CODEGEN--\":15108:15112   */\n      dup2\n        /* \"--CODEGEN--\":15104:15124   */\n      sub\n        /* \"--CODEGEN--\":15100:15101   */\n      0x0\n        /* \"--CODEGEN--\":15089:15098   */\n      dup4\n        /* \"--CODEGEN--\":15085:15102   */\n      add\n        /* \"--CODEGEN--\":15078:15125   */\n      mstore\n        /* \"--CODEGEN--\":15139:15260   */\n      tag_380\n        /* \"--CODEGEN--\":15255:15259   */\n      dup2\n        /* \"--CODEGEN--\":15139:15260   */\n      jump(tag_313)\n    tag_380:\n        /* \"--CODEGEN--\":15131:15260   */\n      swap1\n      pop\n        /* \"--CODEGEN--\":15035:15270   */\n      swap2\n      swap1\n      pop\n      jump\n        /* \"--CODEGEN--\":15277:15664   */\n    tag_64:\n      0x0\n        /* \"--CODEGEN--\":15458:15460   */\n      0x20\n        /* \"--CODEGEN--\":15447:15456   */\n      dup3\n        /* \"--CODEGEN--\":15443:15461   */\n      add\n        /* \"--CODEGEN--\":15435:15461   */\n      swap1\n      pop\n        /* \"--CODEGEN--\":15508:15517   */\n      dup2\n        /* \"--CODEGEN--\":15502:15506   */\n      dup2\n        /* \"--CODEGEN--\":15498:15518   */\n      sub\n        /* \"--CODEGEN--\":15494:15495   */\n      0x0\n        /* \"--CODEGEN--\":15483:15492   */\n      dup4\n        /* \"--CODEGEN--\":15479:15496   */\n      add\n        /* \"--CODEGEN--\":15472:15519   */\n      mstore\n        /* \"--CODEGEN--\":15533:15654   */\n      tag_382\n        /* \"--CODEGEN--\":15649:15653   */\n      dup2\n        /* \"--CODEGEN--\":15533:15654   */\n      jump(tag_315)\n    tag_382:\n        /* \"--CODEGEN--\":15525:15654   */\n      swap1\n      pop\n        /* \"--CODEGEN--\":15429:15664   */\n      swap2\n      swap1\n      pop\n      jump\n        /* \"--CODEGEN--\":15671:16058   */\n    tag_77:\n      0x0\n        /* \"--CODEGEN--\":15852:15854   */\n      0x20\n        /* \"--CODEGEN--\":15841:15850   */\n      dup3\n        /* \"--CODEGEN--\":15837:15855   */\n      add\n        /* \"--CODEGEN--\":15829:15855   */\n      swap1\n      pop\n        /* \"--CODEGEN--\":15902:15911   */\n      dup2\n        /* \"--CODEGEN--\":15896:15900   */\n      dup2\n        /* \"--CODEGEN--\":15892:15912   */\n      sub\n        /* \"--CODEGEN--\":15888:15889   */\n      0x0\n        /* \"--CODEGEN--\":15877:15886   */\n      dup4\n        /* \"--CODEGEN--\":15873:15890   */\n      add\n        /* \"--CODEGEN--\":15866:15913   */\n      mstore\n        /* \"--CODEGEN--\":15927:16048   */\n      tag_384\n        /* \"--CODEGEN--\":16043:16047   */\n      dup2\n        /* \"--CODEGEN--\":15927:16048   */\n      jump(tag_317)\n    tag_384:\n        /* \"--CODEGEN--\":15919:16048   */\n      swap1\n      pop\n        /* \"--CODEGEN--\":15823:16058   */\n      swap2\n      swap1\n      pop\n      jump\n        /* \"--CODEGEN--\":16065:16452   */\n    tag_72:\n      0x0\n        /* \"--CODEGEN--\":16246:16248   */\n      0x20\n        /* \"--CODEGEN--\":16235:16244   */\n      dup3\n        /* \"--CODEGEN--\":16231:16249   */\n      add\n        /* \"--CODEGEN--\":16223:16249   */\n      swap1\n      pop\n        /* \"--CODEGEN--\":16296:16305   */\n      dup2\n        /* \"--CODEGEN--\":16290:16294   */\n      dup2\n        /* \"--CODEGEN--\":16286:16306   */\n      sub\n        /* \"--CODEGEN--\":16282:16283   */\n      0x0\n        /* \"--CODEGEN--\":16271:16280   */\n      dup4\n        /* \"--CODEGEN--\":16267:16284   */\n      add\n        /* \"--CODEGEN--\":16260:16307   */\n      mstore\n        /* \"--CODEGEN--\":16321:16442   */\n      tag_386\n        /* \"--CODEGEN--\":16437:16441   */\n      dup2\n        /* \"--CODEGEN--\":16321:16442   */\n      jump(tag_319)\n    tag_386:\n        /* \"--CODEGEN--\":16313:16442   */\n      swap1\n      pop\n        /* \"--CODEGEN--\":16217:16452   */\n      swap2\n      swap1\n      pop\n      jump\n        /* \"--CODEGEN--\":16459:16846   */\n    tag_175:\n      0x0\n        /* \"--CODEGEN--\":16640:16642   */\n      0x20\n        /* \"--CODEGEN--\":16629:16638   */\n      dup3\n        /* \"--CODEGEN--\":16625:16643   */\n      add\n        /* \"--CODEGEN--\":16617:16643   */\n      swap1\n      pop\n        /* \"--CODEGEN--\":16690:16699   */\n      dup2\n        /* \"--CODEGEN--\":16684:16688   */\n      dup2\n        /* \"--CODEGEN--\":16680:16700   */\n      sub\n        /* \"--CODEGEN--\":16676:16677   */\n      0x0\n        /* \"--CODEGEN--\":16665:16674   */\n      dup4\n        /* \"--CODEGEN--\":16661:16678   */\n      add\n        /* \"--CODEGEN--\":16654:16701   */\n      mstore\n        /* \"--CODEGEN--\":16715:16836   */\n      tag_388\n        /* \"--CODEGEN--\":16831:16835   */\n      dup2\n        /* \"--CODEGEN--\":16715:16836   */\n      jump(tag_321)\n    tag_388:\n        /* \"--CODEGEN--\":16707:16836   */\n      swap1\n      pop\n        /* \"--CODEGEN--\":16611:16846   */\n      swap2\n      swap1\n      pop\n      jump\n        /* \"--CODEGEN--\":16853:17240   */\n    tag_199:\n      0x0\n        /* \"--CODEGEN--\":17034:17036   */\n      0x20\n        /* \"--CODEGEN--\":17023:17032   */\n      dup3\n        /* \"--CODEGEN--\":17019:17037   */\n      add\n        /* \"--CODEGEN--\":17011:17037   */\n      swap1\n      pop\n        /* \"--CODEGEN--\":17084:17093   */\n      dup2\n        /* \"--CODEGEN--\":17078:17082   */\n      dup2\n        /* \"--CODEGEN--\":17074:17094   */\n      sub\n        /* \"--CODEGEN--\":17070:17071   */\n      0x0\n        /* \"--CODEGEN--\":17059:17068   */\n      dup4\n        /* \"--CODEGEN--\":17055:17072   */\n      add\n        /* \"--CODEGEN--\":17048:17095   */\n      mstore\n        /* \"--CODEGEN--\":17109:17230   */\n      tag_390\n        /* \"--CODEGEN--\":17225:17229   */\n      dup2\n        /* \"--CODEGEN--\":17109:17230   */\n      jump(tag_323)\n    tag_390:\n        /* \"--CODEGEN--\":17101:17230   */\n      swap1\n      pop\n        /* \"--CODEGEN--\":17005:17240   */\n      swap2\n      swap1\n      pop\n      jump\n        /* \"--CODEGEN--\":17247:17634   */\n    tag_124:\n      0x0\n        /* \"--CODEGEN--\":17428:17430   */\n      0x20\n        /* \"--CODEGEN--\":17417:17426   */\n      dup3\n        /* \"--CODEGEN--\":17413:17431   */\n      add\n        /* \"--CODEGEN--\":17405:17431   */\n      swap1\n      pop\n        /* \"--CODEGEN--\":17478:17487   */\n      dup2\n        /* \"--CODEGEN--\":17472:17476   */\n      dup2\n        /* \"--CODEGEN--\":17468:17488   */\n      sub\n        /* \"--CODEGEN--\":17464:17465   */\n      0x0\n        /* \"--CODEGEN--\":17453:17462   */\n      dup4\n        /* \"--CODEGEN--\":17449:17466   */\n      add\n        /* \"--CODEGEN--\":17442:17489   */\n      mstore\n        /* \"--CODEGEN--\":17503:17624   */\n      tag_392\n        /* \"--CODEGEN--\":17619:17623   */\n      dup2\n        /* \"--CODEGEN--\":17503:17624   */\n      jump(tag_325)\n    tag_392:\n        /* \"--CODEGEN--\":17495:17624   */\n      swap1\n      pop\n        /* \"--CODEGEN--\":17399:17634   */\n      swap2\n      swap1\n      pop\n      jump\n        /* \"--CODEGEN--\":17641:18028   */\n    tag_181:\n      0x0\n        /* \"--CODEGEN--\":17822:17824   */\n      0x20\n        /* \"--CODEGEN--\":17811:17820   */\n      dup3\n        /* \"--CODEGEN--\":17807:17825   */\n      add\n        /* \"--CODEGEN--\":17799:17825   */\n      swap1\n      pop\n        /* \"--CODEGEN--\":17872:17881   */\n      dup2\n        /* \"--CODEGEN--\":17866:17870   */\n      dup2\n        /* \"--CODEGEN--\":17862:17882   */\n      sub\n        /* \"--CODEGEN--\":17858:17859   */\n      0x0\n        /* \"--CODEGEN--\":17847:17856   */\n      dup4\n        /* \"--CODEGEN--\":17843:17860   */\n      add\n        /* \"--CODEGEN--\":17836:17883   */\n      mstore\n        /* \"--CODEGEN--\":17897:18018   */\n      tag_394\n        /* \"--CODEGEN--\":18013:18017   */\n      dup2\n        /* \"--CODEGEN--\":17897:18018   */\n      jump(tag_327)\n    tag_394:\n        /* \"--CODEGEN--\":17889:18018   */\n      swap1\n      pop\n        /* \"--CODEGEN--\":17793:18028   */\n      swap2\n      swap1\n      pop\n      jump\n        /* \"--CODEGEN--\":18035:18422   */\n    tag_67:\n      0x0\n        /* \"--CODEGEN--\":18216:18218   */\n      0x20\n        /* \"--CODEGEN--\":18205:18214   */\n      dup3\n        /* \"--CODEGEN--\":18201:18219   */\n      add\n        /* \"--CODEGEN--\":18193:18219   */\n      swap1\n      pop\n        /* \"--CODEGEN--\":18266:18275   */\n      dup2\n        /* \"--CODEGEN--\":18260:18264   */\n      dup2\n        /* \"--CODEGEN--\":18256:18276   */\n      sub\n        /* \"--CODEGEN--\":18252:18253   */\n      0x0\n        /* \"--CODEGEN--\":18241:18250   */\n      dup4\n        /* \"--CODEGEN--\":18237:18254   */\n      add\n        /* \"--CODEGEN--\":18230:18277   */\n      mstore\n        /* \"--CODEGEN--\":18291:18412   */\n      tag_396\n        /* \"--CODEGEN--\":18407:18411   */\n      dup2\n        /* \"--CODEGEN--\":18291:18412   */\n      jump(tag_329)\n    tag_396:\n        /* \"--CODEGEN--\":18283:18412   */\n      swap1\n      pop\n        /* \"--CODEGEN--\":18187:18422   */\n      swap2\n      swap1\n      pop\n      jump\n        /* \"--CODEGEN--\":18429:18816   */\n    tag_188:\n      0x0\n        /* \"--CODEGEN--\":18610:18612   */\n      0x20\n        /* \"--CODEGEN--\":18599:18608   */\n      dup3\n        /* \"--CODEGEN--\":18595:18613   */\n      add\n        /* \"--CODEGEN--\":18587:18613   */\n      swap1\n      pop\n        /* \"--CODEGEN--\":18660:18669   */\n      dup2\n        /* \"--CODEGEN--\":18654:18658   */\n      dup2\n        /* \"--CODEGEN--\":18650:18670   */\n      sub\n        /* \"--CODEGEN--\":18646:18647   */\n      0x0\n        /* \"--CODEGEN--\":18635:18644   */\n      dup4\n        /* \"--CODEGEN--\":18631:18648   */\n      add\n        /* \"--CODEGEN--\":18624:18671   */\n      mstore\n        /* \"--CODEGEN--\":18685:18806   */\n      tag_398\n        /* \"--CODEGEN--\":18801:18805   */\n      dup2\n        /* \"--CODEGEN--\":18685:18806   */\n      jump(tag_331)\n    tag_398:\n        /* \"--CODEGEN--\":18677:18806   */\n      swap1\n      pop\n        /* \"--CODEGEN--\":18581:18816   */\n      swap2\n      swap1\n      pop\n      jump\n        /* \"--CODEGEN--\":18823:19210   */\n    tag_129:\n      0x0\n        /* \"--CODEGEN--\":19004:19006   */\n      0x20\n        /* \"--CODEGEN--\":18993:19002   */\n      dup3\n        /* \"--CODEGEN--\":18989:19007   */\n      add\n        /* \"--CODEGEN--\":18981:19007   */\n      swap1\n      pop\n        /* \"--CODEGEN--\":19054:19063   */\n      dup2\n        /* \"--CODEGEN--\":19048:19052   */\n      dup2\n        /* \"--CODEGEN--\":19044:19064   */\n      sub\n        /* \"--CODEGEN--\":19040:19041   */\n      0x0\n        /* \"--CODEGEN--\":19029:19038   */\n      dup4\n        /* \"--CODEGEN--\":19025:19042   */\n      add\n        /* \"--CODEGEN--\":19018:19065   */\n      mstore\n        /* \"--CODEGEN--\":19079:19200   */\n      tag_400\n        /* \"--CODEGEN--\":19195:19199   */\n      dup2\n        /* \"--CODEGEN--\":19079:19200   */\n      jump(tag_333)\n    tag_400:\n        /* \"--CODEGEN--\":19071:19200   */\n      swap1\n      pop\n        /* \"--CODEGEN--\":18975:19210   */\n      swap2\n      swap1\n      pop\n      jump\n        /* \"--CODEGEN--\":19217:19604   */\n    tag_205:\n      0x0\n        /* \"--CODEGEN--\":19398:19400   */\n      0x20\n        /* \"--CODEGEN--\":19387:19396   */\n      dup3\n        /* \"--CODEGEN--\":19383:19401   */\n      add\n        /* \"--CODEGEN--\":19375:19401   */\n      swap1\n      pop\n        /* \"--CODEGEN--\":19448:19457   */\n      dup2\n        /* \"--CODEGEN--\":19442:19446   */\n      dup2\n        /* \"--CODEGEN--\":19438:19458   */\n      sub\n        /* \"--CODEGEN--\":19434:19435   */\n      0x0\n        /* \"--CODEGEN--\":19423:19432   */\n      dup4\n        /* \"--CODEGEN--\":19419:19436   */\n      add\n        /* \"--CODEGEN--\":19412:19459   */\n      mstore\n        /* \"--CODEGEN--\":19473:19594   */\n      tag_402\n        /* \"--CODEGEN--\":19589:19593   */\n      dup2\n        /* \"--CODEGEN--\":19473:19594   */\n      jump(tag_335)\n    tag_402:\n        /* \"--CODEGEN--\":19465:19594   */\n      swap1\n      pop\n        /* \"--CODEGEN--\":19369:19604   */\n      swap2\n      swap1\n      pop\n      jump\n        /* \"--CODEGEN--\":19611:19998   */\n    tag_84:\n      0x0\n        /* \"--CODEGEN--\":19792:19794   */\n      0x20\n        /* \"--CODEGEN--\":19781:19790   */\n      dup3\n        /* \"--CODEGEN--\":19777:19795   */\n      add\n        /* \"--CODEGEN--\":19769:19795   */\n      swap1\n      pop\n        /* \"--CODEGEN--\":19842:19851   */\n      dup2\n        /* \"--CODEGEN--\":19836:19840   */\n      dup2\n        /* \"--CODEGEN--\":19832:19852   */\n      sub\n        /* \"--CODEGEN--\":19828:19829   */\n      0x0\n        /* \"--CODEGEN--\":19817:19826   */\n      dup4\n        /* \"--CODEGEN--\":19813:19830   */\n      add\n        /* \"--CODEGEN--\":19806:19853   */\n      mstore\n        /* \"--CODEGEN--\":19867:19988   */\n      tag_404\n        /* \"--CODEGEN--\":19983:19987   */\n      dup2\n        /* \"--CODEGEN--\":19867:19988   */\n      jump(tag_337)\n    tag_404:\n        /* \"--CODEGEN--\":19859:19988   */\n      swap1\n      pop\n        /* \"--CODEGEN--\":19763:19998   */\n      swap2\n      swap1\n      pop\n      jump\n        /* \"--CODEGEN--\":20005:20392   */\n    tag_178:\n      0x0\n        /* \"--CODEGEN--\":20186:20188   */\n      0x20\n        /* \"--CODEGEN--\":20175:20184   */\n      dup3\n        /* \"--CODEGEN--\":20171:20189   */\n      add\n        /* \"--CODEGEN--\":20163:20189   */\n      swap1\n      pop\n        /* \"--CODEGEN--\":20236:20245   */\n      dup2\n        /* \"--CODEGEN--\":20230:20234   */\n      dup2\n        /* \"--CODEGEN--\":20226:20246   */\n      sub\n        /* \"--CODEGEN--\":20222:20223   */\n      0x0\n        /* \"--CODEGEN--\":20211:20220   */\n      dup4\n        /* \"--CODEGEN--\":20207:20224   */\n      add\n        /* \"--CODEGEN--\":20200:20247   */\n      mstore\n        /* \"--CODEGEN--\":20261:20382   */\n      tag_406\n        /* \"--CODEGEN--\":20377:20381   */\n      dup2\n        /* \"--CODEGEN--\":20261:20382   */\n      jump(tag_339)\n    tag_406:\n        /* \"--CODEGEN--\":20253:20382   */\n      swap1\n      pop\n        /* \"--CODEGEN--\":20157:20392   */\n      swap2\n      swap1\n      pop\n      jump\n        /* \"--CODEGEN--\":20399:20786   */\n    tag_59:\n      0x0\n        /* \"--CODEGEN--\":20580:20582   */\n      0x20\n        /* \"--CODEGEN--\":20569:20578   */\n      dup3\n        /* \"--CODEGEN--\":20565:20583   */\n      add\n        /* \"--CODEGEN--\":20557:20583   */\n      swap1\n      pop\n        /* \"--CODEGEN--\":20630:20639   */\n      dup2\n        /* \"--CODEGEN--\":20624:20628   */\n      dup2\n        /* \"--CODEGEN--\":20620:20640   */\n      sub\n        /* \"--CODEGEN--\":20616:20617   */\n      0x0\n        /* \"--CODEGEN--\":20605:20614   */\n      dup4\n        /* \"--CODEGEN--\":20601:20618   */\n      add\n        /* \"--CODEGEN--\":20594:20641   */\n      mstore\n        /* \"--CODEGEN--\":20655:20776   */\n      tag_408\n        /* \"--CODEGEN--\":20771:20775   */\n      dup2\n        /* \"--CODEGEN--\":20655:20776   */\n      jump(tag_341)\n    tag_408:\n        /* \"--CODEGEN--\":20647:20776   */\n      swap1\n      pop\n        /* \"--CODEGEN--\":20551:20786   */\n      swap2\n      swap1\n      pop\n      jump\n        /* \"--CODEGEN--\":20793:21180   */\n    tag_170:\n      0x0\n        /* \"--CODEGEN--\":20974:20976   */\n      0x20\n        /* \"--CODEGEN--\":20963:20972   */\n      dup3\n        /* \"--CODEGEN--\":20959:20977   */\n      add\n        /* \"--CODEGEN--\":20951:20977   */\n      swap1\n      pop\n        /* \"--CODEGEN--\":21024:21033   */\n      dup2\n        /* \"--CODEGEN--\":21018:21022   */\n      dup2\n        /* \"--CODEGEN--\":21014:21034   */\n      sub\n        /* \"--CODEGEN--\":21010:21011   */\n      0x0\n        /* \"--CODEGEN--\":20999:21008   */\n      dup4\n        /* \"--CODEGEN--\":20995:21012   */\n      add\n        /* \"--CODEGEN--\":20988:21035   */\n      mstore\n        /* \"--CODEGEN--\":21049:21170   */\n      tag_410\n        /* \"--CODEGEN--\":21165:21169   */\n      dup2\n        /* \"--CODEGEN--\":21049:21170   */\n      jump(tag_343)\n    tag_410:\n        /* \"--CODEGEN--\":21041:21170   */\n      swap1\n      pop\n        /* \"--CODEGEN--\":20945:21180   */\n      swap2\n      swap1\n      pop\n      jump\n        /* \"--CODEGEN--\":21187:21625   */\n    tag_190:\n      0x0\n        /* \"--CODEGEN--\":21371:21373   */\n      0x40\n        /* \"--CODEGEN--\":21360:21369   */\n      dup3\n        /* \"--CODEGEN--\":21356:21374   */\n      add\n        /* \"--CODEGEN--\":21348:21374   */\n      swap1\n      pop\n        /* \"--CODEGEN--\":21385:21446   */\n      tag_412\n        /* \"--CODEGEN--\":21443:21444   */\n      0x0\n        /* \"--CODEGEN--\":21432:21441   */\n      dup4\n        /* \"--CODEGEN--\":21428:21445   */\n      add\n        /* \"--CODEGEN--\":21419:21425   */\n      dup6\n        /* \"--CODEGEN--\":21385:21446   */\n      jump(tag_356)\n    tag_412:\n        /* \"--CODEGEN--\":21494:21503   */\n      dup2\n        /* \"--CODEGEN--\":21488:21492   */\n      dup2\n        /* \"--CODEGEN--\":21484:21504   */\n      sub\n        /* \"--CODEGEN--\":21479:21481   */\n      0x20\n        /* \"--CODEGEN--\":21468:21477   */\n      dup4\n        /* \"--CODEGEN--\":21464:21482   */\n      add\n        /* \"--CODEGEN--\":21457:21505   */\n      mstore\n        /* \"--CODEGEN--\":21519:21615   */\n      tag_413\n        /* \"--CODEGEN--\":21610:21614   */\n      dup2\n        /* \"--CODEGEN--\":21601:21607   */\n      dup5\n        /* \"--CODEGEN--\":21519:21615   */\n      jump(tag_281)\n    tag_413:\n        /* \"--CODEGEN--\":21511:21615   */\n      swap1\n      pop\n        /* \"--CODEGEN--\":21342:21625   */\n      swap4\n      swap3\n      pop\n      pop\n      pop\n      jump\n        /* \"--CODEGEN--\":21632:22334   */\n    tag_120:\n      0x0\n        /* \"--CODEGEN--\":21926:21929   */\n      0xc0\n        /* \"--CODEGEN--\":21915:21924   */\n      dup3\n        /* \"--CODEGEN--\":21911:21930   */\n      add\n        /* \"--CODEGEN--\":21903:21930   */\n      swap1\n      pop\n        /* \"--CODEGEN--\":21941:22002   */\n      tag_415\n        /* \"--CODEGEN--\":21999:22000   */\n      0x0\n        /* \"--CODEGEN--\":21988:21997   */\n      dup4\n        /* \"--CODEGEN--\":21984:22001   */\n      add\n        /* \"--CODEGEN--\":21975:21981   */\n      dup8\n        /* \"--CODEGEN--\":21941:22002   */\n      jump(tag_356)\n    tag_415:\n        /* \"--CODEGEN--\":22013:22126   */\n      tag_416\n        /* \"--CODEGEN--\":22122:22124   */\n      0x20\n        /* \"--CODEGEN--\":22111:22120   */\n      dup4\n        /* \"--CODEGEN--\":22107:22125   */\n      add\n        /* \"--CODEGEN--\":22098:22104   */\n      dup7\n        /* \"--CODEGEN--\":22013:22126   */\n      jump(tag_349)\n    tag_416:\n        /* \"--CODEGEN--\":22137:22250   */\n      tag_417\n        /* \"--CODEGEN--\":22246:22248   */\n      0x60\n        /* \"--CODEGEN--\":22235:22244   */\n      dup4\n        /* \"--CODEGEN--\":22231:22249   */\n      add\n        /* \"--CODEGEN--\":22222:22228   */\n      dup6\n        /* \"--CODEGEN--\":22137:22250   */\n      jump(tag_349)\n    tag_417:\n        /* \"--CODEGEN--\":22261:22324   */\n      tag_418\n        /* \"--CODEGEN--\":22319:22322   */\n      0xa0\n        /* \"--CODEGEN--\":22308:22317   */\n      dup4\n        /* \"--CODEGEN--\":22304:22323   */\n      add\n        /* \"--CODEGEN--\":22295:22301   */\n      dup5\n        /* \"--CODEGEN--\":22261:22324   */\n      jump(tag_356)\n    tag_418:\n        /* \"--CODEGEN--\":21897:22334   */\n      swap6\n      swap5\n      pop\n      pop\n      pop\n      pop\n      pop\n      jump\n        /* \"--CODEGEN--\":22341:22635   */\n    tag_92:\n      0x0\n        /* \"--CODEGEN--\":22477:22479   */\n      0x40\n        /* \"--CODEGEN--\":22466:22475   */\n      dup3\n        /* \"--CODEGEN--\":22462:22480   */\n      add\n        /* \"--CODEGEN--\":22454:22480   */\n      swap1\n      pop\n        /* \"--CODEGEN--\":22491:22552   */\n      tag_420\n        /* \"--CODEGEN--\":22549:22550   */\n      0x0\n        /* \"--CODEGEN--\":22538:22547   */\n      dup4\n        /* \"--CODEGEN--\":22534:22551   */\n      add\n        /* \"--CODEGEN--\":22525:22531   */\n      dup6\n        /* \"--CODEGEN--\":22491:22552   */\n      jump(tag_356)\n    tag_420:\n        /* \"--CODEGEN--\":22563:22625   */\n      tag_421\n        /* \"--CODEGEN--\":22621:22623   */\n      0x20\n        /* \"--CODEGEN--\":22610:22619   */\n      dup4\n        /* \"--CODEGEN--\":22606:22624   */\n      add\n        /* \"--CODEGEN--\":22597:22603   */\n      dup5\n        /* \"--CODEGEN--\":22563:22625   */\n      jump(tag_356)\n    tag_421:\n        /* \"--CODEGEN--\":22448:22635   */\n      swap4\n      swap3\n      pop\n      pop\n      pop\n      jump\n        /* \"--CODEGEN--\":22642:23053   */\n    tag_135:\n      0x0\n        /* \"--CODEGEN--\":22814:22816   */\n      0x60\n        /* \"--CODEGEN--\":22803:22812   */\n      dup3\n        /* \"--CODEGEN--\":22799:22817   */\n      add\n        /* \"--CODEGEN--\":22791:22817   */\n      swap1\n      pop\n        /* \"--CODEGEN--\":22828:22889   */\n      tag_423\n        /* \"--CODEGEN--\":22886:22887   */\n      0x0\n        /* \"--CODEGEN--\":22875:22884   */\n      dup4\n        /* \"--CODEGEN--\":22871:22888   */\n      add\n        /* \"--CODEGEN--\":22862:22868   */\n      dup7\n        /* \"--CODEGEN--\":22828:22889   */\n      jump(tag_356)\n    tag_423:\n        /* \"--CODEGEN--\":22900:22962   */\n      tag_424\n        /* \"--CODEGEN--\":22958:22960   */\n      0x20\n        /* \"--CODEGEN--\":22947:22956   */\n      dup4\n        /* \"--CODEGEN--\":22943:22961   */\n      add\n        /* \"--CODEGEN--\":22934:22940   */\n      dup6\n        /* \"--CODEGEN--\":22900:22962   */\n      jump(tag_356)\n    tag_424:\n        /* \"--CODEGEN--\":22973:23043   */\n      tag_425\n        /* \"--CODEGEN--\":23039:23041   */\n      0x40\n        /* \"--CODEGEN--\":23028:23037   */\n      dup4\n        /* \"--CODEGEN--\":23024:23042   */\n      add\n        /* \"--CODEGEN--\":23015:23021   */\n      dup5\n        /* \"--CODEGEN--\":22973:23043   */\n      jump(tag_305)\n    tag_425:\n        /* \"--CODEGEN--\":22785:23053   */\n      swap5\n      swap4\n      pop\n      pop\n      pop\n      pop\n      jump\n        /* \"--CODEGEN--\":23060:23455   */\n    tag_148:\n      0x0\n        /* \"--CODEGEN--\":23224:23226   */\n      0x60\n        /* \"--CODEGEN--\":23213:23222   */\n      dup3\n        /* \"--CODEGEN--\":23209:23227   */\n      add\n        /* \"--CODEGEN--\":23201:23227   */\n      swap1\n      pop\n        /* \"--CODEGEN--\":23238:23299   */\n      tag_427\n        /* \"--CODEGEN--\":23296:23297   */\n      0x0\n        /* \"--CODEGEN--\":23285:23294   */\n      dup4\n        /* \"--CODEGEN--\":23281:23298   */\n      add\n        /* \"--CODEGEN--\":23272:23278   */\n      dup7\n        /* \"--CODEGEN--\":23238:23299   */\n      jump(tag_356)\n    tag_427:\n        /* \"--CODEGEN--\":23310:23372   */\n      tag_428\n        /* \"--CODEGEN--\":23368:23370   */\n      0x20\n        /* \"--CODEGEN--\":23357:23366   */\n      dup4\n        /* \"--CODEGEN--\":23353:23371   */\n      add\n        /* \"--CODEGEN--\":23344:23350   */\n      dup6\n        /* \"--CODEGEN--\":23310:23372   */\n      jump(tag_356)\n    tag_428:\n        /* \"--CODEGEN--\":23383:23445   */\n      tag_429\n        /* \"--CODEGEN--\":23441:23443   */\n      0x40\n        /* \"--CODEGEN--\":23430:23439   */\n      dup4\n        /* \"--CODEGEN--\":23426:23444   */\n      add\n        /* \"--CODEGEN--\":23417:23423   */\n      dup5\n        /* \"--CODEGEN--\":23383:23445   */\n      jump(tag_356)\n    tag_429:\n        /* \"--CODEGEN--\":23195:23455   */\n      swap5\n      swap4\n      pop\n      pop\n      pop\n      pop\n      jump\n        /* \"--CODEGEN--\":23462:23718   */\n    tag_241:\n      0x0\n        /* \"--CODEGEN--\":23524:23526   */\n      0x40\n        /* \"--CODEGEN--\":23518:23527   */\n      mload\n        /* \"--CODEGEN--\":23508:23527   */\n      swap1\n      pop\n        /* \"--CODEGEN--\":23562:23566   */\n      dup2\n        /* \"--CODEGEN--\":23554:23560   */\n      dup2\n        /* \"--CODEGEN--\":23550:23567   */\n      add\n        /* \"--CODEGEN--\":23661:23667   */\n      dup2\n        /* \"--CODEGEN--\":23649:23659   */\n      dup2\n        /* \"--CODEGEN--\":23646:23668   */\n      lt\n        /* \"--CODEGEN--\":23625:23643   */\n      0xffffffffffffffff\n        /* \"--CODEGEN--\":23613:23623   */\n      dup3\n        /* \"--CODEGEN--\":23610:23644   */\n      gt\n        /* \"--CODEGEN--\":23607:23669   */\n      or\n        /* \"--CODEGEN--\":23604:23606   */\n      iszero\n      tag_431\n      jumpi\n        /* \"--CODEGEN--\":23682:23683   */\n      0x0\n        /* \"--CODEGEN--\":23679:23680   */\n      dup1\n        /* \"--CODEGEN--\":23672:23684   */\n      revert\n        /* \"--CODEGEN--\":23604:23606   */\n    tag_431:\n        /* \"--CODEGEN--\":23702:23712   */\n      dup1\n        /* \"--CODEGEN--\":23698:23700   */\n      0x40\n        /* \"--CODEGEN--\":23691:23713   */\n      mstore\n        /* \"--CODEGEN--\":23502:23718   */\n      pop\n      swap2\n      swap1\n      pop\n      jump\n        /* \"--CODEGEN--\":23725:23982   */\n    tag_240:\n      0x0\n        /* \"--CODEGEN--\":23883:23901   */\n      0xffffffffffffffff\n        /* \"--CODEGEN--\":23875:23881   */\n      dup3\n        /* \"--CODEGEN--\":23872:23902   */\n      gt\n        /* \"--CODEGEN--\":23869:23871   */\n      iszero\n      tag_433\n      jumpi\n        /* \"--CODEGEN--\":23915:23916   */\n      0x0\n        /* \"--CODEGEN--\":23912:23913   */\n      dup1\n        /* \"--CODEGEN--\":23905:23917   */\n      revert\n        /* \"--CODEGEN--\":23869:23871   */\n    tag_433:\n        /* \"--CODEGEN--\":23944:23948   */\n      0x20\n        /* \"--CODEGEN--\":23936:23942   */\n      dup3\n        /* \"--CODEGEN--\":23932:23949   */\n      mul\n        /* \"--CODEGEN--\":23924:23949   */\n      swap1\n      pop\n        /* \"--CODEGEN--\":23972:23976   */\n      0x20\n        /* \"--CODEGEN--\":23966:23970   */\n      dup2\n        /* \"--CODEGEN--\":23962:23977   */\n      add\n        /* \"--CODEGEN--\":23954:23977   */\n      swap1\n      pop\n        /* \"--CODEGEN--\":23806:23982   */\n      swap2\n      swap1\n      pop\n      jump\n        /* \"--CODEGEN--\":23991:24111   */\n    tag_285:\n      0x0\n        /* \"--CODEGEN--\":24099:24103   */\n      0x20\n        /* \"--CODEGEN--\":24091:24097   */\n      dup3\n        /* \"--CODEGEN--\":24087:24104   */\n      add\n        /* \"--CODEGEN--\":24076:24104   */\n      swap1\n      pop\n        /* \"--CODEGEN--\":24068:24111   */\n      swap2\n      swap1\n      pop\n      jump\n        /* \"--CODEGEN--\":24120:24226   */\n    tag_283:\n      0x0\n        /* \"--CODEGEN--\":24215:24220   */\n      dup2\n        /* \"--CODEGEN--\":24209:24221   */\n      mload\n        /* \"--CODEGEN--\":24199:24221   */\n      swap1\n      pop\n        /* \"--CODEGEN--\":24193:24226   */\n      swap2\n      swap1\n      pop\n      jump\n        /* \"--CODEGEN--\":24234:24355   */\n    tag_292:\n      0x0\n        /* \"--CODEGEN--\":24344:24348   */\n      0x20\n        /* \"--CODEGEN--\":24336:24342   */\n      dup3\n        /* \"--CODEGEN--\":24332:24349   */\n      add\n        /* \"--CODEGEN--\":24321:24349   */\n      swap1\n      pop\n        /* \"--CODEGEN--\":24314:24355   */\n      swap2\n      swap1\n      pop\n      jump\n        /* \"--CODEGEN--\":24363:24491   */\n    tag_279:\n      0x0\n        /* \"--CODEGEN--\":24443:24485   */\n      0xffffffffffffffffffffffffffffffffffffffff\n        /* \"--CODEGEN--\":24436:24441   */\n      dup3\n        /* \"--CODEGEN--\":24432:24486   */\n      and\n        /* \"--CODEGEN--\":24421:24486   */\n      swap1\n      pop\n        /* \"--CODEGEN--\":24415:24491   */\n      swap2\n      swap1\n      pop\n      jump\n        /* \"--CODEGEN--\":24498:24590   */\n    tag_296:\n      0x0\n        /* \"--CODEGEN--\":24578:24583   */\n      dup2\n        /* \"--CODEGEN--\":24571:24584   */\n      iszero\n        /* \"--CODEGEN--\":24564:24585   */\n      iszero\n        /* \"--CODEGEN--\":24553:24585   */\n      swap1\n      pop\n        /* \"--CODEGEN--\":24547:24590   */\n      swap2\n      swap1\n      pop\n      jump\n        /* \"--CODEGEN--\":24597:24722   */\n    tag_440:\n      0x0\n        /* \"--CODEGEN--\":24683:24684   */\n      0x3\n        /* \"--CODEGEN--\":24676:24681   */\n      dup3\n        /* \"--CODEGEN--\":24673:24685   */\n      lt\n        /* \"--CODEGEN--\":24666:24686   */\n      iszero\n        /* \"--CODEGEN--\":24663:24665   */\n      iszero\n      tag_441\n      jumpi\n        /* \"--CODEGEN--\":24689:24698   */\n      invalid\n        /* \"--CODEGEN--\":24663:24665   */\n    tag_441:\n        /* \"--CODEGEN--\":24712:24717   */\n      dup2\n        /* \"--CODEGEN--\":24701:24717   */\n      swap1\n      pop\n        /* \"--CODEGEN--\":24657:24722   */\n      swap2\n      swap1\n      pop\n      jump\n        /* \"--CODEGEN--\":24729:24807   */\n    tag_303:\n      0x0\n        /* \"--CODEGEN--\":24797:24802   */\n      dup2\n        /* \"--CODEGEN--\":24786:24802   */\n      swap1\n      pop\n        /* \"--CODEGEN--\":24780:24807   */\n      swap2\n      swap1\n      pop\n      jump\n        /* \"--CODEGEN--\":24814:24893   */\n    tag_358:\n      0x0\n        /* \"--CODEGEN--\":24883:24888   */\n      dup2\n        /* \"--CODEGEN--\":24872:24888   */\n      swap1\n      pop\n        /* \"--CODEGEN--\":24866:24893   */\n      swap2\n      swap1\n      pop\n      jump\n        /* \"--CODEGEN--\":24900:25028   */\n    tag_234:\n      0x0\n        /* \"--CODEGEN--\":24980:25022   */\n      0xffffffffffffffffffffffffffffffffffffffff\n        /* \"--CODEGEN--\":24973:24978   */\n      dup3\n        /* \"--CODEGEN--\":24969:25023   */\n      and\n        /* \"--CODEGEN--\":24958:25023   */\n      swap1\n      pop\n        /* \"--CODEGEN--\":24952:25028   */\n      swap2\n      swap1\n      pop\n      jump\n        /* \"--CODEGEN--\":25035:25113   */\n    tag_250:\n      0x0\n        /* \"--CODEGEN--\":25103:25108   */\n      dup2\n        /* \"--CODEGEN--\":25092:25108   */\n      swap1\n      pop\n        /* \"--CODEGEN--\":25086:25113   */\n      swap2\n      swap1\n      pop\n      jump\n        /* \"--CODEGEN--\":25120:25199   */\n    tag_254:\n      0x0\n        /* \"--CODEGEN--\":25189:25194   */\n      dup2\n        /* \"--CODEGEN--\":25178:25194   */\n      swap1\n      pop\n        /* \"--CODEGEN--\":25172:25199   */\n      swap2\n      swap1\n      pop\n      jump\n        /* \"--CODEGEN--\":25206:25335   */\n    tag_300:\n      0x0\n        /* \"--CODEGEN--\":25291:25330   */\n      tag_448\n        /* \"--CODEGEN--\":25324:25329   */\n      dup3\n        /* \"--CODEGEN--\":25291:25330   */\n      jump(tag_440)\n    tag_448:\n        /* \"--CODEGEN--\":25278:25330   */\n      swap1\n      pop\n        /* \"--CODEGEN--\":25272:25335   */\n      swap2\n      swap1\n      pop\n      jump\n        /* \"--CODEGEN--\":25342:25465   */\n    tag_307:\n      0x0\n        /* \"--CODEGEN--\":25429:25460   */\n      tag_450\n        /* \"--CODEGEN--\":25454:25459   */\n      dup3\n        /* \"--CODEGEN--\":25429:25460   */\n      jump(tag_358)\n    tag_450:\n        /* \"--CODEGEN--\":25416:25460   */\n      swap1\n      pop\n        /* \"--CODEGEN--\":25410:25465   */\n      swap2\n      swap1\n      pop\n      jump\n        /* \"--CODEGEN--\":25472:25561   */\n    tag_351:\n      0x0\n        /* \"--CODEGEN--\":25552:25555   */\n      0x1\n        /* \"--CODEGEN--\":25545:25550   */\n      dup3\n        /* \"--CODEGEN--\":25541:25556   */\n      div\n        /* \"--CODEGEN--\":25529:25556   */\n      swap1\n      pop\n        /* \"--CODEGEN--\":25523:25561   */\n      swap2\n      swap1\n      pop\n      jump\n\n    auxdata: 0xa265627a7a723058203bf272b00481d3e246643b7fb4280fcc9f387b66e16769226ebcbe36a906e9946c6578706572696d656e74616cf50037\n}\n",
				"bytecode": {
					"linkReferences": {},
					"object": "608060405234801561001057600080fd5b506148de806100206000396000f3006080604052600436106100a4576000357c0100000000000000000000000000000000000000000000000000000000900463ffffffff168063315a9f01146100a957806341664ebf146100d257806354dee961146100e95780639e5d3610146100f35780639f4216e81461010a578063a797873814610147578063a87430ba14610170578063ba2b3906146101b7578063de9e7da0146101c1578063f2c9ecd8146101ea575b600080fd5b3480156100b557600080fd5b506100d060048036036100cb9190810190613c59565b610215565b005b3480156100de57600080fd5b506100e7610a46565b005b6100f1610f45565b005b3480156100ff57600080fd5b506101086118c2565b005b34801561011657600080fd5b50610131600480360361012c9190810190613c30565b611efe565b60405161013e9190614340565b60405180910390f35b34801561015357600080fd5b5061016e60048036036101699190810190613b70565b611f3c565b005b34801561017c57600080fd5b5061019760048036036101929190810190613b47565b612717565b6040516101ae9b9a9998979695949392919061435b565b60405180910390f35b6101bf612801565b005b3480156101cd57600080fd5b506101e860048036036101e39190810190613bb1565b612f75565b005b3480156101f657600080fd5b506101ff61366b565b60405161020c9190614408565b60405180910390f35b600115156000803373ffffffffffffffffffffffffffffffffffffffff1673ffffffffffffffffffffffffffffffffffffffff16815260200190815260200160002060000160009054906101000a900460ff1615151415156102ac576040517f08c379a00000000000000000000000000000000000000000000000000000000081526004016102a390614623565b60405180910390fd5b6002808111156102b857fe5b6000803373ffffffffffffffffffffffffffffffffffffffff1673ffffffffffffffffffffffffffffffffffffffff16815260200190815260200160002060020160009054906101000a900460ff16600281111561031257fe5b141515610354576040517f08c379a000000000000000000000000000000000000000000000000000000000815260040161034b90614483565b60405180910390fd5b600073ffffffffffffffffffffffffffffffffffffffff166000803373ffffffffffffffffffffffffffffffffffffffff1673ffffffffffffffffffffffffffffffffffffffff16815260200190815260200160002060020160019054906101000a900473ffffffffffffffffffffffffffffffffffffffff1673ffffffffffffffffffffffffffffffffffffffff16141515610426576040517f08c379a000000000000000000000000000000000000000000000000000000000815260040161041d90614563565b60405180910390fd5b3373ffffffffffffffffffffffffffffffffffffffff1660018381548110151561044c57fe5b9060005260206000200160009054906101000a900473ffffffffffffffffffffffffffffffffffffffff1673ffffffffffffffffffffffffffffffffffffffff16141515156104d0576040517f08c379a00000000000000000000000000000000000000000000000000000000081526004016104c7906144c3565b60405180910390fd5b600073ffffffffffffffffffffffffffffffffffffffff166000806001858154811015156104fa57fe5b9060005260206000200160009054906101000a900473ffffffffffffffffffffffffffffffffffffffff1673ffffffffffffffffffffffffffffffffffffffff1673ffffffffffffffffffffffffffffffffffffffff16815260200190815260200160002060020160019054906101000a900473ffffffffffffffffffffffffffffffffffffffff1673ffffffffffffffffffffffffffffffffffffffff161415156105db576040517f08c379a00000000000000000000000000000000000000000000000000000000081526004016105d2906144a3565b60405180910390fd5b600160028111156105e857fe5b6000806001858154811015156105fa57fe5b9060005260206000200160009054906101000a900473ffffffffffffffffffffffffffffffffffffffff1673ffffffffffffffffffffffffffffffffffffffff1673ffffffffffffffffffffffffffffffffffffffff16815260200190815260200160002060020160009054906101000a900460ff16600281111561067b57fe5b1415156106bd576040517f08c379a00000000000000000000000000000000000000000000000000000000081526004016106b4906145e3565b60405180910390fd5b336000806001858154811015156106d057fe5b9060005260206000200160009054906101000a900473ffffffffffffffffffffffffffffffffffffffff1673ffffffffffffffffffffffffffffffffffffffff1673ffffffffffffffffffffffffffffffffffffffff16815260200190815260200160002060020160016101000a81548173ffffffffffffffffffffffffffffffffffffffff021916908373ffffffffffffffffffffffffffffffffffffffff16021790555060018281548110151561078557fe5b9060005260206000200160009054906101000a900473ffffffffffffffffffffffffffffffffffffffff166000803373ffffffffffffffffffffffffffffffffffffffff1673ffffffffffffffffffffffffffffffffffffffff16815260200190815260200160002060020160016101000a81548173ffffffffffffffffffffffffffffffffffffffff021916908373ffffffffffffffffffffffffffffffffffffffff160217905550806000803373ffffffffffffffffffffffffffffffffffffffff1673ffffffffffffffffffffffffffffffffffffffff168152602001908152602001600020600701819055508060008060018581548110151561088857fe5b9060005260206000200160009054906101000a900473ffffffffffffffffffffffffffffffffffffffff1673ffffffffffffffffffffffffffffffffffffffff1673ffffffffffffffffffffffffffffffffffffffff1681526020019081526020016000206007018190555060008060003373ffffffffffffffffffffffffffffffffffffffff1673ffffffffffffffffffffffffffffffffffffffff16815260200190815260200160002060080160006101000a81548160ff02191690831515021790555060008060008060003373ffffffffffffffffffffffffffffffffffffffff1673ffffffffffffffffffffffffffffffffffffffff16815260200190815260200160002060020160019054906101000a900473ffffffffffffffffffffffffffffffffffffffff1673ffffffffffffffffffffffffffffffffffffffff1673ffffffffffffffffffffffffffffffffffffffff16815260200190815260200160002060080160006101000a81548160ff0219169083151502179055507fd492064edf7fcac5d4cf828f131afa14b0a5784d8bfdb01853e176cf5b0e2ec38282604051610a3a9291906146d8565b60405180910390a15050565b6000600115156000803373ffffffffffffffffffffffffffffffffffffffff1673ffffffffffffffffffffffffffffffffffffffff16815260200190815260200160002060000160009054906101000a900460ff161515141515610adf576040517f08c379a0000000000000000000000000000000000000000000000000000000008152600401610ad690614623565b60405180910390fd5b600280811115610aeb57fe5b6000803373ffffffffffffffffffffffffffffffffffffffff1673ffffffffffffffffffffffffffffffffffffffff16815260200190815260200160002060020160009054906101000a900460ff166002811115610b4557fe5b141515610b87576040517f08c379a0000000000000000000000000000000000000000000000000000000008152600401610b7e90614483565b60405180910390fd5b600090505b600180549050811015610f4257600073ffffffffffffffffffffffffffffffffffffffff16600080600184815481101515610bc357fe5b9060005260206000200160009054906101000a900473ffffffffffffffffffffffffffffffffffffffff1673ffffffffffffffffffffffffffffffffffffffff1673ffffffffffffffffffffffffffffffffffffffff16815260200190815260200160002060020160019054906101000a900473ffffffffffffffffffffffffffffffffffffffff1673ffffffffffffffffffffffffffffffffffffffff16148015610d0c575060016002811115610c7757fe5b600080600184815481101515610c8957fe5b9060005260206000200160009054906101000a900473ffffffffffffffffffffffffffffffffffffffff1673ffffffffffffffffffffffffffffffffffffffff1673ffffffffffffffffffffffffffffffffffffffff16815260200190815260200160002060020160009054906101000a900460ff166002811115610d0a57fe5b145b15610f35577f371a7676ba1a3c7f898deecee12f15abf07a92560af6d3f0a10f35d07189084f600080600184815481101515610d4457fe5b9060005260206000200160009054906101000a900473ffffffffffffffffffffffffffffffffffffffff1673ffffffffffffffffffffffffffffffffffffffff1673ffffffffffffffffffffffffffffffffffffffff16815260200190815260200160002060010154600080600185815481101515610dbf57fe5b9060005260206000200160009054906101000a900473ffffffffffffffffffffffffffffffffffffffff1673ffffffffffffffffffffffffffffffffffffffff1673ffffffffffffffffffffffffffffffffffffffff168152602001908152602001600020600301600080600186815481101515610e3957fe5b9060005260206000200160009054906101000a900473ffffffffffffffffffffffffffffffffffffffff1673ffffffffffffffffffffffffffffffffffffffff1673ffffffffffffffffffffffffffffffffffffffff168152602001908152602001600020600501600080600187815481101515610eb357fe5b9060005260206000200160009054906101000a900473ffffffffffffffffffffffffffffffffffffffff1673ffffffffffffffffffffffffffffffffffffffff1673ffffffffffffffffffffffffffffffffffffffff16815260200190815260200160002060090154604051610f2c9493929190614693565b60405180910390a15b8080600101915050610b8c565b50565b600115156000803373ffffffffffffffffffffffffffffffffffffffff1673ffffffffffffffffffffffffffffffffffffffff16815260200190815260200160002060000160009054906101000a900460ff161515141515610fdc576040517f08c379a0000000000000000000000000000000000000000000000000000000008152600401610fd390614523565b60405180910390fd5b60006002811115610fe957fe5b6000803373ffffffffffffffffffffffffffffffffffffffff1673ffffffffffffffffffffffffffffffffffffffff16815260200190815260200160002060020160009054906101000a900460ff16600281111561104357fe5b14151515611086576040517f08c379a000000000000000000000000000000000000000000000000000000000815260040161107d906145a3565b60405180910390fd5b600034101515156110cc576040517f08c379a00000000000000000000000000000000000000000000000000000000081526004016110c390614423565b60405180910390fd5b600115156000803373ffffffffffffffffffffffffffffffffffffffff1673ffffffffffffffffffffffffffffffffffffffff16815260200190815260200160002060080160019054906101000a900460ff1615151415611254577f5b1b690b017b49e02e426b145ec66a70f4259c7a0a7bfb5609363922cec65eef6000803373ffffffffffffffffffffffffffffffffffffffff1673ffffffffffffffffffffffffffffffffffffffff168152602001908152602001600020600101546000808060003373ffffffffffffffffffffffffffffffffffffffff1673ffffffffffffffffffffffffffffffffffffffff16815260200190815260200160002060020160019054906101000a900473ffffffffffffffffffffffffffffffffffffffff1673ffffffffffffffffffffffffffffffffffffffff1673ffffffffffffffffffffffffffffffffffffffff16815260200190815260200160002060010154600060405161123e93929190614701565b60405180910390a161124f33613738565b6118c0565b6001600281111561126157fe5b6000803373ffffffffffffffffffffffffffffffffffffffff1673ffffffffffffffffffffffffffffffffffffffff16815260200190815260200160002060020160009054906101000a900460ff1660028111156112bb57fe5b14156115c257600015156000803373ffffffffffffffffffffffffffffffffffffffff1673ffffffffffffffffffffffffffffffffffffffff16815260200190815260200160002060080160009054906101000a900460ff16151514801561136357506000803373ffffffffffffffffffffffffffffffffffffffff1673ffffffffffffffffffffffffffffffffffffffff1681526020019081526020016000206007015442115b15611495577f5b1b690b017b49e02e426b145ec66a70f4259c7a0a7bfb5609363922cec65eef6000803373ffffffffffffffffffffffffffffffffffffffff1673ffffffffffffffffffffffffffffffffffffffff168152602001908152602001600020600101546000808060003373ffffffffffffffffffffffffffffffffffffffff1673ffffffffffffffffffffffffffffffffffffffff16815260200190815260200160002060020160019054906101000a900473ffffffffffffffffffffffffffffffffffffffff1673ffffffffffffffffffffffffffffffffffffffff1673ffffffffffffffffffffffffffffffffffffffff16815260200190815260200160002060010154600060405161147f93929190614701565b60405180910390a161149033613738565b6115bd565b7f5b1b690b017b49e02e426b145ec66a70f4259c7a0a7bfb5609363922cec65eef6000803373ffffffffffffffffffffffffffffffffffffffff1673ffffffffffffffffffffffffffffffffffffffff168152602001908152602001600020600101546000808060003373ffffffffffffffffffffffffffffffffffffffff1673ffffffffffffffffffffffffffffffffffffffff16815260200190815260200160002060020160019054906101000a900473ffffffffffffffffffffffffffffffffffffffff1673ffffffffffffffffffffffffffffffffffffffff1673ffffffffffffffffffffffffffffffffffffffff16815260200190815260200160002060010154346040516115ab93929190614738565b60405180910390a16115bc33613738565b5b6118bf565b600115156000803373ffffffffffffffffffffffffffffffffffffffff1673ffffffffffffffffffffffffffffffffffffffff16815260200190815260200160002060080160009054906101000a900460ff16151514801561166457506000803373ffffffffffffffffffffffffffffffffffffffff1673ffffffffffffffffffffffffffffffffffffffff1681526020019081526020016000206007015442115b15611796577f5b1b690b017b49e02e426b145ec66a70f4259c7a0a7bfb5609363922cec65eef6000803373ffffffffffffffffffffffffffffffffffffffff1673ffffffffffffffffffffffffffffffffffffffff168152602001908152602001600020600101546000808060003373ffffffffffffffffffffffffffffffffffffffff1673ffffffffffffffffffffffffffffffffffffffff16815260200190815260200160002060020160019054906101000a900473ffffffffffffffffffffffffffffffffffffffff1673ffffffffffffffffffffffffffffffffffffffff1673ffffffffffffffffffffffffffffffffffffffff16815260200190815260200160002060010154600060405161178093929190614701565b60405180910390a161179133613738565b6118be565b7f5b1b690b017b49e02e426b145ec66a70f4259c7a0a7bfb5609363922cec65eef6000803373ffffffffffffffffffffffffffffffffffffffff1673ffffffffffffffffffffffffffffffffffffffff168152602001908152602001600020600101546000808060003373ffffffffffffffffffffffffffffffffffffffff1673ffffffffffffffffffffffffffffffffffffffff16815260200190815260200160002060020160019054906101000a900473ffffffffffffffffffffffffffffffffffffffff1673ffffffffffffffffffffffffffffffffffffffff1673ffffffffffffffffffffffffffffffffffffffff16815260200190815260200160002060010154346040516118ac93929190614738565b60405180910390a16118bd33613738565b5b5b5b565b600015156000803373ffffffffffffffffffffffffffffffffffffffff1673ffffffffffffffffffffffffffffffffffffffff16815260200190815260200160002060000160009054906101000a900460ff1615151415611bb05760013390806001815401808255809150509060018203906000526020600020016000909192909190916101000a81548173ffffffffffffffffffffffffffffffffffffffff021916908373ffffffffffffffffffffffffffffffffffffffff1602179055505061016060405190810160405280600115158152602001600180805490500381526020016002808111156119b257fe5b8152602001600073ffffffffffffffffffffffffffffffffffffffff1681526020016040805190810160405280600081526020016000815250815260200160408051908101604052806000815260200160008152508152602001600081526020016001151581526020016000151581526020016000815260200160008152506000803373ffffffffffffffffffffffffffffffffffffffff1673ffffffffffffffffffffffffffffffffffffffff16815260200190815260200160002060008201518160000160006101000a81548160ff0219169083151502179055506020820151816001015560408201518160020160006101000a81548160ff02191690836002811115611abd57fe5b021790555060608201518160020160016101000a81548173ffffffffffffffffffffffffffffffffffffffff021916908373ffffffffffffffffffffffffffffffffffffffff1602179055506080820151816003016000820151816000015560208201518160010155505060a0820151816005016000820151816000015560208201518160010155505060c0820151816007015560e08201518160080160006101000a81548160ff0219169083151502179055506101008201518160080160016101000a81548160ff021916908315150217905550610120820151816009015561014082015181600a0155905050611efc565b60026000803373ffffffffffffffffffffffffffffffffffffffff1673ffffffffffffffffffffffffffffffffffffffff16815260200190815260200160002060020160006101000a81548160ff02191690836002811115611c0e57fe5b021790555060008060003373ffffffffffffffffffffffffffffffffffffffff1673ffffffffffffffffffffffffffffffffffffffff16815260200190815260200160002060020160016101000a81548173ffffffffffffffffffffffffffffffffffffffff021916908373ffffffffffffffffffffffffffffffffffffffff16021790555060408051908101604052806000815260200160008152506000803373ffffffffffffffffffffffffffffffffffffffff1673ffffffffffffffffffffffffffffffffffffffff168152602001908152602001600020600301600082015181600001556020820151816001015590505060408051908101604052806000815260200160008152506000803373ffffffffffffffffffffffffffffffffffffffff1673ffffffffffffffffffffffffffffffffffffffff168152602001908152602001600020600501600082015181600001556020820151816001015590505060008060003373ffffffffffffffffffffffffffffffffffffffff1673ffffffffffffffffffffffffffffffffffffffff1681526020019081526020016000206009018190555060008060003373ffffffffffffffffffffffffffffffffffffffff1673ffffffffffffffffffffffffffffffffffffffff1681526020019081526020016000206007018190555060016000803373ffffffffffffffffffffffffffffffffffffffff1673ffffffffffffffffffffffffffffffffffffffff16815260200190815260200160002060080160006101000a81548160ff02191690831515021790555060008060003373ffffffffffffffffffffffffffffffffffffffff1673ffffffffffffffffffffffffffffffffffffffff16815260200190815260200160002060080160016101000a81548160ff02191690831515021790555060008060003373ffffffffffffffffffffffffffffffffffffffff1673ffffffffffffffffffffffffffffffffffffffff168152602001908152602001600020600a01819055505b565b600181815481101515611f0d57fe5b906000526020600020016000915054906101000a900473ffffffffffffffffffffffffffffffffffffffff1681565b6000600115156000803373ffffffffffffffffffffffffffffffffffffffff1673ffffffffffffffffffffffffffffffffffffffff16815260200190815260200160002060000160009054906101000a900460ff161515141515611fd5576040517f08c379a0000000000000000000000000000000000000000000000000000000008152600401611fcc90614643565b60405180910390fd5b600280811115611fe157fe5b6000803373ffffffffffffffffffffffffffffffffffffffff1673ffffffffffffffffffffffffffffffffffffffff16815260200190815260200160002060020160009054906101000a900460ff16600281111561203b57fe5b14151561207d576040517f08c379a0000000000000000000000000000000000000000000000000000000008152600401612074906144e3565b60405180910390fd5b600073ffffffffffffffffffffffffffffffffffffffff166000803373ffffffffffffffffffffffffffffffffffffffff1673ffffffffffffffffffffffffffffffffffffffff16815260200190815260200160002060020160019054906101000a900473ffffffffffffffffffffffffffffffffffffffff1673ffffffffffffffffffffffffffffffffffffffff1614151515612150576040517f08c379a000000000000000000000000000000000000000000000000000000000815260040161214790614603565b60405180910390fd5b6000803373ffffffffffffffffffffffffffffffffffffffff1673ffffffffffffffffffffffffffffffffffffffff1681526020019081526020016000206007015442111515156121d6576040517f08c379a00000000000000000000000000000000000000000000000000000000081526004016121cd90614543565b60405180910390fd5b6000808060003373ffffffffffffffffffffffffffffffffffffffff1673ffffffffffffffffffffffffffffffffffffffff16815260200190815260200160002060020160019054906101000a900473ffffffffffffffffffffffffffffffffffffffff1673ffffffffffffffffffffffffffffffffffffffff1673ffffffffffffffffffffffffffffffffffffffff1681526020019081526020016000206003016001015482600181518110151561228b57fe5b90602001906020020151036000808060003373ffffffffffffffffffffffffffffffffffffffff1673ffffffffffffffffffffffffffffffffffffffff16815260200190815260200160002060020160019054906101000a900473ffffffffffffffffffffffffffffffffffffffff1673ffffffffffffffffffffffffffffffffffffffff1673ffffffffffffffffffffffffffffffffffffffff1681526020019081526020016000206003016001015483600181518110151561234b57fe5b9060200190602002015103026000808060003373ffffffffffffffffffffffffffffffffffffffff1673ffffffffffffffffffffffffffffffffffffffff16815260200190815260200160002060020160019054906101000a900473ffffffffffffffffffffffffffffffffffffffff1673ffffffffffffffffffffffffffffffffffffffff1673ffffffffffffffffffffffffffffffffffffffff1681526020019081526020016000206003016000015483600081518110151561240c57fe5b90602001906020020151036000808060003373ffffffffffffffffffffffffffffffffffffffff1673ffffffffffffffffffffffffffffffffffffffff16815260200190815260200160002060020160019054906101000a900473ffffffffffffffffffffffffffffffffffffffff1673ffffffffffffffffffffffffffffffffffffffff1673ffffffffffffffffffffffffffffffffffffffff168152602001908152602001600020600301600001548460008151811015156124cc57fe5b90602001906020020151030201905062cfe1da8113151515612523576040517f08c379a000000000000000000000000000000000000000000000000000000000815260040161251a90614583565b60405180910390fd5b60016000803373ffffffffffffffffffffffffffffffffffffffff1673ffffffffffffffffffffffffffffffffffffffff16815260200190815260200160002060080160006101000a81548160ff02191690831515021790555060016000808060003373ffffffffffffffffffffffffffffffffffffffff1673ffffffffffffffffffffffffffffffffffffffff16815260200190815260200160002060020160019054906101000a900473ffffffffffffffffffffffffffffffffffffffff1673ffffffffffffffffffffffffffffffffffffffff1673ffffffffffffffffffffffffffffffffffffffff16815260200190815260200160002060080160006101000a81548160ff0219169083151502179055507ffecc381fcca04c8371dac7b0998f7810a51c75d32acbb1f415ceb7215b2965b56000808060003373ffffffffffffffffffffffffffffffffffffffff1673ffffffffffffffffffffffffffffffffffffffff16815260200190815260200160002060020160019054906101000a900473ffffffffffffffffffffffffffffffffffffffff1673ffffffffffffffffffffffffffffffffffffffff1673ffffffffffffffffffffffffffffffffffffffff168152602001908152602001600020600101548360405161270b929190614663565b60405180910390a15050565b60006020528060005260406000206000915090508060000160009054906101000a900460ff16908060010154908060020160009054906101000a900460ff16908060020160019054906101000a900473ffffffffffffffffffffffffffffffffffffffff16908060030160408051908101604052908160008201548152602001600182015481525050908060050160408051908101604052908160008201548152602001600182015481525050908060070154908060080160009054906101000a900460ff16908060080160019054906101000a900460ff169080600901549080600a015490508b565b600115156000803373ffffffffffffffffffffffffffffffffffffffff1673ffffffffffffffffffffffffffffffffffffffff16815260200190815260200160002060000160009054906101000a900460ff161515141515612898576040517f08c379a000000000000000000000000000000000000000000000000000000000815260040161288f90614443565b60405180910390fd5b600160028111156128a557fe5b6000803373ffffffffffffffffffffffffffffffffffffffff1673ffffffffffffffffffffffffffffffffffffffff16815260200190815260200160002060020160009054906101000a900460ff1660028111156128ff57fe5b141515612941576040517f08c379a000000000000000000000000000000000000000000000000000000000815260040161293890614503565b60405180910390fd5b600073ffffffffffffffffffffffffffffffffffffffff166000803373ffffffffffffffffffffffffffffffffffffffff1673ffffffffffffffffffffffffffffffffffffffff16815260200190815260200160002060020160019054906101000a900473ffffffffffffffffffffffffffffffffffffffff1673ffffffffffffffffffffffffffffffffffffffff1614151515612a14576040517f08c379a0000000000000000000000000000000000000000000000000000000008152600401612a0b90614463565b60405180910390fd5b6000803373ffffffffffffffffffffffffffffffffffffffff1673ffffffffffffffffffffffffffffffffffffffff16815260200190815260200160002060090154346000803373ffffffffffffffffffffffffffffffffffffffff1673ffffffffffffffffffffffffffffffffffffffff168152602001908152602001600020600a01540111151515612add576040517f08c379a0000000000000000000000000000000000000000000000000000000008152600401612ad4906145c3565b60405180910390fd5b60016000803373ffffffffffffffffffffffffffffffffffffffff1673ffffffffffffffffffffffffffffffffffffffff16815260200190815260200160002060080160016101000a81548160ff02191690831515021790555060016000808060003373ffffffffffffffffffffffffffffffffffffffff1673ffffffffffffffffffffffffffffffffffffffff16815260200190815260200160002060020160019054906101000a900473ffffffffffffffffffffffffffffffffffffffff1673ffffffffffffffffffffffffffffffffffffffff1673ffffffffffffffffffffffffffffffffffffffff16815260200190815260200160002060080160016101000a81548160ff021916908315150217905550346000803373ffffffffffffffffffffffffffffffffffffffff1673ffffffffffffffffffffffffffffffffffffffff168152602001908152602001600020600a0154016000803373ffffffffffffffffffffffffffffffffffffffff1673ffffffffffffffffffffffffffffffffffffffff168152602001908152602001600020600a01819055507fed8e6f0ab8a4d39cb413959065b15ac270c5baec57aee722c1268880c0b1f3d56000808060003373ffffffffffffffffffffffffffffffffffffffff1673ffffffffffffffffffffffffffffffffffffffff16815260200190815260200160002060020160019054906101000a900473ffffffffffffffffffffffffffffffffffffffff1673ffffffffffffffffffffffffffffffffffffffff1673ffffffffffffffffffffffffffffffffffffffff1681526020019081526020016000206001015434604051612d4e9291906146d8565b60405180910390a16000803373ffffffffffffffffffffffffffffffffffffffff1673ffffffffffffffffffffffffffffffffffffffff168152602001908152602001600020600901546000803373ffffffffffffffffffffffffffffffffffffffff1673ffffffffffffffffffffffffffffffffffffffff168152602001908152602001600020600a01541415612f73577f5b1b690b017b49e02e426b145ec66a70f4259c7a0a7bfb5609363922cec65eef6000803373ffffffffffffffffffffffffffffffffffffffff1673ffffffffffffffffffffffffffffffffffffffff168152602001908152602001600020600101546000808060003373ffffffffffffffffffffffffffffffffffffffff1673ffffffffffffffffffffffffffffffffffffffff16815260200190815260200160002060020160019054906101000a900473ffffffffffffffffffffffffffffffffffffffff1673ffffffffffffffffffffffffffffffffffffffff1673ffffffffffffffffffffffffffffffffffffffff168152602001908152602001600020600101546000604051612ef793929190614701565b60405180910390a1612f696000803373ffffffffffffffffffffffffffffffffffffffff1673ffffffffffffffffffffffffffffffffffffffff16815260200190815260200160002060020160019054906101000a900473ffffffffffffffffffffffffffffffffffffffff16613738565b612f7233613738565b5b565b600015156000803373ffffffffffffffffffffffffffffffffffffffff1673ffffffffffffffffffffffffffffffffffffffff16815260200190815260200160002060000160009054906101000a900460ff16151514156132bf5760013390806001815401808255809150509060018203906000526020600020016000909192909190916101000a81548173ffffffffffffffffffffffffffffffffffffffff021916908373ffffffffffffffffffffffffffffffffffffffff1602179055505061016060405190810160405280600115158152602001600180805490500381526020016001600281111561306657fe5b8152602001600073ffffffffffffffffffffffffffffffffffffffff16815260200160408051908101604052808660008151811015156130a257fe5b9060200190602002015181526020018660018151811015156130c057fe5b90602001906020020151815250815260200160408051908101604052808560008151811015156130ec57fe5b90602001906020020151815260200185600181518110151561310a57fe5b9060200190602002015181525081526020016000815260200160001515815260200160001515815260200182815260200160008152506000803373ffffffffffffffffffffffffffffffffffffffff1673ffffffffffffffffffffffffffffffffffffffff16815260200190815260200160002060008201518160000160006101000a81548160ff0219169083151502179055506020820151816001015560408201518160020160006101000a81548160ff021916908360028111156131cc57fe5b021790555060608201518160020160016101000a81548173ffffffffffffffffffffffffffffffffffffffff021916908373ffffffffffffffffffffffffffffffffffffffff1602179055506080820151816003016000820151816000015560208201518160010155505060a0820151816005016000820151816000015560208201518160010155505060c0820151816007015560e08201518160080160006101000a81548160ff0219169083151502179055506101008201518160080160016101000a81548160ff021916908315150217905550610120820151816009015561014082015181600a0155905050613666565b60016000803373ffffffffffffffffffffffffffffffffffffffff1673ffffffffffffffffffffffffffffffffffffffff16815260200190815260200160002060020160006101000a81548160ff0219169083600281111561331d57fe5b021790555060008060003373ffffffffffffffffffffffffffffffffffffffff1673ffffffffffffffffffffffffffffffffffffffff16815260200190815260200160002060020160016101000a81548173ffffffffffffffffffffffffffffffffffffffff021916908373ffffffffffffffffffffffffffffffffffffffff16021790555060408051908101604052808460008151811015156133bd57fe5b9060200190602002015181526020018460018151811015156133db57fe5b906020019060200201518152506000803373ffffffffffffffffffffffffffffffffffffffff1673ffffffffffffffffffffffffffffffffffffffff1681526020019081526020016000206003016000820151816000015560208201518160010155905050604080519081016040528083600081518110151561345a57fe5b90602001906020020151815260200183600181518110151561347857fe5b906020019060200201518152506000803373ffffffffffffffffffffffffffffffffffffffff1673ffffffffffffffffffffffffffffffffffffffff1681526020019081526020016000206005016000820151816000015560208201518160010155905050806000803373ffffffffffffffffffffffffffffffffffffffff1673ffffffffffffffffffffffffffffffffffffffff1681526020019081526020016000206009018190555060008060003373ffffffffffffffffffffffffffffffffffffffff1673ffffffffffffffffffffffffffffffffffffffff1681526020019081526020016000206007018190555060008060003373ffffffffffffffffffffffffffffffffffffffff1673ffffffffffffffffffffffffffffffffffffffff16815260200190815260200160002060080160006101000a81548160ff02191690831515021790555060008060003373ffffffffffffffffffffffffffffffffffffffff1673ffffffffffffffffffffffffffffffffffffffff16815260200190815260200160002060080160016101000a81548160ff02191690831515021790555060008060003373ffffffffffffffffffffffffffffffffffffffff1673ffffffffffffffffffffffffffffffffffffffff168152602001908152602001600020600a01819055505b505050565b6000600115156000803373ffffffffffffffffffffffffffffffffffffffff1673ffffffffffffffffffffffffffffffffffffffff16815260200190815260200160002060000160009054906101000a900460ff1615151415613711576000803373ffffffffffffffffffffffffffffffffffffffff1673ffffffffffffffffffffffffffffffffffffffff168152602001908152602001600020600101549050613735565b7fffffffffffffffffffffffffffffffffffffffffffffffffffffffffffffffff90505b90565b60008060008373ffffffffffffffffffffffffffffffffffffffff1673ffffffffffffffffffffffffffffffffffffffff16815260200190815260200160002060020160006101000a81548160ff0219169083600281111561379657fe5b021790555060008060008373ffffffffffffffffffffffffffffffffffffffff1673ffffffffffffffffffffffffffffffffffffffff16815260200190815260200160002060020160016101000a81548173ffffffffffffffffffffffffffffffffffffffff021916908373ffffffffffffffffffffffffffffffffffffffff16021790555060408051908101604052806000815260200160008152506000808373ffffffffffffffffffffffffffffffffffffffff1673ffffffffffffffffffffffffffffffffffffffff168152602001908152602001600020600301600082015181600001556020820151816001015590505060408051908101604052806000815260200160008152506000808373ffffffffffffffffffffffffffffffffffffffff1673ffffffffffffffffffffffffffffffffffffffff168152602001908152602001600020600501600082015181600001556020820151816001015590505060008060008373ffffffffffffffffffffffffffffffffffffffff1673ffffffffffffffffffffffffffffffffffffffff1681526020019081526020016000206007018190555060008060008373ffffffffffffffffffffffffffffffffffffffff1673ffffffffffffffffffffffffffffffffffffffff16815260200190815260200160002060080160006101000a81548160ff02191690831515021790555060008060008373ffffffffffffffffffffffffffffffffffffffff1673ffffffffffffffffffffffffffffffffffffffff16815260200190815260200160002060080160016101000a81548160ff02191690831515021790555060008060008373ffffffffffffffffffffffffffffffffffffffff1673ffffffffffffffffffffffffffffffffffffffff1681526020019081526020016000206009018190555060008060008373ffffffffffffffffffffffffffffffffffffffff1673ffffffffffffffffffffffffffffffffffffffff168152602001908152602001600020600a018190555050565b6000613a92823561483f565b905092915050565b600082601f8301121515613aad57600080fd5b8135613ac0613abb8261479c565b61476f565b91508181835260208401935060208101905083856020840282011115613ae557600080fd5b60005b83811015613b155781613afb8882613b1f565b845260208401935060208301925050600181019050613ae8565b5050505092915050565b6000613b2b823561485f565b905092915050565b6000613b3f8235614869565b905092915050565b600060208284031215613b5957600080fd5b6000613b6784828501613a86565b91505092915050565b600060208284031215613b8257600080fd5b600082013567ffffffffffffffff811115613b9c57600080fd5b613ba884828501613a9a565b91505092915050565b600080600060608486031215613bc657600080fd5b600084013567ffffffffffffffff811115613be057600080fd5b613bec86828701613a9a565b935050602084013567ffffffffffffffff811115613c0957600080fd5b613c1586828701613a9a565b9250506040613c2686828701613b33565b9150509250925092565b600060208284031215613c4257600080fd5b6000613c5084828501613b33565b91505092915050565b60008060408385031215613c6c57600080fd5b6000613c7a85828601613b33565b9250506020613c8b85828601613b33565b9150509250929050565b613c9e816147e9565b82525050565b6000613caf826147d1565b808452602084019350613cc1836147c4565b60005b82811015613cf357613cd7868351613d1d565b613ce0826147dc565b9150602086019550600181019050613cc4565b50849250505092915050565b613d0881614809565b82525050565b613d1781614873565b82525050565b613d268161482b565b82525050565b613d3581614885565b82525050565b6000601e82527f4574686572206e65656420746f2062652073656e7420746f20726573657400006020830152604082019050919050565b6000601882527f4e65656420746f2062652061207573657220746f2070617900000000000000006020830152604082019050919050565b6000602d82527f5269646572206e6565647320746f206861766520616e2061737369676e65642060208301527f64726976657220746f20706179000000000000000000000000000000000000006040830152606082019050919050565b6000602d82527f55736572206e6565647320746f20626520696e20647269766572206d6f64652060208301527f746f207069636b207269646572000000000000000000000000000000000000006040830152606082019050919050565b6000601482527f726964657220616c7265616479207061697265640000000000000000000000006020830152604082019050919050565b6000601482527f43616e6e6f74207069636b20796f757273656c660000000000000000000000006020830152604082019050919050565b6000602f82527f55736572206e6565647320746f20626520696e20647269766572206d6f64652060208301527f746f20696e666f726d20726964657200000000000000000000000000000000006040830152606082019050919050565b6000602c82527f55736572206e6565647320746f20626520696e207269646572206d6f6465207460208301527f6f207061792064726976657200000000000000000000000000000000000000006040830152606082019050919050565b6000602282527f4e65656420746f2062652061207573657220746f20636f6d706c65746520726960208301527f64650000000000000000000000000000000000000000000000000000000000006040830152606082019050919050565b6000601a82527f596f752061726520746f6f206c61746520746f206172726976650000000000006020830152604082019050919050565b6000601782527f6472697665722063757272656e746c79207061697265640000000000000000006020830152604082019050919050565b6000602f82527f596f7520617265206d6f7265207468617420302e32206d696c6573206177617960208301527f2066726f6d2074686520726964657200000000000000000000000000000000006040830152606082019050919050565b6000602a82527f4e65656420746f20626520616e20616374697665207573657220746f20636f6d60208301527f706c6574652072696465000000000000000000000000000000000000000000006040830152606082019050919050565b6000601d82527f4f76657264726166742066726f6d20696e697469616c20657363726f770000006020830152604082019050919050565b6000602382527f75736572206265696e67207069636b65642068617320746f206265206120726960208301527f64657200000000000000000000000000000000000000000000000000000000006040830152606082019050919050565b6000603082527f447269766572206e6565647320746f206861766520616e2061737369676e656460208301527f20726964657220746f20696e666f726d000000000000000000000000000000006040830152606082019050919050565b6000602182527f4e65656420746f2062652061207573657220746f2073656c656374207269646560208301527f72000000000000000000000000000000000000000000000000000000000000006040830152606082019050919050565b6000602182527f4e65656420746f2062652061207573657220746f20696e666f726d207269646560208301527f72000000000000000000000000000000000000000000000000000000000000006040830152606082019050919050565b6040820160008201516142d16000850182613d1d565b5060208201516142e46020850182613d1d565b50505050565b6040820160008083015490506142ff81614897565b61430c6000860182613d1d565b506001830154905061431d81614897565b61432a6020860182613d1d565b5050505050565b61433a81614835565b82525050565b60006020820190506143556000830184613c95565b92915050565b60006101a082019050614371600083018e613cff565b61437e602083018d614331565b61438b604083018c613d0e565b614398606083018b613c95565b6143a5608083018a6142bb565b6143b260c08301896142bb565b6143c0610100830188614331565b6143ce610120830187613cff565b6143dc610140830186613cff565b6143ea610160830185614331565b6143f8610180830184614331565b9c9b505050505050505050505050565b600060208201905061441d6000830184613d1d565b92915050565b6000602082019050818103600083015261443c81613d3b565b9050919050565b6000602082019050818103600083015261445c81613d72565b9050919050565b6000602082019050818103600083015261447c81613da9565b9050919050565b6000602082019050818103600083015261449c81613e06565b9050919050565b600060208201905081810360008301526144bc81613e63565b9050919050565b600060208201905081810360008301526144dc81613e9a565b9050919050565b600060208201905081810360008301526144fc81613ed1565b9050919050565b6000602082019050818103600083015261451c81613f2e565b9050919050565b6000602082019050818103600083015261453c81613f8b565b9050919050565b6000602082019050818103600083015261455c81613fe8565b9050919050565b6000602082019050818103600083015261457c8161401f565b9050919050565b6000602082019050818103600083015261459c81614056565b9050919050565b600060208201905081810360008301526145bc816140b3565b9050919050565b600060208201905081810360008301526145dc81614110565b9050919050565b600060208201905081810360008301526145fc81614147565b9050919050565b6000602082019050818103600083015261461c816141a4565b9050919050565b6000602082019050818103600083015261463c81614201565b9050919050565b6000602082019050818103600083015261465c8161425e565b9050919050565b60006040820190506146786000830185614331565b818103602083015261468a8184613ca4565b90509392505050565b600060c0820190506146a86000830187614331565b6146b560208301866142ea565b6146c260608301856142ea565b6146cf60a0830184614331565b95945050505050565b60006040820190506146ed6000830185614331565b6146fa6020830184614331565b9392505050565b60006060820190506147166000830186614331565b6147236020830185614331565b6147306040830184613d2c565b949350505050565b600060608201905061474d6000830186614331565b61475a6020830185614331565b6147676040830184614331565b949350505050565b6000604051905081810181811067ffffffffffffffff8211171561479257600080fd5b8060405250919050565b600067ffffffffffffffff8211156147b357600080fd5b602082029050602081019050919050565b6000602082019050919050565b600081519050919050565b6000602082019050919050565b600073ffffffffffffffffffffffffffffffffffffffff82169050919050565b60008115159050919050565b600060038210151561482357fe5b819050919050565b6000819050919050565b6000819050919050565b600073ffffffffffffffffffffffffffffffffffffffff82169050919050565b6000819050919050565b6000819050919050565b600061487e82614815565b9050919050565b600061489082614835565b9050919050565b60006001820490509190505600a265627a7a723058203bf272b00481d3e246643b7fb4280fcc9f387b66e16769226ebcbe36a906e9946c6578706572696d656e74616cf50037",
					"opcodes": "PUSH1 0x80 PUSH1 0x40 MSTORE CALLVALUE DUP1 ISZERO PUSH2 0x10 JUMPI PUSH1 0x0 DUP1 REVERT JUMPDEST POP PUSH2 0x48DE DUP1 PUSH2 0x20 PUSH1 0x0 CODECOPY PUSH1 0x0 RETURN STOP PUSH1 0x80 PUSH1 0x40 MSTORE PUSH1 0x4 CALLDATASIZE LT PUSH2 0xA4 JUMPI PUSH1 0x0 CALLDATALOAD PUSH29 0x100000000000000000000000000000000000000000000000000000000 SWAP1 DIV PUSH4 0xFFFFFFFF AND DUP1 PUSH4 0x315A9F01 EQ PUSH2 0xA9 JUMPI DUP1 PUSH4 0x41664EBF EQ PUSH2 0xD2 JUMPI DUP1 PUSH4 0x54DEE961 EQ PUSH2 0xE9 JUMPI DUP1 PUSH4 0x9E5D3610 EQ PUSH2 0xF3 JUMPI DUP1 PUSH4 0x9F4216E8 EQ PUSH2 0x10A JUMPI DUP1 PUSH4 0xA7978738 EQ PUSH2 0x147 JUMPI DUP1 PUSH4 0xA87430BA EQ PUSH2 0x170 JUMPI DUP1 PUSH4 0xBA2B3906 EQ PUSH2 0x1B7 JUMPI DUP1 PUSH4 0xDE9E7DA0 EQ PUSH2 0x1C1 JUMPI DUP1 PUSH4 0xF2C9ECD8 EQ PUSH2 0x1EA JUMPI JUMPDEST PUSH1 0x0 DUP1 REVERT JUMPDEST CALLVALUE DUP1 ISZERO PUSH2 0xB5 JUMPI PUSH1 0x0 DUP1 REVERT JUMPDEST POP PUSH2 0xD0 PUSH1 0x4 DUP1 CALLDATASIZE SUB PUSH2 0xCB SWAP2 SWAP1 DUP2 ADD SWAP1 PUSH2 0x3C59 JUMP JUMPDEST PUSH2 0x215 JUMP JUMPDEST STOP JUMPDEST CALLVALUE DUP1 ISZERO PUSH2 0xDE JUMPI PUSH1 0x0 DUP1 REVERT JUMPDEST POP PUSH2 0xE7 PUSH2 0xA46 JUMP JUMPDEST STOP JUMPDEST PUSH2 0xF1 PUSH2 0xF45 JUMP JUMPDEST STOP JUMPDEST CALLVALUE DUP1 ISZERO PUSH2 0xFF JUMPI PUSH1 0x0 DUP1 REVERT JUMPDEST POP PUSH2 0x108 PUSH2 0x18C2 JUMP JUMPDEST STOP JUMPDEST CALLVALUE DUP1 ISZERO PUSH2 0x116 JUMPI PUSH1 0x0 DUP1 REVERT JUMPDEST POP PUSH2 0x131 PUSH1 0x4 DUP1 CALLDATASIZE SUB PUSH2 0x12C SWAP2 SWAP1 DUP2 ADD SWAP1 PUSH2 0x3C30 JUMP JUMPDEST PUSH2 0x1EFE JUMP JUMPDEST PUSH1 0x40 MLOAD PUSH2 0x13E SWAP2 SWAP1 PUSH2 0x4340 JUMP JUMPDEST PUSH1 0x40 MLOAD DUP1 SWAP2 SUB SWAP1 RETURN JUMPDEST CALLVALUE DUP1 ISZERO PUSH2 0x153 JUMPI PUSH1 0x0 DUP1 REVERT JUMPDEST POP PUSH2 0x16E PUSH1 0x4 DUP1 CALLDATASIZE SUB PUSH2 0x169 SWAP2 SWAP1 DUP2 ADD SWAP1 PUSH2 0x3B70 JUMP JUMPDEST PUSH2 0x1F3C JUMP JUMPDEST STOP JUMPDEST CALLVALUE DUP1 ISZERO PUSH2 0x17C JUMPI PUSH1 0x0 DUP1 REVERT JUMPDEST POP PUSH2 0x197 PUSH1 0x4 DUP1 CALLDATASIZE SUB PUSH2 0x192 SWAP2 SWAP1 DUP2 ADD SWAP1 PUSH2 0x3B47 JUMP JUMPDEST PUSH2 0x2717 JUMP JUMPDEST PUSH1 0x40 MLOAD PUSH2 0x1AE SWAP12 SWAP11 SWAP10 SWAP9 SWAP8 SWAP7 SWAP6 SWAP5 SWAP4 SWAP3 SWAP2 SWAP1 PUSH2 0x435B JUMP JUMPDEST PUSH1 0x40 MLOAD DUP1 SWAP2 SUB SWAP1 RETURN JUMPDEST PUSH2 0x1BF PUSH2 0x2801 JUMP JUMPDEST STOP JUMPDEST CALLVALUE DUP1 ISZERO PUSH2 0x1CD JUMPI PUSH1 0x0 DUP1 REVERT JUMPDEST POP PUSH2 0x1E8 PUSH1 0x4 DUP1 CALLDATASIZE SUB PUSH2 0x1E3 SWAP2 SWAP1 DUP2 ADD SWAP1 PUSH2 0x3BB1 JUMP JUMPDEST PUSH2 0x2F75 JUMP JUMPDEST STOP JUMPDEST CALLVALUE DUP1 ISZERO PUSH2 0x1F6 JUMPI PUSH1 0x0 DUP1 REVERT JUMPDEST POP PUSH2 0x1FF PUSH2 0x366B JUMP JUMPDEST PUSH1 0x40 MLOAD PUSH2 0x20C SWAP2 SWAP1 PUSH2 0x4408 JUMP JUMPDEST PUSH1 0x40 MLOAD DUP1 SWAP2 SUB SWAP1 RETURN JUMPDEST PUSH1 0x1 ISZERO ISZERO PUSH1 0x0 DUP1 CALLER PUSH20 0xFFFFFFFFFFFFFFFFFFFFFFFFFFFFFFFFFFFFFFFF AND PUSH20 0xFFFFFFFFFFFFFFFFFFFFFFFFFFFFFFFFFFFFFFFF AND DUP2 MSTORE PUSH1 0x20 ADD SWAP1 DUP2 MSTORE PUSH1 0x20 ADD PUSH1 0x0 KECCAK256 PUSH1 0x0 ADD PUSH1 0x0 SWAP1 SLOAD SWAP1 PUSH2 0x100 EXP SWAP1 DIV PUSH1 0xFF AND ISZERO ISZERO EQ ISZERO ISZERO PUSH2 0x2AC JUMPI PUSH1 0x40 MLOAD PUSH32 0x8C379A000000000000000000000000000000000000000000000000000000000 DUP2 MSTORE PUSH1 0x4 ADD PUSH2 0x2A3 SWAP1 PUSH2 0x4623 JUMP JUMPDEST PUSH1 0x40 MLOAD DUP1 SWAP2 SUB SWAP1 REVERT JUMPDEST PUSH1 0x2 DUP1 DUP2 GT ISZERO PUSH2 0x2B8 JUMPI INVALID JUMPDEST PUSH1 0x0 DUP1 CALLER PUSH20 0xFFFFFFFFFFFFFFFFFFFFFFFFFFFFFFFFFFFFFFFF AND PUSH20 0xFFFFFFFFFFFFFFFFFFFFFFFFFFFFFFFFFFFFFFFF AND DUP2 MSTORE PUSH1 0x20 ADD SWAP1 DUP2 MSTORE PUSH1 0x20 ADD PUSH1 0x0 KECCAK256 PUSH1 0x2 ADD PUSH1 0x0 SWAP1 SLOAD SWAP1 PUSH2 0x100 EXP SWAP1 DIV PUSH1 0xFF AND PUSH1 0x2 DUP2 GT ISZERO PUSH2 0x312 JUMPI INVALID JUMPDEST EQ ISZERO ISZERO PUSH2 0x354 JUMPI PUSH1 0x40 MLOAD PUSH32 0x8C379A000000000000000000000000000000000000000000000000000000000 DUP2 MSTORE PUSH1 0x4 ADD PUSH2 0x34B SWAP1 PUSH2 0x4483 JUMP JUMPDEST PUSH1 0x40 MLOAD DUP1 SWAP2 SUB SWAP1 REVERT JUMPDEST PUSH1 0x0 PUSH20 0xFFFFFFFFFFFFFFFFFFFFFFFFFFFFFFFFFFFFFFFF AND PUSH1 0x0 DUP1 CALLER PUSH20 0xFFFFFFFFFFFFFFFFFFFFFFFFFFFFFFFFFFFFFFFF AND PUSH20 0xFFFFFFFFFFFFFFFFFFFFFFFFFFFFFFFFFFFFFFFF AND DUP2 MSTORE PUSH1 0x20 ADD SWAP1 DUP2 MSTORE PUSH1 0x20 ADD PUSH1 0x0 KECCAK256 PUSH1 0x2 ADD PUSH1 0x1 SWAP1 SLOAD SWAP1 PUSH2 0x100 EXP SWAP1 DIV PUSH20 0xFFFFFFFFFFFFFFFFFFFFFFFFFFFFFFFFFFFFFFFF AND PUSH20 0xFFFFFFFFFFFFFFFFFFFFFFFFFFFFFFFFFFFFFFFF AND EQ ISZERO ISZERO PUSH2 0x426 JUMPI PUSH1 0x40 MLOAD PUSH32 0x8C379A000000000000000000000000000000000000000000000000000000000 DUP2 MSTORE PUSH1 0x4 ADD PUSH2 0x41D SWAP1 PUSH2 0x4563 JUMP JUMPDEST PUSH1 0x40 MLOAD DUP1 SWAP2 SUB SWAP1 REVERT JUMPDEST CALLER PUSH20 0xFFFFFFFFFFFFFFFFFFFFFFFFFFFFFFFFFFFFFFFF AND PUSH1 0x1 DUP4 DUP2 SLOAD DUP2 LT ISZERO ISZERO PUSH2 0x44C JUMPI INVALID JUMPDEST SWAP1 PUSH1 0x0 MSTORE PUSH1 0x20 PUSH1 0x0 KECCAK256 ADD PUSH1 0x0 SWAP1 SLOAD SWAP1 PUSH2 0x100 EXP SWAP1 DIV PUSH20 0xFFFFFFFFFFFFFFFFFFFFFFFFFFFFFFFFFFFFFFFF AND PUSH20 0xFFFFFFFFFFFFFFFFFFFFFFFFFFFFFFFFFFFFFFFF AND EQ ISZERO ISZERO ISZERO PUSH2 0x4D0 JUMPI PUSH1 0x40 MLOAD PUSH32 0x8C379A000000000000000000000000000000000000000000000000000000000 DUP2 MSTORE PUSH1 0x4 ADD PUSH2 0x4C7 SWAP1 PUSH2 0x44C3 JUMP JUMPDEST PUSH1 0x40 MLOAD DUP1 SWAP2 SUB SWAP1 REVERT JUMPDEST PUSH1 0x0 PUSH20 0xFFFFFFFFFFFFFFFFFFFFFFFFFFFFFFFFFFFFFFFF AND PUSH1 0x0 DUP1 PUSH1 0x1 DUP6 DUP2 SLOAD DUP2 LT ISZERO ISZERO PUSH2 0x4FA JUMPI INVALID JUMPDEST SWAP1 PUSH1 0x0 MSTORE PUSH1 0x20 PUSH1 0x0 KECCAK256 ADD PUSH1 0x0 SWAP1 SLOAD SWAP1 PUSH2 0x100 EXP SWAP1 DIV PUSH20 0xFFFFFFFFFFFFFFFFFFFFFFFFFFFFFFFFFFFFFFFF AND PUSH20 0xFFFFFFFFFFFFFFFFFFFFFFFFFFFFFFFFFFFFFFFF AND PUSH20 0xFFFFFFFFFFFFFFFFFFFFFFFFFFFFFFFFFFFFFFFF AND DUP2 MSTORE PUSH1 0x20 ADD SWAP1 DUP2 MSTORE PUSH1 0x20 ADD PUSH1 0x0 KECCAK256 PUSH1 0x2 ADD PUSH1 0x1 SWAP1 SLOAD SWAP1 PUSH2 0x100 EXP SWAP1 DIV PUSH20 0xFFFFFFFFFFFFFFFFFFFFFFFFFFFFFFFFFFFFFFFF AND PUSH20 0xFFFFFFFFFFFFFFFFFFFFFFFFFFFFFFFFFFFFFFFF AND EQ ISZERO ISZERO PUSH2 0x5DB JUMPI PUSH1 0x40 MLOAD PUSH32 0x8C379A000000000000000000000000000000000000000000000000000000000 DUP2 MSTORE PUSH1 0x4 ADD PUSH2 0x5D2 SWAP1 PUSH2 0x44A3 JUMP JUMPDEST PUSH1 0x40 MLOAD DUP1 SWAP2 SUB SWAP1 REVERT JUMPDEST PUSH1 0x1 PUSH1 0x2 DUP2 GT ISZERO PUSH2 0x5E8 JUMPI INVALID JUMPDEST PUSH1 0x0 DUP1 PUSH1 0x1 DUP6 DUP2 SLOAD DUP2 LT ISZERO ISZERO PUSH2 0x5FA JUMPI INVALID JUMPDEST SWAP1 PUSH1 0x0 MSTORE PUSH1 0x20 PUSH1 0x0 KECCAK256 ADD PUSH1 0x0 SWAP1 SLOAD SWAP1 PUSH2 0x100 EXP SWAP1 DIV PUSH20 0xFFFFFFFFFFFFFFFFFFFFFFFFFFFFFFFFFFFFFFFF AND PUSH20 0xFFFFFFFFFFFFFFFFFFFFFFFFFFFFFFFFFFFFFFFF AND PUSH20 0xFFFFFFFFFFFFFFFFFFFFFFFFFFFFFFFFFFFFFFFF AND DUP2 MSTORE PUSH1 0x20 ADD SWAP1 DUP2 MSTORE PUSH1 0x20 ADD PUSH1 0x0 KECCAK256 PUSH1 0x2 ADD PUSH1 0x0 SWAP1 SLOAD SWAP1 PUSH2 0x100 EXP SWAP1 DIV PUSH1 0xFF AND PUSH1 0x2 DUP2 GT ISZERO PUSH2 0x67B JUMPI INVALID JUMPDEST EQ ISZERO ISZERO PUSH2 0x6BD JUMPI PUSH1 0x40 MLOAD PUSH32 0x8C379A000000000000000000000000000000000000000000000000000000000 DUP2 MSTORE PUSH1 0x4 ADD PUSH2 0x6B4 SWAP1 PUSH2 0x45E3 JUMP JUMPDEST PUSH1 0x40 MLOAD DUP1 SWAP2 SUB SWAP1 REVERT JUMPDEST CALLER PUSH1 0x0 DUP1 PUSH1 0x1 DUP6 DUP2 SLOAD DUP2 LT ISZERO ISZERO PUSH2 0x6D0 JUMPI INVALID JUMPDEST SWAP1 PUSH1 0x0 MSTORE PUSH1 0x20 PUSH1 0x0 KECCAK256 ADD PUSH1 0x0 SWAP1 SLOAD SWAP1 PUSH2 0x100 EXP SWAP1 DIV PUSH20 0xFFFFFFFFFFFFFFFFFFFFFFFFFFFFFFFFFFFFFFFF AND PUSH20 0xFFFFFFFFFFFFFFFFFFFFFFFFFFFFFFFFFFFFFFFF AND PUSH20 0xFFFFFFFFFFFFFFFFFFFFFFFFFFFFFFFFFFFFFFFF AND DUP2 MSTORE PUSH1 0x20 ADD SWAP1 DUP2 MSTORE PUSH1 0x20 ADD PUSH1 0x0 KECCAK256 PUSH1 0x2 ADD PUSH1 0x1 PUSH2 0x100 EXP DUP2 SLOAD DUP2 PUSH20 0xFFFFFFFFFFFFFFFFFFFFFFFFFFFFFFFFFFFFFFFF MUL NOT AND SWAP1 DUP4 PUSH20 0xFFFFFFFFFFFFFFFFFFFFFFFFFFFFFFFFFFFFFFFF AND MUL OR SWAP1 SSTORE POP PUSH1 0x1 DUP3 DUP2 SLOAD DUP2 LT ISZERO ISZERO PUSH2 0x785 JUMPI INVALID JUMPDEST SWAP1 PUSH1 0x0 MSTORE PUSH1 0x20 PUSH1 0x0 KECCAK256 ADD PUSH1 0x0 SWAP1 SLOAD SWAP1 PUSH2 0x100 EXP SWAP1 DIV PUSH20 0xFFFFFFFFFFFFFFFFFFFFFFFFFFFFFFFFFFFFFFFF AND PUSH1 0x0 DUP1 CALLER PUSH20 0xFFFFFFFFFFFFFFFFFFFFFFFFFFFFFFFFFFFFFFFF AND PUSH20 0xFFFFFFFFFFFFFFFFFFFFFFFFFFFFFFFFFFFFFFFF AND DUP2 MSTORE PUSH1 0x20 ADD SWAP1 DUP2 MSTORE PUSH1 0x20 ADD PUSH1 0x0 KECCAK256 PUSH1 0x2 ADD PUSH1 0x1 PUSH2 0x100 EXP DUP2 SLOAD DUP2 PUSH20 0xFFFFFFFFFFFFFFFFFFFFFFFFFFFFFFFFFFFFFFFF MUL NOT AND SWAP1 DUP4 PUSH20 0xFFFFFFFFFFFFFFFFFFFFFFFFFFFFFFFFFFFFFFFF AND MUL OR SWAP1 SSTORE POP DUP1 PUSH1 0x0 DUP1 CALLER PUSH20 0xFFFFFFFFFFFFFFFFFFFFFFFFFFFFFFFFFFFFFFFF AND PUSH20 0xFFFFFFFFFFFFFFFFFFFFFFFFFFFFFFFFFFFFFFFF AND DUP2 MSTORE PUSH1 0x20 ADD SWAP1 DUP2 MSTORE PUSH1 0x20 ADD PUSH1 0x0 KECCAK256 PUSH1 0x7 ADD DUP2 SWAP1 SSTORE POP DUP1 PUSH1 0x0 DUP1 PUSH1 0x1 DUP6 DUP2 SLOAD DUP2 LT ISZERO ISZERO PUSH2 0x888 JUMPI INVALID JUMPDEST SWAP1 PUSH1 0x0 MSTORE PUSH1 0x20 PUSH1 0x0 KECCAK256 ADD PUSH1 0x0 SWAP1 SLOAD SWAP1 PUSH2 0x100 EXP SWAP1 DIV PUSH20 0xFFFFFFFFFFFFFFFFFFFFFFFFFFFFFFFFFFFFFFFF AND PUSH20 0xFFFFFFFFFFFFFFFFFFFFFFFFFFFFFFFFFFFFFFFF AND PUSH20 0xFFFFFFFFFFFFFFFFFFFFFFFFFFFFFFFFFFFFFFFF AND DUP2 MSTORE PUSH1 0x20 ADD SWAP1 DUP2 MSTORE PUSH1 0x20 ADD PUSH1 0x0 KECCAK256 PUSH1 0x7 ADD DUP2 SWAP1 SSTORE POP PUSH1 0x0 DUP1 PUSH1 0x0 CALLER PUSH20 0xFFFFFFFFFFFFFFFFFFFFFFFFFFFFFFFFFFFFFFFF AND PUSH20 0xFFFFFFFFFFFFFFFFFFFFFFFFFFFFFFFFFFFFFFFF AND DUP2 MSTORE PUSH1 0x20 ADD SWAP1 DUP2 MSTORE PUSH1 0x20 ADD PUSH1 0x0 KECCAK256 PUSH1 0x8 ADD PUSH1 0x0 PUSH2 0x100 EXP DUP2 SLOAD DUP2 PUSH1 0xFF MUL NOT AND SWAP1 DUP4 ISZERO ISZERO MUL OR SWAP1 SSTORE POP PUSH1 0x0 DUP1 PUSH1 0x0 DUP1 PUSH1 0x0 CALLER PUSH20 0xFFFFFFFFFFFFFFFFFFFFFFFFFFFFFFFFFFFFFFFF AND PUSH20 0xFFFFFFFFFFFFFFFFFFFFFFFFFFFFFFFFFFFFFFFF AND DUP2 MSTORE PUSH1 0x20 ADD SWAP1 DUP2 MSTORE PUSH1 0x20 ADD PUSH1 0x0 KECCAK256 PUSH1 0x2 ADD PUSH1 0x1 SWAP1 SLOAD SWAP1 PUSH2 0x100 EXP SWAP1 DIV PUSH20 0xFFFFFFFFFFFFFFFFFFFFFFFFFFFFFFFFFFFFFFFF AND PUSH20 0xFFFFFFFFFFFFFFFFFFFFFFFFFFFFFFFFFFFFFFFF AND PUSH20 0xFFFFFFFFFFFFFFFFFFFFFFFFFFFFFFFFFFFFFFFF AND DUP2 MSTORE PUSH1 0x20 ADD SWAP1 DUP2 MSTORE PUSH1 0x20 ADD PUSH1 0x0 KECCAK256 PUSH1 0x8 ADD PUSH1 0x0 PUSH2 0x100 EXP DUP2 SLOAD DUP2 PUSH1 0xFF MUL NOT AND SWAP1 DUP4 ISZERO ISZERO MUL OR SWAP1 SSTORE POP PUSH32 0xD492064EDF7FCAC5D4CF828F131AFA14B0A5784D8BFDB01853E176CF5B0E2EC3 DUP3 DUP3 PUSH1 0x40 MLOAD PUSH2 0xA3A SWAP3 SWAP2 SWAP1 PUSH2 0x46D8 JUMP JUMPDEST PUSH1 0x40 MLOAD DUP1 SWAP2 SUB SWAP1 LOG1 POP POP JUMP JUMPDEST PUSH1 0x0 PUSH1 0x1 ISZERO ISZERO PUSH1 0x0 DUP1 CALLER PUSH20 0xFFFFFFFFFFFFFFFFFFFFFFFFFFFFFFFFFFFFFFFF AND PUSH20 0xFFFFFFFFFFFFFFFFFFFFFFFFFFFFFFFFFFFFFFFF AND DUP2 MSTORE PUSH1 0x20 ADD SWAP1 DUP2 MSTORE PUSH1 0x20 ADD PUSH1 0x0 KECCAK256 PUSH1 0x0 ADD PUSH1 0x0 SWAP1 SLOAD SWAP1 PUSH2 0x100 EXP SWAP1 DIV PUSH1 0xFF AND ISZERO ISZERO EQ ISZERO ISZERO PUSH2 0xADF JUMPI PUSH1 0x40 MLOAD PUSH32 0x8C379A000000000000000000000000000000000000000000000000000000000 DUP2 MSTORE PUSH1 0x4 ADD PUSH2 0xAD6 SWAP1 PUSH2 0x4623 JUMP JUMPDEST PUSH1 0x40 MLOAD DUP1 SWAP2 SUB SWAP1 REVERT JUMPDEST PUSH1 0x2 DUP1 DUP2 GT ISZERO PUSH2 0xAEB JUMPI INVALID JUMPDEST PUSH1 0x0 DUP1 CALLER PUSH20 0xFFFFFFFFFFFFFFFFFFFFFFFFFFFFFFFFFFFFFFFF AND PUSH20 0xFFFFFFFFFFFFFFFFFFFFFFFFFFFFFFFFFFFFFFFF AND DUP2 MSTORE PUSH1 0x20 ADD SWAP1 DUP2 MSTORE PUSH1 0x20 ADD PUSH1 0x0 KECCAK256 PUSH1 0x2 ADD PUSH1 0x0 SWAP1 SLOAD SWAP1 PUSH2 0x100 EXP SWAP1 DIV PUSH1 0xFF AND PUSH1 0x2 DUP2 GT ISZERO PUSH2 0xB45 JUMPI INVALID JUMPDEST EQ ISZERO ISZERO PUSH2 0xB87 JUMPI PUSH1 0x40 MLOAD PUSH32 0x8C379A000000000000000000000000000000000000000000000000000000000 DUP2 MSTORE PUSH1 0x4 ADD PUSH2 0xB7E SWAP1 PUSH2 0x4483 JUMP JUMPDEST PUSH1 0x40 MLOAD DUP1 SWAP2 SUB SWAP1 REVERT JUMPDEST PUSH1 0x0 SWAP1 POP JUMPDEST PUSH1 0x1 DUP1 SLOAD SWAP1 POP DUP2 LT ISZERO PUSH2 0xF42 JUMPI PUSH1 0x0 PUSH20 0xFFFFFFFFFFFFFFFFFFFFFFFFFFFFFFFFFFFFFFFF AND PUSH1 0x0 DUP1 PUSH1 0x1 DUP5 DUP2 SLOAD DUP2 LT ISZERO ISZERO PUSH2 0xBC3 JUMPI INVALID JUMPDEST SWAP1 PUSH1 0x0 MSTORE PUSH1 0x20 PUSH1 0x0 KECCAK256 ADD PUSH1 0x0 SWAP1 SLOAD SWAP1 PUSH2 0x100 EXP SWAP1 DIV PUSH20 0xFFFFFFFFFFFFFFFFFFFFFFFFFFFFFFFFFFFFFFFF AND PUSH20 0xFFFFFFFFFFFFFFFFFFFFFFFFFFFFFFFFFFFFFFFF AND PUSH20 0xFFFFFFFFFFFFFFFFFFFFFFFFFFFFFFFFFFFFFFFF AND DUP2 MSTORE PUSH1 0x20 ADD SWAP1 DUP2 MSTORE PUSH1 0x20 ADD PUSH1 0x0 KECCAK256 PUSH1 0x2 ADD PUSH1 0x1 SWAP1 SLOAD SWAP1 PUSH2 0x100 EXP SWAP1 DIV PUSH20 0xFFFFFFFFFFFFFFFFFFFFFFFFFFFFFFFFFFFFFFFF AND PUSH20 0xFFFFFFFFFFFFFFFFFFFFFFFFFFFFFFFFFFFFFFFF AND EQ DUP1 ISZERO PUSH2 0xD0C JUMPI POP PUSH1 0x1 PUSH1 0x2 DUP2 GT ISZERO PUSH2 0xC77 JUMPI INVALID JUMPDEST PUSH1 0x0 DUP1 PUSH1 0x1 DUP5 DUP2 SLOAD DUP2 LT ISZERO ISZERO PUSH2 0xC89 JUMPI INVALID JUMPDEST SWAP1 PUSH1 0x0 MSTORE PUSH1 0x20 PUSH1 0x0 KECCAK256 ADD PUSH1 0x0 SWAP1 SLOAD SWAP1 PUSH2 0x100 EXP SWAP1 DIV PUSH20 0xFFFFFFFFFFFFFFFFFFFFFFFFFFFFFFFFFFFFFFFF AND PUSH20 0xFFFFFFFFFFFFFFFFFFFFFFFFFFFFFFFFFFFFFFFF AND PUSH20 0xFFFFFFFFFFFFFFFFFFFFFFFFFFFFFFFFFFFFFFFF AND DUP2 MSTORE PUSH1 0x20 ADD SWAP1 DUP2 MSTORE PUSH1 0x20 ADD PUSH1 0x0 KECCAK256 PUSH1 0x2 ADD PUSH1 0x0 SWAP1 SLOAD SWAP1 PUSH2 0x100 EXP SWAP1 DIV PUSH1 0xFF AND PUSH1 0x2 DUP2 GT ISZERO PUSH2 0xD0A JUMPI INVALID JUMPDEST EQ JUMPDEST ISZERO PUSH2 0xF35 JUMPI PUSH32 0x371A7676BA1A3C7F898DEECEE12F15ABF07A92560AF6D3F0A10F35D07189084F PUSH1 0x0 DUP1 PUSH1 0x1 DUP5 DUP2 SLOAD DUP2 LT ISZERO ISZERO PUSH2 0xD44 JUMPI INVALID JUMPDEST SWAP1 PUSH1 0x0 MSTORE PUSH1 0x20 PUSH1 0x0 KECCAK256 ADD PUSH1 0x0 SWAP1 SLOAD SWAP1 PUSH2 0x100 EXP SWAP1 DIV PUSH20 0xFFFFFFFFFFFFFFFFFFFFFFFFFFFFFFFFFFFFFFFF AND PUSH20 0xFFFFFFFFFFFFFFFFFFFFFFFFFFFFFFFFFFFFFFFF AND PUSH20 0xFFFFFFFFFFFFFFFFFFFFFFFFFFFFFFFFFFFFFFFF AND DUP2 MSTORE PUSH1 0x20 ADD SWAP1 DUP2 MSTORE PUSH1 0x20 ADD PUSH1 0x0 KECCAK256 PUSH1 0x1 ADD SLOAD PUSH1 0x0 DUP1 PUSH1 0x1 DUP6 DUP2 SLOAD DUP2 LT ISZERO ISZERO PUSH2 0xDBF JUMPI INVALID JUMPDEST SWAP1 PUSH1 0x0 MSTORE PUSH1 0x20 PUSH1 0x0 KECCAK256 ADD PUSH1 0x0 SWAP1 SLOAD SWAP1 PUSH2 0x100 EXP SWAP1 DIV PUSH20 0xFFFFFFFFFFFFFFFFFFFFFFFFFFFFFFFFFFFFFFFF AND PUSH20 0xFFFFFFFFFFFFFFFFFFFFFFFFFFFFFFFFFFFFFFFF AND PUSH20 0xFFFFFFFFFFFFFFFFFFFFFFFFFFFFFFFFFFFFFFFF AND DUP2 MSTORE PUSH1 0x20 ADD SWAP1 DUP2 MSTORE PUSH1 0x20 ADD PUSH1 0x0 KECCAK256 PUSH1 0x3 ADD PUSH1 0x0 DUP1 PUSH1 0x1 DUP7 DUP2 SLOAD DUP2 LT ISZERO ISZERO PUSH2 0xE39 JUMPI INVALID JUMPDEST SWAP1 PUSH1 0x0 MSTORE PUSH1 0x20 PUSH1 0x0 KECCAK256 ADD PUSH1 0x0 SWAP1 SLOAD SWAP1 PUSH2 0x100 EXP SWAP1 DIV PUSH20 0xFFFFFFFFFFFFFFFFFFFFFFFFFFFFFFFFFFFFFFFF AND PUSH20 0xFFFFFFFFFFFFFFFFFFFFFFFFFFFFFFFFFFFFFFFF AND PUSH20 0xFFFFFFFFFFFFFFFFFFFFFFFFFFFFFFFFFFFFFFFF AND DUP2 MSTORE PUSH1 0x20 ADD SWAP1 DUP2 MSTORE PUSH1 0x20 ADD PUSH1 0x0 KECCAK256 PUSH1 0x5 ADD PUSH1 0x0 DUP1 PUSH1 0x1 DUP8 DUP2 SLOAD DUP2 LT ISZERO ISZERO PUSH2 0xEB3 JUMPI INVALID JUMPDEST SWAP1 PUSH1 0x0 MSTORE PUSH1 0x20 PUSH1 0x0 KECCAK256 ADD PUSH1 0x0 SWAP1 SLOAD SWAP1 PUSH2 0x100 EXP SWAP1 DIV PUSH20 0xFFFFFFFFFFFFFFFFFFFFFFFFFFFFFFFFFFFFFFFF AND PUSH20 0xFFFFFFFFFFFFFFFFFFFFFFFFFFFFFFFFFFFFFFFF AND PUSH20 0xFFFFFFFFFFFFFFFFFFFFFFFFFFFFFFFFFFFFFFFF AND DUP2 MSTORE PUSH1 0x20 ADD SWAP1 DUP2 MSTORE PUSH1 0x20 ADD PUSH1 0x0 KECCAK256 PUSH1 0x9 ADD SLOAD PUSH1 0x40 MLOAD PUSH2 0xF2C SWAP5 SWAP4 SWAP3 SWAP2 SWAP1 PUSH2 0x4693 JUMP JUMPDEST PUSH1 0x40 MLOAD DUP1 SWAP2 SUB SWAP1 LOG1 JUMPDEST DUP1 DUP1 PUSH1 0x1 ADD SWAP2 POP POP PUSH2 0xB8C JUMP JUMPDEST POP JUMP JUMPDEST PUSH1 0x1 ISZERO ISZERO PUSH1 0x0 DUP1 CALLER PUSH20 0xFFFFFFFFFFFFFFFFFFFFFFFFFFFFFFFFFFFFFFFF AND PUSH20 0xFFFFFFFFFFFFFFFFFFFFFFFFFFFFFFFFFFFFFFFF AND DUP2 MSTORE PUSH1 0x20 ADD SWAP1 DUP2 MSTORE PUSH1 0x20 ADD PUSH1 0x0 KECCAK256 PUSH1 0x0 ADD PUSH1 0x0 SWAP1 SLOAD SWAP1 PUSH2 0x100 EXP SWAP1 DIV PUSH1 0xFF AND ISZERO ISZERO EQ ISZERO ISZERO PUSH2 0xFDC JUMPI PUSH1 0x40 MLOAD PUSH32 0x8C379A000000000000000000000000000000000000000000000000000000000 DUP2 MSTORE PUSH1 0x4 ADD PUSH2 0xFD3 SWAP1 PUSH2 0x4523 JUMP JUMPDEST PUSH1 0x40 MLOAD DUP1 SWAP2 SUB SWAP1 REVERT JUMPDEST PUSH1 0x0 PUSH1 0x2 DUP2 GT ISZERO PUSH2 0xFE9 JUMPI INVALID JUMPDEST PUSH1 0x0 DUP1 CALLER PUSH20 0xFFFFFFFFFFFFFFFFFFFFFFFFFFFFFFFFFFFFFFFF AND PUSH20 0xFFFFFFFFFFFFFFFFFFFFFFFFFFFFFFFFFFFFFFFF AND DUP2 MSTORE PUSH1 0x20 ADD SWAP1 DUP2 MSTORE PUSH1 0x20 ADD PUSH1 0x0 KECCAK256 PUSH1 0x2 ADD PUSH1 0x0 SWAP1 SLOAD SWAP1 PUSH2 0x100 EXP SWAP1 DIV PUSH1 0xFF AND PUSH1 0x2 DUP2 GT ISZERO PUSH2 0x1043 JUMPI INVALID JUMPDEST EQ ISZERO ISZERO ISZERO PUSH2 0x1086 JUMPI PUSH1 0x40 MLOAD PUSH32 0x8C379A000000000000000000000000000000000000000000000000000000000 DUP2 MSTORE PUSH1 0x4 ADD PUSH2 0x107D SWAP1 PUSH2 0x45A3 JUMP JUMPDEST PUSH1 0x40 MLOAD DUP1 SWAP2 SUB SWAP1 REVERT JUMPDEST PUSH1 0x0 CALLVALUE LT ISZERO ISZERO ISZERO PUSH2 0x10CC JUMPI PUSH1 0x40 MLOAD PUSH32 0x8C379A000000000000000000000000000000000000000000000000000000000 DUP2 MSTORE PUSH1 0x4 ADD PUSH2 0x10C3 SWAP1 PUSH2 0x4423 JUMP JUMPDEST PUSH1 0x40 MLOAD DUP1 SWAP2 SUB SWAP1 REVERT JUMPDEST PUSH1 0x1 ISZERO ISZERO PUSH1 0x0 DUP1 CALLER PUSH20 0xFFFFFFFFFFFFFFFFFFFFFFFFFFFFFFFFFFFFFFFF AND PUSH20 0xFFFFFFFFFFFFFFFFFFFFFFFFFFFFFFFFFFFFFFFF AND DUP2 MSTORE PUSH1 0x20 ADD SWAP1 DUP2 MSTORE PUSH1 0x20 ADD PUSH1 0x0 KECCAK256 PUSH1 0x8 ADD PUSH1 0x1 SWAP1 SLOAD SWAP1 PUSH2 0x100 EXP SWAP1 DIV PUSH1 0xFF AND ISZERO ISZERO EQ ISZERO PUSH2 0x1254 JUMPI PUSH32 0x5B1B690B017B49E02E426B145EC66A70F4259C7A0A7BFB5609363922CEC65EEF PUSH1 0x0 DUP1 CALLER PUSH20 0xFFFFFFFFFFFFFFFFFFFFFFFFFFFFFFFFFFFFFFFF AND PUSH20 0xFFFFFFFFFFFFFFFFFFFFFFFFFFFFFFFFFFFFFFFF AND DUP2 MSTORE PUSH1 0x20 ADD SWAP1 DUP2 MSTORE PUSH1 0x20 ADD PUSH1 0x0 KECCAK256 PUSH1 0x1 ADD SLOAD PUSH1 0x0 DUP1 DUP1 PUSH1 0x0 CALLER PUSH20 0xFFFFFFFFFFFFFFFFFFFFFFFFFFFFFFFFFFFFFFFF AND PUSH20 0xFFFFFFFFFFFFFFFFFFFFFFFFFFFFFFFFFFFFFFFF AND DUP2 MSTORE PUSH1 0x20 ADD SWAP1 DUP2 MSTORE PUSH1 0x20 ADD PUSH1 0x0 KECCAK256 PUSH1 0x2 ADD PUSH1 0x1 SWAP1 SLOAD SWAP1 PUSH2 0x100 EXP SWAP1 DIV PUSH20 0xFFFFFFFFFFFFFFFFFFFFFFFFFFFFFFFFFFFFFFFF AND PUSH20 0xFFFFFFFFFFFFFFFFFFFFFFFFFFFFFFFFFFFFFFFF AND PUSH20 0xFFFFFFFFFFFFFFFFFFFFFFFFFFFFFFFFFFFFFFFF AND DUP2 MSTORE PUSH1 0x20 ADD SWAP1 DUP2 MSTORE PUSH1 0x20 ADD PUSH1 0x0 KECCAK256 PUSH1 0x1 ADD SLOAD PUSH1 0x0 PUSH1 0x40 MLOAD PUSH2 0x123E SWAP4 SWAP3 SWAP2 SWAP1 PUSH2 0x4701 JUMP JUMPDEST PUSH1 0x40 MLOAD DUP1 SWAP2 SUB SWAP1 LOG1 PUSH2 0x124F CALLER PUSH2 0x3738 JUMP JUMPDEST PUSH2 0x18C0 JUMP JUMPDEST PUSH1 0x1 PUSH1 0x2 DUP2 GT ISZERO PUSH2 0x1261 JUMPI INVALID JUMPDEST PUSH1 0x0 DUP1 CALLER PUSH20 0xFFFFFFFFFFFFFFFFFFFFFFFFFFFFFFFFFFFFFFFF AND PUSH20 0xFFFFFFFFFFFFFFFFFFFFFFFFFFFFFFFFFFFFFFFF AND DUP2 MSTORE PUSH1 0x20 ADD SWAP1 DUP2 MSTORE PUSH1 0x20 ADD PUSH1 0x0 KECCAK256 PUSH1 0x2 ADD PUSH1 0x0 SWAP1 SLOAD SWAP1 PUSH2 0x100 EXP SWAP1 DIV PUSH1 0xFF AND PUSH1 0x2 DUP2 GT ISZERO PUSH2 0x12BB JUMPI INVALID JUMPDEST EQ ISZERO PUSH2 0x15C2 JUMPI PUSH1 0x0 ISZERO ISZERO PUSH1 0x0 DUP1 CALLER PUSH20 0xFFFFFFFFFFFFFFFFFFFFFFFFFFFFFFFFFFFFFFFF AND PUSH20 0xFFFFFFFFFFFFFFFFFFFFFFFFFFFFFFFFFFFFFFFF AND DUP2 MSTORE PUSH1 0x20 ADD SWAP1 DUP2 MSTORE PUSH1 0x20 ADD PUSH1 0x0 KECCAK256 PUSH1 0x8 ADD PUSH1 0x0 SWAP1 SLOAD SWAP1 PUSH2 0x100 EXP SWAP1 DIV PUSH1 0xFF AND ISZERO ISZERO EQ DUP1 ISZERO PUSH2 0x1363 JUMPI POP PUSH1 0x0 DUP1 CALLER PUSH20 0xFFFFFFFFFFFFFFFFFFFFFFFFFFFFFFFFFFFFFFFF AND PUSH20 0xFFFFFFFFFFFFFFFFFFFFFFFFFFFFFFFFFFFFFFFF AND DUP2 MSTORE PUSH1 0x20 ADD SWAP1 DUP2 MSTORE PUSH1 0x20 ADD PUSH1 0x0 KECCAK256 PUSH1 0x7 ADD SLOAD TIMESTAMP GT JUMPDEST ISZERO PUSH2 0x1495 JUMPI PUSH32 0x5B1B690B017B49E02E426B145EC66A70F4259C7A0A7BFB5609363922CEC65EEF PUSH1 0x0 DUP1 CALLER PUSH20 0xFFFFFFFFFFFFFFFFFFFFFFFFFFFFFFFFFFFFFFFF AND PUSH20 0xFFFFFFFFFFFFFFFFFFFFFFFFFFFFFFFFFFFFFFFF AND DUP2 MSTORE PUSH1 0x20 ADD SWAP1 DUP2 MSTORE PUSH1 0x20 ADD PUSH1 0x0 KECCAK256 PUSH1 0x1 ADD SLOAD PUSH1 0x0 DUP1 DUP1 PUSH1 0x0 CALLER PUSH20 0xFFFFFFFFFFFFFFFFFFFFFFFFFFFFFFFFFFFFFFFF AND PUSH20 0xFFFFFFFFFFFFFFFFFFFFFFFFFFFFFFFFFFFFFFFF AND DUP2 MSTORE PUSH1 0x20 ADD SWAP1 DUP2 MSTORE PUSH1 0x20 ADD PUSH1 0x0 KECCAK256 PUSH1 0x2 ADD PUSH1 0x1 SWAP1 SLOAD SWAP1 PUSH2 0x100 EXP SWAP1 DIV PUSH20 0xFFFFFFFFFFFFFFFFFFFFFFFFFFFFFFFFFFFFFFFF AND PUSH20 0xFFFFFFFFFFFFFFFFFFFFFFFFFFFFFFFFFFFFFFFF AND PUSH20 0xFFFFFFFFFFFFFFFFFFFFFFFFFFFFFFFFFFFFFFFF AND DUP2 MSTORE PUSH1 0x20 ADD SWAP1 DUP2 MSTORE PUSH1 0x20 ADD PUSH1 0x0 KECCAK256 PUSH1 0x1 ADD SLOAD PUSH1 0x0 PUSH1 0x40 MLOAD PUSH2 0x147F SWAP4 SWAP3 SWAP2 SWAP1 PUSH2 0x4701 JUMP JUMPDEST PUSH1 0x40 MLOAD DUP1 SWAP2 SUB SWAP1 LOG1 PUSH2 0x1490 CALLER PUSH2 0x3738 JUMP JUMPDEST PUSH2 0x15BD JUMP JUMPDEST PUSH32 0x5B1B690B017B49E02E426B145EC66A70F4259C7A0A7BFB5609363922CEC65EEF PUSH1 0x0 DUP1 CALLER PUSH20 0xFFFFFFFFFFFFFFFFFFFFFFFFFFFFFFFFFFFFFFFF AND PUSH20 0xFFFFFFFFFFFFFFFFFFFFFFFFFFFFFFFFFFFFFFFF AND DUP2 MSTORE PUSH1 0x20 ADD SWAP1 DUP2 MSTORE PUSH1 0x20 ADD PUSH1 0x0 KECCAK256 PUSH1 0x1 ADD SLOAD PUSH1 0x0 DUP1 DUP1 PUSH1 0x0 CALLER PUSH20 0xFFFFFFFFFFFFFFFFFFFFFFFFFFFFFFFFFFFFFFFF AND PUSH20 0xFFFFFFFFFFFFFFFFFFFFFFFFFFFFFFFFFFFFFFFF AND DUP2 MSTORE PUSH1 0x20 ADD SWAP1 DUP2 MSTORE PUSH1 0x20 ADD PUSH1 0x0 KECCAK256 PUSH1 0x2 ADD PUSH1 0x1 SWAP1 SLOAD SWAP1 PUSH2 0x100 EXP SWAP1 DIV PUSH20 0xFFFFFFFFFFFFFFFFFFFFFFFFFFFFFFFFFFFFFFFF AND PUSH20 0xFFFFFFFFFFFFFFFFFFFFFFFFFFFFFFFFFFFFFFFF AND PUSH20 0xFFFFFFFFFFFFFFFFFFFFFFFFFFFFFFFFFFFFFFFF AND DUP2 MSTORE PUSH1 0x20 ADD SWAP1 DUP2 MSTORE PUSH1 0x20 ADD PUSH1 0x0 KECCAK256 PUSH1 0x1 ADD SLOAD CALLVALUE PUSH1 0x40 MLOAD PUSH2 0x15AB SWAP4 SWAP3 SWAP2 SWAP1 PUSH2 0x4738 JUMP JUMPDEST PUSH1 0x40 MLOAD DUP1 SWAP2 SUB SWAP1 LOG1 PUSH2 0x15BC CALLER PUSH2 0x3738 JUMP JUMPDEST JUMPDEST PUSH2 0x18BF JUMP JUMPDEST PUSH1 0x1 ISZERO ISZERO PUSH1 0x0 DUP1 CALLER PUSH20 0xFFFFFFFFFFFFFFFFFFFFFFFFFFFFFFFFFFFFFFFF AND PUSH20 0xFFFFFFFFFFFFFFFFFFFFFFFFFFFFFFFFFFFFFFFF AND DUP2 MSTORE PUSH1 0x20 ADD SWAP1 DUP2 MSTORE PUSH1 0x20 ADD PUSH1 0x0 KECCAK256 PUSH1 0x8 ADD PUSH1 0x0 SWAP1 SLOAD SWAP1 PUSH2 0x100 EXP SWAP1 DIV PUSH1 0xFF AND ISZERO ISZERO EQ DUP1 ISZERO PUSH2 0x1664 JUMPI POP PUSH1 0x0 DUP1 CALLER PUSH20 0xFFFFFFFFFFFFFFFFFFFFFFFFFFFFFFFFFFFFFFFF AND PUSH20 0xFFFFFFFFFFFFFFFFFFFFFFFFFFFFFFFFFFFFFFFF AND DUP2 MSTORE PUSH1 0x20 ADD SWAP1 DUP2 MSTORE PUSH1 0x20 ADD PUSH1 0x0 KECCAK256 PUSH1 0x7 ADD SLOAD TIMESTAMP GT JUMPDEST ISZERO PUSH2 0x1796 JUMPI PUSH32 0x5B1B690B017B49E02E426B145EC66A70F4259C7A0A7BFB5609363922CEC65EEF PUSH1 0x0 DUP1 CALLER PUSH20 0xFFFFFFFFFFFFFFFFFFFFFFFFFFFFFFFFFFFFFFFF AND PUSH20 0xFFFFFFFFFFFFFFFFFFFFFFFFFFFFFFFFFFFFFFFF AND DUP2 MSTORE PUSH1 0x20 ADD SWAP1 DUP2 MSTORE PUSH1 0x20 ADD PUSH1 0x0 KECCAK256 PUSH1 0x1 ADD SLOAD PUSH1 0x0 DUP1 DUP1 PUSH1 0x0 CALLER PUSH20 0xFFFFFFFFFFFFFFFFFFFFFFFFFFFFFFFFFFFFFFFF AND PUSH20 0xFFFFFFFFFFFFFFFFFFFFFFFFFFFFFFFFFFFFFFFF AND DUP2 MSTORE PUSH1 0x20 ADD SWAP1 DUP2 MSTORE PUSH1 0x20 ADD PUSH1 0x0 KECCAK256 PUSH1 0x2 ADD PUSH1 0x1 SWAP1 SLOAD SWAP1 PUSH2 0x100 EXP SWAP1 DIV PUSH20 0xFFFFFFFFFFFFFFFFFFFFFFFFFFFFFFFFFFFFFFFF AND PUSH20 0xFFFFFFFFFFFFFFFFFFFFFFFFFFFFFFFFFFFFFFFF AND PUSH20 0xFFFFFFFFFFFFFFFFFFFFFFFFFFFFFFFFFFFFFFFF AND DUP2 MSTORE PUSH1 0x20 ADD SWAP1 DUP2 MSTORE PUSH1 0x20 ADD PUSH1 0x0 KECCAK256 PUSH1 0x1 ADD SLOAD PUSH1 0x0 PUSH1 0x40 MLOAD PUSH2 0x1780 SWAP4 SWAP3 SWAP2 SWAP1 PUSH2 0x4701 JUMP JUMPDEST PUSH1 0x40 MLOAD DUP1 SWAP2 SUB SWAP1 LOG1 PUSH2 0x1791 CALLER PUSH2 0x3738 JUMP JUMPDEST PUSH2 0x18BE JUMP JUMPDEST PUSH32 0x5B1B690B017B49E02E426B145EC66A70F4259C7A0A7BFB5609363922CEC65EEF PUSH1 0x0 DUP1 CALLER PUSH20 0xFFFFFFFFFFFFFFFFFFFFFFFFFFFFFFFFFFFFFFFF AND PUSH20 0xFFFFFFFFFFFFFFFFFFFFFFFFFFFFFFFFFFFFFFFF AND DUP2 MSTORE PUSH1 0x20 ADD SWAP1 DUP2 MSTORE PUSH1 0x20 ADD PUSH1 0x0 KECCAK256 PUSH1 0x1 ADD SLOAD PUSH1 0x0 DUP1 DUP1 PUSH1 0x0 CALLER PUSH20 0xFFFFFFFFFFFFFFFFFFFFFFFFFFFFFFFFFFFFFFFF AND PUSH20 0xFFFFFFFFFFFFFFFFFFFFFFFFFFFFFFFFFFFFFFFF AND DUP2 MSTORE PUSH1 0x20 ADD SWAP1 DUP2 MSTORE PUSH1 0x20 ADD PUSH1 0x0 KECCAK256 PUSH1 0x2 ADD PUSH1 0x1 SWAP1 SLOAD SWAP1 PUSH2 0x100 EXP SWAP1 DIV PUSH20 0xFFFFFFFFFFFFFFFFFFFFFFFFFFFFFFFFFFFFFFFF AND PUSH20 0xFFFFFFFFFFFFFFFFFFFFFFFFFFFFFFFFFFFFFFFF AND PUSH20 0xFFFFFFFFFFFFFFFFFFFFFFFFFFFFFFFFFFFFFFFF AND DUP2 MSTORE PUSH1 0x20 ADD SWAP1 DUP2 MSTORE PUSH1 0x20 ADD PUSH1 0x0 KECCAK256 PUSH1 0x1 ADD SLOAD CALLVALUE PUSH1 0x40 MLOAD PUSH2 0x18AC SWAP4 SWAP3 SWAP2 SWAP1 PUSH2 0x4738 JUMP JUMPDEST PUSH1 0x40 MLOAD DUP1 SWAP2 SUB SWAP1 LOG1 PUSH2 0x18BD CALLER PUSH2 0x3738 JUMP JUMPDEST JUMPDEST JUMPDEST JUMPDEST JUMP JUMPDEST PUSH1 0x0 ISZERO ISZERO PUSH1 0x0 DUP1 CALLER PUSH20 0xFFFFFFFFFFFFFFFFFFFFFFFFFFFFFFFFFFFFFFFF AND PUSH20 0xFFFFFFFFFFFFFFFFFFFFFFFFFFFFFFFFFFFFFFFF AND DUP2 MSTORE PUSH1 0x20 ADD SWAP1 DUP2 MSTORE PUSH1 0x20 ADD PUSH1 0x0 KECCAK256 PUSH1 0x0 ADD PUSH1 0x0 SWAP1 SLOAD SWAP1 PUSH2 0x100 EXP SWAP1 DIV PUSH1 0xFF AND ISZERO ISZERO EQ ISZERO PUSH2 0x1BB0 JUMPI PUSH1 0x1 CALLER SWAP1 DUP1 PUSH1 0x1 DUP2 SLOAD ADD DUP1 DUP3 SSTORE DUP1 SWAP2 POP POP SWAP1 PUSH1 0x1 DUP3 SUB SWAP1 PUSH1 0x0 MSTORE PUSH1 0x20 PUSH1 0x0 KECCAK256 ADD PUSH1 0x0 SWAP1 SWAP2 SWAP3 SWAP1 SWAP2 SWAP1 SWAP2 PUSH2 0x100 EXP DUP2 SLOAD DUP2 PUSH20 0xFFFFFFFFFFFFFFFFFFFFFFFFFFFFFFFFFFFFFFFF MUL NOT AND SWAP1 DUP4 PUSH20 0xFFFFFFFFFFFFFFFFFFFFFFFFFFFFFFFFFFFFFFFF AND MUL OR SWAP1 SSTORE POP POP PUSH2 0x160 PUSH1 0x40 MLOAD SWAP1 DUP2 ADD PUSH1 0x40 MSTORE DUP1 PUSH1 0x1 ISZERO ISZERO DUP2 MSTORE PUSH1 0x20 ADD PUSH1 0x1 DUP1 DUP1 SLOAD SWAP1 POP SUB DUP2 MSTORE PUSH1 0x20 ADD PUSH1 0x2 DUP1 DUP2 GT ISZERO PUSH2 0x19B2 JUMPI INVALID JUMPDEST DUP2 MSTORE PUSH1 0x20 ADD PUSH1 0x0 PUSH20 0xFFFFFFFFFFFFFFFFFFFFFFFFFFFFFFFFFFFFFFFF AND DUP2 MSTORE PUSH1 0x20 ADD PUSH1 0x40 DUP1 MLOAD SWAP1 DUP2 ADD PUSH1 0x40 MSTORE DUP1 PUSH1 0x0 DUP2 MSTORE PUSH1 0x20 ADD PUSH1 0x0 DUP2 MSTORE POP DUP2 MSTORE PUSH1 0x20 ADD PUSH1 0x40 DUP1 MLOAD SWAP1 DUP2 ADD PUSH1 0x40 MSTORE DUP1 PUSH1 0x0 DUP2 MSTORE PUSH1 0x20 ADD PUSH1 0x0 DUP2 MSTORE POP DUP2 MSTORE PUSH1 0x20 ADD PUSH1 0x0 DUP2 MSTORE PUSH1 0x20 ADD PUSH1 0x1 ISZERO ISZERO DUP2 MSTORE PUSH1 0x20 ADD PUSH1 0x0 ISZERO ISZERO DUP2 MSTORE PUSH1 0x20 ADD PUSH1 0x0 DUP2 MSTORE PUSH1 0x20 ADD PUSH1 0x0 DUP2 MSTORE POP PUSH1 0x0 DUP1 CALLER PUSH20 0xFFFFFFFFFFFFFFFFFFFFFFFFFFFFFFFFFFFFFFFF AND PUSH20 0xFFFFFFFFFFFFFFFFFFFFFFFFFFFFFFFFFFFFFFFF AND DUP2 MSTORE PUSH1 0x20 ADD SWAP1 DUP2 MSTORE PUSH1 0x20 ADD PUSH1 0x0 KECCAK256 PUSH1 0x0 DUP3 ADD MLOAD DUP2 PUSH1 0x0 ADD PUSH1 0x0 PUSH2 0x100 EXP DUP2 SLOAD DUP2 PUSH1 0xFF MUL NOT AND SWAP1 DUP4 ISZERO ISZERO MUL OR SWAP1 SSTORE POP PUSH1 0x20 DUP3 ADD MLOAD DUP2 PUSH1 0x1 ADD SSTORE PUSH1 0x40 DUP3 ADD MLOAD DUP2 PUSH1 0x2 ADD PUSH1 0x0 PUSH2 0x100 EXP DUP2 SLOAD DUP2 PUSH1 0xFF MUL NOT AND SWAP1 DUP4 PUSH1 0x2 DUP2 GT ISZERO PUSH2 0x1ABD JUMPI INVALID JUMPDEST MUL OR SWAP1 SSTORE POP PUSH1 0x60 DUP3 ADD MLOAD DUP2 PUSH1 0x2 ADD PUSH1 0x1 PUSH2 0x100 EXP DUP2 SLOAD DUP2 PUSH20 0xFFFFFFFFFFFFFFFFFFFFFFFFFFFFFFFFFFFFFFFF MUL NOT AND SWAP1 DUP4 PUSH20 0xFFFFFFFFFFFFFFFFFFFFFFFFFFFFFFFFFFFFFFFF AND MUL OR SWAP1 SSTORE POP PUSH1 0x80 DUP3 ADD MLOAD DUP2 PUSH1 0x3 ADD PUSH1 0x0 DUP3 ADD MLOAD DUP2 PUSH1 0x0 ADD SSTORE PUSH1 0x20 DUP3 ADD MLOAD DUP2 PUSH1 0x1 ADD SSTORE POP POP PUSH1 0xA0 DUP3 ADD MLOAD DUP2 PUSH1 0x5 ADD PUSH1 0x0 DUP3 ADD MLOAD DUP2 PUSH1 0x0 ADD SSTORE PUSH1 0x20 DUP3 ADD MLOAD DUP2 PUSH1 0x1 ADD SSTORE POP POP PUSH1 0xC0 DUP3 ADD MLOAD DUP2 PUSH1 0x7 ADD SSTORE PUSH1 0xE0 DUP3 ADD MLOAD DUP2 PUSH1 0x8 ADD PUSH1 0x0 PUSH2 0x100 EXP DUP2 SLOAD DUP2 PUSH1 0xFF MUL NOT AND SWAP1 DUP4 ISZERO ISZERO MUL OR SWAP1 SSTORE POP PUSH2 0x100 DUP3 ADD MLOAD DUP2 PUSH1 0x8 ADD PUSH1 0x1 PUSH2 0x100 EXP DUP2 SLOAD DUP2 PUSH1 0xFF MUL NOT AND SWAP1 DUP4 ISZERO ISZERO MUL OR SWAP1 SSTORE POP PUSH2 0x120 DUP3 ADD MLOAD DUP2 PUSH1 0x9 ADD SSTORE PUSH2 0x140 DUP3 ADD MLOAD DUP2 PUSH1 0xA ADD SSTORE SWAP1 POP POP PUSH2 0x1EFC JUMP JUMPDEST PUSH1 0x2 PUSH1 0x0 DUP1 CALLER PUSH20 0xFFFFFFFFFFFFFFFFFFFFFFFFFFFFFFFFFFFFFFFF AND PUSH20 0xFFFFFFFFFFFFFFFFFFFFFFFFFFFFFFFFFFFFFFFF AND DUP2 MSTORE PUSH1 0x20 ADD SWAP1 DUP2 MSTORE PUSH1 0x20 ADD PUSH1 0x0 KECCAK256 PUSH1 0x2 ADD PUSH1 0x0 PUSH2 0x100 EXP DUP2 SLOAD DUP2 PUSH1 0xFF MUL NOT AND SWAP1 DUP4 PUSH1 0x2 DUP2 GT ISZERO PUSH2 0x1C0E JUMPI INVALID JUMPDEST MUL OR SWAP1 SSTORE POP PUSH1 0x0 DUP1 PUSH1 0x0 CALLER PUSH20 0xFFFFFFFFFFFFFFFFFFFFFFFFFFFFFFFFFFFFFFFF AND PUSH20 0xFFFFFFFFFFFFFFFFFFFFFFFFFFFFFFFFFFFFFFFF AND DUP2 MSTORE PUSH1 0x20 ADD SWAP1 DUP2 MSTORE PUSH1 0x20 ADD PUSH1 0x0 KECCAK256 PUSH1 0x2 ADD PUSH1 0x1 PUSH2 0x100 EXP DUP2 SLOAD DUP2 PUSH20 0xFFFFFFFFFFFFFFFFFFFFFFFFFFFFFFFFFFFFFFFF MUL NOT AND SWAP1 DUP4 PUSH20 0xFFFFFFFFFFFFFFFFFFFFFFFFFFFFFFFFFFFFFFFF AND MUL OR SWAP1 SSTORE POP PUSH1 0x40 DUP1 MLOAD SWAP1 DUP2 ADD PUSH1 0x40 MSTORE DUP1 PUSH1 0x0 DUP2 MSTORE PUSH1 0x20 ADD PUSH1 0x0 DUP2 MSTORE POP PUSH1 0x0 DUP1 CALLER PUSH20 0xFFFFFFFFFFFFFFFFFFFFFFFFFFFFFFFFFFFFFFFF AND PUSH20 0xFFFFFFFFFFFFFFFFFFFFFFFFFFFFFFFFFFFFFFFF AND DUP2 MSTORE PUSH1 0x20 ADD SWAP1 DUP2 MSTORE PUSH1 0x20 ADD PUSH1 0x0 KECCAK256 PUSH1 0x3 ADD PUSH1 0x0 DUP3 ADD MLOAD DUP2 PUSH1 0x0 ADD SSTORE PUSH1 0x20 DUP3 ADD MLOAD DUP2 PUSH1 0x1 ADD SSTORE SWAP1 POP POP PUSH1 0x40 DUP1 MLOAD SWAP1 DUP2 ADD PUSH1 0x40 MSTORE DUP1 PUSH1 0x0 DUP2 MSTORE PUSH1 0x20 ADD PUSH1 0x0 DUP2 MSTORE POP PUSH1 0x0 DUP1 CALLER PUSH20 0xFFFFFFFFFFFFFFFFFFFFFFFFFFFFFFFFFFFFFFFF AND PUSH20 0xFFFFFFFFFFFFFFFFFFFFFFFFFFFFFFFFFFFFFFFF AND DUP2 MSTORE PUSH1 0x20 ADD SWAP1 DUP2 MSTORE PUSH1 0x20 ADD PUSH1 0x0 KECCAK256 PUSH1 0x5 ADD PUSH1 0x0 DUP3 ADD MLOAD DUP2 PUSH1 0x0 ADD SSTORE PUSH1 0x20 DUP3 ADD MLOAD DUP2 PUSH1 0x1 ADD SSTORE SWAP1 POP POP PUSH1 0x0 DUP1 PUSH1 0x0 CALLER PUSH20 0xFFFFFFFFFFFFFFFFFFFFFFFFFFFFFFFFFFFFFFFF AND PUSH20 0xFFFFFFFFFFFFFFFFFFFFFFFFFFFFFFFFFFFFFFFF AND DUP2 MSTORE PUSH1 0x20 ADD SWAP1 DUP2 MSTORE PUSH1 0x20 ADD PUSH1 0x0 KECCAK256 PUSH1 0x9 ADD DUP2 SWAP1 SSTORE POP PUSH1 0x0 DUP1 PUSH1 0x0 CALLER PUSH20 0xFFFFFFFFFFFFFFFFFFFFFFFFFFFFFFFFFFFFFFFF AND PUSH20 0xFFFFFFFFFFFFFFFFFFFFFFFFFFFFFFFFFFFFFFFF AND DUP2 MSTORE PUSH1 0x20 ADD SWAP1 DUP2 MSTORE PUSH1 0x20 ADD PUSH1 0x0 KECCAK256 PUSH1 0x7 ADD DUP2 SWAP1 SSTORE POP PUSH1 0x1 PUSH1 0x0 DUP1 CALLER PUSH20 0xFFFFFFFFFFFFFFFFFFFFFFFFFFFFFFFFFFFFFFFF AND PUSH20 0xFFFFFFFFFFFFFFFFFFFFFFFFFFFFFFFFFFFFFFFF AND DUP2 MSTORE PUSH1 0x20 ADD SWAP1 DUP2 MSTORE PUSH1 0x20 ADD PUSH1 0x0 KECCAK256 PUSH1 0x8 ADD PUSH1 0x0 PUSH2 0x100 EXP DUP2 SLOAD DUP2 PUSH1 0xFF MUL NOT AND SWAP1 DUP4 ISZERO ISZERO MUL OR SWAP1 SSTORE POP PUSH1 0x0 DUP1 PUSH1 0x0 CALLER PUSH20 0xFFFFFFFFFFFFFFFFFFFFFFFFFFFFFFFFFFFFFFFF AND PUSH20 0xFFFFFFFFFFFFFFFFFFFFFFFFFFFFFFFFFFFFFFFF AND DUP2 MSTORE PUSH1 0x20 ADD SWAP1 DUP2 MSTORE PUSH1 0x20 ADD PUSH1 0x0 KECCAK256 PUSH1 0x8 ADD PUSH1 0x1 PUSH2 0x100 EXP DUP2 SLOAD DUP2 PUSH1 0xFF MUL NOT AND SWAP1 DUP4 ISZERO ISZERO MUL OR SWAP1 SSTORE POP PUSH1 0x0 DUP1 PUSH1 0x0 CALLER PUSH20 0xFFFFFFFFFFFFFFFFFFFFFFFFFFFFFFFFFFFFFFFF AND PUSH20 0xFFFFFFFFFFFFFFFFFFFFFFFFFFFFFFFFFFFFFFFF AND DUP2 MSTORE PUSH1 0x20 ADD SWAP1 DUP2 MSTORE PUSH1 0x20 ADD PUSH1 0x0 KECCAK256 PUSH1 0xA ADD DUP2 SWAP1 SSTORE POP JUMPDEST JUMP JUMPDEST PUSH1 0x1 DUP2 DUP2 SLOAD DUP2 LT ISZERO ISZERO PUSH2 0x1F0D JUMPI INVALID JUMPDEST SWAP1 PUSH1 0x0 MSTORE PUSH1 0x20 PUSH1 0x0 KECCAK256 ADD PUSH1 0x0 SWAP2 POP SLOAD SWAP1 PUSH2 0x100 EXP SWAP1 DIV PUSH20 0xFFFFFFFFFFFFFFFFFFFFFFFFFFFFFFFFFFFFFFFF AND DUP2 JUMP JUMPDEST PUSH1 0x0 PUSH1 0x1 ISZERO ISZERO PUSH1 0x0 DUP1 CALLER PUSH20 0xFFFFFFFFFFFFFFFFFFFFFFFFFFFFFFFFFFFFFFFF AND PUSH20 0xFFFFFFFFFFFFFFFFFFFFFFFFFFFFFFFFFFFFFFFF AND DUP2 MSTORE PUSH1 0x20 ADD SWAP1 DUP2 MSTORE PUSH1 0x20 ADD PUSH1 0x0 KECCAK256 PUSH1 0x0 ADD PUSH1 0x0 SWAP1 SLOAD SWAP1 PUSH2 0x100 EXP SWAP1 DIV PUSH1 0xFF AND ISZERO ISZERO EQ ISZERO ISZERO PUSH2 0x1FD5 JUMPI PUSH1 0x40 MLOAD PUSH32 0x8C379A000000000000000000000000000000000000000000000000000000000 DUP2 MSTORE PUSH1 0x4 ADD PUSH2 0x1FCC SWAP1 PUSH2 0x4643 JUMP JUMPDEST PUSH1 0x40 MLOAD DUP1 SWAP2 SUB SWAP1 REVERT JUMPDEST PUSH1 0x2 DUP1 DUP2 GT ISZERO PUSH2 0x1FE1 JUMPI INVALID JUMPDEST PUSH1 0x0 DUP1 CALLER PUSH20 0xFFFFFFFFFFFFFFFFFFFFFFFFFFFFFFFFFFFFFFFF AND PUSH20 0xFFFFFFFFFFFFFFFFFFFFFFFFFFFFFFFFFFFFFFFF AND DUP2 MSTORE PUSH1 0x20 ADD SWAP1 DUP2 MSTORE PUSH1 0x20 ADD PUSH1 0x0 KECCAK256 PUSH1 0x2 ADD PUSH1 0x0 SWAP1 SLOAD SWAP1 PUSH2 0x100 EXP SWAP1 DIV PUSH1 0xFF AND PUSH1 0x2 DUP2 GT ISZERO PUSH2 0x203B JUMPI INVALID JUMPDEST EQ ISZERO ISZERO PUSH2 0x207D JUMPI PUSH1 0x40 MLOAD PUSH32 0x8C379A000000000000000000000000000000000000000000000000000000000 DUP2 MSTORE PUSH1 0x4 ADD PUSH2 0x2074 SWAP1 PUSH2 0x44E3 JUMP JUMPDEST PUSH1 0x40 MLOAD DUP1 SWAP2 SUB SWAP1 REVERT JUMPDEST PUSH1 0x0 PUSH20 0xFFFFFFFFFFFFFFFFFFFFFFFFFFFFFFFFFFFFFFFF AND PUSH1 0x0 DUP1 CALLER PUSH20 0xFFFFFFFFFFFFFFFFFFFFFFFFFFFFFFFFFFFFFFFF AND PUSH20 0xFFFFFFFFFFFFFFFFFFFFFFFFFFFFFFFFFFFFFFFF AND DUP2 MSTORE PUSH1 0x20 ADD SWAP1 DUP2 MSTORE PUSH1 0x20 ADD PUSH1 0x0 KECCAK256 PUSH1 0x2 ADD PUSH1 0x1 SWAP1 SLOAD SWAP1 PUSH2 0x100 EXP SWAP1 DIV PUSH20 0xFFFFFFFFFFFFFFFFFFFFFFFFFFFFFFFFFFFFFFFF AND PUSH20 0xFFFFFFFFFFFFFFFFFFFFFFFFFFFFFFFFFFFFFFFF AND EQ ISZERO ISZERO ISZERO PUSH2 0x2150 JUMPI PUSH1 0x40 MLOAD PUSH32 0x8C379A000000000000000000000000000000000000000000000000000000000 DUP2 MSTORE PUSH1 0x4 ADD PUSH2 0x2147 SWAP1 PUSH2 0x4603 JUMP JUMPDEST PUSH1 0x40 MLOAD DUP1 SWAP2 SUB SWAP1 REVERT JUMPDEST PUSH1 0x0 DUP1 CALLER PUSH20 0xFFFFFFFFFFFFFFFFFFFFFFFFFFFFFFFFFFFFFFFF AND PUSH20 0xFFFFFFFFFFFFFFFFFFFFFFFFFFFFFFFFFFFFFFFF AND DUP2 MSTORE PUSH1 0x20 ADD SWAP1 DUP2 MSTORE PUSH1 0x20 ADD PUSH1 0x0 KECCAK256 PUSH1 0x7 ADD SLOAD TIMESTAMP GT ISZERO ISZERO ISZERO PUSH2 0x21D6 JUMPI PUSH1 0x40 MLOAD PUSH32 0x8C379A000000000000000000000000000000000000000000000000000000000 DUP2 MSTORE PUSH1 0x4 ADD PUSH2 0x21CD SWAP1 PUSH2 0x4543 JUMP JUMPDEST PUSH1 0x40 MLOAD DUP1 SWAP2 SUB SWAP1 REVERT JUMPDEST PUSH1 0x0 DUP1 DUP1 PUSH1 0x0 CALLER PUSH20 0xFFFFFFFFFFFFFFFFFFFFFFFFFFFFFFFFFFFFFFFF AND PUSH20 0xFFFFFFFFFFFFFFFFFFFFFFFFFFFFFFFFFFFFFFFF AND DUP2 MSTORE PUSH1 0x20 ADD SWAP1 DUP2 MSTORE PUSH1 0x20 ADD PUSH1 0x0 KECCAK256 PUSH1 0x2 ADD PUSH1 0x1 SWAP1 SLOAD SWAP1 PUSH2 0x100 EXP SWAP1 DIV PUSH20 0xFFFFFFFFFFFFFFFFFFFFFFFFFFFFFFFFFFFFFFFF AND PUSH20 0xFFFFFFFFFFFFFFFFFFFFFFFFFFFFFFFFFFFFFFFF AND PUSH20 0xFFFFFFFFFFFFFFFFFFFFFFFFFFFFFFFFFFFFFFFF AND DUP2 MSTORE PUSH1 0x20 ADD SWAP1 DUP2 MSTORE PUSH1 0x20 ADD PUSH1 0x0 KECCAK256 PUSH1 0x3 ADD PUSH1 0x1 ADD SLOAD DUP3 PUSH1 0x1 DUP2 MLOAD DUP2 LT ISZERO ISZERO PUSH2 0x228B JUMPI INVALID JUMPDEST SWAP1 PUSH1 0x20 ADD SWAP1 PUSH1 0x20 MUL ADD MLOAD SUB PUSH1 0x0 DUP1 DUP1 PUSH1 0x0 CALLER PUSH20 0xFFFFFFFFFFFFFFFFFFFFFFFFFFFFFFFFFFFFFFFF AND PUSH20 0xFFFFFFFFFFFFFFFFFFFFFFFFFFFFFFFFFFFFFFFF AND DUP2 MSTORE PUSH1 0x20 ADD SWAP1 DUP2 MSTORE PUSH1 0x20 ADD PUSH1 0x0 KECCAK256 PUSH1 0x2 ADD PUSH1 0x1 SWAP1 SLOAD SWAP1 PUSH2 0x100 EXP SWAP1 DIV PUSH20 0xFFFFFFFFFFFFFFFFFFFFFFFFFFFFFFFFFFFFFFFF AND PUSH20 0xFFFFFFFFFFFFFFFFFFFFFFFFFFFFFFFFFFFFFFFF AND PUSH20 0xFFFFFFFFFFFFFFFFFFFFFFFFFFFFFFFFFFFFFFFF AND DUP2 MSTORE PUSH1 0x20 ADD SWAP1 DUP2 MSTORE PUSH1 0x20 ADD PUSH1 0x0 KECCAK256 PUSH1 0x3 ADD PUSH1 0x1 ADD SLOAD DUP4 PUSH1 0x1 DUP2 MLOAD DUP2 LT ISZERO ISZERO PUSH2 0x234B JUMPI INVALID JUMPDEST SWAP1 PUSH1 0x20 ADD SWAP1 PUSH1 0x20 MUL ADD MLOAD SUB MUL PUSH1 0x0 DUP1 DUP1 PUSH1 0x0 CALLER PUSH20 0xFFFFFFFFFFFFFFFFFFFFFFFFFFFFFFFFFFFFFFFF AND PUSH20 0xFFFFFFFFFFFFFFFFFFFFFFFFFFFFFFFFFFFFFFFF AND DUP2 MSTORE PUSH1 0x20 ADD SWAP1 DUP2 MSTORE PUSH1 0x20 ADD PUSH1 0x0 KECCAK256 PUSH1 0x2 ADD PUSH1 0x1 SWAP1 SLOAD SWAP1 PUSH2 0x100 EXP SWAP1 DIV PUSH20 0xFFFFFFFFFFFFFFFFFFFFFFFFFFFFFFFFFFFFFFFF AND PUSH20 0xFFFFFFFFFFFFFFFFFFFFFFFFFFFFFFFFFFFFFFFF AND PUSH20 0xFFFFFFFFFFFFFFFFFFFFFFFFFFFFFFFFFFFFFFFF AND DUP2 MSTORE PUSH1 0x20 ADD SWAP1 DUP2 MSTORE PUSH1 0x20 ADD PUSH1 0x0 KECCAK256 PUSH1 0x3 ADD PUSH1 0x0 ADD SLOAD DUP4 PUSH1 0x0 DUP2 MLOAD DUP2 LT ISZERO ISZERO PUSH2 0x240C JUMPI INVALID JUMPDEST SWAP1 PUSH1 0x20 ADD SWAP1 PUSH1 0x20 MUL ADD MLOAD SUB PUSH1 0x0 DUP1 DUP1 PUSH1 0x0 CALLER PUSH20 0xFFFFFFFFFFFFFFFFFFFFFFFFFFFFFFFFFFFFFFFF AND PUSH20 0xFFFFFFFFFFFFFFFFFFFFFFFFFFFFFFFFFFFFFFFF AND DUP2 MSTORE PUSH1 0x20 ADD SWAP1 DUP2 MSTORE PUSH1 0x20 ADD PUSH1 0x0 KECCAK256 PUSH1 0x2 ADD PUSH1 0x1 SWAP1 SLOAD SWAP1 PUSH2 0x100 EXP SWAP1 DIV PUSH20 0xFFFFFFFFFFFFFFFFFFFFFFFFFFFFFFFFFFFFFFFF AND PUSH20 0xFFFFFFFFFFFFFFFFFFFFFFFFFFFFFFFFFFFFFFFF AND PUSH20 0xFFFFFFFFFFFFFFFFFFFFFFFFFFFFFFFFFFFFFFFF AND DUP2 MSTORE PUSH1 0x20 ADD SWAP1 DUP2 MSTORE PUSH1 0x20 ADD PUSH1 0x0 KECCAK256 PUSH1 0x3 ADD PUSH1 0x0 ADD SLOAD DUP5 PUSH1 0x0 DUP2 MLOAD DUP2 LT ISZERO ISZERO PUSH2 0x24CC JUMPI INVALID JUMPDEST SWAP1 PUSH1 0x20 ADD SWAP1 PUSH1 0x20 MUL ADD MLOAD SUB MUL ADD SWAP1 POP PUSH3 0xCFE1DA DUP2 SGT ISZERO ISZERO ISZERO PUSH2 0x2523 JUMPI PUSH1 0x40 MLOAD PUSH32 0x8C379A000000000000000000000000000000000000000000000000000000000 DUP2 MSTORE PUSH1 0x4 ADD PUSH2 0x251A SWAP1 PUSH2 0x4583 JUMP JUMPDEST PUSH1 0x40 MLOAD DUP1 SWAP2 SUB SWAP1 REVERT JUMPDEST PUSH1 0x1 PUSH1 0x0 DUP1 CALLER PUSH20 0xFFFFFFFFFFFFFFFFFFFFFFFFFFFFFFFFFFFFFFFF AND PUSH20 0xFFFFFFFFFFFFFFFFFFFFFFFFFFFFFFFFFFFFFFFF AND DUP2 MSTORE PUSH1 0x20 ADD SWAP1 DUP2 MSTORE PUSH1 0x20 ADD PUSH1 0x0 KECCAK256 PUSH1 0x8 ADD PUSH1 0x0 PUSH2 0x100 EXP DUP2 SLOAD DUP2 PUSH1 0xFF MUL NOT AND SWAP1 DUP4 ISZERO ISZERO MUL OR SWAP1 SSTORE POP PUSH1 0x1 PUSH1 0x0 DUP1 DUP1 PUSH1 0x0 CALLER PUSH20 0xFFFFFFFFFFFFFFFFFFFFFFFFFFFFFFFFFFFFFFFF AND PUSH20 0xFFFFFFFFFFFFFFFFFFFFFFFFFFFFFFFFFFFFFFFF AND DUP2 MSTORE PUSH1 0x20 ADD SWAP1 DUP2 MSTORE PUSH1 0x20 ADD PUSH1 0x0 KECCAK256 PUSH1 0x2 ADD PUSH1 0x1 SWAP1 SLOAD SWAP1 PUSH2 0x100 EXP SWAP1 DIV PUSH20 0xFFFFFFFFFFFFFFFFFFFFFFFFFFFFFFFFFFFFFFFF AND PUSH20 0xFFFFFFFFFFFFFFFFFFFFFFFFFFFFFFFFFFFFFFFF AND PUSH20 0xFFFFFFFFFFFFFFFFFFFFFFFFFFFFFFFFFFFFFFFF AND DUP2 MSTORE PUSH1 0x20 ADD SWAP1 DUP2 MSTORE PUSH1 0x20 ADD PUSH1 0x0 KECCAK256 PUSH1 0x8 ADD PUSH1 0x0 PUSH2 0x100 EXP DUP2 SLOAD DUP2 PUSH1 0xFF MUL NOT AND SWAP1 DUP4 ISZERO ISZERO MUL OR SWAP1 SSTORE POP PUSH32 0xFECC381FCCA04C8371DAC7B0998F7810A51C75D32ACBB1F415CEB7215B2965B5 PUSH1 0x0 DUP1 DUP1 PUSH1 0x0 CALLER PUSH20 0xFFFFFFFFFFFFFFFFFFFFFFFFFFFFFFFFFFFFFFFF AND PUSH20 0xFFFFFFFFFFFFFFFFFFFFFFFFFFFFFFFFFFFFFFFF AND DUP2 MSTORE PUSH1 0x20 ADD SWAP1 DUP2 MSTORE PUSH1 0x20 ADD PUSH1 0x0 KECCAK256 PUSH1 0x2 ADD PUSH1 0x1 SWAP1 SLOAD SWAP1 PUSH2 0x100 EXP SWAP1 DIV PUSH20 0xFFFFFFFFFFFFFFFFFFFFFFFFFFFFFFFFFFFFFFFF AND PUSH20 0xFFFFFFFFFFFFFFFFFFFFFFFFFFFFFFFFFFFFFFFF AND PUSH20 0xFFFFFFFFFFFFFFFFFFFFFFFFFFFFFFFFFFFFFFFF AND DUP2 MSTORE PUSH1 0x20 ADD SWAP1 DUP2 MSTORE PUSH1 0x20 ADD PUSH1 0x0 KECCAK256 PUSH1 0x1 ADD SLOAD DUP4 PUSH1 0x40 MLOAD PUSH2 0x270B SWAP3 SWAP2 SWAP1 PUSH2 0x4663 JUMP JUMPDEST PUSH1 0x40 MLOAD DUP1 SWAP2 SUB SWAP1 LOG1 POP POP JUMP JUMPDEST PUSH1 0x0 PUSH1 0x20 MSTORE DUP1 PUSH1 0x0 MSTORE PUSH1 0x40 PUSH1 0x0 KECCAK256 PUSH1 0x0 SWAP2 POP SWAP1 POP DUP1 PUSH1 0x0 ADD PUSH1 0x0 SWAP1 SLOAD SWAP1 PUSH2 0x100 EXP SWAP1 DIV PUSH1 0xFF AND SWAP1 DUP1 PUSH1 0x1 ADD SLOAD SWAP1 DUP1 PUSH1 0x2 ADD PUSH1 0x0 SWAP1 SLOAD SWAP1 PUSH2 0x100 EXP SWAP1 DIV PUSH1 0xFF AND SWAP1 DUP1 PUSH1 0x2 ADD PUSH1 0x1 SWAP1 SLOAD SWAP1 PUSH2 0x100 EXP SWAP1 DIV PUSH20 0xFFFFFFFFFFFFFFFFFFFFFFFFFFFFFFFFFFFFFFFF AND SWAP1 DUP1 PUSH1 0x3 ADD PUSH1 0x40 DUP1 MLOAD SWAP1 DUP2 ADD PUSH1 0x40 MSTORE SWAP1 DUP2 PUSH1 0x0 DUP3 ADD SLOAD DUP2 MSTORE PUSH1 0x20 ADD PUSH1 0x1 DUP3 ADD SLOAD DUP2 MSTORE POP POP SWAP1 DUP1 PUSH1 0x5 ADD PUSH1 0x40 DUP1 MLOAD SWAP1 DUP2 ADD PUSH1 0x40 MSTORE SWAP1 DUP2 PUSH1 0x0 DUP3 ADD SLOAD DUP2 MSTORE PUSH1 0x20 ADD PUSH1 0x1 DUP3 ADD SLOAD DUP2 MSTORE POP POP SWAP1 DUP1 PUSH1 0x7 ADD SLOAD SWAP1 DUP1 PUSH1 0x8 ADD PUSH1 0x0 SWAP1 SLOAD SWAP1 PUSH2 0x100 EXP SWAP1 DIV PUSH1 0xFF AND SWAP1 DUP1 PUSH1 0x8 ADD PUSH1 0x1 SWAP1 SLOAD SWAP1 PUSH2 0x100 EXP SWAP1 DIV PUSH1 0xFF AND SWAP1 DUP1 PUSH1 0x9 ADD SLOAD SWAP1 DUP1 PUSH1 0xA ADD SLOAD SWAP1 POP DUP12 JUMP JUMPDEST PUSH1 0x1 ISZERO ISZERO PUSH1 0x0 DUP1 CALLER PUSH20 0xFFFFFFFFFFFFFFFFFFFFFFFFFFFFFFFFFFFFFFFF AND PUSH20 0xFFFFFFFFFFFFFFFFFFFFFFFFFFFFFFFFFFFFFFFF AND DUP2 MSTORE PUSH1 0x20 ADD SWAP1 DUP2 MSTORE PUSH1 0x20 ADD PUSH1 0x0 KECCAK256 PUSH1 0x0 ADD PUSH1 0x0 SWAP1 SLOAD SWAP1 PUSH2 0x100 EXP SWAP1 DIV PUSH1 0xFF AND ISZERO ISZERO EQ ISZERO ISZERO PUSH2 0x2898 JUMPI PUSH1 0x40 MLOAD PUSH32 0x8C379A000000000000000000000000000000000000000000000000000000000 DUP2 MSTORE PUSH1 0x4 ADD PUSH2 0x288F SWAP1 PUSH2 0x4443 JUMP JUMPDEST PUSH1 0x40 MLOAD DUP1 SWAP2 SUB SWAP1 REVERT JUMPDEST PUSH1 0x1 PUSH1 0x2 DUP2 GT ISZERO PUSH2 0x28A5 JUMPI INVALID JUMPDEST PUSH1 0x0 DUP1 CALLER PUSH20 0xFFFFFFFFFFFFFFFFFFFFFFFFFFFFFFFFFFFFFFFF AND PUSH20 0xFFFFFFFFFFFFFFFFFFFFFFFFFFFFFFFFFFFFFFFF AND DUP2 MSTORE PUSH1 0x20 ADD SWAP1 DUP2 MSTORE PUSH1 0x20 ADD PUSH1 0x0 KECCAK256 PUSH1 0x2 ADD PUSH1 0x0 SWAP1 SLOAD SWAP1 PUSH2 0x100 EXP SWAP1 DIV PUSH1 0xFF AND PUSH1 0x2 DUP2 GT ISZERO PUSH2 0x28FF JUMPI INVALID JUMPDEST EQ ISZERO ISZERO PUSH2 0x2941 JUMPI PUSH1 0x40 MLOAD PUSH32 0x8C379A000000000000000000000000000000000000000000000000000000000 DUP2 MSTORE PUSH1 0x4 ADD PUSH2 0x2938 SWAP1 PUSH2 0x4503 JUMP JUMPDEST PUSH1 0x40 MLOAD DUP1 SWAP2 SUB SWAP1 REVERT JUMPDEST PUSH1 0x0 PUSH20 0xFFFFFFFFFFFFFFFFFFFFFFFFFFFFFFFFFFFFFFFF AND PUSH1 0x0 DUP1 CALLER PUSH20 0xFFFFFFFFFFFFFFFFFFFFFFFFFFFFFFFFFFFFFFFF AND PUSH20 0xFFFFFFFFFFFFFFFFFFFFFFFFFFFFFFFFFFFFFFFF AND DUP2 MSTORE PUSH1 0x20 ADD SWAP1 DUP2 MSTORE PUSH1 0x20 ADD PUSH1 0x0 KECCAK256 PUSH1 0x2 ADD PUSH1 0x1 SWAP1 SLOAD SWAP1 PUSH2 0x100 EXP SWAP1 DIV PUSH20 0xFFFFFFFFFFFFFFFFFFFFFFFFFFFFFFFFFFFFFFFF AND PUSH20 0xFFFFFFFFFFFFFFFFFFFFFFFFFFFFFFFFFFFFFFFF AND EQ ISZERO ISZERO ISZERO PUSH2 0x2A14 JUMPI PUSH1 0x40 MLOAD PUSH32 0x8C379A000000000000000000000000000000000000000000000000000000000 DUP2 MSTORE PUSH1 0x4 ADD PUSH2 0x2A0B SWAP1 PUSH2 0x4463 JUMP JUMPDEST PUSH1 0x40 MLOAD DUP1 SWAP2 SUB SWAP1 REVERT JUMPDEST PUSH1 0x0 DUP1 CALLER PUSH20 0xFFFFFFFFFFFFFFFFFFFFFFFFFFFFFFFFFFFFFFFF AND PUSH20 0xFFFFFFFFFFFFFFFFFFFFFFFFFFFFFFFFFFFFFFFF AND DUP2 MSTORE PUSH1 0x20 ADD SWAP1 DUP2 MSTORE PUSH1 0x20 ADD PUSH1 0x0 KECCAK256 PUSH1 0x9 ADD SLOAD CALLVALUE PUSH1 0x0 DUP1 CALLER PUSH20 0xFFFFFFFFFFFFFFFFFFFFFFFFFFFFFFFFFFFFFFFF AND PUSH20 0xFFFFFFFFFFFFFFFFFFFFFFFFFFFFFFFFFFFFFFFF AND DUP2 MSTORE PUSH1 0x20 ADD SWAP1 DUP2 MSTORE PUSH1 0x20 ADD PUSH1 0x0 KECCAK256 PUSH1 0xA ADD SLOAD ADD GT ISZERO ISZERO ISZERO PUSH2 0x2ADD JUMPI PUSH1 0x40 MLOAD PUSH32 0x8C379A000000000000000000000000000000000000000000000000000000000 DUP2 MSTORE PUSH1 0x4 ADD PUSH2 0x2AD4 SWAP1 PUSH2 0x45C3 JUMP JUMPDEST PUSH1 0x40 MLOAD DUP1 SWAP2 SUB SWAP1 REVERT JUMPDEST PUSH1 0x1 PUSH1 0x0 DUP1 CALLER PUSH20 0xFFFFFFFFFFFFFFFFFFFFFFFFFFFFFFFFFFFFFFFF AND PUSH20 0xFFFFFFFFFFFFFFFFFFFFFFFFFFFFFFFFFFFFFFFF AND DUP2 MSTORE PUSH1 0x20 ADD SWAP1 DUP2 MSTORE PUSH1 0x20 ADD PUSH1 0x0 KECCAK256 PUSH1 0x8 ADD PUSH1 0x1 PUSH2 0x100 EXP DUP2 SLOAD DUP2 PUSH1 0xFF MUL NOT AND SWAP1 DUP4 ISZERO ISZERO MUL OR SWAP1 SSTORE POP PUSH1 0x1 PUSH1 0x0 DUP1 DUP1 PUSH1 0x0 CALLER PUSH20 0xFFFFFFFFFFFFFFFFFFFFFFFFFFFFFFFFFFFFFFFF AND PUSH20 0xFFFFFFFFFFFFFFFFFFFFFFFFFFFFFFFFFFFFFFFF AND DUP2 MSTORE PUSH1 0x20 ADD SWAP1 DUP2 MSTORE PUSH1 0x20 ADD PUSH1 0x0 KECCAK256 PUSH1 0x2 ADD PUSH1 0x1 SWAP1 SLOAD SWAP1 PUSH2 0x100 EXP SWAP1 DIV PUSH20 0xFFFFFFFFFFFFFFFFFFFFFFFFFFFFFFFFFFFFFFFF AND PUSH20 0xFFFFFFFFFFFFFFFFFFFFFFFFFFFFFFFFFFFFFFFF AND PUSH20 0xFFFFFFFFFFFFFFFFFFFFFFFFFFFFFFFFFFFFFFFF AND DUP2 MSTORE PUSH1 0x20 ADD SWAP1 DUP2 MSTORE PUSH1 0x20 ADD PUSH1 0x0 KECCAK256 PUSH1 0x8 ADD PUSH1 0x1 PUSH2 0x100 EXP DUP2 SLOAD DUP2 PUSH1 0xFF MUL NOT AND SWAP1 DUP4 ISZERO ISZERO MUL OR SWAP1 SSTORE POP CALLVALUE PUSH1 0x0 DUP1 CALLER PUSH20 0xFFFFFFFFFFFFFFFFFFFFFFFFFFFFFFFFFFFFFFFF AND PUSH20 0xFFFFFFFFFFFFFFFFFFFFFFFFFFFFFFFFFFFFFFFF AND DUP2 MSTORE PUSH1 0x20 ADD SWAP1 DUP2 MSTORE PUSH1 0x20 ADD PUSH1 0x0 KECCAK256 PUSH1 0xA ADD SLOAD ADD PUSH1 0x0 DUP1 CALLER PUSH20 0xFFFFFFFFFFFFFFFFFFFFFFFFFFFFFFFFFFFFFFFF AND PUSH20 0xFFFFFFFFFFFFFFFFFFFFFFFFFFFFFFFFFFFFFFFF AND DUP2 MSTORE PUSH1 0x20 ADD SWAP1 DUP2 MSTORE PUSH1 0x20 ADD PUSH1 0x0 KECCAK256 PUSH1 0xA ADD DUP2 SWAP1 SSTORE POP PUSH32 0xED8E6F0AB8A4D39CB413959065B15AC270C5BAEC57AEE722C1268880C0B1F3D5 PUSH1 0x0 DUP1 DUP1 PUSH1 0x0 CALLER PUSH20 0xFFFFFFFFFFFFFFFFFFFFFFFFFFFFFFFFFFFFFFFF AND PUSH20 0xFFFFFFFFFFFFFFFFFFFFFFFFFFFFFFFFFFFFFFFF AND DUP2 MSTORE PUSH1 0x20 ADD SWAP1 DUP2 MSTORE PUSH1 0x20 ADD PUSH1 0x0 KECCAK256 PUSH1 0x2 ADD PUSH1 0x1 SWAP1 SLOAD SWAP1 PUSH2 0x100 EXP SWAP1 DIV PUSH20 0xFFFFFFFFFFFFFFFFFFFFFFFFFFFFFFFFFFFFFFFF AND PUSH20 0xFFFFFFFFFFFFFFFFFFFFFFFFFFFFFFFFFFFFFFFF AND PUSH20 0xFFFFFFFFFFFFFFFFFFFFFFFFFFFFFFFFFFFFFFFF AND DUP2 MSTORE PUSH1 0x20 ADD SWAP1 DUP2 MSTORE PUSH1 0x20 ADD PUSH1 0x0 KECCAK256 PUSH1 0x1 ADD SLOAD CALLVALUE PUSH1 0x40 MLOAD PUSH2 0x2D4E SWAP3 SWAP2 SWAP1 PUSH2 0x46D8 JUMP JUMPDEST PUSH1 0x40 MLOAD DUP1 SWAP2 SUB SWAP1 LOG1 PUSH1 0x0 DUP1 CALLER PUSH20 0xFFFFFFFFFFFFFFFFFFFFFFFFFFFFFFFFFFFFFFFF AND PUSH20 0xFFFFFFFFFFFFFFFFFFFFFFFFFFFFFFFFFFFFFFFF AND DUP2 MSTORE PUSH1 0x20 ADD SWAP1 DUP2 MSTORE PUSH1 0x20 ADD PUSH1 0x0 KECCAK256 PUSH1 0x9 ADD SLOAD PUSH1 0x0 DUP1 CALLER PUSH20 0xFFFFFFFFFFFFFFFFFFFFFFFFFFFFFFFFFFFFFFFF AND PUSH20 0xFFFFFFFFFFFFFFFFFFFFFFFFFFFFFFFFFFFFFFFF AND DUP2 MSTORE PUSH1 0x20 ADD SWAP1 DUP2 MSTORE PUSH1 0x20 ADD PUSH1 0x0 KECCAK256 PUSH1 0xA ADD SLOAD EQ ISZERO PUSH2 0x2F73 JUMPI PUSH32 0x5B1B690B017B49E02E426B145EC66A70F4259C7A0A7BFB5609363922CEC65EEF PUSH1 0x0 DUP1 CALLER PUSH20 0xFFFFFFFFFFFFFFFFFFFFFFFFFFFFFFFFFFFFFFFF AND PUSH20 0xFFFFFFFFFFFFFFFFFFFFFFFFFFFFFFFFFFFFFFFF AND DUP2 MSTORE PUSH1 0x20 ADD SWAP1 DUP2 MSTORE PUSH1 0x20 ADD PUSH1 0x0 KECCAK256 PUSH1 0x1 ADD SLOAD PUSH1 0x0 DUP1 DUP1 PUSH1 0x0 CALLER PUSH20 0xFFFFFFFFFFFFFFFFFFFFFFFFFFFFFFFFFFFFFFFF AND PUSH20 0xFFFFFFFFFFFFFFFFFFFFFFFFFFFFFFFFFFFFFFFF AND DUP2 MSTORE PUSH1 0x20 ADD SWAP1 DUP2 MSTORE PUSH1 0x20 ADD PUSH1 0x0 KECCAK256 PUSH1 0x2 ADD PUSH1 0x1 SWAP1 SLOAD SWAP1 PUSH2 0x100 EXP SWAP1 DIV PUSH20 0xFFFFFFFFFFFFFFFFFFFFFFFFFFFFFFFFFFFFFFFF AND PUSH20 0xFFFFFFFFFFFFFFFFFFFFFFFFFFFFFFFFFFFFFFFF AND PUSH20 0xFFFFFFFFFFFFFFFFFFFFFFFFFFFFFFFFFFFFFFFF AND DUP2 MSTORE PUSH1 0x20 ADD SWAP1 DUP2 MSTORE PUSH1 0x20 ADD PUSH1 0x0 KECCAK256 PUSH1 0x1 ADD SLOAD PUSH1 0x0 PUSH1 0x40 MLOAD PUSH2 0x2EF7 SWAP4 SWAP3 SWAP2 SWAP1 PUSH2 0x4701 JUMP JUMPDEST PUSH1 0x40 MLOAD DUP1 SWAP2 SUB SWAP1 LOG1 PUSH2 0x2F69 PUSH1 0x0 DUP1 CALLER PUSH20 0xFFFFFFFFFFFFFFFFFFFFFFFFFFFFFFFFFFFFFFFF AND PUSH20 0xFFFFFFFFFFFFFFFFFFFFFFFFFFFFFFFFFFFFFFFF AND DUP2 MSTORE PUSH1 0x20 ADD SWAP1 DUP2 MSTORE PUSH1 0x20 ADD PUSH1 0x0 KECCAK256 PUSH1 0x2 ADD PUSH1 0x1 SWAP1 SLOAD SWAP1 PUSH2 0x100 EXP SWAP1 DIV PUSH20 0xFFFFFFFFFFFFFFFFFFFFFFFFFFFFFFFFFFFFFFFF AND PUSH2 0x3738 JUMP JUMPDEST PUSH2 0x2F72 CALLER PUSH2 0x3738 JUMP JUMPDEST JUMPDEST JUMP JUMPDEST PUSH1 0x0 ISZERO ISZERO PUSH1 0x0 DUP1 CALLER PUSH20 0xFFFFFFFFFFFFFFFFFFFFFFFFFFFFFFFFFFFFFFFF AND PUSH20 0xFFFFFFFFFFFFFFFFFFFFFFFFFFFFFFFFFFFFFFFF AND DUP2 MSTORE PUSH1 0x20 ADD SWAP1 DUP2 MSTORE PUSH1 0x20 ADD PUSH1 0x0 KECCAK256 PUSH1 0x0 ADD PUSH1 0x0 SWAP1 SLOAD SWAP1 PUSH2 0x100 EXP SWAP1 DIV PUSH1 0xFF AND ISZERO ISZERO EQ ISZERO PUSH2 0x32BF JUMPI PUSH1 0x1 CALLER SWAP1 DUP1 PUSH1 0x1 DUP2 SLOAD ADD DUP1 DUP3 SSTORE DUP1 SWAP2 POP POP SWAP1 PUSH1 0x1 DUP3 SUB SWAP1 PUSH1 0x0 MSTORE PUSH1 0x20 PUSH1 0x0 KECCAK256 ADD PUSH1 0x0 SWAP1 SWAP2 SWAP3 SWAP1 SWAP2 SWAP1 SWAP2 PUSH2 0x100 EXP DUP2 SLOAD DUP2 PUSH20 0xFFFFFFFFFFFFFFFFFFFFFFFFFFFFFFFFFFFFFFFF MUL NOT AND SWAP1 DUP4 PUSH20 0xFFFFFFFFFFFFFFFFFFFFFFFFFFFFFFFFFFFFFFFF AND MUL OR SWAP1 SSTORE POP POP PUSH2 0x160 PUSH1 0x40 MLOAD SWAP1 DUP2 ADD PUSH1 0x40 MSTORE DUP1 PUSH1 0x1 ISZERO ISZERO DUP2 MSTORE PUSH1 0x20 ADD PUSH1 0x1 DUP1 DUP1 SLOAD SWAP1 POP SUB DUP2 MSTORE PUSH1 0x20 ADD PUSH1 0x1 PUSH1 0x2 DUP2 GT ISZERO PUSH2 0x3066 JUMPI INVALID JUMPDEST DUP2 MSTORE PUSH1 0x20 ADD PUSH1 0x0 PUSH20 0xFFFFFFFFFFFFFFFFFFFFFFFFFFFFFFFFFFFFFFFF AND DUP2 MSTORE PUSH1 0x20 ADD PUSH1 0x40 DUP1 MLOAD SWAP1 DUP2 ADD PUSH1 0x40 MSTORE DUP1 DUP7 PUSH1 0x0 DUP2 MLOAD DUP2 LT ISZERO ISZERO PUSH2 0x30A2 JUMPI INVALID JUMPDEST SWAP1 PUSH1 0x20 ADD SWAP1 PUSH1 0x20 MUL ADD MLOAD DUP2 MSTORE PUSH1 0x20 ADD DUP7 PUSH1 0x1 DUP2 MLOAD DUP2 LT ISZERO ISZERO PUSH2 0x30C0 JUMPI INVALID JUMPDEST SWAP1 PUSH1 0x20 ADD SWAP1 PUSH1 0x20 MUL ADD MLOAD DUP2 MSTORE POP DUP2 MSTORE PUSH1 0x20 ADD PUSH1 0x40 DUP1 MLOAD SWAP1 DUP2 ADD PUSH1 0x40 MSTORE DUP1 DUP6 PUSH1 0x0 DUP2 MLOAD DUP2 LT ISZERO ISZERO PUSH2 0x30EC JUMPI INVALID JUMPDEST SWAP1 PUSH1 0x20 ADD SWAP1 PUSH1 0x20 MUL ADD MLOAD DUP2 MSTORE PUSH1 0x20 ADD DUP6 PUSH1 0x1 DUP2 MLOAD DUP2 LT ISZERO ISZERO PUSH2 0x310A JUMPI INVALID JUMPDEST SWAP1 PUSH1 0x20 ADD SWAP1 PUSH1 0x20 MUL ADD MLOAD DUP2 MSTORE POP DUP2 MSTORE PUSH1 0x20 ADD PUSH1 0x0 DUP2 MSTORE PUSH1 0x20 ADD PUSH1 0x0 ISZERO ISZERO DUP2 MSTORE PUSH1 0x20 ADD PUSH1 0x0 ISZERO ISZERO DUP2 MSTORE PUSH1 0x20 ADD DUP3 DUP2 MSTORE PUSH1 0x20 ADD PUSH1 0x0 DUP2 MSTORE POP PUSH1 0x0 DUP1 CALLER PUSH20 0xFFFFFFFFFFFFFFFFFFFFFFFFFFFFFFFFFFFFFFFF AND PUSH20 0xFFFFFFFFFFFFFFFFFFFFFFFFFFFFFFFFFFFFFFFF AND DUP2 MSTORE PUSH1 0x20 ADD SWAP1 DUP2 MSTORE PUSH1 0x20 ADD PUSH1 0x0 KECCAK256 PUSH1 0x0 DUP3 ADD MLOAD DUP2 PUSH1 0x0 ADD PUSH1 0x0 PUSH2 0x100 EXP DUP2 SLOAD DUP2 PUSH1 0xFF MUL NOT AND SWAP1 DUP4 ISZERO ISZERO MUL OR SWAP1 SSTORE POP PUSH1 0x20 DUP3 ADD MLOAD DUP2 PUSH1 0x1 ADD SSTORE PUSH1 0x40 DUP3 ADD MLOAD DUP2 PUSH1 0x2 ADD PUSH1 0x0 PUSH2 0x100 EXP DUP2 SLOAD DUP2 PUSH1 0xFF MUL NOT AND SWAP1 DUP4 PUSH1 0x2 DUP2 GT ISZERO PUSH2 0x31CC JUMPI INVALID JUMPDEST MUL OR SWAP1 SSTORE POP PUSH1 0x60 DUP3 ADD MLOAD DUP2 PUSH1 0x2 ADD PUSH1 0x1 PUSH2 0x100 EXP DUP2 SLOAD DUP2 PUSH20 0xFFFFFFFFFFFFFFFFFFFFFFFFFFFFFFFFFFFFFFFF MUL NOT AND SWAP1 DUP4 PUSH20 0xFFFFFFFFFFFFFFFFFFFFFFFFFFFFFFFFFFFFFFFF AND MUL OR SWAP1 SSTORE POP PUSH1 0x80 DUP3 ADD MLOAD DUP2 PUSH1 0x3 ADD PUSH1 0x0 DUP3 ADD MLOAD DUP2 PUSH1 0x0 ADD SSTORE PUSH1 0x20 DUP3 ADD MLOAD DUP2 PUSH1 0x1 ADD SSTORE POP POP PUSH1 0xA0 DUP3 ADD MLOAD DUP2 PUSH1 0x5 ADD PUSH1 0x0 DUP3 ADD MLOAD DUP2 PUSH1 0x0 ADD SSTORE PUSH1 0x20 DUP3 ADD MLOAD DUP2 PUSH1 0x1 ADD SSTORE POP POP PUSH1 0xC0 DUP3 ADD MLOAD DUP2 PUSH1 0x7 ADD SSTORE PUSH1 0xE0 DUP3 ADD MLOAD DUP2 PUSH1 0x8 ADD PUSH1 0x0 PUSH2 0x100 EXP DUP2 SLOAD DUP2 PUSH1 0xFF MUL NOT AND SWAP1 DUP4 ISZERO ISZERO MUL OR SWAP1 SSTORE POP PUSH2 0x100 DUP3 ADD MLOAD DUP2 PUSH1 0x8 ADD PUSH1 0x1 PUSH2 0x100 EXP DUP2 SLOAD DUP2 PUSH1 0xFF MUL NOT AND SWAP1 DUP4 ISZERO ISZERO MUL OR SWAP1 SSTORE POP PUSH2 0x120 DUP3 ADD MLOAD DUP2 PUSH1 0x9 ADD SSTORE PUSH2 0x140 DUP3 ADD MLOAD DUP2 PUSH1 0xA ADD SSTORE SWAP1 POP POP PUSH2 0x3666 JUMP JUMPDEST PUSH1 0x1 PUSH1 0x0 DUP1 CALLER PUSH20 0xFFFFFFFFFFFFFFFFFFFFFFFFFFFFFFFFFFFFFFFF AND PUSH20 0xFFFFFFFFFFFFFFFFFFFFFFFFFFFFFFFFFFFFFFFF AND DUP2 MSTORE PUSH1 0x20 ADD SWAP1 DUP2 MSTORE PUSH1 0x20 ADD PUSH1 0x0 KECCAK256 PUSH1 0x2 ADD PUSH1 0x0 PUSH2 0x100 EXP DUP2 SLOAD DUP2 PUSH1 0xFF MUL NOT AND SWAP1 DUP4 PUSH1 0x2 DUP2 GT ISZERO PUSH2 0x331D JUMPI INVALID JUMPDEST MUL OR SWAP1 SSTORE POP PUSH1 0x0 DUP1 PUSH1 0x0 CALLER PUSH20 0xFFFFFFFFFFFFFFFFFFFFFFFFFFFFFFFFFFFFFFFF AND PUSH20 0xFFFFFFFFFFFFFFFFFFFFFFFFFFFFFFFFFFFFFFFF AND DUP2 MSTORE PUSH1 0x20 ADD SWAP1 DUP2 MSTORE PUSH1 0x20 ADD PUSH1 0x0 KECCAK256 PUSH1 0x2 ADD PUSH1 0x1 PUSH2 0x100 EXP DUP2 SLOAD DUP2 PUSH20 0xFFFFFFFFFFFFFFFFFFFFFFFFFFFFFFFFFFFFFFFF MUL NOT AND SWAP1 DUP4 PUSH20 0xFFFFFFFFFFFFFFFFFFFFFFFFFFFFFFFFFFFFFFFF AND MUL OR SWAP1 SSTORE POP PUSH1 0x40 DUP1 MLOAD SWAP1 DUP2 ADD PUSH1 0x40 MSTORE DUP1 DUP5 PUSH1 0x0 DUP2 MLOAD DUP2 LT ISZERO ISZERO PUSH2 0x33BD JUMPI INVALID JUMPDEST SWAP1 PUSH1 0x20 ADD SWAP1 PUSH1 0x20 MUL ADD MLOAD DUP2 MSTORE PUSH1 0x20 ADD DUP5 PUSH1 0x1 DUP2 MLOAD DUP2 LT ISZERO ISZERO PUSH2 0x33DB JUMPI INVALID JUMPDEST SWAP1 PUSH1 0x20 ADD SWAP1 PUSH1 0x20 MUL ADD MLOAD DUP2 MSTORE POP PUSH1 0x0 DUP1 CALLER PUSH20 0xFFFFFFFFFFFFFFFFFFFFFFFFFFFFFFFFFFFFFFFF AND PUSH20 0xFFFFFFFFFFFFFFFFFFFFFFFFFFFFFFFFFFFFFFFF AND DUP2 MSTORE PUSH1 0x20 ADD SWAP1 DUP2 MSTORE PUSH1 0x20 ADD PUSH1 0x0 KECCAK256 PUSH1 0x3 ADD PUSH1 0x0 DUP3 ADD MLOAD DUP2 PUSH1 0x0 ADD SSTORE PUSH1 0x20 DUP3 ADD MLOAD DUP2 PUSH1 0x1 ADD SSTORE SWAP1 POP POP PUSH1 0x40 DUP1 MLOAD SWAP1 DUP2 ADD PUSH1 0x40 MSTORE DUP1 DUP4 PUSH1 0x0 DUP2 MLOAD DUP2 LT ISZERO ISZERO PUSH2 0x345A JUMPI INVALID JUMPDEST SWAP1 PUSH1 0x20 ADD SWAP1 PUSH1 0x20 MUL ADD MLOAD DUP2 MSTORE PUSH1 0x20 ADD DUP4 PUSH1 0x1 DUP2 MLOAD DUP2 LT ISZERO ISZERO PUSH2 0x3478 JUMPI INVALID JUMPDEST SWAP1 PUSH1 0x20 ADD SWAP1 PUSH1 0x20 MUL ADD MLOAD DUP2 MSTORE POP PUSH1 0x0 DUP1 CALLER PUSH20 0xFFFFFFFFFFFFFFFFFFFFFFFFFFFFFFFFFFFFFFFF AND PUSH20 0xFFFFFFFFFFFFFFFFFFFFFFFFFFFFFFFFFFFFFFFF AND DUP2 MSTORE PUSH1 0x20 ADD SWAP1 DUP2 MSTORE PUSH1 0x20 ADD PUSH1 0x0 KECCAK256 PUSH1 0x5 ADD PUSH1 0x0 DUP3 ADD MLOAD DUP2 PUSH1 0x0 ADD SSTORE PUSH1 0x20 DUP3 ADD MLOAD DUP2 PUSH1 0x1 ADD SSTORE SWAP1 POP POP DUP1 PUSH1 0x0 DUP1 CALLER PUSH20 0xFFFFFFFFFFFFFFFFFFFFFFFFFFFFFFFFFFFFFFFF AND PUSH20 0xFFFFFFFFFFFFFFFFFFFFFFFFFFFFFFFFFFFFFFFF AND DUP2 MSTORE PUSH1 0x20 ADD SWAP1 DUP2 MSTORE PUSH1 0x20 ADD PUSH1 0x0 KECCAK256 PUSH1 0x9 ADD DUP2 SWAP1 SSTORE POP PUSH1 0x0 DUP1 PUSH1 0x0 CALLER PUSH20 0xFFFFFFFFFFFFFFFFFFFFFFFFFFFFFFFFFFFFFFFF AND PUSH20 0xFFFFFFFFFFFFFFFFFFFFFFFFFFFFFFFFFFFFFFFF AND DUP2 MSTORE PUSH1 0x20 ADD SWAP1 DUP2 MSTORE PUSH1 0x20 ADD PUSH1 0x0 KECCAK256 PUSH1 0x7 ADD DUP2 SWAP1 SSTORE POP PUSH1 0x0 DUP1 PUSH1 0x0 CALLER PUSH20 0xFFFFFFFFFFFFFFFFFFFFFFFFFFFFFFFFFFFFFFFF AND PUSH20 0xFFFFFFFFFFFFFFFFFFFFFFFFFFFFFFFFFFFFFFFF AND DUP2 MSTORE PUSH1 0x20 ADD SWAP1 DUP2 MSTORE PUSH1 0x20 ADD PUSH1 0x0 KECCAK256 PUSH1 0x8 ADD PUSH1 0x0 PUSH2 0x100 EXP DUP2 SLOAD DUP2 PUSH1 0xFF MUL NOT AND SWAP1 DUP4 ISZERO ISZERO MUL OR SWAP1 SSTORE POP PUSH1 0x0 DUP1 PUSH1 0x0 CALLER PUSH20 0xFFFFFFFFFFFFFFFFFFFFFFFFFFFFFFFFFFFFFFFF AND PUSH20 0xFFFFFFFFFFFFFFFFFFFFFFFFFFFFFFFFFFFFFFFF AND DUP2 MSTORE PUSH1 0x20 ADD SWAP1 DUP2 MSTORE PUSH1 0x20 ADD PUSH1 0x0 KECCAK256 PUSH1 0x8 ADD PUSH1 0x1 PUSH2 0x100 EXP DUP2 SLOAD DUP2 PUSH1 0xFF MUL NOT AND SWAP1 DUP4 ISZERO ISZERO MUL OR SWAP1 SSTORE POP PUSH1 0x0 DUP1 PUSH1 0x0 CALLER PUSH20 0xFFFFFFFFFFFFFFFFFFFFFFFFFFFFFFFFFFFFFFFF AND PUSH20 0xFFFFFFFFFFFFFFFFFFFFFFFFFFFFFFFFFFFFFFFF AND DUP2 MSTORE PUSH1 0x20 ADD SWAP1 DUP2 MSTORE PUSH1 0x20 ADD PUSH1 0x0 KECCAK256 PUSH1 0xA ADD DUP2 SWAP1 SSTORE POP JUMPDEST POP POP POP JUMP JUMPDEST PUSH1 0x0 PUSH1 0x1 ISZERO ISZERO PUSH1 0x0 DUP1 CALLER PUSH20 0xFFFFFFFFFFFFFFFFFFFFFFFFFFFFFFFFFFFFFFFF AND PUSH20 0xFFFFFFFFFFFFFFFFFFFFFFFFFFFFFFFFFFFFFFFF AND DUP2 MSTORE PUSH1 0x20 ADD SWAP1 DUP2 MSTORE PUSH1 0x20 ADD PUSH1 0x0 KECCAK256 PUSH1 0x0 ADD PUSH1 0x0 SWAP1 SLOAD SWAP1 PUSH2 0x100 EXP SWAP1 DIV PUSH1 0xFF AND ISZERO ISZERO EQ ISZERO PUSH2 0x3711 JUMPI PUSH1 0x0 DUP1 CALLER PUSH20 0xFFFFFFFFFFFFFFFFFFFFFFFFFFFFFFFFFFFFFFFF AND PUSH20 0xFFFFFFFFFFFFFFFFFFFFFFFFFFFFFFFFFFFFFFFF AND DUP2 MSTORE PUSH1 0x20 ADD SWAP1 DUP2 MSTORE PUSH1 0x20 ADD PUSH1 0x0 KECCAK256 PUSH1 0x1 ADD SLOAD SWAP1 POP PUSH2 0x3735 JUMP JUMPDEST PUSH32 0xFFFFFFFFFFFFFFFFFFFFFFFFFFFFFFFFFFFFFFFFFFFFFFFFFFFFFFFFFFFFFFFF SWAP1 POP JUMPDEST SWAP1 JUMP JUMPDEST PUSH1 0x0 DUP1 PUSH1 0x0 DUP4 PUSH20 0xFFFFFFFFFFFFFFFFFFFFFFFFFFFFFFFFFFFFFFFF AND PUSH20 0xFFFFFFFFFFFFFFFFFFFFFFFFFFFFFFFFFFFFFFFF AND DUP2 MSTORE PUSH1 0x20 ADD SWAP1 DUP2 MSTORE PUSH1 0x20 ADD PUSH1 0x0 KECCAK256 PUSH1 0x2 ADD PUSH1 0x0 PUSH2 0x100 EXP DUP2 SLOAD DUP2 PUSH1 0xFF MUL NOT AND SWAP1 DUP4 PUSH1 0x2 DUP2 GT ISZERO PUSH2 0x3796 JUMPI INVALID JUMPDEST MUL OR SWAP1 SSTORE POP PUSH1 0x0 DUP1 PUSH1 0x0 DUP4 PUSH20 0xFFFFFFFFFFFFFFFFFFFFFFFFFFFFFFFFFFFFFFFF AND PUSH20 0xFFFFFFFFFFFFFFFFFFFFFFFFFFFFFFFFFFFFFFFF AND DUP2 MSTORE PUSH1 0x20 ADD SWAP1 DUP2 MSTORE PUSH1 0x20 ADD PUSH1 0x0 KECCAK256 PUSH1 0x2 ADD PUSH1 0x1 PUSH2 0x100 EXP DUP2 SLOAD DUP2 PUSH20 0xFFFFFFFFFFFFFFFFFFFFFFFFFFFFFFFFFFFFFFFF MUL NOT AND SWAP1 DUP4 PUSH20 0xFFFFFFFFFFFFFFFFFFFFFFFFFFFFFFFFFFFFFFFF AND MUL OR SWAP1 SSTORE POP PUSH1 0x40 DUP1 MLOAD SWAP1 DUP2 ADD PUSH1 0x40 MSTORE DUP1 PUSH1 0x0 DUP2 MSTORE PUSH1 0x20 ADD PUSH1 0x0 DUP2 MSTORE POP PUSH1 0x0 DUP1 DUP4 PUSH20 0xFFFFFFFFFFFFFFFFFFFFFFFFFFFFFFFFFFFFFFFF AND PUSH20 0xFFFFFFFFFFFFFFFFFFFFFFFFFFFFFFFFFFFFFFFF AND DUP2 MSTORE PUSH1 0x20 ADD SWAP1 DUP2 MSTORE PUSH1 0x20 ADD PUSH1 0x0 KECCAK256 PUSH1 0x3 ADD PUSH1 0x0 DUP3 ADD MLOAD DUP2 PUSH1 0x0 ADD SSTORE PUSH1 0x20 DUP3 ADD MLOAD DUP2 PUSH1 0x1 ADD SSTORE SWAP1 POP POP PUSH1 0x40 DUP1 MLOAD SWAP1 DUP2 ADD PUSH1 0x40 MSTORE DUP1 PUSH1 0x0 DUP2 MSTORE PUSH1 0x20 ADD PUSH1 0x0 DUP2 MSTORE POP PUSH1 0x0 DUP1 DUP4 PUSH20 0xFFFFFFFFFFFFFFFFFFFFFFFFFFFFFFFFFFFFFFFF AND PUSH20 0xFFFFFFFFFFFFFFFFFFFFFFFFFFFFFFFFFFFFFFFF AND DUP2 MSTORE PUSH1 0x20 ADD SWAP1 DUP2 MSTORE PUSH1 0x20 ADD PUSH1 0x0 KECCAK256 PUSH1 0x5 ADD PUSH1 0x0 DUP3 ADD MLOAD DUP2 PUSH1 0x0 ADD SSTORE PUSH1 0x20 DUP3 ADD MLOAD DUP2 PUSH1 0x1 ADD SSTORE SWAP1 POP POP PUSH1 0x0 DUP1 PUSH1 0x0 DUP4 PUSH20 0xFFFFFFFFFFFFFFFFFFFFFFFFFFFFFFFFFFFFFFFF AND PUSH20 0xFFFFFFFFFFFFFFFFFFFFFFFFFFFFFFFFFFFFFFFF AND DUP2 MSTORE PUSH1 0x20 ADD SWAP1 DUP2 MSTORE PUSH1 0x20 ADD PUSH1 0x0 KECCAK256 PUSH1 0x7 ADD DUP2 SWAP1 SSTORE POP PUSH1 0x0 DUP1 PUSH1 0x0 DUP4 PUSH20 0xFFFFFFFFFFFFFFFFFFFFFFFFFFFFFFFFFFFFFFFF AND PUSH20 0xFFFFFFFFFFFFFFFFFFFFFFFFFFFFFFFFFFFFFFFF AND DUP2 MSTORE PUSH1 0x20 ADD SWAP1 DUP2 MSTORE PUSH1 0x20 ADD PUSH1 0x0 KECCAK256 PUSH1 0x8 ADD PUSH1 0x0 PUSH2 0x100 EXP DUP2 SLOAD DUP2 PUSH1 0xFF MUL NOT AND SWAP1 DUP4 ISZERO ISZERO MUL OR SWAP1 SSTORE POP PUSH1 0x0 DUP1 PUSH1 0x0 DUP4 PUSH20 0xFFFFFFFFFFFFFFFFFFFFFFFFFFFFFFFFFFFFFFFF AND PUSH20 0xFFFFFFFFFFFFFFFFFFFFFFFFFFFFFFFFFFFFFFFF AND DUP2 MSTORE PUSH1 0x20 ADD SWAP1 DUP2 MSTORE PUSH1 0x20 ADD PUSH1 0x0 KECCAK256 PUSH1 0x8 ADD PUSH1 0x1 PUSH2 0x100 EXP DUP2 SLOAD DUP2 PUSH1 0xFF MUL NOT AND SWAP1 DUP4 ISZERO ISZERO MUL OR SWAP1 SSTORE POP PUSH1 0x0 DUP1 PUSH1 0x0 DUP4 PUSH20 0xFFFFFFFFFFFFFFFFFFFFFFFFFFFFFFFFFFFFFFFF AND PUSH20 0xFFFFFFFFFFFFFFFFFFFFFFFFFFFFFFFFFFFFFFFF AND DUP2 MSTORE PUSH1 0x20 ADD SWAP1 DUP2 MSTORE PUSH1 0x20 ADD PUSH1 0x0 KECCAK256 PUSH1 0x9 ADD DUP2 SWAP1 SSTORE POP PUSH1 0x0 DUP1 PUSH1 0x0 DUP4 PUSH20 0xFFFFFFFFFFFFFFFFFFFFFFFFFFFFFFFFFFFFFFFF AND PUSH20 0xFFFFFFFFFFFFFFFFFFFFFFFFFFFFFFFFFFFFFFFF AND DUP2 MSTORE PUSH1 0x20 ADD SWAP1 DUP2 MSTORE PUSH1 0x20 ADD PUSH1 0x0 KECCAK256 PUSH1 0xA ADD DUP2 SWAP1 SSTORE POP POP JUMP JUMPDEST PUSH1 0x0 PUSH2 0x3A92 DUP3 CALLDATALOAD PUSH2 0x483F JUMP JUMPDEST SWAP1 POP SWAP3 SWAP2 POP POP JUMP JUMPDEST PUSH1 0x0 DUP3 PUSH1 0x1F DUP4 ADD SLT ISZERO ISZERO PUSH2 0x3AAD JUMPI PUSH1 0x0 DUP1 REVERT JUMPDEST DUP2 CALLDATALOAD PUSH2 0x3AC0 PUSH2 0x3ABB DUP3 PUSH2 0x479C JUMP JUMPDEST PUSH2 0x476F JUMP JUMPDEST SWAP2 POP DUP2 DUP2 DUP4 MSTORE PUSH1 0x20 DUP5 ADD SWAP4 POP PUSH1 0x20 DUP2 ADD SWAP1 POP DUP4 DUP6 PUSH1 0x20 DUP5 MUL DUP3 ADD GT ISZERO PUSH2 0x3AE5 JUMPI PUSH1 0x0 DUP1 REVERT JUMPDEST PUSH1 0x0 JUMPDEST DUP4 DUP2 LT ISZERO PUSH2 0x3B15 JUMPI DUP2 PUSH2 0x3AFB DUP9 DUP3 PUSH2 0x3B1F JUMP JUMPDEST DUP5 MSTORE PUSH1 0x20 DUP5 ADD SWAP4 POP PUSH1 0x20 DUP4 ADD SWAP3 POP POP PUSH1 0x1 DUP2 ADD SWAP1 POP PUSH2 0x3AE8 JUMP JUMPDEST POP POP POP POP SWAP3 SWAP2 POP POP JUMP JUMPDEST PUSH1 0x0 PUSH2 0x3B2B DUP3 CALLDATALOAD PUSH2 0x485F JUMP JUMPDEST SWAP1 POP SWAP3 SWAP2 POP POP JUMP JUMPDEST PUSH1 0x0 PUSH2 0x3B3F DUP3 CALLDATALOAD PUSH2 0x4869 JUMP JUMPDEST SWAP1 POP SWAP3 SWAP2 POP POP JUMP JUMPDEST PUSH1 0x0 PUSH1 0x20 DUP3 DUP5 SUB SLT ISZERO PUSH2 0x3B59 JUMPI PUSH1 0x0 DUP1 REVERT JUMPDEST PUSH1 0x0 PUSH2 0x3B67 DUP5 DUP3 DUP6 ADD PUSH2 0x3A86 JUMP JUMPDEST SWAP2 POP POP SWAP3 SWAP2 POP POP JUMP JUMPDEST PUSH1 0x0 PUSH1 0x20 DUP3 DUP5 SUB SLT ISZERO PUSH2 0x3B82 JUMPI PUSH1 0x0 DUP1 REVERT JUMPDEST PUSH1 0x0 DUP3 ADD CALLDATALOAD PUSH8 0xFFFFFFFFFFFFFFFF DUP2 GT ISZERO PUSH2 0x3B9C JUMPI PUSH1 0x0 DUP1 REVERT JUMPDEST PUSH2 0x3BA8 DUP5 DUP3 DUP6 ADD PUSH2 0x3A9A JUMP JUMPDEST SWAP2 POP POP SWAP3 SWAP2 POP POP JUMP JUMPDEST PUSH1 0x0 DUP1 PUSH1 0x0 PUSH1 0x60 DUP5 DUP7 SUB SLT ISZERO PUSH2 0x3BC6 JUMPI PUSH1 0x0 DUP1 REVERT JUMPDEST PUSH1 0x0 DUP5 ADD CALLDATALOAD PUSH8 0xFFFFFFFFFFFFFFFF DUP2 GT ISZERO PUSH2 0x3BE0 JUMPI PUSH1 0x0 DUP1 REVERT JUMPDEST PUSH2 0x3BEC DUP7 DUP3 DUP8 ADD PUSH2 0x3A9A JUMP JUMPDEST SWAP4 POP POP PUSH1 0x20 DUP5 ADD CALLDATALOAD PUSH8 0xFFFFFFFFFFFFFFFF DUP2 GT ISZERO PUSH2 0x3C09 JUMPI PUSH1 0x0 DUP1 REVERT JUMPDEST PUSH2 0x3C15 DUP7 DUP3 DUP8 ADD PUSH2 0x3A9A JUMP JUMPDEST SWAP3 POP POP PUSH1 0x40 PUSH2 0x3C26 DUP7 DUP3 DUP8 ADD PUSH2 0x3B33 JUMP JUMPDEST SWAP2 POP POP SWAP3 POP SWAP3 POP SWAP3 JUMP JUMPDEST PUSH1 0x0 PUSH1 0x20 DUP3 DUP5 SUB SLT ISZERO PUSH2 0x3C42 JUMPI PUSH1 0x0 DUP1 REVERT JUMPDEST PUSH1 0x0 PUSH2 0x3C50 DUP5 DUP3 DUP6 ADD PUSH2 0x3B33 JUMP JUMPDEST SWAP2 POP POP SWAP3 SWAP2 POP POP JUMP JUMPDEST PUSH1 0x0 DUP1 PUSH1 0x40 DUP4 DUP6 SUB SLT ISZERO PUSH2 0x3C6C JUMPI PUSH1 0x0 DUP1 REVERT JUMPDEST PUSH1 0x0 PUSH2 0x3C7A DUP6 DUP3 DUP7 ADD PUSH2 0x3B33 JUMP JUMPDEST SWAP3 POP POP PUSH1 0x20 PUSH2 0x3C8B DUP6 DUP3 DUP7 ADD PUSH2 0x3B33 JUMP JUMPDEST SWAP2 POP POP SWAP3 POP SWAP3 SWAP1 POP JUMP JUMPDEST PUSH2 0x3C9E DUP2 PUSH2 0x47E9 JUMP JUMPDEST DUP3 MSTORE POP POP JUMP JUMPDEST PUSH1 0x0 PUSH2 0x3CAF DUP3 PUSH2 0x47D1 JUMP JUMPDEST DUP1 DUP5 MSTORE PUSH1 0x20 DUP5 ADD SWAP4 POP PUSH2 0x3CC1 DUP4 PUSH2 0x47C4 JUMP JUMPDEST PUSH1 0x0 JUMPDEST DUP3 DUP2 LT ISZERO PUSH2 0x3CF3 JUMPI PUSH2 0x3CD7 DUP7 DUP4 MLOAD PUSH2 0x3D1D JUMP JUMPDEST PUSH2 0x3CE0 DUP3 PUSH2 0x47DC JUMP JUMPDEST SWAP2 POP PUSH1 0x20 DUP7 ADD SWAP6 POP PUSH1 0x1 DUP2 ADD SWAP1 POP PUSH2 0x3CC4 JUMP JUMPDEST POP DUP5 SWAP3 POP POP POP SWAP3 SWAP2 POP POP JUMP JUMPDEST PUSH2 0x3D08 DUP2 PUSH2 0x4809 JUMP JUMPDEST DUP3 MSTORE POP POP JUMP JUMPDEST PUSH2 0x3D17 DUP2 PUSH2 0x4873 JUMP JUMPDEST DUP3 MSTORE POP POP JUMP JUMPDEST PUSH2 0x3D26 DUP2 PUSH2 0x482B JUMP JUMPDEST DUP3 MSTORE POP POP JUMP JUMPDEST PUSH2 0x3D35 DUP2 PUSH2 0x4885 JUMP JUMPDEST DUP3 MSTORE POP POP JUMP JUMPDEST PUSH1 0x0 PUSH1 0x1E DUP3 MSTORE PUSH32 0x4574686572206E65656420746F2062652073656E7420746F2072657365740000 PUSH1 0x20 DUP4 ADD MSTORE PUSH1 0x40 DUP3 ADD SWAP1 POP SWAP2 SWAP1 POP JUMP JUMPDEST PUSH1 0x0 PUSH1 0x18 DUP3 MSTORE PUSH32 0x4E65656420746F2062652061207573657220746F207061790000000000000000 PUSH1 0x20 DUP4 ADD MSTORE PUSH1 0x40 DUP3 ADD SWAP1 POP SWAP2 SWAP1 POP JUMP JUMPDEST PUSH1 0x0 PUSH1 0x2D DUP3 MSTORE PUSH32 0x5269646572206E6565647320746F206861766520616E2061737369676E656420 PUSH1 0x20 DUP4 ADD MSTORE PUSH32 0x64726976657220746F2070617900000000000000000000000000000000000000 PUSH1 0x40 DUP4 ADD MSTORE PUSH1 0x60 DUP3 ADD SWAP1 POP SWAP2 SWAP1 POP JUMP JUMPDEST PUSH1 0x0 PUSH1 0x2D DUP3 MSTORE PUSH32 0x55736572206E6565647320746F20626520696E20647269766572206D6F646520 PUSH1 0x20 DUP4 ADD MSTORE PUSH32 0x746F207069636B20726964657200000000000000000000000000000000000000 PUSH1 0x40 DUP4 ADD MSTORE PUSH1 0x60 DUP3 ADD SWAP1 POP SWAP2 SWAP1 POP JUMP JUMPDEST PUSH1 0x0 PUSH1 0x14 DUP3 MSTORE PUSH32 0x726964657220616C726561647920706169726564000000000000000000000000 PUSH1 0x20 DUP4 ADD MSTORE PUSH1 0x40 DUP3 ADD SWAP1 POP SWAP2 SWAP1 POP JUMP JUMPDEST PUSH1 0x0 PUSH1 0x14 DUP3 MSTORE PUSH32 0x43616E6E6F74207069636B20796F757273656C66000000000000000000000000 PUSH1 0x20 DUP4 ADD MSTORE PUSH1 0x40 DUP3 ADD SWAP1 POP SWAP2 SWAP1 POP JUMP JUMPDEST PUSH1 0x0 PUSH1 0x2F DUP3 MSTORE PUSH32 0x55736572206E6565647320746F20626520696E20647269766572206D6F646520 PUSH1 0x20 DUP4 ADD MSTORE PUSH32 0x746F20696E666F726D2072696465720000000000000000000000000000000000 PUSH1 0x40 DUP4 ADD MSTORE PUSH1 0x60 DUP3 ADD SWAP1 POP SWAP2 SWAP1 POP JUMP JUMPDEST PUSH1 0x0 PUSH1 0x2C DUP3 MSTORE PUSH32 0x55736572206E6565647320746F20626520696E207269646572206D6F64652074 PUSH1 0x20 DUP4 ADD MSTORE PUSH32 0x6F20706179206472697665720000000000000000000000000000000000000000 PUSH1 0x40 DUP4 ADD MSTORE PUSH1 0x60 DUP3 ADD SWAP1 POP SWAP2 SWAP1 POP JUMP JUMPDEST PUSH1 0x0 PUSH1 0x22 DUP3 MSTORE PUSH32 0x4E65656420746F2062652061207573657220746F20636F6D706C657465207269 PUSH1 0x20 DUP4 ADD MSTORE PUSH32 0x6465000000000000000000000000000000000000000000000000000000000000 PUSH1 0x40 DUP4 ADD MSTORE PUSH1 0x60 DUP3 ADD SWAP1 POP SWAP2 SWAP1 POP JUMP JUMPDEST PUSH1 0x0 PUSH1 0x1A DUP3 MSTORE PUSH32 0x596F752061726520746F6F206C61746520746F20617272697665000000000000 PUSH1 0x20 DUP4 ADD MSTORE PUSH1 0x40 DUP3 ADD SWAP1 POP SWAP2 SWAP1 POP JUMP JUMPDEST PUSH1 0x0 PUSH1 0x17 DUP3 MSTORE PUSH32 0x6472697665722063757272656E746C7920706169726564000000000000000000 PUSH1 0x20 DUP4 ADD MSTORE PUSH1 0x40 DUP3 ADD SWAP1 POP SWAP2 SWAP1 POP JUMP JUMPDEST PUSH1 0x0 PUSH1 0x2F DUP3 MSTORE PUSH32 0x596F7520617265206D6F7265207468617420302E32206D696C65732061776179 PUSH1 0x20 DUP4 ADD MSTORE PUSH32 0x2066726F6D207468652072696465720000000000000000000000000000000000 PUSH1 0x40 DUP4 ADD MSTORE PUSH1 0x60 DUP3 ADD SWAP1 POP SWAP2 SWAP1 POP JUMP JUMPDEST PUSH1 0x0 PUSH1 0x2A DUP3 MSTORE PUSH32 0x4E65656420746F20626520616E20616374697665207573657220746F20636F6D PUSH1 0x20 DUP4 ADD MSTORE PUSH32 0x706C657465207269646500000000000000000000000000000000000000000000 PUSH1 0x40 DUP4 ADD MSTORE PUSH1 0x60 DUP3 ADD SWAP1 POP SWAP2 SWAP1 POP JUMP JUMPDEST PUSH1 0x0 PUSH1 0x1D DUP3 MSTORE PUSH32 0x4F76657264726166742066726F6D20696E697469616C20657363726F77000000 PUSH1 0x20 DUP4 ADD MSTORE PUSH1 0x40 DUP3 ADD SWAP1 POP SWAP2 SWAP1 POP JUMP JUMPDEST PUSH1 0x0 PUSH1 0x23 DUP3 MSTORE PUSH32 0x75736572206265696E67207069636B65642068617320746F2062652061207269 PUSH1 0x20 DUP4 ADD MSTORE PUSH32 0x6465720000000000000000000000000000000000000000000000000000000000 PUSH1 0x40 DUP4 ADD MSTORE PUSH1 0x60 DUP3 ADD SWAP1 POP SWAP2 SWAP1 POP JUMP JUMPDEST PUSH1 0x0 PUSH1 0x30 DUP3 MSTORE PUSH32 0x447269766572206E6565647320746F206861766520616E2061737369676E6564 PUSH1 0x20 DUP4 ADD MSTORE PUSH32 0x20726964657220746F20696E666F726D00000000000000000000000000000000 PUSH1 0x40 DUP4 ADD MSTORE PUSH1 0x60 DUP3 ADD SWAP1 POP SWAP2 SWAP1 POP JUMP JUMPDEST PUSH1 0x0 PUSH1 0x21 DUP3 MSTORE PUSH32 0x4E65656420746F2062652061207573657220746F2073656C6563742072696465 PUSH1 0x20 DUP4 ADD MSTORE PUSH32 0x7200000000000000000000000000000000000000000000000000000000000000 PUSH1 0x40 DUP4 ADD MSTORE PUSH1 0x60 DUP3 ADD SWAP1 POP SWAP2 SWAP1 POP JUMP JUMPDEST PUSH1 0x0 PUSH1 0x21 DUP3 MSTORE PUSH32 0x4E65656420746F2062652061207573657220746F20696E666F726D2072696465 PUSH1 0x20 DUP4 ADD MSTORE PUSH32 0x7200000000000000000000000000000000000000000000000000000000000000 PUSH1 0x40 DUP4 ADD MSTORE PUSH1 0x60 DUP3 ADD SWAP1 POP SWAP2 SWAP1 POP JUMP JUMPDEST PUSH1 0x40 DUP3 ADD PUSH1 0x0 DUP3 ADD MLOAD PUSH2 0x42D1 PUSH1 0x0 DUP6 ADD DUP3 PUSH2 0x3D1D JUMP JUMPDEST POP PUSH1 0x20 DUP3 ADD MLOAD PUSH2 0x42E4 PUSH1 0x20 DUP6 ADD DUP3 PUSH2 0x3D1D JUMP JUMPDEST POP POP POP POP JUMP JUMPDEST PUSH1 0x40 DUP3 ADD PUSH1 0x0 DUP1 DUP4 ADD SLOAD SWAP1 POP PUSH2 0x42FF DUP2 PUSH2 0x4897 JUMP JUMPDEST PUSH2 0x430C PUSH1 0x0 DUP7 ADD DUP3 PUSH2 0x3D1D JUMP JUMPDEST POP PUSH1 0x1 DUP4 ADD SLOAD SWAP1 POP PUSH2 0x431D DUP2 PUSH2 0x4897 JUMP JUMPDEST PUSH2 0x432A PUSH1 0x20 DUP7 ADD DUP3 PUSH2 0x3D1D JUMP JUMPDEST POP POP POP POP POP JUMP JUMPDEST PUSH2 0x433A DUP2 PUSH2 0x4835 JUMP JUMPDEST DUP3 MSTORE POP POP JUMP JUMPDEST PUSH1 0x0 PUSH1 0x20 DUP3 ADD SWAP1 POP PUSH2 0x4355 PUSH1 0x0 DUP4 ADD DUP5 PUSH2 0x3C95 JUMP JUMPDEST SWAP3 SWAP2 POP POP JUMP JUMPDEST PUSH1 0x0 PUSH2 0x1A0 DUP3 ADD SWAP1 POP PUSH2 0x4371 PUSH1 0x0 DUP4 ADD DUP15 PUSH2 0x3CFF JUMP JUMPDEST PUSH2 0x437E PUSH1 0x20 DUP4 ADD DUP14 PUSH2 0x4331 JUMP JUMPDEST PUSH2 0x438B PUSH1 0x40 DUP4 ADD DUP13 PUSH2 0x3D0E JUMP JUMPDEST PUSH2 0x4398 PUSH1 0x60 DUP4 ADD DUP12 PUSH2 0x3C95 JUMP JUMPDEST PUSH2 0x43A5 PUSH1 0x80 DUP4 ADD DUP11 PUSH2 0x42BB JUMP JUMPDEST PUSH2 0x43B2 PUSH1 0xC0 DUP4 ADD DUP10 PUSH2 0x42BB JUMP JUMPDEST PUSH2 0x43C0 PUSH2 0x100 DUP4 ADD DUP9 PUSH2 0x4331 JUMP JUMPDEST PUSH2 0x43CE PUSH2 0x120 DUP4 ADD DUP8 PUSH2 0x3CFF JUMP JUMPDEST PUSH2 0x43DC PUSH2 0x140 DUP4 ADD DUP7 PUSH2 0x3CFF JUMP JUMPDEST PUSH2 0x43EA PUSH2 0x160 DUP4 ADD DUP6 PUSH2 0x4331 JUMP JUMPDEST PUSH2 0x43F8 PUSH2 0x180 DUP4 ADD DUP5 PUSH2 0x4331 JUMP JUMPDEST SWAP13 SWAP12 POP POP POP POP POP POP POP POP POP POP POP POP JUMP JUMPDEST PUSH1 0x0 PUSH1 0x20 DUP3 ADD SWAP1 POP PUSH2 0x441D PUSH1 0x0 DUP4 ADD DUP5 PUSH2 0x3D1D JUMP JUMPDEST SWAP3 SWAP2 POP POP JUMP JUMPDEST PUSH1 0x0 PUSH1 0x20 DUP3 ADD SWAP1 POP DUP2 DUP2 SUB PUSH1 0x0 DUP4 ADD MSTORE PUSH2 0x443C DUP2 PUSH2 0x3D3B JUMP JUMPDEST SWAP1 POP SWAP2 SWAP1 POP JUMP JUMPDEST PUSH1 0x0 PUSH1 0x20 DUP3 ADD SWAP1 POP DUP2 DUP2 SUB PUSH1 0x0 DUP4 ADD MSTORE PUSH2 0x445C DUP2 PUSH2 0x3D72 JUMP JUMPDEST SWAP1 POP SWAP2 SWAP1 POP JUMP JUMPDEST PUSH1 0x0 PUSH1 0x20 DUP3 ADD SWAP1 POP DUP2 DUP2 SUB PUSH1 0x0 DUP4 ADD MSTORE PUSH2 0x447C DUP2 PUSH2 0x3DA9 JUMP JUMPDEST SWAP1 POP SWAP2 SWAP1 POP JUMP JUMPDEST PUSH1 0x0 PUSH1 0x20 DUP3 ADD SWAP1 POP DUP2 DUP2 SUB PUSH1 0x0 DUP4 ADD MSTORE PUSH2 0x449C DUP2 PUSH2 0x3E06 JUMP JUMPDEST SWAP1 POP SWAP2 SWAP1 POP JUMP JUMPDEST PUSH1 0x0 PUSH1 0x20 DUP3 ADD SWAP1 POP DUP2 DUP2 SUB PUSH1 0x0 DUP4 ADD MSTORE PUSH2 0x44BC DUP2 PUSH2 0x3E63 JUMP JUMPDEST SWAP1 POP SWAP2 SWAP1 POP JUMP JUMPDEST PUSH1 0x0 PUSH1 0x20 DUP3 ADD SWAP1 POP DUP2 DUP2 SUB PUSH1 0x0 DUP4 ADD MSTORE PUSH2 0x44DC DUP2 PUSH2 0x3E9A JUMP JUMPDEST SWAP1 POP SWAP2 SWAP1 POP JUMP JUMPDEST PUSH1 0x0 PUSH1 0x20 DUP3 ADD SWAP1 POP DUP2 DUP2 SUB PUSH1 0x0 DUP4 ADD MSTORE PUSH2 0x44FC DUP2 PUSH2 0x3ED1 JUMP JUMPDEST SWAP1 POP SWAP2 SWAP1 POP JUMP JUMPDEST PUSH1 0x0 PUSH1 0x20 DUP3 ADD SWAP1 POP DUP2 DUP2 SUB PUSH1 0x0 DUP4 ADD MSTORE PUSH2 0x451C DUP2 PUSH2 0x3F2E JUMP JUMPDEST SWAP1 POP SWAP2 SWAP1 POP JUMP JUMPDEST PUSH1 0x0 PUSH1 0x20 DUP3 ADD SWAP1 POP DUP2 DUP2 SUB PUSH1 0x0 DUP4 ADD MSTORE PUSH2 0x453C DUP2 PUSH2 0x3F8B JUMP JUMPDEST SWAP1 POP SWAP2 SWAP1 POP JUMP JUMPDEST PUSH1 0x0 PUSH1 0x20 DUP3 ADD SWAP1 POP DUP2 DUP2 SUB PUSH1 0x0 DUP4 ADD MSTORE PUSH2 0x455C DUP2 PUSH2 0x3FE8 JUMP JUMPDEST SWAP1 POP SWAP2 SWAP1 POP JUMP JUMPDEST PUSH1 0x0 PUSH1 0x20 DUP3 ADD SWAP1 POP DUP2 DUP2 SUB PUSH1 0x0 DUP4 ADD MSTORE PUSH2 0x457C DUP2 PUSH2 0x401F JUMP JUMPDEST SWAP1 POP SWAP2 SWAP1 POP JUMP JUMPDEST PUSH1 0x0 PUSH1 0x20 DUP3 ADD SWAP1 POP DUP2 DUP2 SUB PUSH1 0x0 DUP4 ADD MSTORE PUSH2 0x459C DUP2 PUSH2 0x4056 JUMP JUMPDEST SWAP1 POP SWAP2 SWAP1 POP JUMP JUMPDEST PUSH1 0x0 PUSH1 0x20 DUP3 ADD SWAP1 POP DUP2 DUP2 SUB PUSH1 0x0 DUP4 ADD MSTORE PUSH2 0x45BC DUP2 PUSH2 0x40B3 JUMP JUMPDEST SWAP1 POP SWAP2 SWAP1 POP JUMP JUMPDEST PUSH1 0x0 PUSH1 0x20 DUP3 ADD SWAP1 POP DUP2 DUP2 SUB PUSH1 0x0 DUP4 ADD MSTORE PUSH2 0x45DC DUP2 PUSH2 0x4110 JUMP JUMPDEST SWAP1 POP SWAP2 SWAP1 POP JUMP JUMPDEST PUSH1 0x0 PUSH1 0x20 DUP3 ADD SWAP1 POP DUP2 DUP2 SUB PUSH1 0x0 DUP4 ADD MSTORE PUSH2 0x45FC DUP2 PUSH2 0x4147 JUMP JUMPDEST SWAP1 POP SWAP2 SWAP1 POP JUMP JUMPDEST PUSH1 0x0 PUSH1 0x20 DUP3 ADD SWAP1 POP DUP2 DUP2 SUB PUSH1 0x0 DUP4 ADD MSTORE PUSH2 0x461C DUP2 PUSH2 0x41A4 JUMP JUMPDEST SWAP1 POP SWAP2 SWAP1 POP JUMP JUMPDEST PUSH1 0x0 PUSH1 0x20 DUP3 ADD SWAP1 POP DUP2 DUP2 SUB PUSH1 0x0 DUP4 ADD MSTORE PUSH2 0x463C DUP2 PUSH2 0x4201 JUMP JUMPDEST SWAP1 POP SWAP2 SWAP1 POP JUMP JUMPDEST PUSH1 0x0 PUSH1 0x20 DUP3 ADD SWAP1 POP DUP2 DUP2 SUB PUSH1 0x0 DUP4 ADD MSTORE PUSH2 0x465C DUP2 PUSH2 0x425E JUMP JUMPDEST SWAP1 POP SWAP2 SWAP1 POP JUMP JUMPDEST PUSH1 0x0 PUSH1 0x40 DUP3 ADD SWAP1 POP PUSH2 0x4678 PUSH1 0x0 DUP4 ADD DUP6 PUSH2 0x4331 JUMP JUMPDEST DUP2 DUP2 SUB PUSH1 0x20 DUP4 ADD MSTORE PUSH2 0x468A DUP2 DUP5 PUSH2 0x3CA4 JUMP JUMPDEST SWAP1 POP SWAP4 SWAP3 POP POP POP JUMP JUMPDEST PUSH1 0x0 PUSH1 0xC0 DUP3 ADD SWAP1 POP PUSH2 0x46A8 PUSH1 0x0 DUP4 ADD DUP8 PUSH2 0x4331 JUMP JUMPDEST PUSH2 0x46B5 PUSH1 0x20 DUP4 ADD DUP7 PUSH2 0x42EA JUMP JUMPDEST PUSH2 0x46C2 PUSH1 0x60 DUP4 ADD DUP6 PUSH2 0x42EA JUMP JUMPDEST PUSH2 0x46CF PUSH1 0xA0 DUP4 ADD DUP5 PUSH2 0x4331 JUMP JUMPDEST SWAP6 SWAP5 POP POP POP POP POP JUMP JUMPDEST PUSH1 0x0 PUSH1 0x40 DUP3 ADD SWAP1 POP PUSH2 0x46ED PUSH1 0x0 DUP4 ADD DUP6 PUSH2 0x4331 JUMP JUMPDEST PUSH2 0x46FA PUSH1 0x20 DUP4 ADD DUP5 PUSH2 0x4331 JUMP JUMPDEST SWAP4 SWAP3 POP POP POP JUMP JUMPDEST PUSH1 0x0 PUSH1 0x60 DUP3 ADD SWAP1 POP PUSH2 0x4716 PUSH1 0x0 DUP4 ADD DUP7 PUSH2 0x4331 JUMP JUMPDEST PUSH2 0x4723 PUSH1 0x20 DUP4 ADD DUP6 PUSH2 0x4331 JUMP JUMPDEST PUSH2 0x4730 PUSH1 0x40 DUP4 ADD DUP5 PUSH2 0x3D2C JUMP JUMPDEST SWAP5 SWAP4 POP POP POP POP JUMP JUMPDEST PUSH1 0x0 PUSH1 0x60 DUP3 ADD SWAP1 POP PUSH2 0x474D PUSH1 0x0 DUP4 ADD DUP7 PUSH2 0x4331 JUMP JUMPDEST PUSH2 0x475A PUSH1 0x20 DUP4 ADD DUP6 PUSH2 0x4331 JUMP JUMPDEST PUSH2 0x4767 PUSH1 0x40 DUP4 ADD DUP5 PUSH2 0x4331 JUMP JUMPDEST SWAP5 SWAP4 POP POP POP POP JUMP JUMPDEST PUSH1 0x0 PUSH1 0x40 MLOAD SWAP1 POP DUP2 DUP2 ADD DUP2 DUP2 LT PUSH8 0xFFFFFFFFFFFFFFFF DUP3 GT OR ISZERO PUSH2 0x4792 JUMPI PUSH1 0x0 DUP1 REVERT JUMPDEST DUP1 PUSH1 0x40 MSTORE POP SWAP2 SWAP1 POP JUMP JUMPDEST PUSH1 0x0 PUSH8 0xFFFFFFFFFFFFFFFF DUP3 GT ISZERO PUSH2 0x47B3 JUMPI PUSH1 0x0 DUP1 REVERT JUMPDEST PUSH1 0x20 DUP3 MUL SWAP1 POP PUSH1 0x20 DUP2 ADD SWAP1 POP SWAP2 SWAP1 POP JUMP JUMPDEST PUSH1 0x0 PUSH1 0x20 DUP3 ADD SWAP1 POP SWAP2 SWAP1 POP JUMP JUMPDEST PUSH1 0x0 DUP2 MLOAD SWAP1 POP SWAP2 SWAP1 POP JUMP JUMPDEST PUSH1 0x0 PUSH1 0x20 DUP3 ADD SWAP1 POP SWAP2 SWAP1 POP JUMP JUMPDEST PUSH1 0x0 PUSH20 0xFFFFFFFFFFFFFFFFFFFFFFFFFFFFFFFFFFFFFFFF DUP3 AND SWAP1 POP SWAP2 SWAP1 POP JUMP JUMPDEST PUSH1 0x0 DUP2 ISZERO ISZERO SWAP1 POP SWAP2 SWAP1 POP JUMP JUMPDEST PUSH1 0x0 PUSH1 0x3 DUP3 LT ISZERO ISZERO PUSH2 0x4823 JUMPI INVALID JUMPDEST DUP2 SWAP1 POP SWAP2 SWAP1 POP JUMP JUMPDEST PUSH1 0x0 DUP2 SWAP1 POP SWAP2 SWAP1 POP JUMP JUMPDEST PUSH1 0x0 DUP2 SWAP1 POP SWAP2 SWAP1 POP JUMP JUMPDEST PUSH1 0x0 PUSH20 0xFFFFFFFFFFFFFFFFFFFFFFFFFFFFFFFFFFFFFFFF DUP3 AND SWAP1 POP SWAP2 SWAP1 POP JUMP JUMPDEST PUSH1 0x0 DUP2 SWAP1 POP SWAP2 SWAP1 POP JUMP JUMPDEST PUSH1 0x0 DUP2 SWAP1 POP SWAP2 SWAP1 POP JUMP JUMPDEST PUSH1 0x0 PUSH2 0x487E DUP3 PUSH2 0x4815 JUMP JUMPDEST SWAP1 POP SWAP2 SWAP1 POP JUMP JUMPDEST PUSH1 0x0 PUSH2 0x4890 DUP3 PUSH2 0x4835 JUMP JUMPDEST SWAP1 POP SWAP2 SWAP1 POP JUMP JUMPDEST PUSH1 0x0 PUSH1 0x1 DUP3 DIV SWAP1 POP SWAP2 SWAP1 POP JUMP STOP LOG2 PUSH6 0x627A7A723058 KECCAK256 EXTCODESIZE CALLCODE PUSH19 0xB00481D3E246643B7FB4280FCC9F387B66E167 PUSH10 0x226EBCBE36A906E9946C PUSH6 0x78706572696D PUSH6 0x6E74616CF500 CALLDATACOPY "
				},
				"gasEstimates": {
					"creation": {
						"codeDepositCost": "3730800",
						"executionCost": "4212",
						"totalCost": "3735012"
					},
					"external": {
						"driveRequest()": "198612",
						"getNumber()": "1199",
						"getWaitingRiders()": "infinite",
						"informRider(int256[])": "infinite",
						"payDriver()": "infinite",
						"pickRider(uint256,uint256)": "infinite",
						"rideRequest(int256[],int256[],uint256)": "infinite",
						"userList(uint256)": "1144",
						"userReset()": "infinite",
						"users(address)": "infinite"
					},
					"internal": {
						"reset(address)": "infinite"
					}
				},
				"methodIdentifiers": {
					"driveRequest()": "9e5d3610",
					"getNumber()": "f2c9ecd8",
					"getWaitingRiders()": "41664ebf",
					"informRider(int256[])": "a7978738",
					"payDriver()": "ba2b3906",
					"pickRider(uint256,uint256)": "315a9f01",
					"rideRequest(int256[],int256[],uint256)": "de9e7da0",
					"userList(uint256)": "9f4216e8",
					"userReset()": "54dee961",
					"users(address)": "a87430ba"
				}
			},
			"userdoc": {
				"methods": {}
			}
		}
	}
}